:100000000C948D010C94D3010C94D3010C94D30166
:100010000C94D3010C94D3010C94D3010C94D30110
:100020000C94D3010C94D3010C9450080C94260921
:100030000C94D3010C94D3010C94D3010C94D301F0
:100040000C94D3010C9439180C94D3010C94D30163
:100050000C94D3010C9404170C94D3010C94D30189
:100060000C94D3010C94D3010C94D3010C94D301C0
:100070000C94D3010C94D3010C94D3010C94D301B0
:100080000C94D3010C94D3010C94D3010C94D301A0
:100090000C94D3010C94D30100F0F1A1E22CE4E123
:1000A000640000051147C045000038000062635835
:1000B000505939E51D1B061910464344363731287F
:1000C000005A5B0000000000000000171C6F704227
:1000D00030002F314D00000057002B00141A081576
:1000E000186E40410C12135F4E6061000029003110
:1000F00035000022236C6D3F2E002D2A494A000056
:10010000560000001E1F2021246B3D3E252627534C
:100110004B545500C1000000041607090D696A3CE4
:100120000E0F335C4C5D5E4FE0E7E3E60000000A33
:100130000B683A3B000034005200005101010101FC
:1001400001000001010101010000010100000000A7
:100150000100010101010101010101010101010190
:100160000000000100010100000000010101010187
:100170000100010101000000000101000101010175
:1001800001010101010101AC01B0AB00000101015D
:100190000100000101010101010001010101000054
:1001A0000001000001010101010101010101010043
:1001B0000100000001010100010101010101010133
:1001C000010101AA01A8A90101010101000000012A
:1001D00001010101000001010100000118034D00AF
:1001E0006F00640065006C005F004D005F0031002F
:1001F0003200320000001A03500068006F007300E4
:10020000700068006F00720047006C006F0077009C
:1002100000000403090409023B00020100A03209A6
:100220000400000103010100092111010001224025
:10023000000705810308000A09040100010300000A
:100240000009211101000122360007058203080080
:100250000A1201100100000008EDFE6060010001BB
:1002600002000105010980A101850216010026B7DF
:10027000001A01002AB700751095018100C0050C15
:100280000901A1018503160100269C021A01002A1A
:100290009C02751095018100C005010906A10105A8
:1002A0000719E029E71500250195087501810295D8
:1002B0000175088101050819012905950575019148
:1002C000029501750391010507190029FF15002604
:1002D000FF00950675088100C000000000000000C6
:1002E00000000000010204060A0F17202C3A4A5DA4
:1002F00071879DB3C7DAE9F5FCFFFCF5E9DAC7B30E
:100300009D87715D4A3A2C20170F0A0604020100EE
:100310000000000000000000000011241FBECFEF0D
:10032000D0E2DEBFCDBF04B603FE24C080910A0236
:1003300090910B02A0910C02B0910D028730904B6E
:10034000A740B04BB9F410920A0210920B0210921F
:100350000C0210920D0214BE84B7877F84BF88E11F
:100360000FB6F89480936000109260000FBEE0E03A
:10037000F0EF099511E0A0E0B1E0ECEFF0E300E070
:100380000BBF02C007900D92A831B107D9F712E058
:10039000A8E1B1E001C01D92AA30B107E1F70E94C7
:1003A00076050C947C180C940000CF92DF92EF92AB
:1003B000FF926C0161113EC00E94341682FF07C09B
:1003C0000E94341684FBEE24E0F8F12C02C0E12CEC
:1003D000F12CE0921801F60192819923F9F0EE20B8
:1003E00059F0C7010E943D160E947316FF90EF90CE
:1003F000DF90CF900C942917C7010E943D1688E426
:1004000090E00E94F1150E9473168091180190E00F
:10041000FF90EF90DF90CF900C943716E1100AC058
:1004200088E490E00E941316FF90EF90DF90CF9049
:100430000C947316FF90EF90DF90CF90089594E1A5
:10044000799FF001112490EA899FE00DF11D11249C
:10045000E60FF11DE456FF4F84910895E82FF0E078
:10046000EE0FFF1FE85EF04025913491C901089519
:1004700081B18F7081B982B18F7082B987B18F706D
:1004800087B988B18F7088B9089585B7806885BFAE
:1004900085B7806885BF0E94380284B1807384B9B3
:1004A00085B18F6C85B98DB187738DB98EB1886C2C
:1004B0008EB980B3817080BB81B38E6F81BB81B1F7
:1004C000807F81B982B18F6082B9E9E1F1E0A9E36F
:1004D000B1E011921192119211921D921D921D92F2
:1004E0001D9281E0E933F807A1F70895CF92DF92DA
:1004F000EF92FF920F931F93CF93DF9369E3C62E82
:1005000061E0D62E7601C0E0C430A9F030F4C230EC
:10051000C1F0A0F4C130D9F417C0C63031F040F0BA
:10052000C730A9F40C9A149814C00D9A159811C0EC
:100530000E9A16980EC00F9A17980BC03F9A4798BC
:1005400008C03E9A469805C03D9A459802C03C9A1C
:10055000449880EA8A95F1F72CB1332727FD30952E
:1005600020953095832F881F8827881F90E0669BF1
:1005700003C020E030E002C022E030E0282B392B1D
:100580001E9B03C040E050E002C044E050E0242B3A
:10059000352B83B1992787FD909580959095882775
:1005A000990F881F992753E0880F991F5A95E1F7F3
:1005B000282B392B1B9B03C080E090E002C080E118
:1005C00090E0282B392B1A9B03C080E090E002C0FA
:1005D00080E290E0822B932B199B03C060E070E0D7
:1005E00002C060E470E0682B792B189B03C040E0E8
:1005F00050E002C040E850E0462B572B639B03C0FD
:1006000080E090E002C080E091E0842B952B799B04
:1006100003C060E070E002C060E072E0682B792BFC
:100620007A9B03C040E050E002C040E054E0462B1B
:10063000572B7B9B03C080E090E002C080E098E0F5
:10064000482B592B7C9B03C060E070E002C060E047
:1006500070E1462B572B7D9B03C020E030E002C0A9
:1006600020E030E2422B532B7E9B03C080E090E0E1
:1006700002C080E090E4482B592B662757FD609517
:10068000762F8FB1992787FD9095A92FB92F809547
:100690009095A095B0958827B7FD83959927AA27AF
:1006A000BB273FE0880F991FAA1FBB1F3A95D1F7C0
:1006B000842B952BA62BB72B009B04C000E010E0E9
:1006C000980104C000E010E021E030E0802B912B85
:1006D000A22BB32B019B04C000E010E0980104C0E2
:1006E00000E010E022E030E0802B912BA22BB32B16
:1006F000029B04C040E050E0BA0104C040E050E07A
:1007000064E070E0842B952BA62BB72B039B04C0D1
:1007100040E050E0BA0104C040E050E068E070E022
:10072000842B952BA62BB72BF70140815181628139
:100730007381481759076A077B0739F080839183D3
:10074000A283B38385E0809300010E943802CF5FCB
:10075000F4E0EF0EF11CC83009F0D6CE8091000114
:100760008823E9F0815080930001882339F08FE9D4
:100770009FE00197F1F700C0000011C0E9E1F1E04E
:10078000E60189919991A991B9916E018193919313
:10079000A193B193D9E5CD16D1E0DD0689F781E0CB
:1007A000DF91CF911F910F91FF90EF90DF90CF904D
:1007B000089594E0899FF0011124E75EFE4F608167
:1007C00071818281938108950895389A689A3A9A3E
:1007D00081FF02C0409801C0409A80FF02C070981B
:1007E00001C0709A82FF02C042980895429A08950B
:1007F0008091620108950895CF93DF9300D01F92F6
:10080000CDB7DEB720910102243029F523E02983FA
:100810009B838A8382E08093E9008FEF06C095ED89
:100820009A95F1F70000882329F09091E800815013
:1008300095FFF5CF8091E80085FF0DC040E050E0C6
:1008400063E070E0CE0101960E9435068091E800D9
:100850008E778093E8000F900F900F90DF91CF91EB
:100860000895CF93DF9300D01F92CDB7DEB72091CC
:100870000102243021F522E029839B838A8320937F
:10088000E9008FEF06C095ED9A95F1F700008823F7
:1008900029F09091E800815095FFF5CF8091E80014
:1008A00085FF0DC040E050E063E070E0CE010196AE
:1008B0000E9435068091E8008E778093E8000F90C3
:1008C0000F900F90DF91CF910895EF92FF927C01EE
:1008D00080910102843041F581E08093E9008FEF3F
:1008E00006C095ED9A95F1F70000882329F09091C4
:1008F000E800815095FFF5CF8091E80085FF14C096
:1009000040E050E068E070E0C7010E943506809149
:10091000E8008E778093E80088E0F701AAE5B1E06F
:1009200001900D928A95E1F7FF90EF9008958091E4
:100930000002811109C00E94CD070E9434088091F5
:10094000E20084608093E20008951092000208950E
:10095000089542E061EC81E00E94430742E061ECCF
:1009600082E00C94430780910302833009F454C061
:1009700030F4813071F0823009F0A5C08CC08A302B
:1009800009F479C08B3009F45FC0893009F09BC04D
:1009900020C080910202813A09F095C08091E80060
:1009A000877F8093E8008091060290910702892B4F
:1009B00021F060E080E090E003C068E08AE591E02B
:1009C00070E00E9488068091E8008B778093E800B1
:1009D000089580910202813209F075C0809106026B
:1009E00090910702892B09F06EC08091E800877F03
:1009F0008093E80005C080910102882309F463C058
:100A00008091E80082FFF7CF8091F100809362012E
:100A10008091E8008B7753C080910202813A09F0FF
:100A200052C08091060290910702892B09F04BC0B9
:100A30008091E800877F8093E8008091E80080FF44
:100A4000FCCF80910B0136C0809102028132D9F532
:100A50008091060290910702892BA9F58091E80008
:100A6000877F8093E8000E947A0780910402809338
:100A70000B010C94A61080910202813221F5809125
:100A8000E800877F8093E8000E947A078091050242
:100A900080935901089580910202813AA1F48091D6
:100AA000E800877F8093E8008091E80080FFFCCF1A
:100AB000809159018093F1008091E8008E778093B6
:100AC000E8000C947A070895089508950C942D1861
:100AD0000C9466050E94AD168091FF01882329F0D1
:100AE0000E94D51681110C941F06089584B7877F44
:100AF00084BF88E10FB6F894809360001092600084
:100B00000FBE90E080E80FB6F89480936100909358
:100B100061000FBE0E9464050E94210B0E94CD0758
:100B20000E9434088091E20084608093E20078940F
:100B3000809101028430E1F70E94230B81E091E073
:100B40000E94D80A0E941B180E94650502C00E94DC
:100B50006A05809101028530D1F30E94270BF9CFFD
:100B60000E94EC160E9433180E94DD0A0C94E503E3
:100B70000C94B005292F332723303105B1F04CF404
:100B80002130310509F44DC02230310509F04EC045
:100B900007C02132310541F12232310591F146C0C1
:100BA000EBE3F0E086E192E045C0992781309105C2
:100BB00069F08230910589F0892B09F037C0E2E1B4
:100BC000F2E0E491F0E082E192E034C0E6EFF1E09F
:100BD000E491F0E086EF91E02DC0ECEDF1E0E491DE
:100BE000F0E08CED91E026C0623000F5E62FF0E0F9
:100BF000EE0FFF1FE25FFE4F80819181E9E0F0E0A0
:100C000019C0623098F4E62FF0E0DF01AA0FBB1F95
:100C1000AE5EBE4F8D919C91EA5EFE4FE081F0E0AA
:100C200009C0E2E1F0E081E592E004C0E0E0F0E03C
:100C300080E090E0DA018D939C93CF01089584E1E8
:100C400089BD86E189BD09B400FEFDCF8091D80041
:100C50008F7D8093D8008091E00082608093E000D7
:100C60008091E00081FDFCCF08958F929F92AF921A
:100C7000BF92CF92DF92EF92FF92CF935C016B0114
:100C80007A010E949B07C82F811137C0E114F1043B
:100C900039F0F70120813181C21AD30AA20EB31EA6
:100CA000812C912C25C08091E80085FD16C0809193
:100CB000E8008E778093E800E114F10449F0F70131
:100CC00080819181880D991D91838083C5E015C035
:100CD0000E949B07882361F00FC0F50181915F019D
:100CE0008093F100F1E0CF1AD1088FEF881A980AAB
:100CF000C114D104C1F601C0C82F8C2FCF91FF9031
:100D0000EF90DF90CF90BF90AF909F908F9008951D
:100D100020910802309109022617370748F0611523
:100D2000710539F42091E8002E772093E80001C086
:100D3000B901FC0120E02CC0809101028823F1F16F
:100D40008530F1F18091E80083FD3CC08091E8009E
:100D500082FD2EC08091E80080FF1AC08091F200D1
:100D60009091F30006C021912093F1006150710928
:100D700001966115710519F088309105A0F321E005
:100D8000089709F020E08091E8008E778093E800D2
:100D90006115710589F62111CFCF0AC0809101023A
:100DA000882361F0853061F08091E80083FD0AC0FE
:100DB0008091E80082FFF2CF80E0089582E00895FC
:100DC00083E0089581E0089520910802309109029E
:100DD0002617370748F06115710539F42091E800AE
:100DE0002E772093E80001C0B901FC0120E02FC05C
:100DF00080910102882309F440C0853009F43FC086
:100E00008091E80083FD3DC08091E80082FD2FC005
:100E10008091E80080FF1BC08091F2009091F30068
:100E200007C024912093F100319661507109019619
:100E30006115710519F08830910598F321E0089744
:100E400009F020E08091E8008E778093E80061153A
:100E5000710571F62111CCCF0AC08091010288235F
:100E600061F0853061F08091E80083FD0AC08091D7
:100E7000E80082FFF2CF80E0089582E0089583E0E9
:100E8000089581E00895982F2CC09093E900981759
:100E900039F07091EC002091ED005091F00003C00A
:100EA000242F762F50E021FD02C09F5F1AC03091A1
:100EB000EB003E7F3093EB003091ED003D7F3093AF
:100EC000ED003091EB0031603093EB007093EC005B
:100ED0002093ED005093F0002091EE0027FDE5CF28
:100EE00007C0973090F28F708093E90081E00895F9
:100EF00080E008958091020287FD05C08091E8009E
:100F000080FF0EC012C08091E80082FD05C0809174
:100F100001028111F8CF08958091E8008B7708C015
:100F2000809101028111EACF08958091E8008E77C7
:100F30008093E80008958091E4009091E50045E6F3
:100F40002091EC0020FD1FC023C02091010222232C
:100F500091F0253091F02091EB0025FD10C02091FB
:100F6000E4003091E5002817390751F34150C901D9
:100F700039F784E0089582E0089583E0089581E0E0
:100F8000089580E008952091E80020FFDECFF9CF9A
:100F90002091E80022FFD9CFF4CF0E9443080E949D
:100FA0004B08E0EEF0E0808181608083E8EDF0E0C6
:100FB00080818F77808319BCA7EDB0E08C918E7F04
:100FC0008C9380818F7E8083109200020895CF924F
:100FD000DF92EF92FF920E9443080E944B0888ED37
:100FE000E82EF12CF70180818F77808380818068E3
:100FF000808380818F7D8083E7EDF0E08081806851
:10100000808319BC109201021092FD011092FF0121
:101010001092FE0190EEC92ED12CF60180818B7FBB
:101020008083F70180818160808342E060E080E01E
:101030000E944307E1EEF0E080818E7F8083E2EE44
:10104000F0E0808181608083808188608083F60108
:1010500080818E7F8083F701808180618083FF9013
:10106000EF90DF90CF900895E8EDF0E080818F7EE3
:101070008083E7EDF0E080818160808381E0809370
:1010800000020C94E707E8EDF0E080818C7F80831C
:101090001092E20008951092DA001092E100089593
:1010A0001F920F920FB60F9211240BB60F922F932F
:1010B0003F934F935F936F937F938F939F93AF93E0
:1010C000BF93EF93FF938091E10082FF0BC080916B
:1010D000E20082FF07C08091E1008B7F8093E100F6
:1010E0000E94D70A8091DA0080FF1FC08091D8004B
:1010F00080FF1BC08091DA008E7F8093DA008091A0
:10110000D90080FF0DC084E189BD86E189BD09B4A5
:1011100000FEFDCF81E0809301020E94970405C08C
:1011200019BC109201020E94A5048091E10080FF89
:1011300019C08091E20080FF15C08091E2008E7F8F
:101140008093E2008091E20080618093E2008091D0
:10115000D80080628093D80019BC85E0809301029A
:101160000E9468058091E10084FF30C08091E20018
:1011700084FF2CC084E189BD86E189BD09B400FEED
:10118000FDCF8091D8008F7D8093D8008091E100C1
:101190008F7E8093E1008091E2008F7E8093E20059
:1011A0008091E20081608093E2008091FD018823BC
:1011B00011F084E007C08091E30087FF02C083E064
:1011C00001C081E0809301020E94B8058091E10096
:1011D00083FF29C08091E20083FF25C08091E10058
:1011E000877F8093E10082E0809301021092FD01ED
:1011F0008091E1008E7F8093E1008091E2008E7FFC
:101200008093E2008091E20080618093E20042E0FE
:1012100060E080E00E9443078091F0008860809346
:10122000F0000E94A804FF91EF91BF91AF919F91B0
:101230008F917F916F915F914F913F912F910F907F
:101240000BBE0F900FBE0F901F9018951F920F921C
:101250000FB60F9211240BB60F922F933F934F931B
:101260005F936F937F938F939F93AF93BF93CF932E
:10127000EF93FF938091E9008F709091EC0090FFC5
:1012800002C090E801C090E0C92FC82B1092E9007D
:101290008091F000877F8093F00078940E946E091F
:1012A0001092E9008091F00088608093F000CF7088
:1012B000C093E900FF91EF91CF91BF91AF919F91C2
:1012C0008F917F916F915F914F913F912F910F90EF
:1012D0000BBE0F900FBE0F901F9018951F93CF93CA
:1012E000DF93CDB7DEB7AC970FB6F894DEBF0FBE75
:1012F000CDBFE2E0F2E08091F100819322E0EA309C
:10130000F207C9F70E94B3048091E80083FF37C158
:101310008091020290910302953009F488C038F45C
:101320009130B1F170F0933009F029C131C098309B
:1013300009F4F8C0993009F404C1963009F01FC1CE
:101340009DC0803821F0823809F019C108C0809111
:10135000FE019091FF01992389F082600FC0809176
:101360000602909107028F7099278093E90080917F
:10137000EB0085FB882780F91092E9009091E80046
:10138000977F9093E8008093F1001092F100D5C010
:10139000882319F0823009F0F2C08F7121F0823079
:1013A00009F0EDC00BC080910402813009F0E7C064
:1013B000933009F080E08093FF012FC080910402F8
:1013C00081112BC080910602909107028F7099279E
:1013D000009709F4D4C08093E9002091EB0020FF2E
:1013E0001CC020910302233021F48091EB00806225
:1013F00012C09091EB0090619093EB0021E030E0FF
:1014000001C0220F8A95EAF72093EA001092EA00C1
:101410008091EB0088608093EB001092E90080914E
:10142000E800877F8093E8000E947A07A8C08111B6
:10143000A6C080910402909105028F779927182FFA
:101440009091E3009078982B9093E3008091E800CE
:10145000877F8093E8000E947A078091E80080FFF0
:10146000FCCF8091E30080688093E300112311F0AA
:1014700083E001C082E08093010281C08058823005
:1014800008F07DC080910402909105028C3D23E01C
:10149000920779F583E08A838AE289834FB7F894CB
:1014A000DE01139620E03EE051E2E32FF0E050939E
:1014B0005700E49120FF03C0E295EF703F5FEF70AB
:1014C0008E2F90E0EA3010F0C79601C0C0968D9341
:1014D0009D932F5F243149F74FBF8091E800877FAC
:1014E0008093E8006AE270E0CE0101960E948806CF
:1014F00013C0AE01455D5F4F609106020E94BA05C0
:101500000097E9F12091E800277F2093E800BC01D3
:101510008BA59CA50E94E4068091E8008B778093C0
:10152000E8002DC0803859F58091E800877F8093CE
:10153000E8008091FD018093F1008091E8008E77B2
:1015400071CF81111CC0909104029230C0F480913F
:10155000E800877F8093E8009093FD010E947A075E
:101560008091FD01811104C08091E30087FF02C0DA
:1015700084E001C081E0809301020E94A90480916F
:10158000E80083FF0AC08091E800877F8093E8002D
:101590008091EB0080628093EB00AC960FB6F894DC
:1015A000DEBF0FBECDBFDF91CF911F91089508958B
:1015B00090936401809363010895E0916301F09139
:1015C0006401309721F00190F081E02D099480E0D2
:1015D0000895E0916301F0916401309721F0028059
:1015E000F381E02D09940895209165013091660101
:1015F0008217930771F09093660180936501E091E3
:101600006301F0916401309721F00680F781E02DAD
:10161000099408952091670130916801821793071A
:1016200071F09093680180936701E0916301F091FC
:101630006401309721F00084F185E02D099408952C
:1016400008950C94200B0E94EE160C9445022F92E4
:101650003F924F925F926F927F928F929F92AF9242
:10166000BF92CF92DF92EF92FF920F931F93CF938F
:10167000DF93CDB7DEB729970FB6F894DEBF0FBE64
:10168000CDBF0E94760229E6222E21E0322E39E8D3
:10169000C32E31E0D32EE12CF12C1E2D8E2D0E9475
:1016A000D9034B015C01F10141905190619071901F
:1016B0001F014626572668267926411451046104E5
:1016C000710409F496C08E2D0E94D9039B01AC01D0
:1016D000DC01CB010197A109B10982239323A42343
:1016E000B523892B8A2B8B2B09F4C4C000E001138E
:1016F00004C00F5F0830D9F7BDC0802F2E833F8311
:10170000488759870E94D9032E813F814885598592
:101710006223732384239523672B682B692B49F35A
:10172000B3C0F60180819181A281B38188159905AA
:10173000AA05BB0511F00E94E403F60180829182A4
:10174000A282B38256C00E94E40320E030E0D301BD
:10175000C201022E04C0B695A795979587950A9465
:10176000D2F780FF40C029831A83412C512C3201CB
:101770004394022E04C0440C551C661C771C0A942A
:10178000D2F784209520A620B72081E089288A28D6
:101790008B2809F480E08B830E94F7168160782FF4
:1017A0009D838C8349815A816B818D810E94640C59
:1017B00049815A816B817C818D810E949A16F70143
:1017C000EE0FFF1FEE0FFF1FE759FE4F8081918143
:1017D000A281B38184259525A625B7258083918391
:1017E000A283B38321C02F5F3F4F2431310509F01D
:1017F000AECFFFEFEF1AFF0A84E0C80ED11CE8E07D
:10180000EE16F10409F049CF8FEF89838A831B829A
:101810000E94F7168160782F9D838C8349815A81BD
:101820006B818D810E94640C0E9499161091A90110
:101830000E94DD0A181769F10E94DD0A8093A90150
:1018400029960FB6F894DEBF0FBECDBFDF91CF91C2
:101850001F910F91FF90EF90DF90CF90BF90AF90CE
:101860009F908F907F906F905F904F903F902F90C0
:101870000C94AB16F60180829182A282B382809191
:10188000F50181FF62CF5FCF8091F50181FD49CFE6
:1018900054CF29960FB6F894DEBF0FBECDBFDF91AF
:1018A000CF911F910F91FF90EF90DF90CF90BF905D
:1018B000AF909F908F907F906F905F904F903F90F0
:1018C0002F9008950C94E503CF93DF93CDB7DEB747
:1018D0002B970FB6F894DEBF0FBECDBF4F8358874E
:1018E00069877A878B878A859B85892B39F05F3F4B
:1018F00041F481E090E04F3F31F003C081E090E09F
:1019000002C080E090E080FD07C04F815885698566
:101910007A858B850E949A16DE01119686E0FD017C
:1019200011928A95E9F785E0FE01379601900D92B4
:101930008A95E1F749815A816B817C818D819E81F5
:101940000E9468132B960FB6F894DEBF0FBECDBF72
:10195000DF91CF910895882309F49CC0982F94506B
:10196000913A18F40E94F1150EC0982F905E9830AD
:1019700060F4282F277081E090E001C0880F2A953D
:10198000EAF70E9437160C947316982F955A9330E5
:1019900070F4853A29F0863A31F482E890E005C087
:1019A00081E890E002C083E890E00C94F40A982F5C
:1019B000985A953108F06EC0883A61F1893A69F118
:1019C0008A3A71F18B3A79F18C3A81F18D3A89F149
:1019D0008E3A91F18F3A99F1813BA1F1803BA9F1C7
:1019E000823BB1F1833BB9F1843BC1F1853BC9F145
:1019F000863BD1F1873BD9F1883BE1F1893BE9F1A5
:101A00008A3BF1F18B3BF9F18C3B09F03FC08AE254
:101A100092E03EC082EE90E03BC089EE90E038C09C
:101A20008AEE90E035C085EB90E032C086EB90E026
:101A30002FC083EB90E02CC084EB90E029C087EBB3
:101A400090E026C08CEC90E023C08DEC90E020C0AC
:101A500083E891E01DC08AE891E01AC082E991E034
:101A600017C084E991E014C081E292E011C083E2E2
:101A700092E00EC084E292E00BC085E292E008C0E2
:101A800086E292E005C087E292E002C080E090E04A
:101A90000C940A0B0895882331F1982F9450913AB1
:101AA00018F40E9413160EC0982F905E983060F4C0
:101AB000282F277081E090E001C0880F2A95EAF76F
:101AC0000E943D160C947316982F955A933020F46B
:101AD00080E090E00C94F40A885A853120F480E08C
:101AE00090E00C940A0B0895882321F00E94371689
:101AF0000C9473160895882321F00E943D160C94CF
:101B0000731608958F929F92AF92BF920F931F9377
:101B1000CF93DF93CDB7DEB727970FB6F894DEBF2C
:101B20000FBECDBF5C0185E0F501DE01119601908D
:101B30000D928A95E1F7F5013081218102811581AD
:101B400012951F7083819481892B39F02F3F41F4C6
:101B500081E090E03F3F31F003C081E090E002C0BF
:101B600080E090E080FDD5C239832A8389819A8103
:101B70000E94AC159E838F830E94AB150E94D514E2
:101B80004E81242F22952F7030E06F812430310553
:101B900009F4A7C044F4842F807F942F9F702230D3
:101BA0003105B4F042C02C3031054CF42A303105F7
:101BB0000CF0CBC12830310509F0ABC2CFC02C30BE
:101BC000310509F480C22F30310509F0A2C28FC25D
:101BD000992E811101C003C0929490EF99220023A5
:101BE00059F0992009F44AC2892D6F830E944A1640
:101BF0000E9473166F8142C2862F0E944B0D99205E
:101C000009F487C2892D0E94501627960FB6F894C2
:101C1000DEBF0FBECDBFDF91CF911F910F91BF905F
:101C2000AF909F908F900C947316992E803209F488
:101C300003C0929480EF9822662321F0613009F06E
:101C400041C021C00023B1F0892D111101C026C06F
:101C5000113021F527960FB6F894DEBF0FBECDBF29
:101C6000DF91CF911F910F91BF90AF909F908F9078
:101C70000C945A16111101C003C0113009F449C265
:101C80000E945D162CC00023C9F0163008F041C236
:101C90000E943416892109F022C0892D27960FB69B
:101CA000F894DEBF0FBECDBFDF91CF911F910F9192
:101CB000BF90AF909F908F900C94740D153008F0EA
:101CC00028C20DC0002349F0112339F3F5018581A5
:101CD00080FFD4C18F708583E0CF1111E3C1892DBE
:101CE00050C1242F26952695237030E0211531050B
:101CF00029F02130310509F00CC218C0002321F071
:101D0000862F942F937002C080E090E027960FB644
:101D1000F894DEBF0FBECDBFDF91CF911F910F9121
:101D2000BF90AF909F908F900C94F40A002321F005
:101D3000862F942F937002C080E090E027960FB614
:101D4000F894DEBF0FBECDBFDF91CF911F910F91F1
:101D5000BF90AF909F908F900C940A0B842F83704C
:101D600009F076C00111D5C1262F2295269527703E
:101D7000220F220F862F8F70882E912CA12CB12C30
:101D8000022E04C0880C991CAA1CBB1C0A94D2F712
:101D900064FF10C06FE070E080E090E004C0660F68
:101DA000771F881F991F2A95D2F7609570958095A7
:101DB000909503C060E070E0CB01242F2695269516
:101DC0002370422F50E042305105D1F0433051058D
:101DD00059F1682979298A299B294130510541F116
:101DE00027960FB6F894DEBF0FBECDBFDF91CF911F
:101DF0001F910F91BF90AF909F908F900C94E8141B
:101E0000682979298A299B2927960FB6F894DEBF7D
:101E10000FBECDBFDF91CF911F910F91BF90AF90BB
:101E20009F908F900C94FA140E94E814C501B4019D
:101E300027960FB6F894DEBF0FBECDBFDF91CF91CE
:101E40001F910F91BF90AF909F908F900C94D614DC
:101E5000002319F0842F817001C08695882309F42E
:101E600058C1262F229526952770220F220F862FE4
:101E70008F70882E912CA12CB12C022E04C0880CBE
:101E8000991CAA1CBB1C0A94D2F764FF10C06FE017
:101E900070E080E090E004C0660F771F881F991FF4
:101EA0002A95D2F7609570958095909503C060E073
:101EB00070E0CB01242F269526952370422F50E009
:101EC00042305105D1F04330510559F16829792943
:101ED0008A299B294130510541F127960FB6F89484
:101EE000DEBF0FBECDBFDF91CF911F910F91BF908D
:101EF000AF909F908F900C948715682979298A2933
:101F00009B2927960FB6F894DEBF0FBECDBFDF9199
:101F1000CF911F910F91BF90AF909F908F900C9495
:101F200099150E948715C501B40127960FB6F8943C
:101F3000DEBF0FBECDBFDF91CF911F910F91BF903C
:101F4000AF909F908F900C947515603F51F120F4E5
:101F5000603E08F48EC008C0623F09F463C0E0F13F
:101F6000633F09F086C061C0162F1F70842F8F71E8
:101F7000002321F00E942015812F90CE0E943B1556
:101F8000812F27960FB6F894DEBF0FBECDBFDF912D
:101F9000CF911F910F91BF90AF909F908F900C9415
:101FA0007B0D0023A9F0153008F0B3C0842F8F718A
:101FB00027960FB6F894DEBF0FBECDBFDF91CF914D
:101FC0001F910F91BF90AF909F908F900C945A15D6
:101FD000163008F09EC0EACF002391F0842F8F7155
:101FE00027960FB6F894DEBF0FBECDBFDF91CF911D
:101FF0001F910F91BF90AF909F908F900C942015E0
:10200000842F8F7127960FB6F894DEBF0FBECDBF19
:10201000DF91CF911F910F91BF90AF909F908F90C4
:102020000C943B150111ECCFD9CF002391F0842FF4
:102030008F7127960FB6F894DEBF0FBECDBFDF912C
:10204000CF911F910F91BF90AF909F908F900C9464
:10205000111527960FB6F894DEBF0FBECDBFDF91E6
:10206000CF911F910F91BF90AF909F908F900C9444
:102070000C150023A1F0112309F4B0CF862F279669
:102080000FB6F894DEBF0FBECDBFDF91CF911F9189
:102090000F91BF90AF909F908F900C94AB0C112339
:1020A00009F4AECF862F27960FB6F894DEBF0FBE89
:1020B000CDBFDF91CF911F910F91BF90AF909F90B7
:1020C0008F900C944B0D4F70C5010E9418182796E5
:1020D0000FB6F894DEBF0FBECDBFDF91CF911F9139
:1020E0000F91BF90AF909F908F900C941E144F70E3
:1020F000C50127960FB6F894DEBF0FBECDBFDF91A6
:10210000CF911F910F91BF90AF909F908F900C94A3
:10211000D50127960FB6F894DEBF0FBECDBFDF9175
:10212000CF911F910F91BF90AF909F908F90089586
:102130000E9457160E9426160E94731680E090E0B7
:102140000E94F40A80E090E00C940A0B0E9447166B
:102150000C9498100E94AC15292F22952F7030E016
:102160002C3031054CF42A3031056CF42250310901
:102170002230310590F407C02C30310551F02F305A
:10218000310559F406C0803E10F0803F31F481E003
:10219000089593FB882780F9089580E00895CF93F0
:1021A000DF9300D000D01F92CDB7DEB70F900F9015
:1021B0000F900F900F90DF91CF910895CF93DF9301
:1021C00000D000D000D0CDB7DEB726960FB6F89479
:1021D000DEBF0FBECDBFDF91CF910895EF92FF928A
:1021E000CF939091E001C6E015C0E92EF12CCE9D71
:1021F000F001CF9DF00D1124E055FE4F408151813B
:1022000062817381848195810E94DE10C7010196ED
:10221000982F97708091E1019813E7CFCF91FF90AD
:10222000EF9008954091AA015091AB016091AC01EB
:102230007091AD018091AE019091AF010C94DE10D0
:102240000F931F93CF93DF938091AF0182958F708F
:1022500009F069C08091AC01882309F464C0A091A1
:10226000E001D091E101B091AA01C091AB01809150
:10227000AD019091AE0121E030E0BF3F11F020E0D0
:1022800030E0122FBC016095709506E04AC00097BF
:1022900021F0CF3F29F4212F05C021E030E002C01A
:1022A00020E030E020FD3BC04A2F50E0049FF001C9
:1022B000059FF00D1124E055FE4F2181C2132FC060
:1022C0002081B2132CC02281211129C023813481A5
:1022D0002817390718F0281B390B02C0260F371FA3
:1022E000283C3105E0F48091AF018F7080618093CC
:1022F000AF0186E0849FF001859FF00D1124EB541F
:10230000FE4F80818F70806180838AEA91E00E9415
:10231000820DDF91CF911F910F910C94EE10AF5F62
:10232000A770AD13B4CFDF91CF911F910F91089596
:10233000CF92DF92EF92FF92CF93DF93CDB7DEB7CC
:1023400062970FB6F894DEBF0FBECDBF7C0185E06B
:10235000F701DE011D9601900D928A95E1F7D701F4
:102360004C9111965C91119712966C91129713965D
:10237000CD90DC9014977091AA01E091AB0180910F
:10238000AD019091AE01009739F0EF3F41F421E0AB
:1023900030E07F3F31F003C021E030E002C020E0B8
:1023A00030E020FD5CC12091AC01222309F4F1C092
:1023B000C816D90628F09601281B390BC90104C09C
:1023C000809590958C0D9D1D883C910508F098C0D6
:1023D0008091AF01982F907F09F064C0E51314C07D
:1023E000741312C0611110C08F7080618093AF01AF
:1023F0000E9412118AEA91E00E94820D8091AF0141
:10240000D70115968C9343C1CD2839F05F3F41F435
:1024100081E090E04F3F31F003C081E090E002C0E6
:1024200080E090E080FD03C081E0862702C080E06C
:1024300090E080FF2EC08091E0012091E10136E024
:1024400013C090E0389FF001399FF00D1124E05542
:10245000FE4F7181571306C07081471303C072810C
:10246000671317C0019687708213EBCF12C19F705C
:1024700059F0882309F40BC107C09F7029F0F701B8
:102480009581907F09F403C1805E883008F4FFC015
:10249000D2C0662309F4FBC08091AF0181608093B4
:1024A000AF01F5C0E51308C0741306C0611104C084
:1024B000D70115968C939DC04D875E878D859E852F
:1024C0006A8B0E94AA106A89882309F4B4C0662323
:1024D00009F4B1C02091AF01822F82958F7090E0F6
:1024E00002970CF4C6C08091AA019091AB01988725
:1024F0008F831986DB86CA862C87CE01079646C055
:102500008091AF01982F907F59F47C2DD98AC88A89
:1025100089890E94CF108AEA91E00E94820D95C0BD
:10252000E51311C074130FC061110DC0F70185834D
:10253000C7010E94820DEAEAF1E086E0DF011D9208
:102540008A95E9F7A2C04D875E878D859E856A8B47
:102550000E94AA106A89882309F46DC0662309F4D1
:102560006AC02091AF01822F82958F7090E0029710
:102570000CF47FC08091AA019091AB019A8389836A
:102580001B82DD82CC822E83CE0101960E94820DB9
:1025900070C0C816D90628F09601281B390BC9014E
:1025A00004C0809590958C0D9D1D883C910508F088
:1025B00046C0662309F43FC0E51330C074132EC033
:1025C0002091AF0120FD21C0322F32953F70832F23
:1025D00090E00097D1F0D70115962C9315970F979F
:1025E00041F0832F8F5F8295807F2F70282B159667
:1025F0002C93C7010E94820D86E0F701AAEAB1E0A0
:1026000001900D928A95E1F73EC086E0F701AAEAB3
:10261000B1E001900D928A95E1F737C04D875E8752
:102620008D859E850E94AA10811123C08091AF01E3
:1026300081608093AF01C7010E94820D26C07C2D6E
:10264000D98AC88A89890E94CF10EAEAF1E086E037
:10265000DF011D928A95E9F70E94121118C06623C6
:1026600051F34D875E878D859E850E94AA10882331
:1026700011F386E0F701AAEAB1E001900D928A9584
:10268000E1F70E9420110E94121181E014C080E045
:1026900012C04D875E878D859E850E94AC15292FBF
:1026A00022952F7030E0223031050CF4E0CE24303A
:1026B00031050CF6E2CE62960FB6F894DEBF0FBE7F
:1026C000CDBFDF91CF91FF90EF90DF90CF90089535
:1026D0001F93CF93DF93CDB7DEB72C970FB6F89447
:1026E000DEBF0FBECDBF4F83588769877A878B8740
:1026F0009C87CE0107960E9498118823D9F02F81DC
:1027000038858A859B85892B39F03F3F19F080E019
:1027100090E004C02F3FD9F781E090E0892B09F0C9
:102720006DC04F81588569857A858B859C850E940F
:10273000DE1064C086E0FE013796DE01119601903E
:102740000D928A95E1F7FF81E8854A855B85411501
:10275000510539F0EF3F41F481E090E0FF3F31F067
:1027600003C081E090E002C080E090E080FD46C0C0
:102770002091E10130E0C9010196877099276091AD
:10278000E00170E08617970709F440C0F983EA83F7
:102790005D834C8396E0929FD001939FB00D1124EE
:1027A000A055BE4FFE01319601900D929A95E1F72A
:1027B0008093E1010E94EE1021C0189FC0011124F6
:1027C00080559E4F0E949811882371F1E091E0019D
:1027D0001E9FF0011124E055FE4F4081518162811E
:1027E0007381848195810E94DE108091E00190E0E8
:1027F0000196877099278093E00101C016E08091CF
:10280000E0019091E1018913D8CF0EC00E94A6107B
:102810001092E1011092E001EAEAF1E086E0DF01C6
:102820001D928A95E9F7EACF2C960FB6F894DEBF91
:102830000FBECDBFDF91CF911F910895CF92DF9250
:10284000EF92FF92CF93DF939C01009709F48EC023
:10285000D0E0C0E0CC24C394D12C79018FEFE81AEA
:10286000F80AF9018491853709F45BC060F4843774
:1028700008F046C0843008F066C08130A9F082308C
:1028800009F074C026C0883709F45AC038F4863776
:1028900009F44EC0873709F069C04EC0982F94588C
:1028A000903708F063C052C0F701790182E0E80E6A
:1028B000F11CE4918E2F805E883048F4E7708C2DF7
:1028C00001C0880FEA95EAF70E944A1614C08E2FBD
:1028D0003AC0F701790182E0E80EF11CE4918E2FF5
:1028E000805E883058F4E7708C2D01C0880FEA951F
:1028F000EAF70E9450160E9473162BC08E2F27C035
:10290000F701790182E0E80EF11C949107C0EFE92C
:10291000FFE03197F1F700C0000091509111F7CF1F
:1029200018C0F701790182E0E80EF11CC49111C0D2
:102930000E943416D82F0DC08D2F0E944416DBCF75
:102940000E944716D8CF0E94AB0C03C08F770E941D
:102950004B0D9C2F07C09150EFE9FFE03197F1F745
:1029600000C000009111F7CF970177CFDF91CF9191
:10297000FF90EF90DF90CF9008956093E201709305
:10298000E3018093E4019093E5010E94AA160C9460
:1029900098106093E6017093E7018093E8019093AB
:1029A000E9010E94A9160C94981008950F931F93A3
:1029B0000091E6011091E7012091E8013091E901D1
:1029C000602B712B822B932B1F910F910C94C914A8
:1029D0000F931F930091E6011091E7012091E80108
:1029E0003091E90160237123822393231F910F917A
:1029F0000C94C9140F931F930091E6011091E70105
:102A00002091E8013091E9016027712782279327FF
:102A10001F910F910C94C91460E070E0CB010C94ED
:102A2000BD1441E050E060E070E004C0440F551F69
:102A3000661F771F8A95D2F7CB01BA010C94BD149B
:102A400041E050E060E070E004C0440F551F661F95
:102A5000771F8A95D2F78091E2019091E301A091CE
:102A6000E401B091E501482B592B6A2B7B2BCB015C
:102A7000BA010C94BD1441E050E060E070E004C085
:102A8000440F551F661F771F8A95D2F740955095C2
:102A9000609570958091E2019091E301A091E4012D
:102AA000B091E501482359236A237B23CB01BA0166
:102AB0000C94BD1441E050E060E070E004C0440FAD
:102AC000551F661F771F8A95D2F78091E20190917A
:102AD000E301A091E401B091E501482759276A2755
:102AE0007B27CB01BA010C94BD140F931F93009167
:102AF000E2011091E3012091E4013091E501602BA6
:102B0000712B822B932B1F910F910C94BD140F935B
:102B10001F930091E2011091E3012091E4013091B3
:102B2000E50160237123822393231F910F910C945D
:102B3000BD140F931F930091E2011091E3012091C6
:102B4000E4013091E50160277127822793271F91C7
:102B50000F910C94BD1408958F929F92AF92BF92E3
:102B6000CF92DF92EF92FF926C018090E6019090FD
:102B7000E701A090E801B090E9014091E201509195
:102B8000E3016091E4017091E501842A952AA62A67
:102B9000B72A8FE1E82EF12CB501A4010E2C04C058
:102BA00076956795579547950A94D2F740FF08C0E8
:102BB000B6018E2D0E944C178130910509F008C096
:102BC00081E0E81AF10840F7B60180E00E944C1756
:102BD000FF90EF90DF90CF90BF90AF909F908F903D
:102BE000089540910C0150910D0120E030E09FEFDD
:102BF000FA01E20FF31F62816817A1F09F3F19F4F9
:102C0000611101C0922F2F5F3F4F2630310581F7B0
:102C100007C0FA01E90FF11D97FDFA958283089527
:102C20009F3FB9F7089540910C0150910D0120E0AC
:102C300030E0FA01E20FF31F9281981301C0128273
:102C40002F5F3F4F26303105A1F7089581E090E0D6
:102C5000E0910C01F0910D01E80FF91F108201962F
:102C600088309105A9F708958091EA01089590911F
:102C7000EA01982B9093EA01089580959091EA01DA
:102C800098239093EA0108958093EA0108951092A1
:102C9000EA0108959091EB01982B9093EB01089530
:102CA00080959091EB0198239093EB0108951092F9
:102CB000EB0108958093EC0108951092EC010895C2
:102CC00040910C0150910D0120E030E080E0FA01CC
:102CD000E20FF31F918191118F5F2F5F3F4F2730DC
:102CE0003105A9F70895E0910C01F0910D01809153
:102CF000EA018083E0910C01F0910D0180819091B7
:102D0000EB01892B80839091EC01992361F0E09194
:102D10000C01F0910D018081892B80830E94601647
:102D200081110E945D1680910C0190910D010C940F
:102D3000E90A0895CF93DF9300D000D01F92CDB75A
:102D4000DEB70F900F900F900F900F90DF91CF9103
:102D50000895089508950C94620C809101028430C6
:102D600009F11092F60120E488E190E00FB6F894A2
:102D7000A895809360000FBE2093600083B7817F89
:102D8000846083BF83B7816083BF7894889583B75D
:102D90008E7F83BF88E10FB6F89480936000109215
:102DA00060000FBE089508950895CF930E94D31632
:102DB0000E9476020E94D416C0E08C2F0E94D90394
:102DC000672B682B692B29F4CF5FC830B1F780E0FF
:102DD00001C081E0CF9108950C94A61082E084BDDB
:102DE00093E095BD9AEF97BD80936E0008958FB7DD
:102DF000F8944091F7015091F8016091F9017091B8
:102E0000FA018FBFCA0108951F920F920FB60F9259
:102E100011248F939F93AF93BF938091F70190916B
:102E2000F801A091F901B091FA010196A11DB11D1F
:102E30008093F7019093F801A093F901B093FA0100
:102E4000BF91AF919F918F910F900FBE0F901F90E8
:102E500018950E94CD07F8942FEF87EA91E621504C
:102E600080409040E1F700C0000087E090EBDC017B
:102E700080930A0290930B02A0930C02B0930D0270
:102E80002CE088E190E00FB6F894A895809360005C
:102E90000FBE20936000FFCF0E941F02982F905C0E
:102EA000903218F40E942E0208958D3B50F4883A17
:102EB00018F5853AC0F4843098F4813009F06FC079
:102EC0000CC0883E30F4803E58F48F3B09F067C058
:102ED00059C0803F08F463C051C021E030E0A6C073
:102EE000282F30E0A3C0853A09F45CC0863A09F087
:102EF0005CC022E830E49AC0883A09F459C0893AA3
:102F000009F459C08A3A09F459C08B3A09F459C0F6
:102F10008C3A09F459C08D3A09F459C08E3A09F433
:102F200059C08F3A09F459C0813B09F459C0803B1C
:102F300009F459C0823B09F459C0833B09F459C0D4
:102F4000843B09F459C0853B09F459C0863B09F418
:102F500059C0873B09F459C0883B09F459C0893BE3
:102F600009F459C08A3B09F459C08B3B09F459C094
:102F70008C3B09F059C02AE236E458C0282F30E0D3
:102F8000306554C00E94A6102FEF80E792E02150D8
:102F900080409040E1F700C000000E94291720E027
:102FA00030E044C021E830E441C023E830E43EC0D2
:102FB00022EE34E43BC029EE34E438C02AEE34E497
:102FC00035C025EB34E432C026EB34E42FC023EBCC
:102FD00034E42CC024EB34E429C027EB34E426C0CD
:102FE0002CEC34E423C02DEC34E420C023E835E499
:102FF0001DC02AE835E41AC022E935E417C024E9E7
:1030000035E414C021E236E411C023E236E40EC0F8
:1030100024E236E40BC025E236E408C026E236E4BA
:1030200005C027E236E402C020E034E4C901089577
:1030300080E090E00895E1E8F0E08081886080839E
:103040008081816080838FB7F89493E090938900AA
:1030500090ED909388008FBF0895EFE6F0E08081B7
:10306000826080830895EFE6F0E080818D7F808329
:1030700008951F920F920FB60F9211240BB60F9264
:103080002F933F934F935F936F937F938F939F9370
:10309000AF93BF93EF93FF938091FB019091FC015D
:1030A00001969093FC018093FB01811103C082E0A3
:1030B0000E94E503E091FC01E695E695F0E0E75219
:1030C000FD4FE4918091FB018E1303C080E00E94CC
:1030D000E503FF91EF91BF91AF919F918F917F9108
:1030E0006F915F914F913F912F910F900BBE0F9079
:0C30F0000FBE0F901F901895F894FFCFB2
:1030FC0005F8036504FB033104FC0301ED01280210
:08310C00410299026302403602
:00000001FF
