:100000000C94A4070C94EA070C94EA070C94EA07F2
:100010000C94EA070C94EA070C94EA070C94EA079C
:100020000C94EA070C94EA070C9447190C941D1AD7
:100030000C9460280C94EA070C94EA070C94EA07E5
:100040000C94EA070C94EA070C94EA070C94EA076C
:100050000C94EA070C94DF280C94EA070C94EA0746
:100060000C94EA070C946C0B0C94EA070C94EA07C6
:100070000C94EA070C94EA070C94EA070C94EA073C
:100080000C94EA070C94EA070C94EA070C94EA072C
:100090000C94EA070C94EA07B411B911BE11C3110C
:1000A000C811CD11D211D711DC11E111E611EB11FC
:1000B000F011F511FA11FF11041209120E121312A8
:1000C00018121D12221227122C12311236123B1254
:1000D000401245124A124F12541259125E12631204
:1000E000B211AD1268126A126C126E12731278128B
:1000F0007D12821287128B12901295129A129F1201
:10010000A412AB12AB12AB12AB12AB12AB12AB120E
:10011000AB12AB12AB12AB12AB12AB12AB12AB12F7
:10012000AB12AB12AB12AB12A91202F000F001F04D
:1001300039A3F1A40000000000052C11E50038519E
:100140004F0050E6E4E51D1B061928103637310034
:100150000000C000000004160709310D0E0F330027
:10016000000000000000141A081531180C121300CA
:10017000000000C100001E1F202143242526274423
:10018000454E4D47E000353A3B2242232E412D4C4F
:10019000494B4A0000E12BC33C172A1C30402F007A
:1001A00000000000000029643D0A3E0B3F003400BF
:1001B000000052E2000000000001010101005401B2
:1001C0000100010101010101010158628563010083
:1001D0000000010000000101010101595A5B5500B6
:1001E00000000000000001010101015C5D5E0100F2
:1001F000000000C2000001010101015F6061010116
:100200000101010101000101010101015701560134
:1002100001010100000101010101010101010100D1
:1002200000000000000001010101010101000100C6
:1002300000000101000000000001010101000101B6
:1002400001000101C40101010101010101010100DD
:100250000000010000000101010101010101010094
:100260000000000000000101010101010101010085
:100270000000000100000101010101010101010173
:1002800001F3F1010100010101010101010101F28C
:10029000F4F5F0000001010101010101010101007B
:1002A0000000000000000101010101010100010046
:1002B000000001010000000000010101010001A88F
:1002C000A900AAE7010101010101010101010100E9
:1002D0000000C50000000101010101010101010050
:1002E0000000000000000101010101010101010005
:1002F00000000001000001010101B001010101AC99
:10030000AB01010101000101010101010101010134
:1003100001010100000101010101010101010100D0
:1003200000000000000001010101010101000100C5
:10033000000001E3000000000001010101000101D3
:10034000010001010101010101010101010101009F
:100350000000010000000101010101010101010093
:100360000000000000000101010101010101010084
:100370000000000100000101010101010101010172
:100380000101FA0101000101010101010101010165
:100390000101F90000010101010101010101010058
:1003A0000000000000000101010101010100010045
:1003B00000000101500052006900626F756E6365B4
:1003C000213A200025303258000A000A722F63209B
:1003D000303132333435363738394142434445467B
:1003E0000A0025303258003A2000253031366200AC
:1003F0000A002563002025303258004C4544207304
:1004000074617475733A20253032580A00253032F1
:10041000753A253032753A253032750925756D5695
:100420000A000A0A2D2D2D2D2D20426C7565746F42
:100430006F746820524E2D34322048656C70202D28
:100440002D2D2D2D0A00693A202020202020205219
:100450004E2D343220696E666F0A00623A202020E9
:10046000202020206261747465727920766F6C742C
:100470006167650A0044656C3A2020202020656E83
:100480007465722F6578697420524E2D3432206362
:100490006F6E666967206D6F64650A00536C636BED
:1004A0003A20202020524E2D343220696E69746922
:1004B000616C697A650A00312D343A2020202020B1
:1004C000726573746F7265206C696E6B0A004631D9
:1004D0002D46343A20202073746F7265206C696E4B
:1004E0006B0A00703A202020202020207061697261
:1004F000696E670A00753A20202020202020746F42
:1005000067676C6520466F72636520555342206DA6
:100510006F64650A000A2D2D2D2D2D20524E2D348D
:100520003220696E666F202D2D2D2D2D0A007072E0
:100530006F746F636F6C3A2025730A00666F726385
:10054000655F7573623A2025580A00726E34323A3C
:100550002025730A00726E34325F6175746F636FA9
:100560006E6E656374696E6728293A2025580A0003
:10057000636F6E6669675F6D6F64653A2025580A20
:10058000005553422053746174653A2025730A0064
:10059000626174746572793A200046554C4C004390
:1005A0004841524700444953434847004C4F570085
:1005B0003F000A0052656D6F746557616B65757019
:1005C000456E61626C65643A2025580A00564255B2
:1005D000533A2025580A00757074696D653A2025D4
:1005E00030327520253032753A253032753A253053
:1005F00032750A004C494E4B303A2025730D0A00E3
:100600004C494E4B313A2025730D0A004C494E4B54
:10061000323A2025730D0A004C494E4B333A2025BF
:10062000730D0A004241543A2025756D5609002584
:100630003032753A00253032753A00253032750A6D
:10064000004175746F206D6F64650A005553422038
:100650006D6F64650A0053522C5A0D0A00522C31FA
:100660000D0A0025730D0A0025630047520D0A008C
:100670002573282564290D0A00256320000D0A0032
:1006800053522C5A0D0A0053522C00256320000DA2
:100690000A000D0A00522C310D0A00456E74657275
:1006A000696E6720636F6E666967206D6F64652091
:1006B0002E2E2E0A0024242400760D0A002B0D0A6B
:1006C0000045786974696E6720636F6E666967209C
:1006D0006D6F6465202E2E2E0A002D2D2D0D0A0023
:1006E00053462C310D0A00532D2C546D6B42540D82
:1006F0000A0053532C4B6579626F6172642F4D6F02
:100700007573650D0A00534D2C340D0A0053572C98
:10071000383030300D0A00537E2C360D0A00534815
:100720002C303033430D0A0053592C464646340DC5
:100730000A00522C310D0A000A55534220696E6995
:10074000740A00524E2D343220696E69740A004BCF
:100750006579626F6172642073746172740A005B00
:10076000735D005B435D005B445D005B525D005B5D
:10077000535D005B575D001C034D006F0064006516
:10078000006C004D00530053004B00560032002E09
:1007900000300000001A03500068006F0073007002
:1007A0000068006F00720047006C006F0077000067
:1007B000000403090409027400040100A0320904C2
:1007C0000000010301010009211101000122400084
:1007D0000705810308000A09040100010301020062
:1007E000092111010001224D000705820308000ABA
:1007F0000904020001030000000921110100012287
:1008000036000705830308000A09040300020300F9
:1008100000000921110100012222000705840320A4
:10082000000107050403200001120110010000006F
:1008300008EDFE60600100010200010631FF09744D
:10084000A1010975150026FF009520750881020990
:1008500076150026FF00952075089102C005010954
:1008600080A101850216010026B7001A01002AB7EF
:1008700000751095018100C0050C0901A1018503D7
:10088000160100269C021A01002A9C02751095018F
:100890008100C005010902A1010901A10005091992
:1008A0000129051500250195057501810295017540
:1008B0000381010501093009311581257F950275F4
:1008C00008810609381581257F950175088106057F
:1008D0000C0A38021581257F950175088106C0C074
:1008E00005010906A101050719E029E71500250101
:1008F00095087501810295017508810105081901A6
:10090000290595057501910295017503910105076A
:10091000190029FF150026FF00950675088100C003
:100920006B6579626F6172645F7265706F72743A41
:1009300020002530325820000A004C45443A20253A
:100940003032580A006D6F7573656B6579205B6294
:10095000746E7C782079207620685D287265702F0F
:1009600061636C293A205B0025303258007C0025F9
:100970006400200025640020002564002000256418
:10098000005D28002575002F00257500290A004309
:100990003E20000A0A626F6F746C6F616465722E8C
:1009A0002E2E20000A64656275673A206F66660A1B
:1009B000000A64656275673A206F6E0A000A6D610D
:1009C000747269783A206F6E0A000A6D61747269F8
:1009D000783A206F66660A000A6B6579626F617209
:1009E000643A206F6E0A000A6B6579626F61726407
:1009F0003A206F66660A000A6D6F7573653A206F5C
:100A00006E0A000A6D6F7573653A206F66660A009C
:100A10000A092D2056657273696F6E202D0A0044F5
:100A20004553433A20436F6C6F73737573204D6F5A
:100A300064656C204D20436F6E74726F6C6C6572D0
:100A40002056322E300A005649443A203078464526
:100A500045442850686F7370686F72476C6F7729D0
:100A6000205049443A20307836303630284D6F6473
:100A7000656C4D53534B56322E3029205645523A11
:100A8000203078303030310A004255494C443A2009
:100A9000383837386565642D646972747920283078
:100AA000373A30343A3437205365702020372032BB
:100AB000303136290A004F5054494F4E533A204C9A
:100AC000554641204D4F5553454B455920455854A7
:100AD00052414B455920434F4E534F4C4520434FB5
:100AE0004D4D414E4420383139320A004743433A94
:100AF00020342E372E31204156522D4C4942433A54
:100B000020312E382E30204156525F415243483A10
:100B10002061767235310A000A092D205374617400
:100B20007573202D0A00686F73745F6B6579626F4F
:100B30006172645F6C65647328293A2025580A0045
:100B40006B6579626F6172645F70726F746F636FEF
:100B50006C3A2025580A006B6579626F6172645F98
:100B600069646C653A2025580A0074696D65725F86
:100B700072656164333228293A202530346C580A72
:100B8000003F000A092D204D61676963202D0A642A
:100B90003A0964656275670A783A0964656275673F
:100BA000206D61747269780A6B3A096465627567D1
:100BB000206B6579626F6172640A6D3A09646562DF
:100BC0007567206D6F7573650A763A09766572737D
:100BD000696F6E0A733A097374617475730A633AC4
:100BE00009636F6E736F6C65206D6F64650A302DDD
:100BF000343A096C61796572302D34284631302DD4
:100C00004634290A506175733A09626F6F746C6FCC
:100C1000616465720A000A092D20436F6E736F6C60
:100C200065202D0A4553432F713A09717569740A7D
:100C30006D3A096D6F7573656B65790A004C2564B3
:100C40000A00433E20004D3E20003F000A092D20AF
:100C50004D6F7573656B6579202D0A4553432F7170
:100C60003A09717569740A313A0964656C617928C9
:100C70002A31306D73290A323A09696E74657276C9
:100C8000616C286D73290A333A096D61785F73705E
:100C90006565640A343A0974696D655F746F5F6DE8
:100CA00061780A353A09776865656C5F6D61785FD0
:100CB00073706565640A363A09776865656C5F74B8
:100CC000696D655F746F5F6D61780A0A703A0970CB
:100CD00072696E742076616C7565730A643A097383
:100CE00065742064656661756C74730A75703A0981
:100CF0002B310A646F776E3A092D310A706775706F
:100D00003A092B31300A7067646F776E3A092D31DA
:100D1000300A0A7370656564203D2064656C7461F7
:100D2000202A206D61785F7370656564202A202811
:100D3000726570656174202F2074696D655F746FD2
:100D40005F6D6178290A0077686572652064656C5B
:100D500074613A20637572736F723D25642C20773D
:100D60006865656C3D25640A536565206874747018
:100D70003A2F2F656E2E77696B6970656469612EF5
:100D80006F72672F77696B692F4D6F7573655F6B36
:100D90006579730A00433E200073657420646566BC
:100DA00061756C740A003F004D25643E20004D3E85
:100DB000000A092D2056616C756573202D0A0031DB
:100DC0003A2064656C6179282A31306D73293A20A4
:100DD000002575000A00323A20696E7465727661EA
:100DE0006C286D73293A20002575000A00333A20DB
:100DF0006D61785F73706565643A20002575000A3F
:100E000000343A2074696D655F746F5F6D61783A84
:100E100020002575000A00353A20776865656C5F0B
:100E20006D61785F73706565643A20002575000A0E
:100E300000363A20776865656C5F74696D655F742C
:100E40006F5F6D61783A20002575000A006D6B5F59
:100E500064656C6179203D2025640A006D6B5F69D3
:100E60006E74657276616C203D2025640A006D6B9E
:100E70005F6D61785F7370656564203D2025640A4D
:100E8000006D6B5F74696D655F746F5F6D61782075
:100E90003D2025640A006D6B5F776865656C5F6D4A
:100EA00061785F7370656564203D2025640A006D7C
:100EB0006B5F776865656C5F74696D655F746F5FA4
:100EC0006D6178203D2025640A006D6B5F64656C60
:100ED0006179203D2025640A006D6B5F696E746541
:100EE0007276616C203D2025640A006D6B5F6D6138
:100EF000785F7370656564203D2025640A006D6B22
:100F00005F74696D655F746F5F6D6178203D20254A
:100F1000640A006D6B5F776865656C5F6D61785F13
:100F20007370656564203D2025640A006D6B5F77F2
:100F30006865656C5F74696D655F746F5F6D61781E
:100F4000203D2025640A000011241FBECFEFD0E20F
:100F5000DEBFCDBF04B603FE24C08091FF03909195
:100F60000004A0910104B09102048730904BA74087
:100F7000B04BB9F41092FF031092000410920104D8
:100F80001092020414BE84B7877F84BF88E10FB635
:100F9000F89480936000109260000FBEE0E0F0EFE4
:100FA000099512E0A0E0B1E0ECEFF3E600E00BBF42
:100FB00002C007900D92AE30B107D9F713E0AEE052
:100FC000B2E001C01D92AF3FB107E1F70E94D61316
:100FD0000C94FC310C940000FF93EF93E0910E020F
:100FE000F0910F02309709F00995EF91FF91089564
:100FF000FC018591803011F0EFDFFBCF0895FF27D2
:10100000E0E230E247FF0CC0419597FF09C0EDE2F6
:101010006095709580959095611D711D811D911D44
:1010200027FF02C0219530E350E2AA27660F771F01
:10103000881F991FAA1FA41710F0A41B63955A9527
:10104000A9F7AA3008F0A95FA05DAF93F3956115E9
:1010500071058105910541F7ED3211F4EF93F39598
:10106000F21718F43F93F395FBCF8F91B5DFFA9504
:10107000E1F70895E991F9918591803021F0853269
:1010800019F0AADFF9CF089520E0E8945591553280
:10109000C1F3503311F4689455915A3348F45053C6
:1010A00090F3220F022E220F220F200D250FF4CFD6
:1010B0000EF4219589919991533619F3533729F1FB
:1010C000533559F1BC0188279927E8945C3621F4FF
:1010D0008991999168945591543639F446EF7EF090
:1010E00077FF0DC08FEF9FEF0AC055374AE039F008
:1010F000583540E121F0523642E009F00895FF935F
:10110000EF937DDFEF91FF91B7CFFF93EF93FC015A
:1011100081918030B9F360DFFBCFFF93EF9368DFFD
:10112000F1CFDF93CF93CDB7DEB72596A3DFCF9175
:10113000DF910895CF92DF92EF92FF92CF936C01EF
:10114000C62FFC0192818091E103992329F080FF51
:1011500009C084EB93E004C080FF04C086EB93E0F9
:101160000E94F807F601858180FF08C08091E103A5
:1011700080FF04C088EB93E00E94F807C130E1F0E3
:1011800020F0C23009F07DC042C00E947A278272EE
:10119000992780931002F6013281332309F471C03C
:1011A000811116C00E94832782E00E94A0268DB183
:1011B00092E089278DB91CC00E947A2782729927F4
:1011C00080931002F60132813323E1F0882341F04D
:1011D00081E00E94A02687B192E0892787B951C09B
:1011E0000E94832783E590E00E9437270E94B92759
:1011F0008091100290E0CF91FF90EF90DF90CF9020
:101200000C947D2781113DC083E590E031C00E94A0
:101210007A2782FF07C00E947A2786FBEE24E0F837
:10122000F12C02C0E12CF12CE0921102F601928126
:101230009923D1F0EE2061F0C7010E9483270E941C
:10124000B927CF91FF90EF90DF90CF900C940429B5
:10125000C7010E94832788E490E00E9437270E94FC
:10126000B92780911102C6CFE1100BC088E490E04D
:101270000E945927CF91FF90EF90DF90CF900C9470
:10128000B927CF91FF90EF90DF90CF900895E72F8F
:10129000F0E098E0899FE00DF11D112484E0EE0F4D
:1012A000FF1F8A95E1F7E60FF11DEC5CFE4F84917C
:1012B0000895E82FF0E0EE0FFF1FE655F04025916E
:1012C0003491C901089581B18F7081B982B18F7055
:1012D00082B987B18F7087B988B18F7088B9089546
:1012E00085B7806885BF85B7806885BF0E94630920
:1012F00084B1807F84B985B18F6085B96B98739A0A
:1013000080B3817080BB81B38E6F81BB81B1807FE0
:1013100081B982B18F6082B9E2E1F2E0A2E2B2E08B
:10132000119211921D921D9282E0E232F807C1F7EC
:101330000895AF92BF92CF92DF92EF92FF92CF9338
:10134000DF9362E2C62E62E0D62E7601D0E0C1E0E5
:10135000D430A9F030F4D230C1F0A0F4D130D9F4B7
:1013600017C0D63031F040F0D730A9F40C9A149859
:1013700014C00D9A159811C00E9A16980EC00F9AA7
:1013800017980BC03F9A479808C03E9A469805C0E8
:101390003D9A459802C03C9A449880E58A95F1F7B9
:1013A00083B18695869586958C2780FBAA24A0F824
:1013B000B12C1A9B03C020E030E002C022E030E0F4
:1013C000C9018A299B29199B03C020E030E002C093
:1013D00024E030E0282B392B189B03C080E090E0FC
:1013E00002C088E090E0822B932B639B03C040E017
:1013F00050E002C040E150E0482B592B799B03C0DC
:1014000020E030E002C020E230E0242B352B7A9B34
:1014100003C080E090E002C080E490E0282B392BEC
:101420007B9B03C060E070E002C060E870E0262BA8
:10143000372B7C9B03C040E050E002C040E051E00D
:10144000242B352B7D9B03C080E090E002C080E020
:1014500092E0282B392B7E9B03C080E090E002C0F5
:1014600080E094E0282B392B8FB1992787FD909548
:10147000809590958827990F881F9927982F8827FE
:10148000990F990F990F282B392B009B03C040E02F
:1014900050E002C040E050E1242B352B019B03C0FB
:1014A00040E050E002C040E050E2242B352B029B8C
:1014B00003C080E090E002C080E090E4282B392B4C
:1014C000039B03C080E090E002C080E090E8282BFE
:1014D000392BD7018D919C9111978217930759F160
:1014E0002D933C9380910001882311F18091E103B9
:1014F00080FF04C08AEB93E00E94F8078091E1032B
:1015000080FF0EC0809100011F928F9384EC93E0C6
:101510009F938F930E9491080F900F900F900F90C0
:101520008091E10380FF04C089EC93E00E94F807FA
:1015300085E0809300010E946309DF5FB2E0EB0E5B
:10154000F11CD83009F004CF809100018823C9F044
:10155000815080930001882339F0EFECF7E0319758
:10156000F1F700C000000DC0E2E1F2E0D6018D917C
:101570009D916D0181939193B2E3CB16B2E0DB06AE
:10158000A9F781E0DF91CF91FF90EF90DF90CF90AE
:10159000BF90AF900895E82FF0E0EE0FFF1FEE5ED2
:1015A000FD4F8081918108958F929F92AF92BF925B
:1015B000CF92DF92EF92FF928BEC93E00E94F807BC
:1015C000B2E1AB2EB2E0BB2EE12CF12C82EE882EE4
:1015D00083E0982E9AEEC92E93E0D92EFF92EF92D7
:1015E0009F928F920E94910887EE93E00E94F807E5
:1015F000F501819191915F010E94F6279F938F934E
:10160000DF92CF920E94910880EF93E00E94F8074A
:10161000FFEFEF1AFF0A8DB79EB708960FB6F89442
:101620009EBF0FBE8DBF98E0E916F104B9F6FF909A
:10163000EF90DF90CF90BF90AF909F908F900895E4
:101640003B9A81FF02C043980895439A089583E32B
:101650008093CC001092CD00E9ECF0E080818069AD
:101660008083808188608083EAECF0E080818083E1
:10167000EBECF0E080818083519A5998789408953A
:1016800040913202209133024217D9F030E0F90143
:10169000EC5CFD4F50812F5F3F4F33272093330287
:1016A000842F90E0421718F4281B390B03C0281B25
:1016B000390B3395233031050CF05998252F30E044
:1016C00002C02FEF3FEFC90108959091C80095FF28
:1016D000FCCF8093CE0008951F920F920FB60F9209
:1016E00011240BB60F922F933F934F935F938F93D9
:1016F0009F93EF93FF932091320230E0C90101964E
:10170000992740913302481741F09091CE00F9019A
:10171000EC5CFD4F90838093320250913202842F13
:1017200090E0252F30E0821B930B541708F401C082
:10173000939503970CF4599AFF91EF919F918F9194
:101740005F914F913F912F910F900BBE0F900FBE65
:101750000F901F90189580913403089508958091FB
:10176000340308950895089508950895EF92FF921F
:10177000835B91098833910540F4FC01EE0FFF1F54
:10178000E65DFE4FE080F18002C0E12CF12C8DEF90
:101790000E94650B83E00E94650B83E00E94650B4D
:1017A0008E2D0E94650B8F2DFF90EF900C94650B92
:1017B000EF92FF927C018DEF0E94650B85E00E9405
:1017C000650B82E00E94650BF70180810E94650B2A
:1017D000F70181810E94650BF70182810E94650BF0
:1017E000F7018381FF90EF900C94650BEF92FF92CD
:1017F0007C018DEF0E94650B89E00E94650B81E002
:101800000E94650BF70180810E94650B80E00E94B9
:10181000650BF70182810E94650BF70183810E94AD
:10182000650BF70184810E94650BF70185810E9499
:10183000650BF70186810E94650BF7018781FF9098
:10184000EF900C94650B0C94400BCF92DF92EF92CB
:10185000FF92CF937C010E9492286C01C0E013C0DC
:101860000E94230C9C012F3F8FEF380751F02D3041
:1018700041F02A3071F0AC2FB0E0AB5CBC4F2C9340
:10188000CF5FC73130F4C6010E94B1288E159F0585
:1018900038F3EC2FF0E0EB5CFC4F108285E393E033
:1018A000CF91FF90EF90DF90CF9008950C94650B4F
:1018B0008BB1881F8827881F0895579A5F9A0895CB
:1018C0000E945D0C56985E9A50985898519A599873
:1018D0000C94270B579A5F98089589B181700895E9
:1018E00083B186FB882780F9089580933403089597
:1018F0006E9A882311F076980895769A0895EF925B
:10190000FF927C0102C00E94560CF7018FEFE81A8B
:10191000F80A84918111F7CFFF90EF900895EF922C
:10192000FF9288E6E82E86E0F82E0AC09F938F93F8
:10193000FF92EF920E9491080F900F900F900F90DE
:101940000E94230C8F3F2FEF920781F7FF90EF90BB
:1019500008950E947F0C2FEF84E39CE0215080408B
:101960009040E1F700C0000084E690E00E94250C62
:1019700080935203909353039F938F9383E696E053
:101980009F938F930E9491080E948F0C0F900F904D
:101990000F900F9080915203909153030895AF924E
:1019A000BF92CF92DF92EF92FF925C0194E5C92E35
:1019B00093E0D92EE12CF12CC5018E0D9F1D0E94C4
:1019C000E631F60181936F01FFEFEF1AFF0A8CE019
:1019D000E816F10489F71092600384E593E0FF9024
:1019E000EF90DF90CF90BF90AF9008950E94D31BEF
:1019F00090931601809315010E94EA2181E091E005
:101A00000E94CE1B0E946A0C8BE996E00E94F807A8
:101A10002FEF8AED9AE1215080409040E1F700C01D
:101A2000000085EB96E00E94A90CEFEFF5EA2EE0AE
:101A3000E150F0402040E1F700C000000E948F0C10
:101A400089EB96E00E94A90CFC018081863721F089
:101A50008DEB96E00C94A90C089581EC96E00E9421
:101A6000F8078AED96E00E94A90C0E945D0C0E9486
:101A7000EA2180911501909116010C94CE1B8F9252
:101A80009F92AF92BF92CF92DF92EF92FF924C0162
:101A90000E94F60C8BE696E00E947F0C84EF91E0AA
:101AA0000E94250C6C01BC018AE991E00E94DD31A5
:101AB000009729F484EF91E00E94250C6C01F60157
:101AC00001900020E9F73197EC19FD09FF93EF939E
:101AD000DF92CF9220E736E03F932F930E94910848
:101AE000D6010D900020E9F71D970F900F900F90F1
:101AF0000F900F900F90AC15BD0581F57601C12CAC
:101B0000D12C29E7A22E26E0B22EF7016081C40174
:101B10008C0D9D1D0E94EE318091E10380FF0CC071
:101B2000F70180811F928F93BF92AF920E9491081C
:101B30000F900F900F900F90FFEFCF1ADF0A8FEFEB
:101B4000E81AF80AECE0CE16D104F9F68091E10328
:101B500080FF04C08DE796E00E94F807FF90EF90A9
:101B6000DF90CF90BF90AF909F908F900C942D0DF1
:101B7000AF92BF92CF92DF92EF92FF92CF935C0130
:101B80000E94F60C80E896E00E94A90C87E896E097
:101B90000E947F0CE12CF12C3BE8C32E36E0D32EC3
:101BA000C5018E0D9F1D0E94E631C82F0E94560C64
:101BB0008091E10380FF0AC01F92CF93DF92CF9202
:101BC0000E9491080F900F900F900F908FEFE81ADE
:101BD000F80A8CE0E816F10419F78091E10380FF20
:101BE00008C08FE896E09F938F930E9491080F9012
:101BF0000F9082E996E00E94A90C85E996E00E9488
:101C0000A90CCF91FF90EF90DF90CF90BF90AF9055
:101C10000C942D0D0C9422134F925F926F927F9231
:101C20008F929F92AF92BF921F93CF93DF93C2E0A8
:101C300055EF852E53E0952E62EF662E63E0762EEB
:101C4000D1E013E07BEF472E73E0572E0E94230C68
:101C50005C018F3F2FEF920709F446C080914D033E
:101C6000813009F128F0823029F18330D1F528C084
:101C70008EEFA816B10419F4D0934D03E7CF90E886
:101C8000A916B10428F4BF92AF927F926F9204C05C
:101C9000BF92AF929F928F920E9491080F900F90E7
:101CA0000F900F90D3CF22E0A216B104D1F4C093CD
:101CB0004D03CCCFAA94AB28A1F410934D03C6CF0B
:101CC0008091E10380FF0AC0BF92AF925F924F9272
:101CD0000E9491080F900F900F900F908A2D0E94F4
:101CE000750C10924D03B2CF80914E0390914F032B
:101CF0000E94B128893E23E0920708F461C028EED3
:101D000033E0B9010E948D31629FA001639F500DA5
:101D1000729F500D112480914E0390914F03840FB8
:101D2000951F90934F0380934E030E94B613833008
:101D300011F481E001C080E00E9411130E949F28ED
:101D400028EE33E040E050E00E94B53129013A012D
:101D50004CE3842E912CA12CB12CC301B201A5011E
:101D600094010E94B531672B682B692B49F50E94BD
:101D70007E132091E10320FF23C09F938F931F9236
:101D80001F92C301B20120E13EE040E050E00E941A
:101D9000B531722EA50194010E94B5313F932F9366
:101DA0001F927F928DE094E09F938F930E94910801
:101DB0008DB79EB70A960FB6F8949EBF0FBE8DBF23
:101DC0000E946D0C811106C00E94700C882311F0D6
:101DD00081E001C080E0DF91CF911F91BF90AF9073
:101DE0009F908F907F906F905F904F900C94780CA5
:101DF0004F925F926F927F928F929F92AF92BF921B
:101E0000CF92DF92EF92FF92CF93DF9300D000D07A
:101E1000CDB7DEB7803209F478C0B0F4833109F46D
:101E200055C048F48B3049F18C3009F476C08530C8
:101E300009F06DC2B3C18E3109F461C008F062C00F
:101E4000883109F064C201C28B3309F44DC048F4F3
:101E5000883399F08A3309F444C0813209F057C2BB
:101E600057C08D3309F446C008F441C0873409F4E3
:101E70001CC28C3409F04BC205C282E294E00E947D
:101E8000F80786E494E00E94F8078BE594E00E944E
:101E9000F80785E794E00E94F8078CE994E00E9437
:101EA000F80787EB94E00E94F8078EEC94E00E941C
:101EB000F80783EE94E00E94F807809150038111A7
:101EC00024C285EF94E00E94F80724C20E94F60C19
:101ED00086E596E00E94A90C8DE596E00E94A90C8B
:101EE00012C280E890E008C08CE890E005C088E964
:101EF00090E002C084EA90E00E943F0D06C280E8B4
:101F000090E008C08CE890E005C088E990E002C04D
:101F100084EA90E00E94B80DF8C185E195E00E9446
:101F2000F8070E94D31B8B50914019F48DE991E082
:101F300002C083EA91E09F938F938EE295E09F9396
:101F40008F930E949108809151031F928F938CE38D
:101F500095E09F938F930E9491080E946D0C0FB69D
:101F6000F894DEBF0FBECDBF811107C00E94700C78
:101F7000882331F08FEA91E005C088EA91E002C041
:101F80008CEA91E09F938F938BE495E09F938F93DE
:101F90000E9491080E94580C1F928F9385E595E04E
:101FA0009F938F930E949108809150031F928F936B
:101FB00080E795E09F938F930E9491088091F603AC
:101FC0000FB6F894DEBF0FBECDBF8823B9F0809165
:101FD000F6038130B1F08091F6038230A9F0809150
:101FE000F6038330A1F08091F603843099F080915C
:101FF000F603853091F486EE91E011C08CEB91E010
:102000000EC084EB91E00BC087EC91E008C08FEC30
:1020100091E005C089ED91E002C084EE91E09F93CC
:102020008F9381E895E09F938F930E94910880E9B8
:1020300095E09F938F930E9491080E94B6130F9092
:102040000F900F900F900F900F90813049F028F073
:10205000823049F0833069F409C08AE995E00BC009
:102060008FE995E008C085EA95E005C08CEA95E027
:1020700002C080EB95E09F938F930E9491080F9090
:102080000F9082EB95E09F938F930E94910880912F
:10209000F4031F928F9384EB95E09F938F930E949C
:1020A00091088091D90081701F928F938DEC95E0FB
:1020B0009F938F930E9491080E949F2828EE33E0FF
:1020C00040E050E00E94B53169017A01FCE38F2EB7
:1020D000912CA12CB12CCA01B901A50194010E9437
:1020E000B5317F936F93C701B60120E13EE040E038
:1020F00050E00E94B531722EA50194010E94B531C5
:102100003F932F931F927F92C701B60120E831E5DC
:1021100041E050E00E94B5313F932F9387ED95E069
:102120009F938F930E94910880E890E00E94CF0CCB
:102130009F938F9384EF95E09F938F930E949108D4
:102140008CE890E00E94CF0C9F938F9380E096E004
:102150009F938F930E94910888E990E00E94CF0C92
:102160009F938F938CE096E09F938F930E949108AA
:102170000FB6F894DEBF0FBECDBF84EA90E00E9498
:10218000CF0C9F938F9388E196E09F938F930E944B
:1021900091080F900F900F900F90B7C00E949F284A
:1021A00028EE33E040E050E00E94B53129013A01C9
:1021B0000E947E139F938F9384E296E09F938F9368
:1021C0000E949108C301B20120E13EE040E050E0EE
:1021D0000E94B5315F934F933F932F932FE236E0E8
:1021E0003F932F9369837A838B839C830E9491080A
:1021F000ECE38E2E912CA12CB12C69817A818B81FC
:102200009C81A50194010E94B5315F934F933F9348
:102210002F9385E396E09F938F930E949108C301CB
:10222000B201A50194010E94B5319F938F937F93D2
:102230006F938BE396E09F938F930E9491080FB664
:10224000F894DEBF0FBECDBF60C0809150038111F6
:1022500061C080915103882339F081E496E00E94A7
:10226000F8071092510351C08CE496E00E94F807E1
:1022700081E0809351030E94EA2187E191E00E946E
:10228000CE1B43C00E94580C882341F00E94F60CDC
:1022900081E08093F003809350033DC00E942D0D98
:1022A0001092F0031092500330C0809150038111BE
:1022B00002C00E94F60C80EE96E00E94A90C87EE08
:1022C00096E00E94A90C82EF96E00E94A90C86E09D
:1022D00097E00E94A90C8DE097E00E94A90C87E18D
:1022E00097E00E94A90C8EE197E00E94A90C88E279
:1022F00097E00E94A90C82E397E00E94A90C8091CC
:102300005003811102C00E942D0D81E004C0809114
:10231000500301C080E00F900F900F900F90DF915D
:10232000CF91FF90EF90DF90CF90BF90AF909F90B4
:102330008F907F906F905F904F900895CF93C82FAC
:102340000E947A27827121E009F420E08C2F90E02E
:10235000FC013497E934F10508F0FDC0E45BFF4F60
:102360000C94D7318AE058C1222309F4F8C081E4E3
:1023700053C1222309F4F5C082E44EC1222309F49B
:10238000F2C083E449C1222309F4EFC084E444C1CC
:10239000222309F4ECC085E43FC1222309F4E9C0FB
:1023A00086E43AC1222309F4E6C087E435C122233A
:1023B00009F4E3C088E430C1222309F4E0C089E4D1
:1023C0002BC1222309F4DDC08AE426C1222309F4AB
:1023D000DAC08BE421C1222309F4D7C08CE41CC1EC
:1023E000222309F4D4C08DE417C1222309F4D1C0FB
:1023F0008EE412C1222309F4CEC08FE40DC1222342
:1024000009F4CBC080E508C1222309F4C8C081E5E6
:1024100003C1222309F4C5C082E5FEC0222309F4CA
:10242000C2C083E5F9C0222309F4BFC084E5F4C02B
:10243000222309F4BCC085E5EFC0222309F4B9C00A
:1024400086E5EAC0222309F4B6C087E5E5C0222369
:1024500009F4B3C088E5E0C0222309F4B0C089E5DF
:10246000DBC0222309F4ADC08AE5D6C0222309F4DB
:10247000AAC081E2D1C0222309F4A7C080E4CCC065
:10248000222309F4A4C083E2C7C0222309F4A1C017
:1024900084E2C2C0222309F49EC085E2BDC022238B
:1024A00009F49BC08EE5B8C0222309F498C086E2E7
:1024B000B3C0222309F495C08AE2AEC0222309F4F6
:1024C00092C088E2A9C0222309F48FC089E2A4C087
:1024D00088E0A2C089E0A0C080E29EC0222309F467
:1024E00086C08FE599C0222309F483C08BE294C093
:1024F000222309F480C08BE78FC0222309F47DC01A
:102500008DE78AC0222309F47AC08CE785C02111A7
:10251000FCCF8CE581C0222309F473C08AE37CC020
:10252000222309F470C082E277C0222309F46DC02F
:102530008EE772C0222309F46AC08CE36DC02223A7
:1025400009F467C08EE368C0222309F464C08FE3F6
:1025500063C080E061C080E25FC08BE15DC081E666
:102560005BC082E659C083E657C084E655C085E665
:1025700053C086E651C087E64FC088E64DC089E665
:102580004BC08AE649C08BE647C08CE645C08DE665
:1025900043C08EE641C08FE63FC080E73DC081E783
:1025A0003BC082E739C083E737C084E735C085E7A1
:1025B00033C086E731C087E72FC088E72DC089E7A1
:1025C0002BC08AE729C081E327C082E325C083E3CB
:1025D00023C084E321C085E31FC086E31DC087E3D9
:1025E0001BC088E319C089E317C080E315C08DE2E2
:1025F00013C08DE311C08BE50FC08DE50DC08CE5D8
:102600000BC08BE309C087E207C080E605C08CE2FF
:1026100003C08EE201C08FE20E94560C81E0CF9190
:102620000895833019F46D9A659A0895813011F4F4
:102630006D9A06C0823019F46D9A759A08956D9856
:102640007598089581E00E9411132FEF84E39CE0B8
:10265000215080409040E1F700C0000082E00E94DD
:1026600011132FEF84E39CE0215080409040E1F76C
:1026700000C0000081E00E9411132FEF84E39CE072
:10268000215080409040E1F700C0000082E00E94AD
:1026900011132FEF84E39CE0215080409040E1F73C
:1026A00000C0000080E00E94111380EC80937C0049
:1026B00087E080937A00259A2D9A08958091D90019
:1026C00080FF1AC02DB19EB16F98779AEFECF7E0BA
:1026D0003197F1F700C000008CB18095881F8827E2
:1026E000881F3DB120783F77232B2DB92EB19078EC
:1026F0002F77922B9EB9089580E00895CF93DF93B2
:1027000000D0CDB7DEB7259A2D9880917A008068E9
:1027100080937A008FEC97E00197F1F700C00000FA
:1027200080917A00806480937A0080917A0086FD9F
:10273000FCCF80917800909179009A838983809171
:102740007A008F7780937A00259A2D9A89819A81D1
:1027500045E0489F9001499F300D112420553109D3
:10276000C9010F900F90DF91CF9108958091D9000A
:1027700080FD0C945E130E947E138C3A2DE092072C
:1027800020F481E08093610305C085379E4010F0FE
:102790001092610380916103882311F083E0089512
:1027A00082E008950E945D1480E0089584B7877FD9
:1027B00084BF88E10FB6F8948093600010926000A7
:1027C0000FBE90E080E80FB6F8948093610090937C
:1027D00061000FBE0E94C4180E942B198091E20074
:1027E00084608093E20082ED93E10E94DF27549A97
:1027F0005C986C9A7498249878948FEF08C0EFE3F3
:10280000FFE13197F1F700C00000882329F0909193
:10281000F6038150943099F788E397E00E94F80717
:102820000E94600C0E940A0E83E497E00E94F80761
:102830000E94661C1C9905C08BE091E00E94CE1B93
:102840000AC05C9A87E191E00E94CE1B8091F6035A
:10285000843009F0749A8FE497E00E94F8071DC055
:102860008FE597E00E94F8070E9448280E942128DF
:102870000E9421280E9421280E9421280E942128AC
:102880000E9421280E9421288091F403882329F0A6
:102890000E94492881110E9416170E946D0C8823FE
:1028A00021F08091F6038530D9F20E946A1C0E94C3
:1028B0000C0EF3CF80916D0308959FB7F89410929A
:1028C00064039FBF9091F603943009F058C0909133
:1028D000E9009F702091EC0020FF02C020E801C0B9
:1028E00020E0292B94E09093E9009091EB0090FF79
:1028F00043C09091EE0097FF3FC090916E039923E3
:1029000021F09091E80095FF37C010926E0396E099
:1029100014C03091F603343079F53091EB0035FD79
:102920002BC0915021F481E080936E0325C0EFEC21
:10293000F7E03197F1F700C000003091E80035FF73
:10294000E8CF8093F1008091E80085FD0AC0809176
:10295000E80080FFFCCF8091E8008E778093E8004C
:1029600006C08FB7F89491E0909364038FBF2F70E7
:102970002093E90080E008952F702093E9008FEF05
:102980000895CF93DF9300D01F92CDB7DEB720918B
:10299000F603243021F523E029839B838A83209347
:1029A000E9008FEF06C09AE69A95F1F700C08823F8
:1029B00029F09091E800815095FFF5CF8091E800D3
:1029C00085FF0DC040E050E063E070E0CE0101966D
:1029D0000E942C178091E8008E778093E8000F907A
:1029E0000F900F90DF91CF910895CF93DF9300D098
:1029F0001F92CDB7DEB72091F603243029F522E0EF
:102A000029839B838A8383E08093E9008FEF06C04C
:102A10009AE69A95F1F700C0882329F09091E80092
:102A2000815095FFF5CF8091E80085FF0DC040E013
:102A300050E063E070E0CE0101960E942C17809177
:102A4000E8008E778093E8000F900F900F90DF9151
:102A5000CF9108952091F6032430F9F422E02093D9
:102A6000E9002FEF06C03AE63A95F1F700C02223BD
:102A700029F03091E800215035FFF5CF2091E80092
:102A800025FF0BC040E050E065E070E00E942C178D
:102A90008091E8008E778093E8000895EF92FF928E
:102AA0007C018091F603843041F581E08093E90058
:102AB0008FEF06C09AE69A95F1F700C0882329F0B7
:102AC0009091E800815095FFF5CF8091E80085FF57
:102AD00014C040E050E068E070E0C7010E942C178D
:102AE0008091E8008E778093E80088E0F701A5E602
:102AF000B3E001900D928A95E1F7FF90EF90089571
:102B000083E697E00E94F8078091F503811109C0E0
:102B10000E94C4180E942B198091E2008460809367
:102B2000E200089587E697E00E94F8071092F50307
:102B300008958BE697E00C94F807809163038F5F0C
:102B40008093630362E30E948131911135C010923A
:102B5000630380916403882379F18091F6038430C4
:102B600049F58091E9008F709091EC0090FF02C0D0
:102B700090E801C090E0982B84E08093E900809178
:102B8000EB0080FF14C08091EE0087FD03C00FC0F2
:102B90001092F1008091E80085FDFACF8091E80065
:102BA00080FF05C08091E8008E778093E8009F70D9
:102BB0009093E90010926403089542E061EC81E093
:102BC0000E943A1842E061EC82E00E943A1842E02A
:102BD00061EC83E00E943A1842E261EC84E00C94DC
:102BE0003A188091F803833009F454C030F48130EE
:102BF00071F0823009F0A5C08CC08A3009F479C028
:102C00008B3009F45FC0893009F09BC020C08091EF
:102C1000F703813A09F095C08091E800877F80939F
:102C2000E8008091FB039091FC03892B21F060E088
:102C300080E090E003C068E085E693E070E00E94E9
:102C40007F178091E8008B778093E800089580914A
:102C5000F703813209F075C08091FB039091FC036A
:102C6000892B09F06EC08091E800877F8093E8008F
:102C700005C08091F603882309F463C08091E800C1
:102C800082FFF7CF8091F10080936D038091E8007F
:102C90008B7753C08091F703813A09F052C080913D
:102CA000FB039091FC03892B09F04BC08091E80055
:102CB000877F8093E8008091E80080FFFCCF8091BF
:102CC000210136C08091F7038132D9F58091FB0351
:102CD0009091FC03892BA9F58091E800877F809370
:102CE000E8000E9471188091F903809321010C94EF
:102CF000EA218091F703813221F58091E800877FF6
:102D00008093E8000E9471188091FA038093620317
:102D100008958091F703813AA1F48091E800877FBC
:102D20008093E8008091E80080FFFCCF80916203EF
:102D30008093F1008091E8008E778093E8000C94F6
:102D40007118089508958FE697E00E94F8070C9493
:102D5000A2160C945E2883E797E00E94F8070C9473
:102D6000A916292F332723303105B1F04CF4213037
:102D7000310509F44DC02230310509F04EC007C0BD
:102D80002132310541F12232310591F146C0E4E7AB
:102D9000F0E085EB97E045C099278130910569F017
:102DA0008230910589F0892B09F037C0E1EBF7E01B
:102DB000E491F0E081EB97E034C0E5E9F7E0E491DD
:102DC000F0E085E997E02DC0E7E7F7E0E491F0E077
:102DD00087E797E026C0643000F5E62FF0E0EE0FBD
:102DE000FF1FE051FE4F80819181E9E0F0E019C0C2
:102DF000643098F4E62FF0E0DF01AA0FBB1FA85063
:102E0000BE4F8D919C91E050FE4FE081F0E009C0F3
:102E1000E2E1F0E089E298E004C0E0E0F0E080E088
:102E200090E0DA018D939C93CF0108958CE089BDE9
:102E30008EE089BD09B400FEFDCF8091D8008F7D62
:102E40008093D8008091E00082608093E0008091C0
:102E5000E00081FDFCCF08958F929F92AF92BF92C8
:102E6000CF92DF92EF92FF92CF935C016B017A01D8
:102E70000E949218C82F811137C0E114F10439F073
:102E8000F70120813181C21AD30AA20EB31E812C10
:102E9000912C25C08091E80085FD16C08091E80046
:102EA0008E778093E800E114F10449F0F701808106
:102EB0009181880D991D91838083C5E015C00E9482
:102EC0009218882361F00FC0F50181915F01809312
:102ED000F100F1E0CF1AD1088FEF881A980AC114D7
:102EE000D104C1F601C0C82F8C2FCF91FF90EF9075
:102EF000DF90CF90BF90AF909F908F9008952091DA
:102F0000FD033091FE032617370748F06115710560
:102F100039F42091E8002E772093E80001C0B90130
:102F2000FC0120E02CC08091F6038823F1F185306C
:102F3000F1F18091E80083FD3CC08091E80082FDC2
:102F40002EC08091E80080FF1AC08091F20090911D
:102F5000F30006C021912093F100615071090196A0
:102F60006115710519F088309105A0F321E00897EB
:102F700009F020E08091E8008E778093E8006115E9
:102F8000710589F62111CFCF0AC08091F6038823FD
:102F900061F0853061F08091E80083FD0AC0809186
:102FA000E80082FFF2CF80E0089582E0089583E098
:102FB000089581E008952091FD033091FE032617C6
:102FC000370748F06115710539F42091E8002E7734
:102FD0002093E80001C0B901FC0120E02FC08091DE
:102FE000F603882309F440C0853009F43FC080917E
:102FF000E80083FD3DC08091E80082FD2FC08091F4
:10300000E80080FF1BC08091F2009091F30007C0A0
:1030100024912093F1003196615071090196611558
:10302000710519F08830910598F321E0089709F0AF
:1030300020E08091E8008E778093E80061157105AB
:1030400071F62111CCCF0AC08091F603882361F07C
:10305000853061F08091E80083FD0AC08091E8002E
:1030600082FFF2CF80E0089582E0089583E0089522
:1030700081E00895982F2CC09093E900981739F0BB
:103080007091EC002091ED005091F00003C0242FCE
:10309000762F50E021FD02C09F5F1AC03091EB00F7
:1030A0003E7F3093EB003091ED003D7F3093ED009B
:1030B0003091EB0031603093EB007093EC00209383
:1030C000ED005093F0002091EE0027FDE5CF07C002
:1030D000973090F28F708093E90081E0089580E04E
:1030E00008958091F70387FD05C08091E80080FF77
:1030F0000EC012C08091E80082FD05C08091F603E9
:103100008111F8CF08958091E8008B7708C08091F5
:10311000F6038111EACF08958091E8008E778093BD
:10312000E80008958091E4009091E50045E6209143
:10313000EC0020FD1FC023C02091F603222391F054
:10314000253091F02091EB0025FD10C02091E40086
:103150003091E5002817390751F34150C90139F77B
:1031600084E0089582E0089583E0089581E0089561
:1031700080E008952091E80020FFDECFF9CF209174
:10318000E80022FFD9CFF4CF0E943A190E944219D9
:10319000E0EEF0E0808181608083E8EDF0E0808106
:1031A0008F77808319BCA7EDB0E08C918E7F8C93D4
:1031B00080818F7E80831092F5030895CF92DF92F5
:1031C000EF92FF920E943A190E94421988EDE82E70
:1031D000F12CF70180818F778083808180688083E4
:1031E00080818F7D8083E7EDF0E08081806880833F
:1031F00019BC1092F6031092F2031092F40310928D
:10320000F30390EEC92ED12CF60180818B7F808351
:10321000F70180818160808342E060E080E00E946D
:103220003A18E1EEF0E080818E7F8083E2EEF0E0FC
:10323000808181608083808188608083F6018081C5
:103240008E7F8083F701808180618083FF90EF9083
:10325000DF90CF900895E8EDF0E080818F7E80834D
:10326000E7EDF0E080818160808381E08093F50369
:103270000C94DE18E8EDF0E080818C7F8083109262
:10328000E20008951092DA001092E10008951F9272
:103290000F920FB60F9211240BB60F922F933F93FC
:1032A0004F935F936F937F938F939F93AF93BF934E
:1032B000EF93FF938091E10082FF0BC08091E200C9
:1032C00082FF07C08091E1008B7F8093E1000E9424
:1032D0009D158091DA0080FF1FC08091D80080FF8B
:1032E0001BC08091DA008E7F8093DA008091D90034
:1032F00080FF0DC08CE089BD8EE089BD09B400FE61
:10330000FDCF81E08093F6030E94801505C019BCB3
:103310001092F6030E9492158091E10080FF19C07F
:103320008091E20080FF15C08091E2008E7F809343
:10333000E2008091E20080618093E2008091D800F9
:1033400080628093D80019BC85E08093F6030E94C8
:10335000A3168091E10084FF30C08091E20084FFD9
:103360002CC08CE089BD8EE089BD09B400FEFDCF84
:103370008091D8008F7D8093D8008091E1008F7E6E
:103380008093E1008091E2008F7E8093E200809143
:10339000E20081608093E2008091F203882311F0C3
:1033A00084E007C08091E30087FF02C083E001C092
:1033B00081E08093F6030E94AB168091E10083FFC9
:1033C00029C08091E20083FF25C08091E100877FC2
:1033D0008093E10082E08093F6031092F2038091E3
:1033E000E1008E7F8093E1008091E2008E7F8093E8
:1033F000E2008091E20080618093E20042E060E0C0
:1034000080E00E943A188091F00088608093F0007C
:103410000E949915FF91EF91BF91AF919F918F916C
:103420007F916F915F914F913F912F910F900BBEC4
:103430000F900FBE0F901F9018951F920F920FB60E
:103440000F9211240BB60F922F933F934F935F93DC
:103450006F937F938F939F93AF93BF93CF93EF938C
:10346000FF938091E9008F709091EC0090FF02C073
:1034700090E801C090E0C92FC82B1092E90080911C
:10348000F000877F8093F00078940E94651A109274
:10349000E9008091F00088608093F000CF70C093C5
:1034A000E900FF91EF91CF91BF91AF919F918F91E3
:1034B0007F916F915F914F913F912F910F900BBE34
:1034C0000F900FBE0F901F9018951F93CF93DF930F
:1034D000CDB7DEB7AC970FB6F894DEBF0FBECDBF49
:1034E000E7EFF3E08091F100819323E0EF3FF207F3
:1034F000C9F70E94F1158091E80083FF37C18091E0
:10350000F7039091F803953009F488C038F49130AE
:10351000B1F170F0933009F029C131C0983009F44D
:10352000F8C0993009F404C1963009F01FC19DC05C
:10353000803821F0823809F019C108C08091F30366
:103540009091F403992389F082600FC08091FB036E
:103550009091FC038F7099278093E9008091EB0094
:1035600085FB882780F91092E9009091E800977F09
:103570009093E8008093F1001092F100D5C0882369
:1035800019F0823009F0F2C08F7121F0823009F019
:10359000EDC00BC08091F903813009F0E7C0933092
:1035A00009F080E08093F4032FC08091F90381112A
:1035B0002BC08091FB039091FC038F70992700979B
:1035C00009F4D4C08093E9002091EB0020FF1CC0D7
:1035D0002091F803233021F48091EB00806212C027
:1035E0009091EB0090619093EB0021E030E001C0FE
:1035F000220F8A95EAF72093EA001092EA00809160
:10360000EB0088608093EB001092E9008091E80065
:10361000877F8093E8000E947118A8C08111A6C01E
:103620008091F9039091FA038F779927182F909141
:10363000E3009078982B9093E3008091E800877FD7
:103640008093E8000E9471188091E80080FFFCCF11
:103650008091E30080688093E300112311F083E000
:1036600001C082E08093F60381C08058823008F068
:103670007DC08091F9039091FA038C3D23E092077D
:1036800079F583E08A838AE289834FB7F894DE0173
:10369000139620E03EE051E2E32FF0E05093570014
:1036A000E49120FF03C0E295EF703F5FEF708E2F33
:1036B00090E0EA3010F0C79601C0C0968D939D93BC
:1036C0002F5F243149F74FBF8091E800877F8093B7
:1036D000E8006AE270E0CE0101960E947F1713C0F5
:1036E000AE01455D5F4F6091FB030E94B1160097EC
:1036F000E9F12091E800277F2093E800BC018BA529
:103700009CA50E94DB178091E8008B778093E800EE
:103710002DC0803859F58091E800877F8093E800BC
:103720008091F2038093F1008091E8008E7771CF51
:1037300081111CC09091F9039230C0F48091E8008F
:10374000877F8093E8009093F2030E947118809124
:10375000F203811104C08091E30087FF02C084E07E
:1037600001C081E08093F6030E94DD158091E8009E
:1037700083FF0AC08091E800877F8093E8008091F2
:10378000EB0080628093EB00AC960FB6F894DEBF3E
:103790000FBECDBFDF91CF911F910895909370031D
:1037A00080936F03089580916F0390917003089543
:1037B000E0916F03F0917003309721F00190F08158
:1037C000E02D099480E00895CF92DF92EF92FF926E
:1037D000CF93D82EC92FE0916F03F09170033097EB
:1037E000C1F10280F381E02D09958091E10382FF10
:1037F00030C080FF04C080E299E00E94F807ED2C01
:10380000FC2EC8E082E3C82E89E0D82E8091E10327
:1038100080FF0CC0F70180811F928F93DF92CF92BF
:103820000E9491080F900F900F900F90C150FFEFE2
:10383000EF1AFF0AC111EACF8091E10380FF09C0AE
:1038400088E399E0CF91FF90EF90DF90CF900C94B8
:10385000F807CF91FF90EF90DF90CF900895E0911F
:103860006F03F0917003309721F00480F581E02D13
:103870000994089520917103309172038217930780
:1038800071F09093720380937103E0916F03F09154
:103890007003309721F00680F781E02D0994089598
:1038A00020917303309174038217930771F0909302
:1038B000740380937303E0916F03F091700330976A
:1038C00021F00084F185E02D099408950E94892853
:1038D0000C9470092F923F924F925F926F927F9259
:1038E0008F929F92AF92BF92CF92DF92EF92FF9210
:1038F0000F931F93CF93DF9300D000D01F92CDB7CB
:10390000DEB70E94990995E7492E93E0592E25E8E4
:10391000A22E23E0B22EE12CF12C22242394312C70
:103920000E2D8E2D0E94CB0A6C01F2018190919098
:103930002F01882699268114910409F461C08E2DE7
:103940000E94CB0A3C01019786219721892B09F41B
:10395000ADC010E0101304C01F5F1830D9F7A6C027
:10396000812F0E94CB0A86219721892BA9F3A6C01B
:10397000F501808191818C159D0511F00E94D40A7A
:10398000F501D182C0823CC00E94D40A80E090E060
:103990003101082E02C0660C771C0A94E2F79301ED
:1039A00028213921232B41F189830A83C620D7207E
:1039B00081E0CD2809F480E08B830E949228816009
:1039C000782F9D838C8349815A816B818D810E94E0
:1039D0007D1D49815A816B817C818D810E940E28D9
:1039E000F701EE0FFF1FEB58FC4F80819181862578
:1039F0009725918380831FC001968031910541F600
:103A0000FFEFEF1AFF0A82E0A80EB11CE8E0EE1605
:103A1000F10409F085CF8FEF89838A831B820E948E
:103A200092288160782F9D838C8349815A816B8194
:103A30008D810E947D1D0E940D280E94F32B109104
:103A400095030E94D81B1817F1F10E94D81B809390
:103A500095039091E10392FF0EC090FF0CC01F925E
:103A60008F938AE399E09F938F930E9491080F9020
:103A70000F900F900F90809195030F900F900F90E3
:103A80000F900F90DF91CF911F910F91FF90EF90CA
:103A9000DF90CF90BF90AF909F908F907F906F906E
:103AA0005F904F903F902F900C941F28F501D1828A
:103AB000C0828091E10381FF69CF66CF8091E103ED
:103AC00081FD56CF5DCF0F900F900F900F900F900C
:103AD000DF91CF911F910F91FF90EF90DF90CF90EA
:103AE000BF90AF909F908F907F906F905F904F901E
:103AF0003F902F9008950C94200BCF93DF93CDB778
:103B0000DEB72B970FB6F894DEBF0FBECDBF4F8345
:103B1000588769877A878B878A859B85892B39F0B7
:103B20005F3F41F481E090E04F3F31F003C081E01E
:103B300090E002C080E090E080FD07C04F81588592
:103B400069857A858B850E940E28DE01119686E0B4
:103B5000FD0111928A95E9F785E0FE013796019003
:103B60000D928A95E1F749815A816B817C818D8123
:103B70009E810E94AC242B960FB6F894DEBF0FBE38
:103B8000CDBFDF91CF910895CF93C82F882309F43B
:103B9000A3C08450813A48F48C2F0E940A2F8111CF
:103BA0009BC08C2F0E9437270DC08C2F805E8830E1
:103BB00060F4C77081E090E001C0880FCA95EAF711
:103BC0000E947D27CF910C94B9278C2F855A833082
:103BD00078F4C53A29F0C63A31F482E890E005C09D
:103BE00081E890E002C083E890E0CF910C943A1C09
:103BF0008C2F885A853108F06FC0C83A61F1C93AF4
:103C000069F1CA3A71F1CB3A79F1CC3A81F1CD3A06
:103C100089F1CE3A91F1CF3A99F1C13BA1F1C03B84
:103C2000A9F1C23BB1F1C33BB9F1C43BC1F1C53B02
:103C3000C9F1C63BD1F1C73BD9F1C83BE1F1C93B62
:103C4000E9F1CA3BF1F1CB3BF9F1CC3B09F03FC0C4
:103C50008AE292E03EC082EE90E03BC089EE90E0C6
:103C600038C08AEE90E035C085EB90E032C086EB3C
:103C700090E02FC083EB90E02CC084EB90E029C053
:103C800087EB90E026C08CEC90E023C08DEC90E0B8
:103C900020C083E891E01DC08AE891E01AC082E963
:103CA00091E017C084E991E014C081E292E011C074
:103CB00083E292E00EC084E292E00BC085E292E0E3
:103CC00008C086E292E005C087E292E002C080E090
:103CD00090E0CF910C94501CCF910895882331F13E
:103CE000982F9450913A18F40E9459270EC0982F9B
:103CF000905E983060F4282F277081E090E001C03A
:103D0000880F2A95EAF70E9483270C94B927982FE9
:103D1000955A933020F480E090E00C943A1C885A35
:103D2000853120F480E090E00C94501C08958823A5
:103D300021F00E947D270C94B9270895882321F053
:103D40000E9483270C94B92708958F929F92AF9277
:103D5000BF920F931F93CF93DF93CDB7DEB7279713
:103D60000FB6F894DEBF0FBECDBF5C0185E0F50154
:103D7000DE01119601900D928A95E1F7F5013081EF
:103D800021811281058102950F7083819481892B95
:103D900039F02F3F41F481E090E03F3F31F003C024
:103DA00081E090E002C080E090E080FDF2C23983C3
:103DB0002A8389819A810E94F2269E838F830E94A2
:103DC000F1260E9419264E81242F22952F7030E073
:103DD0006F812530310509F4E9C06CF424303105D8
:103DE0000CF0A7C0842F807F942F9F702230310564
:103DF0000CF043C015C02C3031054CF42A3031058D
:103E00000CF0E3C12830310509F0C3C2E7C02C3003
:103E1000310509F498C22F30310509F0BAC2A7C2A2
:103E2000992E811101C003C0929490EF9922112321
:103E300059F0992009F462C2892D6F830E9490275E
:103E40000E94B9276F815AC2862F0E946E1E992048
:103E500009F49FC2892D0E94962727960FB6F894E1
:103E6000DEBF0FBECDBFDF91CF911F910F91BF90ED
:103E7000AF909F908F900C94B927992E803209F4BF
:103E800003C0929480EF9822662321F0613009F0FC
:103E900041C021C01123B1F0892D011101C026C0FC
:103EA000013021F527960FB6F894DEBF0FBECDBFC7
:103EB000DF91CF911F910F91BF90AF909F908F9006
:103EC0000C94A027011101C003C0013009F461C2A4
:103ED0000E94A3272CC01123C9F0063008F059C254
:103EE0000E947A27892109F022C0892D27960FB6D2
:103EF000F894DEBF0FBECDBFDF91CF911F910F9120
:103F0000BF90AF909F908F900C94971E053008F053
:103F100040C20DC0112349F0002339F3F50185811A
:103F200080FFECC18F708583E0CF0111FBC1892D2B
:103F300068C1242F26952695237030E02115310580
:103F400029F02130310509F024C218C0112321F0D5
:103F5000862F942F937002C080E090E027960FB6D2
:103F6000F894DEBF0FBECDBFDF91CF911F910F91AF
:103F7000BF90AF909F908F900C943A1C112321F02A
:103F8000862F942F937002C080E090E027960FB6A2
:103F9000F894DEBF0FBECDBFDF91CF911F910F917F
:103FA000BF90AF909F908F900C94501C862F112340
:103FB00019F00E94772A02C00E94DF2A27960FB6C6
:103FC000F894DEBF0FBECDBFDF91CF911F910F914F
:103FD000BF90AF909F908F900C94662B842F83702E
:103FE00009F076C01111D5C1262F2295269527708C
:103FF000220F220F862F8F70882E912CA12CB12C8E
:10400000022E04C0880C991CAA1CBB1C0A94D2F76F
:1040100064FF10C06FE070E080E090E004C0660FC5
:10402000771F881F991F2A95D2F760957095809504
:10403000909503C060E070E0CB01242F2695269573
:104040002370422F50E042305105D1F043305105EA
:1040500059F1682979298A299B294130510541F173
:1040600027960FB6F894DEBF0FBECDBFDF91CF917C
:104070001F910F91BF90AF909F908F900C942E2620
:10408000682979298A299B2927960FB6F894DEBFDB
:104090000FBECDBFDF91CF911F910F91BF90AF9019
:1040A0009F908F900C9440260E942E26C501B4014B
:1040B00027960FB6F894DEBF0FBECDBFDF91CF912C
:1040C0001F910F91BF90AF909F908F900C941C26E2
:1040D000112319F0842F817001C08695882309F47B
:1040E00058C1262F229526952770220F220F862F42
:1040F0008F70882E912CA12CB12C022E04C0880C1C
:10410000991CAA1CBB1C0A94D2F764FF10C06FE074
:1041100070E080E090E004C0660F771F881F991F51
:104120002A95D2F7609570958095909503C060E0D0
:1041300070E0CB01242F269526952370422F50E066
:1041400042305105D1F04330510559F168297929A0
:104150008A299B294130510541F127960FB6F894E1
:10416000DEBF0FBECDBFDF91CF911F910F91BF90EA
:10417000AF909F908F900C94CD26682979298A2939
:104180009B2927960FB6F894DEBF0FBECDBFDF91F7
:10419000CF911F910F91BF90AF909F908F900C94F3
:1041A000DF260E94CD26C501B40127960FB6F894EC
:1041B000DEBF0FBECDBFDF91CF911F910F91BF909A
:1041C000AF909F908F900C94BB26603F51F120F4EC
:1041D000603E08F48EC008C0623F09F463C0E0F19D
:1041E000633F09F086C061C0062F0F70842F8F7166
:1041F000112321F00E946626802F78CE0E9481260E
:10420000802F27960FB6F894DEBF0FBECDBFDF918B
:10421000CF911F910F91BF90AF909F908F900C9472
:104220009E1E1123A9F0053008F0B3C0842F8F71B2
:1042300027960FB6F894DEBF0FBECDBFDF91CF91AA
:104240001F910F91BF90AF909F908F900C94A026DC
:10425000063008F09EC0EACF112391F0842F8F71B1
:1042600027960FB6F894DEBF0FBECDBFDF91CF917A
:104270001F910F91BF90AF909F908F900C946626E6
:10428000842F8F7127960FB6F894DEBF0FBECDBF77
:10429000DF91CF911F910F91BF90AF909F908F9022
:1042A0000C9481261111ECCFD9CF112391F0842FDA
:1042B0008F7127960FB6F894DEBF0FBECDBFDF918A
:1042C000CF911F910F91BF90AF909F908F900C94C2
:1042D000572627960FB6F894DEBF0FBECDBFDF91ED
:1042E000CF911F910F91BF90AF909F908F900C94A2
:1042F00052261123A1F0002309F4B0CF862F279670
:104300000FB6F894DEBF0FBECDBFDF91CF911F91E6
:104310000F91BF90AF909F908F900C94C41D00237D
:1043200009F4AECF862F27960FB6F894DEBF0FBEE6
:10433000CDBFDF91CF911F910F91BF90AF909F9014
:104340008F900C946E1E4F70C5010E94F329279622
:104350000FB6F894DEBF0FBECDBFDF91CF911F9196
:104360000F91BF90AF909F908F900C9462254F70EB
:10437000C50127960FB6F894DEBF0FBECDBFDF9103
:10438000CF911F910F91BF90AF909F908F900C9401
:104390009A0827960FB6F894DEBF0FBECDBFDF9107
:1043A000CF911F910F91BF90AF909F908F900895E4
:1043B0000E949D270E946C270E94B9270E94942C7E
:1043C0000E94662B80E090E00E943A1C80E090E022
:1043D0000C94501C0E948D270C94D8210E94F22628
:1043E000292F22952F7030E02C3031054CF42A30E3
:1043F00031056CF4225031092230310590F407C0A8
:104400002C30310551F02F30310559F406C0803E73
:1044100010F0803F31F481E0089593FB882780F904
:10442000089580E00895CF93DF9300D000D01F92CD
:10443000CDB7DEB70F900F900F900F900F90DF91D8
:10444000CF910895CF93DF9300D000D000D0CDB7A7
:10445000DEB726960FB6F894DEBF0FBECDBFDF9154
:10446000CF910895EF92FF92CF939091CC03C6E045
:1044700015C0E92EF12CCE9DF001CF9DF00D112439
:10448000E456FC4F40815181628173818481958122
:104490000E942222C7010196982F97708091CD0328
:1044A0009813E7CFCF91FF90EF9008954091960336
:1044B00050919703609198037091990380919A03AA
:1044C00090919B030C9422220F931F93CF93DF9321
:1044D00080919B0382958F7009F069C08091980349
:1044E000882309F464C0A091CC03D091CD03B0918E
:1044F0009603C09197038091990390919A0321E0CC
:1045000030E0BF3F11F020E030E0122FBC01609599
:10451000709506E04AC0009721F0CF3F29F4212F83
:1045200005C021E030E002C020E030E020FD3BC0CB
:104530004A2F50E0049FF001059FF00D1124E4562E
:10454000FC4F2181C2132FC02081B2132CC02281C5
:10455000211129C0238134812817390718F0281B1D
:10456000390B02C0260F371F283C3105E0F480913B
:104570009B038F70806180939B0386E0849FF00192
:10458000859FF00D1124EF55FC4F80818F70806165
:10459000808386E993E00E94A51EDF91CF911F9151
:1045A0000F910C943222AF5FA770AD13B4CFDF919F
:1045B000CF911F910F910895CF92DF92EF92FF92CA
:1045C000CF93DF93CDB7DEB762970FB6F894DEBF17
:1045D0000FBECDBF7C0185E0F701DE011D96019085
:1045E0000D928A95E1F7D7014C9111965C91119744
:1045F00012966C9112971396CD90DC90149770914F
:104600009603E09197038091990390919A03009704
:1046100039F0EF3F41F421E030E07F3F31F003C05B
:1046200021E030E002C020E030E020FD5CC12091BC
:104630009803222309F4F1C0C816D90628F0960180
:10464000281B390BC90104C0809590958C0D9D1DC8
:10465000883C910508F098C080919B03982F907F2B
:1046600009F064C0E51314C0741312C0611110C0C6
:104670008F70806180939B030E94562286E993E0AD
:104680000E94A51E80919B03D70115968C9343C170
:10469000CD2839F05F3F41F481E090E04F3F31F0A9
:1046A00003C081E090E002C080E090E080FD03C0A4
:1046B00081E0862702C080E090E080FF2EC08091DC
:1046C000CC032091CD0336E013C090E0389FF00179
:1046D000399FF00D1124E456FC4F7181571306C029
:1046E0007081471303C07281671317C001968770EA
:1046F0008213EBCF12C19F7059F0882309F40BC1CC
:1047000007C09F7029F0F7019581907F09F403C1DC
:10471000805E883008F4FFC0D2C0662309F4FBC075
:1047200080919B03816080939B03F5C0E51308C0D3
:10473000741306C0611104C0D70115968C939DC0F7
:104740004D875E878D859E856A8B0E94EE216A89E2
:10475000882309F4B4C0662309F4B1C020919B03F7
:10476000822F82958F7090E002970CF4C6C08091E2
:1047700096039091970398878F831986DB86CA8664
:104780002C87CE01079646C080919B03982F907F7F
:1047900059F47C2DD98AC88A89890E94132286E916
:1047A00093E00E94A51E95C0E51311C074130FC0BD
:1047B00061110DC0F7018583C7010E94A51EE6E9BE
:1047C000F3E086E0DF011D928A95E9F7A2C04D87EC
:1047D0005E878D859E856A8B0E94EE216A8988237B
:1047E00009F46DC0662309F46AC020919B03822FEF
:1047F00082958F7090E002970CF47FC080919603B1
:10480000909197039A8389831B82DD82CC822E83C9
:10481000CE0101960E94A51E70C0C816D90628F0C8
:104820009601281B390BC90104C0809590958C0D09
:104830009D1D883C910508F046C0662309F43FC0E1
:10484000E51330C074132EC020919B0320FD21C0BE
:10485000322F32953F70832F90E00097D1F0D7012F
:1048600015962C9315970F9741F0832F8F5F8295A4
:10487000807F2F70282B15962C93C7010E94A51EB0
:1048800086E0F701A6E9B3E001900D928A95E1F781
:104890003EC086E0F701A6E9B3E001900D928A954B
:1048A000E1F737C04D875E878D859E850E94EE219A
:1048B000811123C080919B03816080939B03C7017A
:1048C0000E94A51E26C07C2DD98AC88A89890E948B
:1048D0001322E6E9F3E086E0DF011D928A95E9F70D
:1048E0000E94562218C0662351F34D875E878D853E
:1048F0009E850E94EE21882311F386E0F701A6E948
:10490000B3E001900D928A95E1F70E9464220E9423
:10491000562281E014C080E012C04D875E878D85ED
:104920009E850E94F226292F22952F7030E022309A
:1049300031050CF4E0CE243031050CF6E2CE62965F
:104940000FB6F894DEBF0FBECDBFDF91CF91FF90C1
:10495000EF90DF90CF9008951F93CF93DF93CDB763
:10496000DEB72C970FB6F894DEBF0FBECDBF4F83D6
:10497000588769877A878B879C87CE0107960E9424
:10498000DC228823D9F02F8138858A859B85892B65
:1049900039F03F3F19F080E090E004C02F3FD9F795
:1049A00081E090E0892B09F06DC04F8158856985C1
:1049B0007A858B859C850E94222264C086E0FE0158
:1049C0003796DE01119601900D928A95E1F7FF81ED
:1049D000E8854A855B854115510539F0EF3F41F483
:1049E00081E090E0FF3F31F003C081E090E002C041
:1049F00080E090E080FD46C02091CD0330E0C90109
:104A00000196877099276091CC0370E0861797070D
:104A100009F440C0F983EA835D834C8396E0929F5A
:104A2000D001939FB00D1124A456BC4FFE013196C6
:104A300001900D929A95E1F78093CD030E94322266
:104A400021C0189FC001112484569C4F0E94DC2273
:104A5000882371F1E091CC031E9FF0011124E456EC
:104A6000FC4F4081518162817381848195810E94D4
:104A700022228091CC0390E0019687709927809341
:104A8000CC0301C016E08091CC039091CD03891333
:104A9000D8CF0EC00E94EA211092CD031092CC0311
:104AA000E6E9F3E086E0DF011D928A95E9F7EACFB7
:104AB0002C960FB6F894DEBF0FBECDBFDF91CF911D
:104AC0001F910895CF92DF92EF92FF92CF93DF93E1
:104AD0009C01009709F48EC0D0E0C0E0CC24C394C0
:104AE000D12C79018FEFE81AF80AF9018491853702
:104AF00009F45BC060F4843708F046C0843008F0E5
:104B000066C08130A9F0823009F074C026C08837B1
:104B100009F45AC038F4863709F44EC0873709F0D3
:104B200069C04EC0982F9458903708F063C052C0A7
:104B3000F701790182E0E80EF11CE4918E2F805E8E
:104B4000883048F4E7708C2D01C0880FEA95EAF7A9
:104B50000E94902714C08E2F3AC0F701790182E09D
:104B6000E80EF11CE4918E2F805E883058F4E770D7
:104B70008C2D01C0880FEA95EAF70E9496270E94C3
:104B8000B9272BC08E2F27C0F701790182E0E80EEC
:104B9000F11C949107C0EFECF7E03197F1F700C0FA
:104BA000000091509111F7CF18C0F701790182E010
:104BB000E80EF11CC49111C00E947A27D82F0DC0B5
:104BC0008D2F0E948A27DBCF0E948D27D8CF0E948D
:104BD000C41D03C08F770E946E1E9C2F07C091508A
:104BE000EFECF7E03197F1F700C000009111F7CF3B
:104BF000970177CFDF91CF91FF90EF90DF90CF902B
:104C000008956093CE037093CF038093D003909365
:104C1000D1030E941E280C94D8216093D203709374
:104C2000D3038093D4039093D5030E941D280C9442
:104C3000D82108950C940D260F931F930091D20351
:104C40001091D3032091D4033091D503602B712BA5
:104C5000822B932B1F910F910C940D260F931F9372
:104C60000091D2031091D3032091D4033091D50346
:104C700060237123822393231F910F910C940D269F
:104C80000F931F930091D2031091D3032091D4036B
:104C90003091D50360277127822793271F910F91A9
:104CA0000C940D2660E070E0CB010C94012641E0ED
:104CB00050E060E070E004C0440F551F661F771F8E
:104CC0008A95D2F7CB01BA010C94012641E050E05D
:104CD00060E070E004C0440F551F661F771F8A957F
:104CE000D2F78091CE039091CF03A091D003B091E1
:104CF000D103482B592B6A2B7B2BCB01BA010C9487
:104D0000012641E050E060E070E004C0440F551F10
:104D1000661F771F8A95D2F74095509560957095DC
:104D20008091CE039091CF03A091D003B091D10395
:104D3000482359236A237B23CB01BA010C94012613
:104D400041E050E060E070E004C0440F551F661F72
:104D5000771F8A95D2F78091CE039091CF03A091CF
:104D6000D003B091D103482759276A277B27CB016D
:104D7000BA010C9401260F931F930091CE0310915A
:104D8000CF032091D0033091D103602B712B822B64
:104D9000932B1F910F910C9401260F931F93009159
:104DA000CE031091CF032091D0033091D103602323
:104DB0007123822393231F910F910C9401260F934B
:104DC0001F930091CE031091CF032091D003309117
:104DD000D10360277127822793271F910F910C948D
:104DE000012608958F929F92AF92BF92CF92DF9249
:104DF000EF92FF926C018090D2039090D303A09029
:104E0000D403B090D5034091CE035091CF0360916D
:104E1000D0037091D103842A952AA62AB72A8FE15C
:104E2000E82EF12CB501A4010E2C04C076956795EF
:104E3000579547950A94D2F740FF08C0B6018E2DCA
:104E40000E9427298130910509F008C081E0E81A05
:104E5000F10840F7B60180E00E942729FF90EF900B
:104E6000DF90CF90BF90AF909F908F90089540912A
:104E700022015091230120E030E09FEFFA01E20F80
:104E8000F31F62816817A1F09F3F19F4611101C0FF
:104E9000922F2F5F3F4F2630310581F707C0FA016F
:104EA000E90FF11D97FDFA95828308959F3FB9F7A9
:104EB0000895409122015091230120E030E0FA0151
:104EC000E20FF31F9281981301C012822F5F3F4FB0
:104ED00026303105A1F7089581E090E0E0912201AC
:104EE000F0912301E80FF91F108201968830910597
:104EF000A9F708958091D60308959091D603982B31
:104F00009093D603089580959091D603982390931B
:104F1000D60308958093D60308951092D60308957A
:104F20009091D703982B9093D703089580959091F3
:104F3000D70398239093D70308951092D703089529
:104F40008093D80308951092D803089540912201C8
:104F50005091230120E030E080E0FA01E20FF31FDE
:104F6000918191118F5F2F5F3F4F27303105A9F756
:104F70000895E0912201F09123018091D60380836E
:104F8000E0912201F091230180819091D703892B38
:104F900080839091D803992361F0E0912201F091F0
:104FA00023018081892B80830E94A62781110E9482
:104FB000A32780912201909123010C94E41B9093EC
:104FC0000F0280930E0208958295982F9C7C9695EF
:104FD0009695837344E0849F90011124922B892F2E
:104FE0008A7A86959575990F892B08951F93CF938B
:104FF000DF931F92CDB7DEB799830E94E427182F65
:105000009981892F0E94E427312F20E0282BC901A4
:105010000F90DF91CF911F9108950895CF93DF9363
:1050200000D000D01F92CDB7DEB70F900F900F9039
:105030000F900F90DF91CF910895089508950C94EB
:105040007B1D8091F603843009F11092E20320E485
:1050500088E190E00FB6F894A895809360000FBEA9
:105060002093600083B7817F846083BF83B78160B2
:1050700083BF7894889583B78E7F83BF88E10FB60E
:10508000F89480936000109260000FBE0895089518
:105090000895CF930E9447280E9499090E944828AA
:1050A000C0E08C2F0E94CB0A892B29F4CF5FC83037
:1050B000C1F780E001C081E0CF9108950C94EA210E
:1050C0001F920F920FB60F9211248F939F93AF935D
:1050D000BF938091E203811113C08091E30390910B
:1050E000E403A091E503B091E6034196A11DB11D33
:1050F0008093E3039093E403A093E503B093E60366
:10510000BF91AF919F918F910F900FBE0F901F9005
:10511000189582E084BD93E095BD9DE797BD80938F
:105120006E0008958FB7F8944091E3035091E40323
:105130006091E5037091E6038FBFCA0108950F9354
:105140001F938FB7F8940091E3031091E40320912B
:10515000E5033091E6038FBFB801C9011F910F919C
:105160000895CF92DF92EF92FF920F931F932FB784
:10517000F8944091E3035091E4036091E50370914A
:10518000E6032FBF6A017B01EE24FF248C0120E09F
:1051900030E0C016D106E206F30620F09A01281B83
:1051A000390B05C09C0120953095240F351FC9018E
:1051B0001F910F91FF90EF90DF90CF9008951F9275
:1051C0000F920FB60F9211248F939F93AF93BF93BB
:1051D0008091E3039091E403A091E503B091E6038D
:1051E0000196A11DB11D8093E3039093E403A09366
:1051F000E503B093E603BF91AF919F918F910F901C
:105200000FBE0F901F9018950E94C418F8942FEFAE
:1052100083ED90E3215080409040E1F700C0000012
:1052200087E090EBDC018093FF0390930004A09350
:105230000104B09302042CE088E190E00FB6F894EA
:10524000A895809360000FBE20936000FFCF0E945E
:105250004709982F905C903218F40E9459090895DC
:105260008D3B50F4883A18F5853AC0F4843098F4B0
:10527000813009F06FC00CC0883E30F4803E58F495
:105280008F3B09F067C059C0803F08F463C051C02C
:1052900021E030E0A6C0282F30E0A3C0853A09F411
:1052A0005CC0863A09F05CC022E830E49AC0883AD3
:1052B00009F459C0893A09F459C08A3A09F459C025
:1052C0008B3A09F459C08C3A09F459C08D3A09F463
:1052D00059C08E3A09F459C08F3A09F459C0813B3C
:1052E00009F459C0803B09F459C0823B09F459C004
:1052F000833B09F459C0843B09F459C0853B09F448
:1053000059C0863B09F459C0873B09F459C0883B12
:1053100009F459C0893B09F459C08A3B09F459C0C2
:105320008B3B09F459C08C3B09F059C02AE236E4A2
:1053300058C0282F30E0306554C00E94EA212FE782
:1053400088E391E0215080409040E1F700C00000E8
:105350000E94042920E030E044C021E830E441C04C
:1053600023E830E43EC022EE34E43BC029EE34E4CE
:1053700038C02AEE34E435C025EB34E432C026EBE5
:1053800034E42FC023EB34E42CC024EB34E429C0F4
:1053900027EB34E426C02CEC34E423C02DEC34E4B9
:1053A00020C023E835E41DC02AE835E41AC022E90C
:1053B00035E417C024E935E414C021E236E411C015
:1053C00023E236E40EC024E236E40BC025E236E4E4
:1053D00008C026E236E405C027E236E402C020E039
:1053E00034E4C901089580E090E008958091EF03CE
:1053F00080FF0BC06091270185E0689FB0011124F8
:1054000075956795759567952AC081FF09C060916C
:10541000270185E0689FB0011124759567951FC02D
:1054200082FF07C06091270185E0689FB0011124C9
:1054300016C04091E9034423C9F060912601461744
:1054400088F72091270185E0289F90011124429F31
:10545000C001439F900D112470E00E94A13160387B
:10546000710540F46115710539F002C065E070E026
:10547000862F08958FE7089581E008958091EF03C6
:1054800080FF08C06091250170E07595679575955E
:10549000679521C081FF06C06091250170E0759578
:1054A000679519C082FF04C06091250170E010C0AB
:1054B0008091E9038823C1F0609124018617A0F749
:1054C00090912501989FC001112470E00E94A131A4
:1054D0006038710528F46115710521F0862F089553
:1054E0008FE7089581E0089561E070E0F4CF803F98
:1054F00021F40E94F629819504C0813F29F40E947D
:10550000F6298093EC030895823F21F40E94F62946
:10551000819504C0833F29F40E94F6298093EB0310
:105520000895893F19F40E943E2A05C08A3F31F44C
:105530000E943E2A81958093ED0308958B3F21F4CC
:105540000E943E2A819504C08C3F29F40E943E2A85
:105550008093EE030895843F21F48091EA038160F3
:1055600017C0853F21F48091EA03826011C0863F15
:1055700021F48091EA0384600BC0873F21F480917D
:10558000EA03886005C0883F31F48091EA038061B6
:105590008093EA0308958D3F21F48091EF038160A9
:1055A0000BC08E3F21F48091EF03826005C08F3FD6
:1055B00029F48091EF0384608093EF030895803F86
:1055C00029F48091EC0387FF6EC007C0813F41F44E
:1055D0008091EC0318160CF066C01092EC0363C0C7
:1055E0009091EB03823F19F497FF5DC005C0833FA4
:1055F00031F419160CF057C01092EB0354C0893FD8
:1056000031F48091ED0318160CF04DC006C08A3FAE
:1056100039F48091ED0387FF46C01092ED0343C03B
:105620008B3F29F48091EE0387FF3DC006C08C3F7D
:1056300039F48091EE031816B4F51092EE0333C0DE
:10564000843F21F48091EA038E7F05C0853F31F4C9
:105650008091EA038D7F8093EA0325C0863F21F481
:105660008091EA038B7FF7CF873F21F48091EA0393
:10567000877FF1CF883F21F48091EA038F7EEBCFC3
:105680008D3F21F48091EF038E7F0BC08E3F21F47C
:105690008091EF038D7F05C08F3F29F48091EF0348
:1056A0008B7F8093EF038091EB0381110EC080917B
:1056B000EC0381110AC08091ED03811106C0809135
:1056C000EE03811102C01092E90308958091E10375
:1056D00083FF7EC085E499E00E94F8078091EA0389
:1056E0001F928F9388E699E09F938F930E94910871
:1056F0008DE699E00E94F8072091EB03822F99270D
:1057000087FD90959F932F938FE699E09F938F93BA
:105710000E94910882E799E00E94F8072091EC032B
:10572000822F992787FD90959F932F9384E799E087
:105730009F938F930E94910887E799E00E94F80752
:105740002091ED03822F992787FD90959F932F93AA
:1057500089E799E09F938F930E9491088CE799E0E5
:105760000E94F8072091EE03822F992787FD9095DC
:105770009F932F938EE799E09F938F930E949108B8
:1057800081E899E00E94F8078091E9031F928F93C6
:1057900084E899E09F938F930E94910887E899E0AD
:1057A0000E94F8078091EF031F928F9389E899E098
:1057B0009F938F930E9491088CE899E00E94F807CC
:1057C0008DB79EB74C960FB6F8949EBF0FBE8DBF97
:1057D0008AEE93E00E942F1C0E9492289093E80387
:1057E0008093E7030895CF938091E7039091E803B6
:1057F0000E94B1284091E903442321F0209128011F
:1058000030E006C0209129015AE0259F9001112423
:105810008217930708F486C08091EB0381110DC0B5
:105820009091EC03911109C09091ED03911105C085
:105830009091EE03992309F475C04F3F19F04F5F23
:105840004093E903181624F40E94F6298093EB0391
:105850008091EB0387FF05C00E94F6298195809314
:10586000EB038091EC03181624F40E94F629809330
:10587000EC038091EC0387FF05C00E94F629819517
:105880008093EC036091EB03662339F1C091EC0344
:10589000CC2319F1772767FD7095872F972F0E94EA
:1058A000923023E333E343E35FE30E94F6300E9448
:1058B0005F306093EB036C2F772767FD7095872F20
:1058C000972F0E94923023E333E343E35FE30E9488
:1058D000F6300E945F306093EC038091ED03181660
:1058E00024F40E943E2A8093ED038091ED0387FF0C
:1058F00005C00E943E2A81958093ED038091EE03BE
:10590000181624F40E943E2A8093EE038091EE0341
:1059100087FF05C00E943E2A81958093EE03CF91B8
:105920000C94662BCF910895EAEEF3E085E0DF0159
:105930001D928A95E9F71092E9031092EF030895FA
:1059400086E19CE00C94F8078CE49CE00E94F80748
:105950001F9281E08F931F9285E08F9387E49DE0F3
:105960009F938F930E9491080F900F900F900F902C
:105970000F900F9008958330F1F130F4813069F089
:10598000823009F09BC020C0853009F462C008F461
:1059900049C0863009F092C073C020912901862F3A
:1059A00090E0820F911D8F3F910520F4620F60936C
:1059B000290103C08FEF80932901809129011F9253
:1059C0008F938DE49EE072C020912801862F90E095
:1059D000820F911D8F3F910520F4620F6093280183
:1059E00003C08FEF80932801809128011F928F932D
:1059F0008CE59EE05BC020912701862F90E0820F0E
:105A0000911D8F3F910520F4620F6093270103C021
:105A10008FEF80932701809127011F928F938EE64D
:105A20009EE044C020912601862F90E0820F911DB8
:105A30008F3F910520F4620F6093260103C08FEF22
:105A400080932601809126011F928F9381E89EE02A
:105A50002DC020912501862F90E0820F911D8F3F50
:105A6000910520F4620F6093250103C08FEF8093AE
:105A70002501809125011F928F9386E99EE016C033
:105A800020912401862F90E0820F911D8F3F910578
:105A900020F4620F6093240103C08FEF80932401F0
:105AA000809124011F928F938FEA9EE09F938F93A2
:105AB0000E9491080F900F900F900F9008958330DF
:105AC00089F130F4813061F0823009F076C019C07C
:105AD000853009F449C0B8F1863009F06EC055C070
