:100000000C946D010C94B3010C94B3010C94B301E6
:100010000C94B3010C94B3010C94B3010C94B30190
:100020000C94B3010C94B3010C94D2070C94A8085F
:100030000C94B3010C94B3010C94B3010C94B30170
:100040000C94B3010C9479170C94B3010C94B30184
:100050000C94B3010C9444160C94B3010C94B301AA
:100060000C94B3010C94B3010C94B3010C94B30140
:100070000C94B3010C94B3010C94B3010C94B30130
:100080000C94B3010C94B3010C94B3010C94B30120
:100090000C94B3010C94B30100F0000000000005C3
:1000A0002C11E50038514F5650E6E4E51D1B0619AA
:1000B0002810363731535455C00000000416070984
:1000C000310D0E0F33595A5B58000000141A0815F1
:1000D00031180C12135F6061574700001E1F20216A
:1000E000432425262744454E4D46E000353A3B2221
:1000F00042232E412D4C494B4A0000E12B393C173D
:100100002A1C30402F5C5D5E0000000029643D0A1F
:100110003E0B3F003400626352E200000000000129
:1001200001010100010101010101010101010101C0
:1001300001010101010101010100000001010101B2
:1001400001010101010101010101000001010101A1
:100150000101010101010101010100000101010191
:100160000101010101010101010101000101010180
:100170000101010101010101010000010101010171
:100180000101010101010101010000000101010162
:10019000010101000101010101011A034D006F007D
:1001A000640065006C005F004D005F005600320087
:1001B0002E00300000001A03500068006F0073002A
:1001C000700068006F00720047006C006F007700DD
:1001D00000000403090409023B00020100A03209E7
:1001E0000400000103010100092111010001224066
:1001F000000705810308000A09040100010300004B
:1002000000092111010001223600070582030800C0
:100210000A1201100100000008EDFE6060010001FB
:1002200002000105010980A101850216010026B71F
:10023000001A01002AB700751095018100C0050C55
:100240000901A1018503160100269C021A01002A5A
:100250009C02751095018100C005010906A10105E8
:100260000719E029E7150025019508750181029518
:100270000175088101050819012905950575019188
:10028000029501750391010507190029FF15002644
:10029000FF00950675088100C00000000000000006
:1002A00000000000010204060A0F17202C3A4A5DE4
:1002B00071879DB3C7DAE9F5FCFFFCF5E9DAC7B34E
:1002C0009D87715D4A3A2C20170F0A06040201002F
:1002D0000000000000000000000011241FBECFEF4E
:1002E000D0E2DEBFCDBF04B603FE24C08091CA01B8
:1002F0009091CB01A091CC01B091CD018730904B72
:10030000A740B04BB9F41092CA011092CB011092E1
:10031000CC011092CD0114BE84B7877F84BF88E1E1
:100320000FB6F89480936000109260000FBEE0E07A
:10033000F0EF099511E0A0E0B1E0ECE7FFE200E0AA
:100340000BBF02C007900D92A831B107D9F711E099
:10035000A8E1B1E001C01D92AA3CB107E1F70E94FB
:10036000F8040C94BC170C940000CF92DF92EF922B
:10037000FF926C0161113EC00E94761582FF07C09A
:100380000E94761584FBEE24E0F8F12C02C0E12CEB
:10039000F12CE0921801F60192819923F9F0EE20F8
:1003A00059F0C7010E947F150E94B515FF90EF908C
:1003B000DF90CF900C946916C7010E947F1588E4E6
:1003C00090E00E9433150E94B5158091180190E0CD
:1003D000FF90EF90DF90CF900C947915E1100AC058
:1003E00088E490E00E945515FF90EF90DF90CF9049
:1003F0000C94B515FF90EF90DF90CF900895E72F04
:10040000F0E098E0899FE00DF11D112484E0EE0FEB
:10041000FF1F8A95E1F7E60FF11DE656FF4F849125
:100420000895E82FF0E0EE0FFF1FE85EF040259101
:100430003491C901089581B18F7081B982B18F70F3
:1004400082B987B18F7087B988B18F7088B90895E4
:1004500085B7806885BF85B7806885BF0E941B020D
:1004600084B1807F84B985B18F6085B96B98739AA8
:1004700080B3817080BB81B38E6F81BB81B1807F7F
:1004800081B982B18F6082B9E9E1F1E0A9E2B1E01E
:10049000119211921D921D9281E0E932F807C1F785
:1004A0000895AF92BF92CF92DF92EF92FF92CF93D7
:1004B000DF9369E2C62E61E0D62E7601C0E0D1E07E
:1004C000C430A9F030F4C230C1F0A0F4C130D9F486
:1004D00017C0C63031F040F0C730A9F40C9A149818
:1004E00014C00D9A159811C00E9A16980EC00F9A46
:1004F00017980BC03F9A479808C03E9A469805C087
:100500003D9A459802C03C9A449880EA8A95F1F752
:1005100083B18695869586958D2780FBAA24A0F8C1
:10052000B12C1A9B03C020E030E002C022E030E092
:10053000C9018A299B29199B03C020E030E002C031
:1005400024E030E0282B392B189B03C080E090E09A
:1005500002C088E090E0822B932B639B03C040E0B5
:1005600050E002C040E150E0482B592B799B03C07A
:1005700020E030E002C020E230E0242B352B7A9BD3
:1005800003C080E090E002C080E490E0282B392B8B
:100590007B9B03C060E070E002C060E870E0262B47
:1005A000372B7C9B03C040E050E002C040E051E0AC
:1005B000242B352B7D9B03C080E090E002C080E0BF
:1005C00092E0282B392B7E9B03C080E090E002C094
:1005D00080E094E0282B392B8FB1992787FD9095E7
:1005E000809590958827990F881F9927982F88279D
:1005F000990F990F990F282B392B009B03C040E0CE
:1006000050E002C040E050E1242B352B019B03C099
:1006100040E050E002C040E050E2242B352B029B2A
:1006200003C080E090E002C080E090E4282B392BEA
:10063000039B03C080E090E002C080E090E8282B9C
:10064000392BD7018D919C9111978217930729F02F
:100650002D933C9385E0809300010E941B02CF5FA5
:10066000B2E0EB0EF11CC83009F02ACF80910001F6
:100670008823C9F0815080930001882339F0EFE985
:10068000FFE03197F1F700C000000DC0E9E1F1E0B3
:10069000D6018D919D916D0181939193B9E3CB1614
:1006A000B1E0DB06A9F781E0DF91CF91FF90EF90F9
:1006B000DF90CF90BF90AF900895E82FF0E0EE0F5D
:1006C000FF1FE75EFE4F80819181089508953B9A58
:1006D000399A699A81FF02C0439801C0439A80FF0A
:1006E00002C0419801C0419A82FF02C071980895EA
:1006F000719A08958091420108950895CF93DF93F0
:1007000000D01F92CDB7DEB72091C101243029F56A
:1007100023E029839B838A8382E08093E9008FEF23
:1007200006C095ED9A95F1F70000882329F0909185
:10073000E800815095FFF5CF8091E80085FF0DC05E
:1007400040E050E063E070E0CE0101960E94B70502
:100750008091E8008E778093E8000F900F900F90C3
:10076000DF91CF910895CF93DF9300D01F92CDB743
:10077000DEB72091C101243021F522E029839B833B
:100780008A832093E9008FEF06C095ED9A95F1F7E3
:100790000000882329F09091E800815095FFF5CF63
:1007A0008091E80085FF0DC040E050E063E070E01C
:1007B000CE0101960E94B7058091E8008E77809364
:1007C000E8000F900F900F90DF91CF910895EF9276
:1007D000FF927C018091C101843041F581E08093DA
:1007E000E9008FEF06C095ED9A95F1F70000882398
:1007F00029F09091E800815095FFF5CF8091E800B5
:1008000085FF14C040E050E068E070E0C7010E943E
:10081000B7058091E8008E778093E80088E0F701C3
:10082000AAE3B1E001900D928A95E1F7FF90EF9075
:1008300008958091C001811109C00E944F070E9454
:10084000B6078091E20084608093E20008951092E0
:10085000C0010895089542E061EC81E00E94C50660
:1008600042E061EC82E00C94C5068091C3018330C4
:1008700009F454C030F4813071F0823009F0A5C021
:100880008CC08A3009F479C08B3009F45FC089309C
:1008900009F09BC020C08091C201813A09F095C047
:1008A0008091E800877F8093E8008091C601909155
:1008B000C701892B21F060E080E090E003C068E090
:1008C0008AE391E070E00E940A068091E8008B774D
:1008D0008093E80008958091C201813209F075C0CB
:1008E0008091C6019091C701892B09F06EC080915B
:1008F000E800877F8093E80005C08091C1018823CC
:1009000009F463C08091E80082FFF7CF8091F10085
:10091000809342018091E8008B7753C08091C2019F
:10092000813A09F052C08091C6019091C701892B8C
:1009300009F04BC08091E800877F8093E8008091A8
:10094000E80080FFFCCF80910B0136C08091C2018E
:100950008132D9F58091C6019091C701892BA9F503
:100960008091E800877F8093E8000E94FC068091D8
:10097000C40180930B010C94E80F8091C201813275
:1009800021F58091E800877F8093E8000E94FC06B3
:100990008091C5018093390108958091C201813A07
:1009A000A1F48091E800877F8093E8008091E800BF
:1009B00080FFFCCF809139018093F1008091E800A5
:1009C0008E778093E8000C94FC06089508950895AE
:1009D0000C946D170C94E8040E94EF158091BF01F0
:1009E000882329F00E94171681110C94A1050895FF
:1009F00084B7877F84BF88E10FB6F8948093600046
:100A0000109260000FBE90E080E80FB6F8948093DB
:100A10006100909361000FBE0E94E6040E94A30A49
:100A20000E944F070E94B6078091E2008460809385
:100A3000E20078948091C1018430E1F70E94A50A18
:100A400081E091E00E945A0A0E945B170E94E7042D
:100A500002C00E94EC048091C1018530D1F30E9454
:100A6000A90AF9CF0E942C160E9473170E945F0AF0
:100A70000C9467030C943205292F3327233031055A
:100A8000B1F04CF42130310509F44DC0223031056C
:100A900009F04EC007C02132310541F12232310543
:100AA00091F146C0EBE3F0E086ED91E045C0992777
:100AB0008130910569F08230910589F0892B09F028
:100AC00037C0E2EDF1E0E491F0E082ED91E034C076
:100AD000E6EBF1E0E491F0E086EB91E02DC0EAE98D
:100AE000F1E0E491F0E08AE991E026C0623000F59F
:100AF000E62FF0E0EE0FFF1FE25FFE4F8081918155
:100B0000E9E0F0E019C0623098F4E62FF0E0DF0190
:100B1000AA0FBB1FAE5EBE4F8D919C91EA5EFE4F49
:100B2000E081F0E009C0E2E1F0E081E192E004C0A0
:100B3000E0E0F0E080E090E0DA018D939C93CF015B
:100B4000089584E189BD86E189BD09B400FEFDCF29
:100B50008091D8008F7D8093D8008091E0008260E2
:100B60008093E0008091E00081FDFCCF08958F929A
:100B70009F92AF92BF92CF92DF92EF92FF92CF936C
:100B80005C016B017A010E941D07C82F811137C0DB
:100B9000E114F10439F0F70120813181C21AD30A3E
:100BA000A20EB31E812C912C25C08091E80085FDFA
:100BB00016C08091E8008E778093E800E114F1047C
:100BC00049F0F70180819181880D991D918380837F
:100BD000C5E015C00E941D07882361F00FC0F50114
:100BE00081915F018093F100F1E0CF1AD1088FEF7E
:100BF000881A980AC114D104C1F601C0C82F8C2FDD
:100C0000CF91FF90EF90DF90CF90BF90AF909F90EB
:100C10008F9008952091C8013091C9012617370798
:100C200048F06115710539F42091E8002E77209382
:100C3000E80001C0B901FC0120E02CC08091C10195
:100C40008823F1F18530F1F18091E80083FD3CC00B
:100C50008091E80082FD2EC08091E80080FF1AC0DC
:100C60008091F2009091F30006C021912093F10051
:100C70006150710901966115710519F0883091056F
:100C8000A0F321E0089709F020E08091E8008E773A
:100C90008093E8006115710589F62111CFCF0AC054
:100CA0008091C101882361F0853061F08091E80076
:100CB00083FD0AC08091E80082FFF2CF80E00895B2
:100CC00082E0089583E0089581E008952091C801AD
:100CD0003091C9012617370748F06115710539F4BD
:100CE0002091E8002E772093E80001C0B901FC01B3
:100CF00020E02FC08091C101882309F440C08530D5
:100D000009F43FC08091E80083FD3DC08091E80078
:100D100082FD2FC08091E80080FF1BC08091F2000F
:100D20009091F30007C024912093F1003196615017
:100D3000710901966115710519F08830910598F3D4
:100D400021E0089709F020E08091E8008E778093F9
:100D5000E8006115710571F62111CCCF0AC08091B0
:100D6000C101882361F0853061F08091E80083FD46
:100D70000AC08091E80082FFF2CF80E0089582E00F
:100D8000089583E0089581E00895982F2CC09093F2
:100D9000E900981739F07091EC002091ED00509126
:100DA000F00003C0242F762F50E021FD02C09F5F8A
:100DB0001AC03091EB003E7F3093EB003091ED0094
:100DC0003D7F3093ED003091EB0031603093EB00CC
:100DD0007093EC002093ED005093F0002091EE0012
:100DE00027FDE5CF07C0973090F28F708093E90020
:100DF00081E0089580E008958091C20187FD05C0DB
:100E00008091E80080FF0EC012C08091E80082FD52
:100E100005C08091C1018111F8CF08958091E8004B
:100E20008B7708C08091C1018111EACF089580912C
:100E3000E8008E778093E80008958091E400909117
:100E4000E50045E62091EC0020FD1FC023C0209165
:100E5000C101222391F0253091F02091EB0025FD76
:100E600010C02091E4003091E5002817390751F3B4
:100E70004150C90139F784E0089582E0089583E084
:100E8000089581E0089580E008952091E80020FF12
:100E9000DECFF9CF2091E80022FFD9CFF4CF0E9416
:100EA000C5070E94CD07E0EEF0E08081816080837D
:100EB000E8EDF0E080818F77808319BCA7EDB0E08A
:100EC0008C918E7F8C9380818F7E80831092C00165
:100ED0000895CF92DF92EF92FF920E94C5070E9481
:100EE000CD0788EDE82EF12CF70180818F77808384
:100EF00080818068808380818F7D8083E7EDF0E052
:100F000080818068808319BC1092C1011092BD015C
:100F10001092BF011092BE0190EEC92ED12CF601A5
:100F200080818B7F8083F70180818160808342E0B4
:100F300060E080E00E94C506E1EEF0E080818E7FF7
:100F40008083E2EEF0E08081816080838081886030
:100F50008083F60180818E7F8083F70180818061AC
:100F60008083FF90EF90DF90CF900895E8EDF0E060
:100F700080818F7E8083E7EDF0E0808181608083D7
:100F800081E08093C0010C946907E8EDF0E0808176
:100F90008C7F80831092E20008951092DA00109204
:100FA000E10008951F920F920FB60F9211240BB615
:100FB0000F922F933F934F935F936F937F938F93F2
:100FC0009F93AF93BF93EF93FF938091E10082FFD4
:100FD0000BC08091E20082FF07C08091E1008B7F0F
:100FE0008093E1000E94590A8091DA0080FF1FC0BF
:100FF0008091D80080FF1BC08091DA008E7F8093A3
:10100000DA008091D90080FF0DC084E189BD86E1BE
:1010100089BD09B400FEFDCF81E08093C1010E942B
:10102000190405C019BC1092C1010E9427048091C7
:10103000E10080FF19C08091E20080FF15C080911F
:10104000E2008E7F8093E2008091E20080618093D5
:10105000E2008091D80080628093D80019BC85E0BE
:101060008093C1010E94EA048091E10084FF30C0B6
:101070008091E20084FF2CC084E189BD86E189BDB6
:1010800009B400FEFDCF8091D8008F7D8093D800F9
:101090008091E1008F7E8093E1008091E2008F7E5D
:1010A0008093E2008091E20081608093E200809171
:1010B000BD01882311F084E007C08091E30087FF21
:1010C00002C083E001C081E08093C1010E943A0523
:1010D0008091E10083FF29C08091E20083FF25C059
:1010E0008091E100877F8093E10082E08093C101DD
:1010F0001092BD018091E1008E7F8093E10080918C
:10110000E2008E7F8093E2008091E2008061809314
:10111000E20042E060E080E00E94C5068091F000BD
:1011200088608093F0000E942A04FF91EF91BF91A4
:10113000AF919F918F917F916F915F914F913F916F
:101140002F910F900BBE0F900FBE0F901F90189510
:101150001F920F920FB60F9211240BB60F922F937E
:101160003F934F935F936F937F938F939F93AF932F
:10117000BF93CF93EF93FF938091E9008F7090918D
:10118000EC0090FF02C090E801C090E0C92FC82B8E
:101190001092E9008091F000877F8093F0007894AE
:1011A0000E94F0081092E9008091F000886080931E
:1011B000F000CF70C093E900FF91EF91CF91BF9104
:1011C000AF919F918F917F916F915F914F913F91DF
:1011D0002F910F900BBE0F900FBE0F901F90189580
:1011E0001F93CF93DF93CDB7DEB7AC970FB6F894CC
:1011F000DEBF0FBECDBFE2ECF1E08091F100819344
:1012000021E0EA3CF207C9F70E9435048091E8002A
:1012100083FF37C18091C2019091C301953009F4D9
:1012200088C038F49130B1F170F0933009F029C1E1
:1012300031C0983009F4F8C0993009F404C19630EF
:1012400009F01FC19DC0803821F0823809F019C112
:1012500008C08091BE019091BF01992389F08260FE
:101260000FC08091C6019091C7018F70992780931C
:10127000E9008091EB0085FB882780F91092E90056
:101280009091E800977F9093E8008093F10010928E
:10129000F100D5C0882319F0823009F0F2C08F71B7
:1012A00021F0823009F0EDC00BC08091C401813083
:1012B00009F0E7C0933009F080E08093BF012FC0B0
:1012C0008091C40181112BC08091C6019091C7010A
:1012D0008F709927009709F4D4C08093E90020917A
:1012E000EB0020FF1CC02091C301233021F480912A
:1012F000EB00806212C09091EB0090619093EB0044
:1013000021E030E001C0220F8A95EAF72093EA003D
:101310001092EA008091EB0088608093EB001092BD
:10132000E9008091E800877F8093E8000E94FC0636
:10133000A8C08111A6C08091C4019091C5018F778A
:101340009927182F9091E3009078982B9093E300C1
:101350008091E800877F8093E8000E94FC068091DE
:10136000E80080FFFCCF8091E30080688093E30079
:10137000112311F083E001C082E08093C10181C09C
:101380008058823008F07DC08091C4019091C501E1
:101390008C3D23E0920779F583E08A838AE2898392
:1013A0004FB7F894DE01139620E03EE051E2E32FC0
:1013B000F0E050935700E49120FF03C0E295EF70F6
:1013C0003F5FEF708E2F90E0EA3010F0C79601C0BB
:1013D000C0968D939D932F5F243149F74FBF809125
:1013E000E800877F8093E8006AE270E0CE01019612
:1013F0000E940A0613C0AE01455D5F4F6091C601B1
:101400000E943C050097E9F12091E800277F209396
:10141000E800BC018BA59CA50E9466068091E800AF
:101420008B778093E8002DC0803859F58091E800D3
:10143000877F8093E8008091BD018093F1008091C7
:10144000E8008E7771CF81111CC09091C401923059
:10145000C0F48091E800877F8093E8009093BD01FD
:101460000E94FC068091BD01811104C08091E300BF
:1014700087FF02C084E001C081E08093C1010E9427
:101480002B048091E80083FF0AC08091E800877FE9
:101490008093E8008091EB0080628093EB00AC9633
:1014A0000FB6F894DEBF0FBECDBFDF91CF911F9175
:1014B0000895089590934401809343010895E09125
:1014C0004301F0914401309721F00190F081E02D2B
:1014D000099480E00895E0914301F0914401309730
:1014E00021F00280F381E02D0994089520914501B7
:1014F000309146018217930771F0909346018093D3
:101500004501E0914301F0914401309721F00680BC
:10151000F781E02D09940895209147013091480109
:101520008217930771F09093480180934701E091EF
:101530004301F0914401309721F00084F185E02DC2
:101540000994089508950C94A20A0E942E160C94F2
:1015500028022F923F924F925F926F927F928F92CA
:101560009F92AF92BF92CF92DF92EF92FF920F9332
:101570001F93CF93DF9300D000D01F92CDB7DEB77B
:101580000E94510299E4492E91E0592E29E5A22E9C
:1015900021E0B22EE12CF12C22242394312C0E2DAB
:1015A0008E2D0E945D036C01F201819091902F01BC
:1015B000882699268114910409F461C08E2D0E9419
:1015C0005D033C01019786219721892B09F497C07F
:1015D00010E0101304C01F5F1830D9F790C0812F9E
:1015E0000E945D0386219721892BA9F390C0F50104
:1015F000808191818C159D0511F00E946603F50193
:10160000D182C0823CC00E94660380E090E031013C
:10161000082E02C0660C771C0A94E2F79301282179
:101620003921232B41F189830A83C620D72081E009
:10163000CD2809F480E08B830E9437168160782FD3
:101640009D838C8349815A816B818D810E94A60B79
:1016500049815A816B817C818D810E94DC15F70163
:10166000EE0FFF1FE75BFE4F808191818625972556
:10167000918380831FC001968031910541F6FFEF71
:10168000EF1AFF0A82E0A80EB11CE8E0EE16F104A2
:1016900009F085CF8FEF89838A831B820E943716DA
:1016A0008160782F9D838C8349815A816B818D81E4
:1016B0000E94A60B0E94DB15109169010E945F0A2F
:1016C000181751F10E945F0A809369010F900F90E3
:1016D0000F900F900F90DF91CF911F910F91FF907E
:1016E000EF90DF90CF90BF90AF909F908F907F90C2
:1016F0006F905F904F903F902F900C94ED15F501F7
:10170000D182C0828091B50181FF7FCF7CCF809153
:10171000B50181FD6CCF73CF0F900F900F900F909C
:101720000F90DF91CF911F910F91FF90EF90DF907D
:10173000CF90BF90AF909F908F907F906F905F9071
:101740004F903F902F9008950C946703CF93DF93B1
:10175000CDB7DEB72B970FB6F894DEBF0FBECDBF67
:101760004F83588769877A878B878A859B85892BE2
:1017700039F05F3F41F481E090E04F3F31F003C02A
:1017800081E090E002C080E090E080FD07C04F81E2
:10179000588569857A858B850E94DC15DE01119656
:1017A00086E0FD0111928A95E9F785E0FE01379602
:1017B00001900D928A95E1F749815A816B817C8174
:1017C0008D819E810E94AA122B960FB6F894DEBFDF
:1017D0000FBECDBFDF91CF910895882309F49CC03F
:1017E000982F9450913A18F40E9433150EC0982FF8
:1017F000905E983060F4282F277081E090E001C05F
:10180000880F2A95EAF70E9479150C94B515982F40
:10181000955A933070F4853A29F0863A31F482E88B
:1018200090E005C081E890E002C083E890E00C946D
:10183000760A982F985A953108F06EC0883A61F16F
:10184000893A69F18A3A71F18B3A79F18C3A81F1EE
:101850008D3A89F18E3A91F18F3A99F1813BA1F15C
:10186000803BA9F1823BB1F1833BB9F1843BC1F1EB
:10187000853BC9F1863BD1F1873BD9F1883BE1F14A
:10188000893BE9F18A3BF1F18B3BF9F18C3B09F0A3
:101890003FC08AE292E03EC082EE90E03BC089EE1B
:1018A00090E038C08AEE90E035C085EB90E032C021
:1018B00086EB90E02FC083EB90E02CC084EB90E0AF
:1018C00029C087EB90E026C08CEC90E023C08DEC23
:1018D00090E020C083E891E01DC08AE891E01AC042
:1018E00082E991E017C084E991E014C081E292E0BE
:1018F00011C083E292E00EC084E292E00BC085E268
:1019000092E008C086E292E005C087E292E002C061
:1019100080E090E00C948C0A0895882331F1982F90
:101920009450913A18F40E9455150EC0982F905E6D
:10193000983060F4282F277081E090E001C0880F74
:101940002A95EAF70E947F150C94B515982F955AA1
:10195000933020F480E090E00C94760A885A853128
:1019600020F480E090E00C948C0A0895882321F004
:101970000E9479150C94B5150895882321F00E94D2
:101980007F150C94B51508958F929F92AF92BF92D8
:101990000F931F93CF93DF93CDB7DEB727970FB683
:1019A000F894DEBF0FBECDBF5C0185E0F501DE011E
:1019B000119601900D928A95E1F7F5013081218110
:1019C0000281158112951F7083819481892B39F0D2
:1019D0002F3F41F481E090E03F3F31F003C081E0D0
:1019E00090E002C080E090E080FDD5C239832A8378
:1019F00089819A810E94EE149E838F830E94ED1448
:101A00000E9417144E81242F22952F7030E06F8191
:101A10002430310509F4A7C044F4842F807F942F2B
:101A20009F7022303105B4F042C02C3031054CF4A7
:101A30002A3031050CF0CBC12830310509F0ABC29A
:101A4000CFC02C30310509F480C22F30310509F0A8
:101A5000A2C28FC2992E811101C003C0929490EF4F
:101A60009922002359F0992009F44AC2892D6F83E5
:101A70000E948C150E94B5156F8142C2862F0E946C
:101A80008D0C992009F487C2892D0E949215279602
:101A90000FB6F894DEBF0FBECDBFDF91CF911F917F
:101AA0000F91BF90AF909F908F900C94B515992E89
:101AB000803209F403C0929480EF9822662321F0CB
:101AC000613009F041C021C00023B1F0892D11110E
:101AD00001C026C0113021F527960FB6F894DEBF5D
:101AE0000FBECDBFDF91CF911F910F91BF90AF90EF
:101AF0009F908F900C949C15111101C003C0113060
:101B000009F449C20E949F152CC00023C9F0163069
:101B100008F041C20E947615892109F022C0892D62
:101B200027960FB6F894DEBF0FBECDBFDF91CF91E1
:101B30001F910F91BF90AF909F908F900C94B60C17
:101B4000153008F028C20DC0002349F0112339F3E5
:101B5000F501858180FFD4C18F708583E0CF11119D
:101B6000E3C1892D50C1242F26952695237030E09E
:101B70002115310529F02130310509F00CC218C0BA
:101B8000002321F0862F942F937002C080E090E014
:101B900027960FB6F894DEBF0FBECDBFDF91CF9171
:101BA0001F910F91BF90AF909F908F900C94760AE9
:101BB000002321F0862F942F937002C080E090E0E4
:101BC00027960FB6F894DEBF0FBECDBFDF91CF9141
:101BD0001F910F91BF90AF909F908F900C948C0AA3
:101BE000842F837009F076C00111D5C1262F22956C
:101BF00026952770220F220F862F8F70882E912C0A
:101C0000A12CB12C022E04C0880C991CAA1CBB1C50
:101C10000A94D2F764FF10C06FE070E080E090E0BB
:101C200004C0660F771F881F991F2A95D2F7609509
:101C300070958095909503C060E070E0CB01242FF3
:101C4000269526952370422F50E042305105D1F061
:101C50004330510559F1682979298A299B29413056
:101C6000510541F127960FB6F894DEBF0FBECDBFE8
:101C7000DF91CF911F910F91BF90AF909F908F9068
:101C80000C942A14682979298A299B2927960FB64A
:101C9000F894DEBF0FBECDBFDF91CF911F910F91A2
:101CA000BF90AF909F908F900C943C140E942A1488
:101CB000C501B40127960FB6F894DEBF0FBECDBFA5
:101CC000DF91CF911F910F91BF90AF909F908F9018
:101CD0000C941814002319F0842F817001C086958C
:101CE000882309F458C1262F229526952770220FA4
:101CF000220F862F8F70882E912CA12CB12C022EB2
:101D000004C0880C991CAA1CBB1C0A94D2F764FF5F
:101D100010C06FE070E080E090E004C0660F771FB5
:101D2000881F991F2A95D2F7609570958095909598
:101D300003C060E070E0CB01242F26952695237028
:101D4000422F50E042305105D1F04330510559F156
:101D5000682979298A299B294130510541F1279623
:101D60000FB6F894DEBF0FBECDBFDF91CF911F91AC
:101D70000F91BF90AF909F908F900C94C9146829D9
:101D800079298A299B2927960FB6F894DEBF0FBEC2
:101D9000CDBFDF91CF911F910F91BF90AF909F90DA
:101DA0008F900C94DB140E94C914C501B4012796CE
:101DB0000FB6F894DEBF0FBECDBFDF91CF911F915C
:101DC0000F91BF90AF909F908F900C94B714603F8D
:101DD00051F120F4603E08F48EC008C0623F09F45F
:101DE00063C0E0F1633F09F086C061C0162F1F7029
:101DF000842F8F71002321F00E946214812F90CED6
:101E00000E947D14812F27960FB6F894DEBF0FBE77
:101E1000CDBFDF91CF911F910F91BF90AF909F9059
:101E20008F900C94BD0C0023A9F0153008F0B3C0BE
:101E3000842F8F7127960FB6F894DEBF0FBECDBFEB
:101E4000DF91CF911F910F91BF90AF909F908F9096
:101E50000C949C14163008F09EC0EACF002391F039
:101E6000842F8F7127960FB6F894DEBF0FBECDBFBB
:101E7000DF91CF911F910F91BF90AF909F908F9066
:101E80000C946214842F8F7127960FB6F894DEBFDE
:101E90000FBECDBFDF91CF911F910F91BF90AF903B
:101EA0009F908F900C947D140111ECCFD9CF00231B
:101EB00091F0842F8F7127960FB6F894DEBF0FBE76
:101EC000CDBFDF91CF911F910F91BF90AF909F90A9
:101ED0008F900C94531427960FB6F894DEBF0FBE64
:101EE000CDBFDF91CF911F910F91BF90AF909F9089
:101EF0008F900C944E140023A1F0112309F4B0CF5D
:101F0000862F27960FB6F894DEBF0FBECDBFDF91A8
:101F1000CF911F910F91BF90AF909F908F900C9495
:101F2000ED0B112309F4AECF862F27960FB6F89448
:101F3000DEBF0FBECDBFDF91CF911F910F91BF903C
:101F4000AF909F908F900C948D0C4F70C5010E94A4
:101F5000581727960FB6F894DEBF0FBECDBFDF919E
:101F6000CF911F910F91BF90AF909F908F900C9445
:101F700060134F70C50127960FB6F894DEBF0FBEF1
:101F8000CDBFDF91CF911F910F91BF90AF909F90E8
:101F90008F900C94B50127960FB6F894DEBF0FBE54
:101FA000CDBFDF91CF911F910F91BF90AF909F90C8
:101FB0008F9008950E9499150E9468150E94B5158A
:101FC00080E090E00E94760A80E090E00C948C0A19
:101FD0000E9489150C94DA0F0E94EE14292F229585
:101FE0002F7030E02C3031054CF42A3031056CF480
:101FF000225031092230310590F407C02C303105D0
:1020000051F02F30310559F406C0803E10F0803F6A
:1020100031F481E0089593FB882780F9089580E0EA
:102020000895CF93DF9300D000D01F92CDB7DEB7D5
:102030000F900F900F900F900F90DF91CF91089518
:10204000CF93DF9300D000D000D0CDB7DEB7269677
:102050000FB6F894DEBF0FBECDBFDF91CF910895CC
:10206000EF92FF92CF939091A001C6E015C0E92EA8
:10207000F12CCE9DF001CF9DF00D1124E059FE4FC3
:102080004081518162817381848195810E942010F9
:10209000C7010196982F97708091A1019813E7CFFF
:1020A000CF91FF90EF90089540916A0150916B019C
:1020B00060916C0170916D0180916E0190916F0142
:1020C0000C9420100F931F93CF93DF9380916F0197
:1020D00082958F7009F069C080916C01882309F4A2
:1020E00064C0A091A001D091A101B0916A01C091FA
:1020F0006B0180916D0190916E0121E030E0BF3F56
:1021000011F020E030E0122FBC016095709506E0E0
:102110004AC0009721F0CF3F29F4212F05C021E0CC
:1021200030E002C020E030E020FD3BC04A2F50E00C
:10213000049FF001059FF00D1124E059FE4F21810D
:10214000C2132FC02081B2132CC02281211129C0BB
:10215000238134812817390718F0281B390B02C056
:10216000260F371F283C3105E0F480916F018F70F6
:10217000806180936F0186E0849FF001859FF00D60
:102180001124EB58FE4F80818F70806180838AE636
:1021900091E00E94C40CDF91CF911F910F910C949C
:1021A0003010AF5FA770AD13B4CFDF91CF911F9107
:1021B0000F910895CF92DF92EF92FF92CF93DF932A
:1021C000CDB7DEB762970FB6F894DEBF0FBECDBFB6
:1021D0007C0185E0F701DE011D9601900D928A9544
:1021E000E1F7D7014C9111965C91119712966C9181
:1021F00012971396CD90DC90149770916A01E0913C
:102200006B0180916D0190916E01009739F0EF3F65
:1022100041F421E030E07F3F31F003C021E030E0C5
:1022200002C020E030E020FD5CC120916C0122233F
:1022300009F4F1C0C816D90628F09601281B390BFD
:10224000C90104C0809590958C0D9D1D883C910519
:1022500008F098C080916F01982F907F09F064C0BA
:10226000E51314C0741312C0611110C08F70806127
:1022700080936F010E9454108AE691E00E94C40C82
:1022800080916F01D70115968C9343C1CD2839F009
:102290005F3F41F481E090E04F3F31F003C081E0C7
:1022A00090E002C080E090E080FD03C081E08627DE
:1022B00002C080E090E080FF2EC08091A0012091BC
:1022C000A10136E013C090E0389FF001399FF00D76
:1022D0001124E059FE4F7181571306C070814713D6
:1022E00003C07281671317C0019687708213EBCF0A
:1022F00012C19F7059F0882309F40BC107C09F7069
:1023000029F0F7019581907F09F403C1805E883040
:1023100008F4FFC0D2C0662309F4FBC080916F01AE
:10232000816080936F01F5C0E51308C0741306C087
:10233000611104C0D70115968C939DC04D875E87AF
:102340008D859E856A8B0E94EC0F6A89882309F42B
:10235000B4C0662309F4B1C020916F01822F829529
:102360008F7090E002970CF4C6C080916A01909142
:102370006B0198878F831986DB86CA862C87CE01EE
:10238000079646C080916F01982F907F59F47C2D5D
:10239000D98AC88A89890E9411108AE691E00E9430
:1023A000C40C95C0E51311C074130FC061110DC0AA
:1023B000F7018583C7010E94C40CEAE6F1E086E0DC
:1023C000DF011D928A95E9F7A2C04D875E878D8552
:1023D0009E856A8B0E94EC0F6A89882309F46DC080
:1023E000662309F46AC020916F01822F82958F7055
:1023F00090E002970CF47FC080916A0190916B018C
:102400009A8389831B82DD82CC822E83CE01019642
:102410000E94C40C70C0C816D90628F09601281B6B
:10242000390BC90104C0809590958C0D9D1D883C89
:10243000910508F046C0662309F43FC0E51330C09B
:1024400074132EC020916F0120FD21C0322F3295D0
:102450003F70832F90E00097D1F0D70115962C9311
:1024600015970F9741F0832F8F5F8295807F2F7094
:10247000282B15962C93C7010E94C40C86E0F70107
:10248000AAE6B1E001900D928A95E1F73EC086E0A0
:10249000F701AAE6B1E001900D928A95E1F737C005
:1024A0004D875E878D859E850E94EC0F811123C02C
:1024B00080916F01816080936F01C7010E94C40CFD
:1024C00026C07C2DD98AC88A89890E941110EAE623
:1024D000F1E086E0DF011D928A95E9F70E94541031
:1024E00018C0662351F34D875E878D859E850E94B7
:1024F000EC0F882311F386E0F701AAE6B1E0019022
:102500000D928A95E1F70E9462100E94541081E0BA
:1025100014C080E012C04D875E878D859E850E9425
:10252000EE14292F22952F7030E0223031050CF463
:10253000E0CE243031050CF6E2CE62960FB6F89468
:10254000DEBF0FBECDBFDF91CF91FF90EF90DF9048
:10255000CF9008951F93CF93DF93CDB7DEB72C971D
:102560000FB6F894DEBF0FBECDBF4F835887698783
:102570007A878B879C87CE0107960E94DA10882382
:10258000D9F02F8138858A859B85892B39F03F3F8B
:1025900019F080E090E004C02F3FD9F781E090E08F
:1025A000892B09F06DC04F81588569857A858B85A7
:1025B0009C850E94201064C086E0FE013796DE01F3
:1025C000119601900D928A95E1F7FF81E8854A8581
:1025D0005B854115510539F0EF3F41F481E090E012
:1025E000FF3F31F003C081E090E002C080E090E066
:1025F00080FD46C02091A10130E0C901019687709D
:1026000099276091A00170E08617970709F440C0F0
:10261000F983EA835D834C8396E0929FD001939F78
:10262000B00D1124A059BE4FFE01319601900D92BC
:102630009A95E1F78093A1010E94301021C0189F64
:10264000C001112480599E4F0E94DA10882371F135
:10265000E091A0011E9FF0011124E059FE4F40813E
:10266000518162817381848195810E9420108091C3
:10267000A00190E00196877099278093A00101C086
:1026800016E08091A0019091A1018913D8CF0EC0CE
:102690000E94E80F1092A1011092A001EAE6F1E079
:1026A00086E0DF011D928A95E9F7EACF2C960FB6F6
:1026B000F894DEBF0FBECDBFDF91CF911F9108957B
:1026C000CF92DF92EF92FF92CF93DF939C0100971E
:1026D00009F48EC0D0E0C0E0CC24C394D12C7901A1
:1026E0008FEFE81AF80AF9018491853709F45BC085
:1026F00060F4843708F046C0843008F066C081304A
:10270000A9F0823009F074C026C0883709F45AC095
:1027100038F4863709F44EC0873709F069C04EC0D7
:10272000982F9458903708F063C052C0F701790190
:1027300082E0E80EF11CE4918E2F805E883048F430
:10274000E7708C2D01C0880FEA95EAF70E948C157E
:1027500014C08E2F3AC0F701790182E0E80EF11C17
:10276000E4918E2F805E883058F4E7708C2D01C084
:10277000880FEA95EAF70E9492150E94B5152BC0C2
:102780008E2F27C0F701790182E0E80EF11C9491A9
:1027900007C0EFE9FFE03197F1F700C0000091506A
:1027A0009111F7CF18C0F701790182E0E80EF11C12
:1027B000C49111C00E947615D82F0DC08D2F0E9494
:1027C0008615DBCF0E948915D8CF0E94ED0B03C080
:1027D0008F770E948D0C9C2F07C09150EFE9FFE08E
:1027E0003197F1F700C000009111F7CF970177CF33
:1027F000DF91CF91FF90EF90DF90CF90089560939D
:10280000A2017093A3018093A4019093A5010E945B
:10281000EC150C94DA0F6093A6017093A7018093D6
:10282000A8019093A9010E94EB150C94DA0F08956A
:102830000F931F930091A6011091A7012091A80169
:102840003091A901602B712B822B932B1F910F913B
:102850000C940B140F931F930091A6011091A701E4
:102860002091A8013091A901602371238223932331
:102870001F910F910C940B140F931F930091A601BD
:102880001091A7012091A8013091A901602771271B
:10289000822793271F910F910C940B1460E070E036
:1028A000CB010C94FF1341E050E060E070E004C005
:1028B000440F551F661F771F8A95D2F7CB01BA01C7
:1028C0000C94FF1341E050E060E070E004C0440F5E
:1028D000551F661F771F8A95D2F78091A2019091AC
:1028E000A301A091A401B091A501482B592B6A2BFB
:1028F0007B2BCB01BA010C94FF1341E050E060E068
:1029000070E004C0440F551F661F771F8A95D2F7E9
:1029100040955095609570958091A2019091A3018A
:10292000A091A401B091A501482359236A237B23D8
:10293000CB01BA010C94FF1341E050E060E070E07D
:1029400004C0440F551F661F771F8A95D2F78091E8
:10295000A2019091A301A091A401B091A5014827E3
:1029600059276A277B27CB01BA010C94FF130F93D9
:102970001F930091A2011091A3012091A401309115
:10298000A501602B712B822B932B1F910F910C941F
:10299000FF130F931F930091A2011091A3012091A7
:1029A000A4013091A50160237123822393231F91F9
:1029B0000F910C94FF130F931F930091A20110919C
:1029C000A3012091A4013091A501602771278227DE
:1029D00093271F910F910C94FF1308958F929F924C
:1029E000AF92BF92CF92DF92EF92FF926C018090F4
:1029F000A6019090A701A090A801B090A9014091D4
:102A0000A2015091A3016091A4017091A501842AB3
:102A1000952AA62AB72A8FE1E82EF12CB501A40148
:102A20000E2C04C076956795579547950A94D2F772
:102A300040FF08C0B6018E2D0E948C168130910592
:102A400009F008C081E0E81AF10840F7B60180E01B
:102A50000E948C16FF90EF90DF90CF90BF90AF90C8
:102A60009F908F90089540910C0150910D0120E0AE
:102A700030E09FEFFA01E20FF31F62816817A1F0C7
:102A80009F3F19F4611101C0922F2F5F3F4F2630F5
:102A9000310581F707C0FA01E90FF11D97FDFA959D
:102AA000828308959F3FB9F7089540910C0150919A
:102AB0000D0120E030E0FA01E20FF31F928198133C
:102AC00001C012822F5F3F4F26303105A1F70895D4
:102AD00081E090E0E0910C01F0910D01E80FF91F09
:102AE0001082019688309105A9F708958091AA0176
:102AF00008959091AA01982B9093AA01089580952A
:102B00009091AA0198239093AA0108958093AA0115
:102B100008951092AA0108959091AB01982B90937B
:102B2000AB01089580959091AB0198239093AB01F0
:102B300008951092AB0108958093AC01089510920E
:102B4000AC01089540910C0150910D0120E030E05E
:102B500080E0FA01E20FF31F918191118F5F2F5FE7
:102B60003F4F27303105A9F70895E0910C01F0910E
:102B70000D018091AA018083E0910C01F0910D017B
:102B800080819091AB01892B80839091AC01992336
:102B900061F0E0910C01F0910D018081892B80831F
:102BA0000E94A21581110E949F1580910C019091A5
:102BB0000D010C946B0A0895CF93DF9300D000D0E1
:102BC0001F92CDB7DEB70F900F900F900F900F9020
:102BD000DF91CF910895089508950C94A40B8091EE
:102BE000C101843009F11092B60120E488E190E03F
:102BF0000FB6F894A895809360000FBE20936000F4
:102C000083B7817F846083BF83B7816083BF7894FB
:102C1000889583B78E7F83BF88E10FB6F894809341
:102C20006000109260000FBE089508950895CF933C
:102C30000E9415160E9451020E941616C0E08C2FA9
:102C40000E945D03892B29F4CF5FC830C1F780E073
:102C500001C081E0CF9108950C94E80F82E084BD1B
:102C600093E095BD9AEF97BD80936E0008958FB75E
:102C7000F8944091B7015091B8016091B9017091F9
:102C8000BA018FBFCA0108951F920F920FB60F921B
:102C900011248F939F93AF93BF938091B70190912D
:102CA000B801A091B901B091BA010196A11DB11D61
:102CB0008093B7019093B801A093B901B093BA0182
:102CC000BF91AF919F918F910F900FBE0F901F906A
:102CD00018950E944F07F8942FEF87EA91E621504C
:102CE00080409040E1F700C0000087E090EBDC01FD
:102CF0008093CA019093CB01A093CC01B093CD01F6
:102D00002CE088E190E00FB6F894A89580936000DD
:102D10000FBE20936000FFCF0E94FF01982F905CB0
:102D2000903218F40E94110208958D3B50F4883AB5
:102D300018F5853AC0F4843098F4813009F06FC0FA
:102D40000CC0883E30F4803E58F48F3B09F067C0D9
:102D500059C0803F08F463C051C021E030E0A6C0F4
:102D6000282F30E0A3C0853A09F45CC0863A09F008
:102D70005CC022E830E49AC0883A09F459C0893A24
:102D800009F459C08A3A09F459C08B3A09F459C078
:102D90008C3A09F459C08D3A09F459C08E3A09F4B5
:102DA00059C08F3A09F459C0813B09F459C0803B9E
:102DB00009F459C0823B09F459C0833B09F459C056
:102DC000843B09F459C0853B09F459C0863B09F49A
:102DD00059C0873B09F459C0883B09F459C0893B65
:102DE00009F459C08A3B09F459C08B3B09F459C016
:102DF0008C3B09F059C02AE236E458C0282F30E055
:102E0000306554C00E94E80F2FEF80E792E0215018
:102E100080409040E1F700C000000E94691620E069
:102E200030E044C021E830E441C023E830E43EC053
:102E300022EE34E43BC029EE34E438C02AEE34E418
:102E400035C025EB34E432C026EB34E42FC023EB4D
:102E500034E42CC024EB34E429C027EB34E426C04E
:102E60002CEC34E423C02DEC34E420C023E835E41A
:102E70001DC02AE835E41AC022E935E417C024E968
:102E800035E414C021E236E411C023E236E40EC07A
:102E900024E236E40BC025E236E408C026E236E43C
:102EA00005C027E236E402C020E034E4C9010895F9
:102EB00080E090E00895E1E8F0E080818860808320
:102EC0008081816080838FB7F89493E0909389002C
:102ED00090ED909388008FBF0895EFE6F0E0808139
:102EE000826080830895EFE6F0E080818D7F8083AB
:102EF00008951F920F920FB60F9211240BB60F92E6
:102F00002F933F934F935F936F937F938F939F93F1
:102F1000AF93BF93EF93FF938091BB019091BC015E
:102F200001969093BC018093BB01811103C082E0A4
:102F30000E946703E091BC01E695E695F0E0E75654
:102F4000FD4FE4918091BB018E1303C080E00E948D
:102F50006703FF91EF91BF91AF919F918F917F9107
:102F60006F915F914F913F912F910F900BBE0F90FA
:0C2F70000FBE0F901F901895F894FFCF33
:102F7C00057A03E7037D03B3037E0301AD01E8018A
:082F8C00010259022302403644
:00000001FF
