:100000000C9410070C9456070C9456070C94560742
:100010000C9456070C9456070C9456070C945607EC
:100020000C9456070C9456070C94F3110C94C912B7
:100030000C941B220C9456070C9456070C945607EC
:100040000C9456070C9456070C9456070C945607BC
:100050000C9456070C949A220C9456070C9456074D
:100060000C9456070C94DD0C0C9456070C94560710
:100070000C9456070C9456070C9456070C9456078C
:100080000C9456070C9456070C9456070C9456077C
:100090000C9456070C94560700F001F002F039A3B7
:1000A000F1A403F00000000000052C11E500385118
:1000B0004F0050E6E4E51D1B0619281036373100C5
:1000C00000004800000004160709310D0E0F330030
:1000D000000000000000141A081531180C1213005B
:1000E000000000C000001E1F2021432425262744B5
:1000F000454E4D46E000353A3B2242232E412D4CE1
:1001000049C24A0000E12BC33C172A1C30402F0093
:1001100000000000000029643D0A3E0B3F0034004F
:10012000000052E200000000000101010100540142
:100130000100010101010101010158628563010013
:100140000000010000000101010101595A5B550046
:1001500000000000000001010101015C5D5E010082
:10016000000000C1000001010101015F60610101A7
:1001700001010101010001010101010157015601C5
:100180000101010000010101010101010101010062
:100190000000000000000101010101010100010057
:1001A0000000010100000000000101010100010147
:1001B00001000101C401010101010101010101006E
:1001C0000000010000000101010101010101010025
:1001D0000000000000000101010101010101010016
:1001E0000000000100000101010101010101010104
:1001F00001F3F1010100010101010101010101F21D
:10020000F4F5F0000001010101010101010101000B
:1002100000000000000001010101010101000100D6
:10022000000001010000000000010101010001A81F
:10023000A900AAE701010101010101010101010079
:100240000000C500000001010101010101010100E0
:100250000000000000000101010101010101010095
:1002600000000001000001010101AE01010101AC2B
:10027000AB010101010001010101010101010101C5
:100280000101010000010101010101010101010061
:100290000000000000000101010101010100010056
:1002A000000001E300000000000101010100010164
:1002B0000100010101010101010101010101010030
:1002C0000000010000000101010101010101010024
:1002D0000000000000000101010101010101010015
:1002E0000000000100000101010101010101010103
:1002F0000101FA01010001010101010101010101F6
:100300000101F900000101010101010101010100E8
:1003100000000000000001010101010101000100D5
:1003200000000101500052006900626F756E636544
:10033000213A200025303258000A000A722F63202B
:10034000303132333435363738394142434445460B
:100350000A0025303258003A20002530313662003C
:100360000A00496E697469616C697A696E67206B0D
:100370006579626F6172642E2E2E0A00496E69746F
:1003800069616C697A696E67206B6579626F617209
:10039000642E2E2E0A0053657474696E6720686F90
:1003A00073742064726976657220746F204C5546B0
:1003B000412E2E2E0A0055534220706C75676765DA
:1003C0006420696E2C20627574206E6F7420636FD8
:1003D0006E666967757265643A20617373756D69DD
:1003E0006E6720636861726765722E0A004D6169ED
:1003F0006E206C6F6F70000A446174613A200025B2
:10040000303458003B206269746D61703A200025D9
:10041000303458000A002B2D2D2D2D2D2D2D2D2D56
:100420002D2D2D2D2D2D2D2D2D2D2D2D2D2D2D2DFC
:100430002D2D2D2D2D2D2D2D2D2D2D2B0A007C20FC
:10044000484944207265706F727420746F20426C4A
:100450007565667275697420766961207365726965
:10046000616C207C0A002B2D2D2D2D2D2D2D2D2D59
:100470002D2D2D2D2D2D2D2D2D2D2D2D2D2D2D2DAC
:100480002D2D2D2D2D2D2D2D2D2D2D2B0A7C0020AC
:1004900000253032580020007C0A2B2D2D2D2D2DCB
:1004A0002D2D2D2D2D2D2D2D2D2D2D2D2D2D2D2D7C
:1004B0002D2D2D2D2D2D2D2D2D2D2D2D2D2D2D2B6E
:1004C0000A0A005B435D005B445D005B525D005BBC
:1004D000535D005B575D0014034D006F00640065C1
:1004E000006C004D00530053004B0000001A0350F5
:1004F0000068006F007300700068006F00720047B2
:10050000006C006F00770000000403090409027406
:1005100000040100A03209040000010301010009E8
:100520002111010001223F000705810308000A098B
:100530000401000103010200092111010001224D03
:10054000000705820308000A0904020001030000F5
:10055000000921110100012236000705830308006C
:100560000A0904030002030000000921110100012F
:100570002220000705840320000107050403200052
:10058000011201100100000008EDFE606001000191
:100590000200010631FF0974A1010975150025FF4C
:1005A0009520750881020976150025FF95207508AC
:1005B0009102C005010980A101850216010026B73C
:1005C000001A01002AB700751095018100C0050CC2
:1005D0000901A1018503160100269C021A01002AC7
:1005E0009C02751095018100C005010902A1010955
:1005F00001A10005091901290515002501950575B9
:100600000181029501750381010501093009311548
:1006100081257F95027508810609381581257F950A
:100620000175088106050C0A38021581257F9501A0
:1006300075088106C0C005010906A101050719E07A
:1006400029E71500250195087501810295017508B6
:10065000810105081901290595057501910295018A
:10066000750391010507190029FF150025FF95065F
:1006700075088100C06B6579626F6172645F726535
:10068000706F72743A20002530325820000A006BD7
:100690006579626F6172645F7365745F6C65643AFB
:1006A000200025303258000A00626F6F746D616758
:1006B0006963207363616E3A202E2E2E2000646FD2
:1006C0006E652E0A006D6F7573656B6579205B62D0
:1006D000746E7C782079207620685D287265702F92
:1006E00061636C293A205B0025303258007C00257C
:1006F000640020002564002000256400200025649B
:10070000005D28002575002F00257500290A006569
:1007100065636F6E6669673A0A00433E20000A0A05
:10072000626F6F746C6F616465722E2E2E20000AEA
:1007300064656275673A206F66660A000A646562DE
:1007400075673A206F6E0A000A6D61747269783AB3
:10075000206F6E0A000A6D61747269783A206F66C4
:10076000660A000A6B6579626F6172643A206F6E87
:100770000A000A6B6579626F6172643A206F66667F
:100780000A000A6D6F7573653A206F6E0A000A6D74
:100790006F7573653A206F66660A000A092D205648
:1007A000657273696F6E202D0A00444553433A20E9
:1007B000436F6C6F73737573204D6F64656C204D60
:1007C00020436F6E74726F6C6C65720A00564944F8
:1007D0003A203078464545442850686F7370686FFA
:1007E00072476C6F7729205049443A203078363070
:1007F0003630284D6F64656C4D53534B2920564558
:10080000523A203078303030310A004255494C4459
:100810003A20396665356666382D646972747920C8
:100820002832313A31383A3331204D61792031362E
:100830002032303136290A004F5054494F4E533A36
:10084000204C55464120424F4F544D41474943208B
:100850004D4F5553454B45592045585452414B45F2
:100860005920434F4E534F4C4520434F4D4D414E21
:100870004420383139320A004743433A20342E3776
:100880002E31204156522D4C4942433A20312E38C8
:100890002E30204156525F415243483A20617672D1
:1008A00035310A000A092D20537461747573202DA7
:1008B0000A00686F73745F6B6579626F6172645F61
:1008C0006C65647328293A2025580A006B657962A3
:1008D0006F6172645F70726F746F636F6C3A202522
:1008E000580A006B6579626F6172645F69646C6558
:1008F0003A2025580A0074696D65725F72656164FB
:10090000333228293A202530346C580A003F0064DD
:10091000656661756C745F6C617965723A2000255B
:1009200075000A0064656275675F636F6E6669676C
:100930002E7261773A200025303258000A002E6569
:100940006E61626C653A20002575000A002E6D61AB
:10095000747269783A20002575000A002E6B65795B
:10096000626F6172643A20002575000A002E6D6F77
:100970007573653A20002575000A006B65796D6115
:10098000705F636F6E6669672E7261773A2000252B
:10099000303258000A002E737761705F636F6E7497
:1009A000726F6C5F636170736C6F636B3A200025CC
:1009B00075000A002E636170736C6F636B5F746FF8
:1009C0005F636F6E74726F6C3A20002575000A00C9
:1009D0002E737761705F6C616C745F6C6775693AD8
:1009E00020002575000A002E737761705F72616CBC
:1009F000745F726775693A20002575000A002E6ED3
:100A00006F5F6775693A20002575000A002E7377BD
:100A100061705F67726176655F6573633A20002578
:100A200075000A002E737761705F6261636B736C8F
:100A30006173685F6261636B73706163653A200024
:100A40002575000A002E6E6B726F3A200025750026
:100A50000A000A092D204D61676963202D0A643A56
:100A60000964656275670A783A096465627567208A
:100A70006D61747269780A6B3A0964656275672002
:100A80006B6579626F6172640A6D3A0964656275BB
:100A900067206D6F7573650A763A097665727369BA
:100AA0006F6E0A733A097374617475730A633A0955
:100AB000636F6E736F6C65206D6F64650A302D34E3
:100AC0003A096C61796572302D34284631302D46F3
:100AD00034290A506175733A09626F6F746C6F61E3
:100AE0006465720A653A09656570726F6D0A000A7D
:100AF000092D20436F6E736F6C65202D0A4553439B
:100B00002F713A09717569740A6D3A096D6F7573C1
:100B1000656B65790A004C25640A00433E20004D50
:100B20003E20003F000A092D204D6F7573656B65EF
:100B300079202D0A4553432F713A09717569740A5A
:100B4000313A0964656C6179282A31306D73290A5C
:100B5000323A09696E74657276616C286D73290A80
:100B6000333A096D61785F73706565640A343A09D8
:100B700074696D655F746F5F6D61780A353A0977E6
:100B80006865656C5F6D61785F73706565640A3672
:100B90003A09776865656C5F74696D655F746F5F4E
:100BA0006D61780A0A703A097072696E7420766114
:100BB0006C7565730A643A097365742064656661CF
:100BC000756C74730A75703A092B310A646F776E0D
:100BD0003A092D310A706775703A092B31300A7065
:100BE00067646F776E3A092D31300A0A7370656554
:100BF00064203D2064656C7461202A206D61785FFB
:100C00007370656564202A202872657065617420A0
:100C10002F2074696D655F746F5F6D6178290A00BC
:100C200077686572652064656C74613A20637572DB
:100C3000736F723D25642C20776865656C3D256473
:100C40000A53656520687474703A2F2F656E2E778D
:100C5000696B6970656469612E6F72672F77696B64
:100C6000692F4D6F7573655F6B6579730A00433E3D
:100C700020007365742064656661756C740A003FBA
:100C8000004D25643E20004D3E000A092D2056618E
:100C90006C756573202D0A00313A2064656C6179AA
:100CA000282A31306D73293A20002575000A003258
:100CB0003A20696E74657276616C286D73293A20EA
:100CC000002575000A00333A206D61785F73706506
:100CD00065643A20002575000A00343A2074696D75
:100CE000655F746F5F6D61783A20002575000A00BA
:100CF000353A20776865656C5F6D61785F73706504
:100D000065643A20002575000A00363A2077686548
:100D1000656C5F74696D655F746F5F6D61783A20B3
:100D2000002575000A006D6B5F64656C6179203D7C
:100D30002025640A006D6B5F696E74657276616C64
:100D4000203D2025640A006D6B5F6D61785F7370D4
:100D5000656564203D2025640A006D6B5F74696DD4
:100D6000655F746F5F6D6178203D2025640A006DBA
:100D70006B5F776865656C5F6D61785F73706565E3
:100D800064203D2025640A006D6B5F776865656CA3
:100D90005F74696D655F746F5F6D6178203D2025BC
:100DA000640A006D6B5F64656C6179203D20256489
:100DB0000A006D6B5F696E74657276616C203D2010
:100DC00025640A006D6B5F6D61785F7370656564A3
:100DD000203D2025640A006D6B5F74696D655F744A
:100DE0006F5F6D6178203D2025640A006D6B5F7731
:100DF0006865656C5F6D61785F7370656564203DE3
:100E00002025640A006D6B5F776865656C5F7469A7
:100E10006D655F746F5F6D6178203D2025640A0009
:100E200011241FBECFEFD0E2DEBFCDBF04B603FE5C
:100E300024C08091030390910403A0910503B09115
:100E400006038730904BA740B04BB9F410920303D0
:100E500010920403109205031092060314BE84B787
:100E6000877F84BF88E10FB6F8948093600010926A
:100E700060000FBEE0E0F0EF099511E0A0E0B1E006
:100E8000EEE8FBE500E00BBF02C007900D92AC332B
:100E9000B107D9F713E0ACE3B1E001C01D92A33074
:100EA000B107E1F70E94B20A0C94C52D0C94000022
:100EB000FF93EF93E0913C01F0913D01309709F0F1
:100EC0000995EF91FF910895FC018591803011F013
:100ED000EFDFFBCF0895FF27E0E230E247FF0CC0D1
:100EE000419597FF09C0EDE26095709580959095CA
:100EF000611D711D811D911D27FF02C0219530E3E9
:100F000050E2AA27660F771F881F991FAA1FA417F0
:100F100010F0A41B63955A95A9F7AA3008F0A95FB1
:100F2000A05DAF93F395611571058105910541F7BA
:100F3000ED3211F4EF93F395F21718F43F93F39514
:100F4000FBCF8F91B5DFFA95E1F70895E991F9911B
:100F50008591803021F0853219F0AADFF9CF08950C
:100F600020E0E89455915532C1F3503311F4689460
:100F700055915A3348F4505390F3220F022E220F0A
:100F8000220F200D250FF4CF0EF421958991999110
:100F9000533619F3533729F1533559F1BC018827DA
:100FA0009927E8945C3621F4899199916894559138
:100FB000543639F446EF7EF077FF0DC08FEF9FEF88
:100FC0000AC055374AE039F0583540E121F0523631
:100FD00042E009F00895FF93EF937DDFEF91FF91D9
:100FE000B7CFFF93EF93FC0181918030B9F360DFBD
:100FF000FBCFFF93EF9368DFF1CFDF93CF93CDB7B4
:10100000DEB72596A3DFCF91DF910895EF92FF928F
:10101000CF937C01C62FFC0192818091E402992339
:1010200029F080FF09C084E293E004C080FF04C07F
:1010300086E293E00E946407F701858180FF08C083
:101040008091E40280FF04C088E293E00E9464077C
:10105000C130E9F038F0C23009F442C0C33009F0C1
:1010600084C066C00E9409208272992780933E0145
:10107000F7013281332341F0811115C00E94122003
:1010800082E00E942F1F1FC081116FC069C00E94A3
:1010900009208272992780933E01F7013281332320
:1010A000D1F0882341F081E00E942F1F84B198E0A5
:1010B000892784B95AC00E94122083E590E00E94DB
:1010C000C61F0E94482080913E0190E0CF91FF9082
:1010D000EF900C940C20811148C083E590E03EC055
:1010E0000E9409208071992780933F01F701328186
:1010F0003323D9F0882371F0569A5E9AFFEF21E1ED
:101100008AE7F15020408040E1F700C00000569887
:101110005E982BC00E9412208BE490E00E94C61FB4
:101120000E94482080913F01D0CF8BE490E016C010
:101130000E94092080729927982F80934001F7011F
:101140008281882339F0992381F0CF91FF90EF902D
:101150000C94BF22911109C088E490E00E94E81F1E
:10116000CF91FF90EF900C944820CF91FF90EF909B
:101170000895E72FF0E098E0899FE00DF11D11241C
:1011800084E0EE0FFF1F8A95E1F7E60FF11DEC55A5
:10119000FF4F84910895E82FF0E0EE0FFF1FE85E07
:1011A000F04025913491C901089584B18F7184B9BB
:1011B00085B18F7185B98DB18F7C8DB98EB18F7CE2
:1011C0008EB98AB18C7E8AB98BB18C7E8BB9089529
:1011D00085B7806885BF85B7806885BF0E94D508C0
:1011E00081B18F7081B982B1806F82B987B117B830
:1011F00088B18FEF88B98DB18C7F8DB98EB1836046
:101200008EB98AB18F758AB98BB1806A8BB9E1E4E6
:10121000F1E0A1E5B1E0119211921D921D9281E0E1
:10122000E135F807C1F70895AF92BF92CF92DF92F0
:10123000EF92FF921F93CF93DF93A1E5CA2EA1E017
:10124000DA2E760110E0C1E0D5E01430A9F030F4D8
:101250001230C1F0A0F41130D9F417C0163031F0BB
:1012600040F01730A9F4549A5C9814C0519A5998D8
:1012700011C0509A58980EC06D9A75980BC06C9A10
:10128000749808C0279A2F9805C0269A2E9802C0F5
:10129000259A2D9880E58A95F1F780B182958F7017
:1012A0008C2780FBAA24A0F8B12C059B03C020E06A
:1012B00030E002C022E030E02A293B29069B03C02F
:1012C00080E090E002C084E090E0282B392B80B1D0
:1012D000992787FD9095809590958827990F881F6D
:1012E000992773E0880F991F7A95E1F7282B392BFE
:1012F00086B1992787FD9095809590958827990FBD
:10130000881F9927F4E0880F991FFA95E1F7282B99
:10131000392B369B03C080E090E002C080E290E071
:10132000282B392B359B03C080E090E002C080E47D
:1013300090E0282B392B349B03C060E070E002C0A2
:1013400060E870E0262B372B339B03C040E050E071
:1013500002C040E051E0242B352B329B03C080E0DB
:1013600090E002C080E092E0282B392B319B03C033
:1013700060E070E002C060E074E0262B372B309B09
:1013800003C040E050E002C040E058E0242B352B81
:10139000619B03C080E090E002C080E090E1282BD8
:1013A000392B609B03C080E090E002C080E090E2B7
:1013B000282B392B89B1992787FD90958095909599
:1013C0008827990F881F992790E4899F902D882757
:1013D0001124282B392B4D9B03C080E090E002C0E4
:1013E00080E090E8282B392BD7018D919C911197A3
:1013F0008217930751F12D933C938091000188232C
:1014000011F18091E40280FF04C08AE293E00E941F
:1014100064078091E40280FF0EC0809100011F925A
:101420008F9384E393E09F938F930E94FD070F9027
:101430000F900F900F908091E40280FF04C089E329
:1014400093E00E946407D09300010E94D5081F5FBB
:10145000B2E0EB0EF11C183009F0F7CE80910001DC
:101460008823C9F0815080930001882339F0EFEC84
:10147000F7E03197F1F700C000000DC0E1E4F1E0C2
:10148000D6018D919D916D0181939193B1E6CB161B
:10149000B1E0DB06A9F781E0DF91CF911F91FF90CA
:1014A000EF90DF90CF90BF90AF900895E82FF0E0DD
:1014B000EE0FFF1FEF5BFE4F8081918108958F92A9
:1014C0009F92AF92BF92CF92DF92EF92FF928BE307
:1014D00093E00E94640791E4A92E91E0B92EE12CDB
:1014E000F12C22E5822E23E0922E3AE5C32E33E042
:1014F000D32EFF92EF929F928F920E94FD0787E575
:1015000093E00E946407F501819191915F010E942F
:10151000C5219F938F93DF92CF920E94FD0780E6B3
:1015200093E00E946407FFEFEF1AFF0A8DB79EB7A2
:1015300008960FB6F8949EBF0FBE8DBF98E0E916CF
:10154000F104B9F6FF90EF90DF90CF90BF90AF908D
:101550009F908F900895249A81FF02C02C9808953F
:101560002C9A089590E080E80FB6F894809361007B
:10157000909361000FBE0E94C30C8091E2008460D2
:101580008093E2008EE09DE00E94AE2178942FEFE0
:101590008DE399E4215080409040E1F700C00000C5
:1015A0007B991DC00E94D7112FEF89E698E1215049
:1015B00080409040E1F700C000000E940D1582E6D7
:1015C00093E00E94640781E084B9289A0E94C60CC7
:1015D0000E947A140E94C90C0E943B15FDCF0E9404
:1015E000D7112FEF89E698E1215080409040E1F734
:1015F00000C000008CE793E00E9464070E940D1574
:1016000086E993E00E9464078BE091E00E947A14DF
:101610000E943B158091F902843041F084B194E03E
:10162000892784B986EB93E00E9464072FEF89E64F
:1016300098E1215080409040E1F700C000008DEE1D
:1016400093E00E9464070BC00E94DC218091F702A6
:10165000882329F00E94042281110E94C20F8091E8
:10166000F902853089F30E943B15F9CF80E0089597
:1016700008958091E40280FF08C086E194E09F9382
:101680008F930E94FD070F900F908091E40280FFDE
:1016900008C08EE394E09F938F930E94FD070F9004
:1016A0000F908091E40280FF08C086E694E09F934B
:1016B0008F930E94FD070F900F9008958091E40290
:1016C00080FF08C088E994E09F938F930E94FD07F4
:1016D0000F900F900895CF93C82F8091E40280FF60
:1016E00008C02FE834E03F932F930E94FD070F902E
:1016F0000F908091E40280FF0CC01F92CF9321E9EC
:1017000034E03F932F930E94FD070F900F900F90AE
:101710000F908091E40280FF08C026E934E03F93F7
:101720002F930E94FD070F900F908C2FCF910C9458
:10173000D60CCF92DF92EF92FF926C018091610103
:1017400090916201C816D90609F4CDC0D092620109
:10175000C092610182EEC816D10409F453C089EE2B
:10176000C816D104B9F18AEEC816D104B9F185EBD7
:10177000C816D104B9F186EBC816D104B9F187EBCC
:10178000C816D104B9F18CECC816D104D9F18DEC8E
:10179000C816D10499F183E8C81681E0D80691F102
:1017A0008AE8C81681E0D80669F182E9C81681E0A6
:1017B000D80641F184E9C81681E0D80619F181E222
:1017C000C81682E0D80609F183E2C81682E0D8067E
:1017D00001F118C0E12C70E1F72E1EC0E12C60E28F
:1017E000F62E1AC052E0E52EF12C16C044E0E42E8D
:1017F000F12C12C030E1E32EF12C0EC0E12C20E4DC
:10180000F22E0AC0E12CF12C07C0E12C94E0F92E55
:1018100003C0E12CFF24F3948091E40280FF08C010
:1018200087EF93E09F938F930E94FD070F900F9097
:101830008091E40280FF0CC0DF92CF928FEF93E0A3
:101840009F938F930E94FD070F900F900F900F9022
:101850008091E40280FF08C084E094E09F938F931E
:101860000E94FD070F900F908091E40280FF0CC052
:10187000FF92EF928FE094E09F938F930E94FD0779
:101880000F900F900F900F908091E40280FF08C09E
:1018900084E194E09F938F930E94FD070F900F9037
:1018A0000E94390B8DEF0E946B0B80E00E946B0B46
:1018B00082E00E946B0B8F2D0E946B0B8E2D0E947D
:1018C0006B0B80E00E946B0B80E00E946B0B80E052
:1018D0000E946B0B80E00E946B0BFF90EF90DF90FB
:1018E000CF900C945E0BFF90EF90DF90CF90089517
:1018F000EF92FF927C010E94390B8DEF0E946B0BDF
:1019000080E00E946B0B83E00E946B0BF7018081EB
:101910000E946B0BF70181810E946B0BF7018281A2
:101920000E946B0BF70183810E946B0BF70184818E
:101930000E946B0B80E00E946B0BFF90EF900C9469
:101940005E0BEF92FF921F93CF93DF931F92CDB761
:10195000DEB7182F99830E94390B8DEF0E946B0B15
:10196000E12E9981F92E18E0F70181917F010E9403
:101970006B0B1150C9F70F90DF91CF911F91FF9022
:10198000EF900C945E0B56985E98089581E091E07C
:10199000089583E38093CC001092CD0088E080937B
:1019A000C90086E08093CA00789408959091C80099
:1019B00095FFFCCF8093CE0008951F920F920FB633
:1019C0000F9211240BB60F922F933F934F938F9347
:1019D0009F93EF93FF932091630130E0C90101963B
:1019E000992740916401481741F09091CE00F90188
:1019F000EB59FE4F908380936301FF91EF919F918C
:101A00008F914F913F912F910F900BBE0F900FBE72
:101A10000F901F90189580916E0208959FB7F894CB
:101A2000109270029FBF9091F902943009F058C053
:101A30009091E9009F702091EC0020FF02C020E807
:101A400001C020E0292B94E09093E9009091EB00F5
:101A500090FF43C09091EE0097FF3FC090917102BC
:101A6000992321F09091E80095FF37C01092710200
:101A700096E014C03091F902343079F53091EB00E2
:101A800035FD2BC0915021F481E08093710225C077
:101A9000EFECF7E03197F1F700C000003091E8007B
:101AA00035FFE8CF8093F1008091E80085FD0AC002
:101AB0008091E80080FFFCCF8091E8008E778093D2
:101AC000E80006C08FB7F89491E0909370028FBF42
:101AD0002F702093E90080E008952F702093E90093
:101AE0008FEF0895CF93DF9300D01F92CDB7DEB76D
:101AF0002091F902243021F523E029839B838A83F6
:101B00002093E9008FEF06C09AE69A95F1F700C09E
:101B1000882329F09091E800815095FFF5CF8091BE
:101B2000E80085FF0DC040E050E063E070E0CE01CA
:101B300001960E94D80F8091E8008E778093E8008C
:101B40000F900F900F90DF91CF910895CF93DF9377
:101B500000D01F92CDB7DEB72091F902243029F5CD
:101B600022E029839B838A8383E08093E9008FEFBF
:101B700006C09AE69A95F1F700C0882329F0909163
:101B8000E800815095FFF5CF8091E80085FF0DC0FA
:101B900040E050E063E070E0CE0101960E94D80F73
:101BA0008091E8008E778093E8000F900F900F905F
:101BB000DF91CF9108952091F9022430F9F422E0C9
:101BC0002093E9002FEF06C03AE63A95F1F700C0FE
:101BD000222329F03091E800215035FFF5CF2091E4
:101BE000E80025FF0BC040E050E065E070E00E9497
:101BF000D80F8091E8008E778093E8000895EF92E7
:101C0000FF927C018091F902843041F581E080935C
:101C1000E9008FEF06C09AE69A95F1F700C0882395
:101C200029F09091E800815095FFF5CF8091E80070
:101C300085FF14C040E050E068E070E0C7010E94FA
:101C4000D80F8091E8008E778093E80088E0F70154
:101C5000A6E6B2E001900D928A95E1F7FF90EF9031
:101C6000089583EC94E00E9464078091F80281114A
:101C700009C00E9470110E94D7118091E200846017
:101C80008093E200089587EC94E00E94640710922C
:101C9000F80208958BEC94E00C9464078FEC94E0C8
:101CA0000C94640783ED94E00E9464070C9419225D
:101CB00080916F028F5F80936F0262E30E94602DBC
:101CC000911135C010926F0280917002882379F1D2
:101CD0008091F902843049F58091E9008F709091EC
:101CE000EC0090FF02C090E801C090E0982B84E0E7
:101CF0008093E9008091EB0080FF14C08091EE009A
:101D000087FD03C00FC01092F1008091E80085FDAF
:101D1000FACF8091E80080FF05C08091E8008E77BF
:101D20008093E8009F709093E900109270020895EC
:101D300042E061EC81E00E94E61042E061EC82E06A
:101D40000E94E61042E061EC83E00E94E61042E26D
:101D500061EC84E00C94E6108091FB02833009F47E
:101D600054C030F4813071F0823009F0A5C08CC0CD
:101D70008A3009F479C08B3009F45FC0893009F0EA
:101D80009BC020C08091FA02813A09F095C08091F1
:101D9000E800877F8093E8008091FE029091FF0227
:101DA000892B21F060E080E090E003C068E086E6E7
:101DB00092E070E00E942B108091E8008B77809376
:101DC000E80008958091FA02813209F075C080918F
:101DD000FE029091FF02892B09F06EC08091E8000D
:101DE000877F8093E80005C08091F902882309F479
:101DF00063C08091E80082FFF7CF8091F10080936B
:101E00006E028091E8008B7753C08091FA02813A8C
:101E100009F052C08091FE029091FF02892B09F0D7
:101E20004BC08091E800877F8093E8008091E800B4
:101E300080FFFCCF8091150136C08091FA0281327B
:101E4000D9F58091FE029091FF02892BA9F580912E
:101E5000E800877F8093E8000E941D118091FC02BA
:101E6000809315010C947D1A8091FA02813221F53C
:101E70008091E800877F8093E8000E941D11809187
:101E8000FD028093650208958091FA02813AA1F4DF
:101E90008091E800877F8093E8008091E80080FFD0
:101EA000FCCF809165028093F1008091E8008E77ED
:101EB0008093E8000C941D110895292F33272330B7
:101EC0003105B1F04CF42130310509F44DC0223018
:101ED000310509F04EC007C02132310541F12232EF
:101EE000310591F146C0E4E7F0E08DE095E045C0B2
:101EF00099278130910569F08230910589F0892B0D
:101F000009F037C0E9E0F5E0E491F0E089E095E020
:101F100034C0EDEEF4E0E491F0E08DEE94E02DC0FD
:101F2000E7EDF4E0E491F0E087ED94E026C0643062
:101F300000F5E62FF0E0EE0FFF1FE25EFE4F80811E
:101F40009181E9E0F0E019C0643098F4E62FF0E008
:101F5000DF01AA0FBB1FAA5DBE4F8D919C91E25D70
:101F6000FE4FE081F0E009C0E2E1F0E081E895E0B9
:101F700004C0E0E0F0E080E090E0DA018D939C9313
:101F8000CF0108958CE089BD8EE089BD09B400FEC3
:101F9000FDCF8091D8008F7D8093D8008091E000A4
:101FA00082608093E0008091E00081FDFCCF089585
:101FB0008F929F92AF92BF92CF92DF92EF92FF9259
:101FC000CF935C016B017A010E943E11C82F8111F1
:101FD00037C0E114F10439F0F70120813181C21AD0
:101FE000D30AA20EB31E812C912C25C08091E8004B
:101FF00085FD16C08091E8008E778093E800E1149B
:10200000F10449F0F70180819181880D991D918338
:102010008083C5E015C00E943E11882361F00FC087
:10202000F50181915F018093F100F1E0CF1AD108B1
:102030008FEF881A980AC114D104C1F601C0C82FC5
:102040008C2FCF91FF90EF90DF90CF90BF90AF900B
:102050009F908F90089520910003309101032617DF
:10206000370748F06115710539F42091E8002E77A3
:102070002093E80001C0B901FC0120E02CC0809150
:10208000F9028823F1F18530F1F18091E80083FDB8
:102090003CC08091E80082FD2EC08091E80080FF66
:1020A0001AC08091F2009091F30006C02191209314
:1020B000F1006150710901966115710519F08830C0
:1020C0009105A0F321E0089709F020E08091E80055
:1020D0008E778093E8006115710589F62111CFCFC5
:1020E0000AC08091F902882361F0853061F0809107
:1020F000E80083FD0AC08091E80082FFF2CF80E013
:10210000089582E0089583E0089581E00895209184
:102110000003309101032617370748F06115710558
:1021200039F42091E8002E772093E80001C0B9012E
:10213000FC0120E02FC08091F902882309F440C0FF
:10214000853009F43FC08091E80083FD3DC0809157
:10215000E80082FD2FC08091E80080FF1BC08091C5
:10216000F2009091F30007C024912093F100319682
:102170006150710901966115710519F0883091055A
:1021800098F321E0089709F020E08091E8008E772D
:102190008093E8006115710571F62111CCCF0AC05A
:1021A0008091F902882361F0853061F08091E80028
:1021B00083FD0AC08091E80082FFF2CF80E008959D
:1021C00082E0089583E0089581E00895982F2CC05F
:1021D0009093E900981739F07091EC002091ED0090
:1021E0005091F00003C0242F762F50E021FD02C053
:1021F0009F5F1AC03091EB003E7F3093EB0030912F
:10220000ED003D7F3093ED003091EB003160309375
:10221000EB007093EC002093ED005093F0002091C0
:10222000EE0027FDE5CF07C0973090F28F708093C6
:10223000E90081E0089580E008958091FA0287FD29
:1022400005C08091E80080FF0EC012C08091E800B8
:1022500082FD05C08091F9028111F8CF0895809127
:10226000E8008B7708C08091F9028111EACF0895C8
:102270008091E8008E778093E80008958091E400D3
:102280009091E50045E62091EC0020FD1FC023C0A1
:102290002091F902222391F0253091F02091EB005A
:1022A00025FD10C02091E4003091E5002817390782
:1022B00051F34150C90139F784E0089582E008954F
:1022C00083E0089581E0089580E008952091E8007A
:1022D00020FFDECFF9CF2091E80022FFD9CFF4CF45
:1022E0000E94E6110E94EE11E0EEF0E08081816034
:1022F0008083E8EDF0E080818F77808319BCA7EDC3
:10230000B0E08C918E7F8C9380818F7E8083109241
:10231000F8020895CF92DF92EF92FF920E94E611A9
:102320000E94EE1188EDE82EF12CF70180818F7765
:10233000808380818068808380818F7D8083E7EDCA
:10234000F0E080818068808319BC1092F9021092BD
:10235000F5021092F7021092F60290EEC92ED12CDF
:10236000F60180818B7F8083F7018081816080838B
:1023700042E060E080E00E94E610E1EEF0E0808163
:102380008E7F8083E2EEF0E08081816080838081B7
:1023900088608083F60180818E7F8083F701808151
:1023A00080618083FF90EF90DF90CF900895E8EDFB
:1023B000F0E080818F7E8083E7EDF0E080818160B6
:1023C000808381E08093F8020C948A11E8EDF0E0BC
:1023D00080818C7F80831092E20008951092DA0051
:1023E0001092E10008951F920F920FB60F921124E0
:1023F0000BB60F922F933F934F935F936F937F93FF
:102400008F939F93AF93BF93EF93FF938091E100DE
:1024100082FF0BC08091E20082FF07C08091E10043
:102420008B7F8093E1000E94580E8091DA0080FF3C
:102430001FC08091D80080FF1BC08091DA008E7F82
:102440008093DA008091D90080FF0DC08CE089BDB7
:102450008EE089BD09B400FEFDCF81E08093F902D2
:102460000E94310E05C019BC1092F9020E94430E61
:102470008091E10080FF19C08091E20080FF15C0CB
:102480008091E2008E7F8093E2008091E200806183
:102490008093E2008091D80080628093D80019BCBC
:1024A00085E08093F9020E944E0E8091E10084FF46
:1024B00030C08091E20084FF2CC08CE089BD8EE0AA
:1024C00089BD09B400FEFDCF8091D8008F7D809337
:1024D000D8008091E1008F7E8093E1008091E2003E
:1024E0008F7E8093E2008091E20081608093E20021
:1024F0008091F502882311F084E007C08091E30009
:1025000087FF02C083E001C081E08093F9020E944E
:10251000520E8091E10083FF29C08091E20083FF89
:1025200025C08091E100877F8093E10082E0809365
:10253000F9021092F5028091E1008E7F8093E10014
:102540008091E2008E7F8093E2008091E2008061C2
:102550008093E20042E060E080E00E94E61080911B
:10256000F00088608093F0000E944A0EFF91EF9186
:10257000BF91AF919F918F917F916F915F914F919B
:102580003F912F910F900BBE0F900FBE0F901F9099
:1025900018951F920F920FB60F9211240BB60F923F
:1025A0002F933F934F935F936F937F938F939F935B
:1025B000AF93BF93CF93EF93FF938091E9008F7018
:1025C0009091EC0090FF02C090E801C090E0C92F0C
:1025D000C82B1092E9008091F000877F8093F00073
:1025E00078940E9411131092E9008091F0008860A5
:1025F0008093F000CF70C093E900FF91EF91CF91ED
:10260000BF91AF919F918F917F916F915F914F910A
:102610003F912F910F900BBE0F900FBE0F901F9008
:1026200018951F93CF93DF93CDB7DEB7AC970FB656
:10263000F894DEBF0FBECDBFEAEFF2E08091F1006B
:10264000819323E0E230F207C9F70E94AC0E80913B
:10265000E80083FF37C18091FA029091FB02953028
:1026600009F488C038F49130B1F170F0933009F07A
:1026700029C131C0983009F4F8C0993009F404C177
:10268000963009F01FC19DC0803821F0823809F0D2
:1026900019C108C08091F6029091F702992389F040
:1026A00082600FC08091FE029091FF028F70992787
:1026B0008093E9008091EB0085FB882780F91092D8
:1026C000E9009091E800977F9093E8008093F100F3
:1026D0001092F100D5C0882319F0823009F0F2C0C1
:1026E0008F7121F0823009F0EDC00BC08091FC02A7
:1026F000813009F0E7C0933009F080E08093F70261
:102700002FC08091FC0281112BC08091FE0290911C
:10271000FF028F709927009709F4D4C08093E900D5
:102720002091EB0020FF1CC02091FB02233021F4FC
:102730008091EB00806212C09091EB0090619093C9
:10274000EB0021E030E001C0220F8A95EAF72093E8
:10275000EA001092EA008091EB0088608093EB0021
:102760001092E9008091E800877F8093E8000E9442
:102770001D11A8C08111A6C08091FC029091FD029C
:102780008F779927182F9091E3009078982B90934A
:10279000E3008091E800877F8093E8000E941D118C
:1027A0008091E80080FFFCCF8091E30080688093F7
:1027B000E300112311F083E001C082E08093F9026D
:1027C00081C08058823008F07DC08091FC029091D9
:1027D000FD028C3D23E0920779F583E08A838AE24B
:1027E00089834FB7F894DE01139620E03EE051E272
:1027F000E32FF0E050935700E49120FF03C0E295EF
:10280000EF703F5FEF708E2F90E0EA3010F0C796C8
:1028100001C0C0968D939D932F5F243149F74FBF20
:102820008091E800877F8093E8006AE270E0CE0143
:1028300001960E942B1013C0AE01455D5F4F609161
:10284000FE020E945D0F0097E9F12091E800277FCA
:102850002093E800BC018BA59CA50E948710809165
:10286000E8008B778093E8002DC0803859F580917F
:10287000E800877F8093E8008091F5028093F10063
:102880008091E8008E7771CF81111CC09091FC027D
:102890009230C0F48091E800877F8093E8009093A5
:1028A000F5020E941D118091F502811104C08091F2
:1028B000E30087FF02C084E001C081E08093F90259
:1028C0000E94980E8091E80083FF0AC08091E80082
:1028D000877F8093E8008091EB0080628093EB001B
:1028E000AC960FB6F894DEBF0FBECDBFDF91CF918F
:1028F0001F91089590937302809372020895E0915E
:102900007202F0917302309721F00190F081E02D76
:10291000099480E00895CF92DF92EF92FF92CF93D7
:10292000D82EC92FE0917202F09173023097C1F155
:102930000280F381E02D09958091E40282FF30C08E
:1029400080FF04C085E796E00E946407ED2CFC2E12
:10295000C8E087E8C82E86E0D82E8091E40280FF88
:102960000CC0F70180811F928F93DF92CF920E945B
:10297000FD070F900F900F900F90C150FFEFEF1ACF
:10298000FF0AC111EACF8091E40280FF09C08DE8FF
:1029900096E0CF91FF90EF90DF90CF900C9464077A
:1029A000CF91FF90EF90DF90CF900895E091720269
:1029B000F0917302309721F00480F581E02D0994A5
:1029C000089520917402309175028217930771F077
:1029D0009093750280937402E0917202F0917302F9
:1029E000309721F00680F781E02D09940895209119
:1029F0007602309177028217930771F090937702F5
:102A000080937602E0917202F0917302309721F088
:102A10000084F185E02D099408950E9444220E94CB
:102A2000E8080C942D23CF93C82F8091E40282FFF5
:102A30001EC080FF04C08FE896E00E94640780916A
:102A4000E40280FF0CC01F92CF9322EA36E03F934E
:102A50002F930E94FD070F900F900F900F90809181
:102A6000E40280FF04C087EA96E00E9464078C2F8E
:102A7000CF910C94AB0A2F923F924F925F926F923C
:102A80007F928F929F92AF92BF92CF92DF92EF92FE
:102A9000FF920F931F93CF93DF93CDB7DEB72A97A3
:102AA0000FB6F894DEBF0FBECDBF0E94140998E7A1
:102AB000492E92E0592E28E8A22E22E0B22EE12CD7
:102AC000F12C22242394312C0E2D8E2D0E94560A97
:102AD0006C01F201819091902F0188269926811432
:102AE000910409F45AC08E2D0E94560A3C010197A8
:102AF00086219721892B09F491C010E0101304C09E
:102B00001F5F1830D9F78AC0812F0E94560A86218C
:102B10009721892BA9F38AC0F501808191818C15B9
:102B20009D0511F00E945F0AF501D182C08235C077
:102B30000E945F0A80E090E03101082E02C0660C1E
:102B4000771C0A94E2F7930128213921232B09F1FC
:102B50008E830F83C620D72081E0CD2809F480E042
:102B600088870E944D228160782F9A8789874E81BD
:102B70005F8168858A850E943416F701EE0FFF1F7A
:102B8000E858FD4F80819181862597259183808328
:102B90001FC001968031910579F6FFEFEF1AFF0A09
:102BA00082E0A80EB11CE8E0EE16F10409F08CCF2B
:102BB0008FEF89838A831B820E944D228160782F48
:102BC0009D838C8349815A816B818D810E9434164B
:102BD0000E949626109198020E947F14181759F1AE
:102BE0000E947F14809398022A960FB6F894DEBF55
:102BF0000FBECDBFDF91CF911F910F91FF90EF904E
:102C0000DF90CF90BF90AF909F908F907F906F900C
:102C10005F904F903F902F900C941315F501D18247
:102C2000C0828091E40281FF85CF82CF8091E4024F
:102C300081FD72CF79CF2A960FB6F894DEBF0FBE12
:102C4000CDBFDF91CF911F910F91FF90EF90DF905B
:102C5000CF90BF90AF909F908F907F906F905F903C
:102C60004F903F902F900895CF93DF93CDB7DEB76D
:102C70002B970FB6F894DEBF0FBECDBF4F8358879A
:102C800069877A878B87DE01119686E0FD011192B4
:102C90008A95E9F785E0FE01379601900D928A95B5
:102CA000E1F749815A816B817C818D819E810E94EF
:102CB0003F1D2B960FB6F894DEBF0FBECDBFDF9140
:102CC000CF910895CF93C82F882309F498C08450DA
:102CD000813A48F48C2F0E94E82A811190C08C2FF1
:102CE0000E94C61F0DC08C2F805E883060F4C770B4
:102CF00081E090E001C0880FCA95EAF70E940C209D
:102D0000CF910C9448208C2F855A833078F4C53AA3
:102D100029F0C63A31F482E890E005C081E890E0FD
:102D200002C083E890E0CF910C94E1148C2F885A74
:102D3000833108F064C0C83A39F1C93A41F1CA3A5E
:102D400049F1CB3A51F1CC3A59F1CD3A61F1C03B5E
:102D500069F1CE3A71F1CF3A79F1C13B81F1C23BD1
:102D600089F1C33B91F1C43B99F1C53BA1F1C63B4D
:102D7000A9F1C73BB1F1C83BB9F1C93BC1F1CA3BAD
:102D8000C9F58AE292E038C082EE90E035C089EE63
:102D900090E032C08AEE90E02FC085EB90E02CC02E
:102DA00086EB90E029C087EB90E026C08CEC90E0A9
:102DB00023C08DEC90E020C083E891E01DC08AE83C
:102DC00091E01AC082E991E017C084E991E014C053
:102DD00081E292E011C083E292E00EC084E292E0D0
:102DE0000BC085E292E008C086E292E005C087E26F
:102DF00092E002C080E090E0CF910C94F714CF9164
:102E00000895882331F1982F9450913A18F40E9434
:102E1000E81F0EC0982F905E983060F4282F27701E
:102E200081E090E001C0880F2A95EAF70E94122005
:102E30000C944820982F955A933020F480E090E02D
:102E40000C94E114885A833120F480E090E00C94D3
:102E5000F7140895882321F00E940C200C94482038
:102E60000895882321F00E9412200C944820089590
:102E70008F929F92AF92BF920F931F93CF93DF9346
:102E8000CDB7DEB727970FB6F894DEBF0FBECDBF24
:102E90005C0185E0F501DE01119601900D928A95A5
:102EA000E1F7F501308121811281058102950F70D2
:102EB00083819481892B39F02F3F41F481E090E0A8
:102EC0003F3F31F003C081E090E002C080E090E03D
:102ED00080FDF2C239832A8389819A810E94811FF1
:102EE0009E838F830E94801F0E94A81E4E81242FE4
:102EF00022952F7030E06F812530310509F4E9C04B
:102F00006CF4243031050CF0A7C0842F807F942FFF
:102F10009F70223031050CF043C015C02C303105B4
:102F20004CF42A3031050CF0E3C12830310509F0AA
:102F3000C3C2E7C02C30310509F498C22F303105E7
:102F400009F0BAC2A7C2992E811101C003C09294A0
:102F500090EF9922112359F0992009F462C2892D2A
:102F60006F830E941F200E9448206F815AC2862FC3
:102F70000E940117992009F49FC2892D0E942520E3
:102F800027960FB6F894DEBF0FBECDBFDF91CF916D
:102F90001F910F91BF90AF909F908F900C944820FD
:102FA000992E803209F403C0929480EF9822662310
:102FB00021F0613009F041C021C01123B1F0892D09
:102FC000011101C026C0013021F527960FB6F894F3
:102FD000DEBF0FBECDBFDF91CF911F910F91BF908C
:102FE000AF909F908F900C942F20011101C003C0CF
:102FF000013009F461C20E9432202CC01123C9F0B3
:10300000063008F059C20E940920892109F022C027
:10301000892D27960FB6F894DEBF0FBECDBFDF9186
:10302000CF911F910F91BF90AF909F908F900C9474
:103030002A17053008F040C20DC0112349F00023C3
:1030400039F3F501858180FFECC18F708583E0CF76
:103050000111FBC1892D68C1242F26952695237067
:1030600030E02115310529F02130310509F024C265
:1030700018C0112321F0862F942F937002C080E096
:1030800090E027960FB6F894DEBF0FBECDBFDF915C
:10309000CF911F910F91BF90AF909F908F900C9404
:1030A000E114112321F0862F942F937002C080E049
:1030B00090E027960FB6F894DEBF0FBECDBFDF912C
:1030C000CF911F910F91BF90AF909F908F900C94D4
:1030D000F714862F112319F00E941A2502C00E94AE
:1030E000822527960FB6F894DEBF0FBECDBFDF91C5
:1030F000CF911F910F91BF90AF909F908F900C94A4
:103100000926842F837009F076C01111D5C1262FAE
:10311000229526952770220F220F862F8F70882EDA
:10312000912CA12CB12C022E04C0880C991CAA1C35
:10313000BB1C0A94D2F764FF10C06FE070E080E01F
:1031400090E004C0660F771F881F991F2A95D2F759
:10315000609570958095909503C060E070E0CB011C
:10316000242F269526952370422F50E0423051059A
:10317000D1F04330510559F1682979298A299B29D1
:103180004130510541F127960FB6F894DEBF0FBECE
:10319000CDBFDF91CF911F910F91BF90AF909F90C6
:1031A0008F900C94BD1E682979298A299B2927961E
:1031B0000FB6F894DEBF0FBECDBFDF91CF911F9148
:1031C0000F91BF90AF909F908F900C94CF1E0E9454
:1031D000BD1EC501B40127960FB6F894DEBF0FBE21
:1031E000CDBFDF91CF911F910F91BF90AF909F9076
:1031F0008F900C94AB1E112319F0842F817001C0A5
:103200008695882309F458C1262F22952695277084
:10321000220F220F862F8F70882E912CA12CB12C7B
:10322000022E04C0880C991CAA1CBB1C0A94D2F75D
:1032300064FF10C06FE070E080E090E004C0660FB3
:10324000771F881F991F2A95D2F7609570958095F2
:10325000909503C060E070E0CB01242F2695269561
:103260002370422F50E042305105D1F043305105D8
:1032700059F1682979298A299B294130510541F161
:1032800027960FB6F894DEBF0FBECDBFDF91CF916A
:103290001F910F91BF90AF909F908F900C945C1FE7
:1032A000682979298A299B2927960FB6F894DEBFC9
:1032B0000FBECDBFDF91CF911F910F91BF90AF9007
:1032C0009F908F900C946E1F0E945C1FC501B401EB
:1032D00027960FB6F894DEBF0FBECDBFDF91CF911A
:1032E0001F910F91BF90AF909F908F900C944A1FA9
:1032F000603F51F120F4603E08F48EC008C0623F88
:1033000009F463C0E0F1633F09F086C061C0062F95
:103310000F70842F8F71112321F00E94F51E802FD2
:1033200078CE0E94101F802F27960FB6F894DEBF2C
:103330000FBECDBFDF91CF911F910F91BF90AF9086
:103340009F908F900C9431171123A9F0053008F04D
:10335000B3C0842F8F7127960FB6F894DEBF0FBECF
:10336000CDBFDF91CF911F910F91BF90AF909F90F4
:103370008F900C942F1F063008F09EC0EACF1123C7
:1033800091F0842F8F7127960FB6F894DEBF0FBE91
:10339000CDBFDF91CF911F910F91BF90AF909F90C4
:1033A0008F900C94F51E842F8F7127960FB6F8948A
:1033B000DEBF0FBECDBFDF91CF911F910F91BF90A8
:1033C000AF909F908F900C94101F1111ECCFD9CF1C
:1033D000112391F0842F8F7127960FB6F894DEBFDA
:1033E0000FBECDBFDF91CF911F910F91BF90AF90D6
:1033F0009F908F900C94E61E27960FB6F894DEBF30
:103400000FBECDBFDF91CF911F910F91BF90AF90B5
:103410009F908F900C94E11E1123A1F0002309F4DA
:10342000B0CF862F27960FB6F894DEBF0FBECDBF64
:10343000DF91CF911F910F91BF90AF909F908F9090
:103440000C946216002309F4AECF862F27960FB690
:10345000F894DEBF0FBECDBFDF91CF911F910F91CA
:10346000BF90AF909F908F900C9401174F70C50143
:103470000E94AB2127960FB6F894DEBF0FBECDBFDA
:10348000DF91CF911F910F91BF90AF909F908F9040
:103490000C94F51D4F70C50127960FB6F894DEBF4A
:1034A0000FBECDBFDF91CF911F910F91BF90AF9015
:1034B0009F908F900C94060827960FB6F894DEBF65
:1034C0000FBECDBFDF91CF911F910F91BF90AF90F5
:1034D0009F908F9008950E942C200E94FB1F0E94B5
:1034E00048200E9437270E94092680E090E00E9431
:1034F000E11480E090E00C94F7140E941C200C94DE
:103500006B1A0E94811F292F22952F7030E02C30DA
:1035100031054CF42A3031056CF422503109223047
:10352000310590F407C02C30310551F02F303105B2
:1035300059F406C0803E10F0803F31F481E00895D8
:1035400093FB882780F9089580E00895CF93DF9357
:1035500000D000D01F92CDB7DEB70F900F900F9024
:103560000F900F90DF91CF910895CF93DF9300D00C
:1035700000D000D0CDB7DEB726960FB6F894DEBFE8
:103580000FBECDBFDF91CF910895EF92FF92CF9301
:103590009091CF02C6E015C0E92EF12CCE9DF0012E
:1035A000CF9DF00D1124E156FD4F40815181628184
:1035B0007381848195810E94B51AC7010196982F65
:1035C00097708091D0029813E7CFCF91FF90EF9042
:1035D00008954091990250919A0260919B027091D6
:1035E0009C0280919D0290919E020C94B51A0F93BB
:1035F0001F93CF93DF9380919E0282958F7009F085
:1036000069C080919B02882309F464C0A091CF0215
:10361000D091D002B0919902C0919A0280919C02FF
:1036200090919D0221E030E0BF3F11F020E030E0BA
:10363000122FBC016095709506E04AC0009721F0FA
:10364000CF3F29F4212F05C021E030E002C020E067
:1036500030E020FD3BC04A2F50E0049FF001059F61
:10366000F00D1124E156FD4F2181C2132FC020819E
:10367000B2132CC02281211129C023813481281743
:10368000390718F0281B390B02C0260F371F283CBA
:103690003105E0F480919E028F70806180939E02DC
:1036A00086E0849FF001859FF00D1124EC55FD4FBD
:1036B00080818F708061808389E992E00E94381751
:1036C000DF91CF911F910F910C94C51AAF5FA77036
:1036D000AD13B4CFDF91CF911F910F910895CF9289
:1036E000DF92EF92FF92CF93DF93CDB7DEB7629771
:1036F0000FB6F894DEBF0FBECDBF7C0185E0F701A9
:10370000DE011D9601900D928A95E1F7D7014C914B
:1037100011965C91119712966C9112971396CD9019
:10372000DC90149770919902E0919A0280919C022A
:1037300090919D02009739F0EF3F41F421E030E095
:103740007F3F31F003C021E030E002C020E030E0F4
:1037500020FD5CC120919B02222309F4F1C0C81610
:10376000D90628F09601281B390BC90104C08095A1
:1037700090958C0D9D1D883C910508F098C0809116
:103780009E02982F907F09F064C0E51314C0741353
:1037900012C0611110C08F70806180939E020E94E0
:1037A000E91A89E992E00E94381780919E02D701B8
:1037B00015968C9343C1CD2839F05F3F41F481E0E9
:1037C00090E04F3F31F003C081E090E002C080E024
:1037D00090E080FD03C081E0862702C080E090E099
:1037E00080FF2EC08091CF022091D00236E013C01E
:1037F00090E0389FF001399FF00D1124E156FD4F04
:103800007181571306C07081471303C0728167131B
:1038100017C0019687708213EBCF12C19F7059F0C9
:10382000882309F40BC107C09F7029F0F701958127
:10383000907F09F403C1805E883008F4FFC0D2C0D5
:10384000662309F4FBC080919E02816080939E02F2
:10385000F5C0E51308C0741306C0611104C0D70198
:1038600015968C939DC04D875E878D859E856A8B4E
:103870000E94811A6A89882309F4B4C0662309F476
:10388000B1C020919E02822F82958F7090E00297A6
:103890000CF4C6C08091990290919A0298878F8308
:1038A0001986DB86CA862C87CE01079646C0809192
:1038B0009E02982F907F59F47C2DD98AC88A8989D5
:1038C0000E94A61A89E992E00E94381795C0E51374
:1038D00011C074130FC061110DC0F7018583C701BA
:1038E0000E943817E9E9F2E086E0DF011D928A952F
:1038F000E9F7A2C04D875E878D859E856A8B0E9401
:10390000811A6A89882309F46DC0662309F46AC0A4
:1039100020919E02822F82958F7090E002970CF486
:103920007FC08091990290919A029A8389831B8229
:10393000DD82CC822E83CE0101960E94381770C0A2
:10394000C816D90628F09601281B390BC90104C0F6
:10395000809590958C0D9D1D883C910508F046C082
:10396000662309F43FC0E51330C074132EC02091C4
:103970009E0220FD21C0322F32953F70832F90E0B0
:103980000097D1F0D70115962C9315970F9741F01A
:10399000832F8F5F8295807F2F70282B15962C9315
:1039A000C7010E94381786E0F701A9E9B2E001904B
:1039B0000D928A95E1F73EC086E0F701A9E9B2E0F1
:1039C00001900D928A95E1F737C04D875E878D850E
:1039D0009E850E94811A811123C080919E02816080
:1039E00080939E02C7010E94381726C07C2DD98A79
:1039F000C88A89890E94A61AE9E9F2E086E0DF0117
:103A00001D928A95E9F70E94E91A18C0662351F3BE
:103A10004D875E878D859E850E94811A882311F3CC
:103A200086E0F701A9E9B2E001900D928A95E1F7ED
:103A30000E94F71A0E94E91A81E014C080E012C0C7
:103A40004D875E878D859E850E94811F292F229537
:103A50002F7030E0223031050CF4E0CE24303105F7
:103A60000CF6E2CE62960FB6F894DEBF0FBECDBF65
:103A7000DF91CF91FF90EF90DF90CF9008951F934B
:103A8000CF93DF93CDB7DEB72C970FB6F894DEBF98
:103A90000FBECDBF4F83588769877A878B879C87F6
:103AA000CE0107960E946F1B8823D9F02F8138859D
:103AB0008A859B85892B39F03F3F19F080E090E0A3
:103AC00004C02F3FD9F781E090E0892B09F06DC049
:103AD0004F81588569857A858B859C850E94B51AAA
:103AE00064C086E0FE013796DE01119601900D92CA
:103AF0008A95E1F7FF81E8854A855B854115510587
:103B000039F0EF3F41F481E090E0FF3F31F003C036
:103B100081E090E002C080E090E080FD46C020910E
:103B2000D00230E0C9010196877099276091CF02D9
:103B300070E08617970709F440C0F983EA835D8334
:103B40004C8396E0929FD001939FB00D1124A15613
:103B5000BD4FFE01319601900D929A95E1F7809349
:103B6000D0020E94C51A21C0189FC001112481569D
:103B70009D4F0E946F1B882371F1E091CF021E9F21
:103B8000F0011124E156FD4F408151816281738122
:103B9000848195810E94B51A8091CF0290E00196B0
:103BA000877099278093CF0201C016E08091CF02E1
:103BB0009091D0028913D8CF0EC00E947D1A109226
:103BC000D0021092CF02E9E9F2E086E0DF011D9217
:103BD0008A95E9F7EACF2C960FB6F894DEBF0FBEB0
:103BE000CDBFDF91CF911F910895CF92DF92EF92D9
:103BF000FF92CF93DF939C01009709F48EC0D0E031
:103C0000C0E0CC24C394D12C79018FEFE81AF80AD4
:103C1000F9018491853709F45BC060F4843708F0BA
:103C200046C0843008F066C08130A9F0823009F0C7
:103C300074C026C0883709F45AC038F4863709F4AE
:103C40004EC0873709F069C04EC0982F94589037FE
:103C500008F063C052C0F701790182E0E80EF11C60
:103C6000E4918E2F805E883048F4E7708C2D01C07F
:103C7000880FEA95EAF70E941F2014C08E2F3AC0E1
:103C8000F701790182E0E80EF11CE4918E2F805E4D
:103C9000883058F4E7708C2D01C0880FEA95EAF758
:103CA0000E9425200E9448202BC08E2F27C0F7019C
:103CB000790182E0E80EF11C949107C0EFECF7E087
:103CC0003197F1F700C0000091509111F7CF18C063
:103CD000F701790182E0E80EF11CC49111C00E9445
:103CE0000920D82F0DC08D2F0E941920DBCF0E94F4
:103CF0001C20D8CF0E94621603C08F770E94011744
:103D00009C2F07C09150EFECF7E03197F1F700C01E
:103D100000009111F7CF970177CFDF91CF91FF90FE
:103D2000EF90DF90CF9008956093D5027093D60204
:103D30008093D7029093D8020C946B1A6093D102AF
:103D40007093D2028093D3029093D4020C946B1A96
:103D500008950C94941E0F931F930091D502109117
:103D6000D6022091D7023091D802602B712B822B82
:103D7000932B1F910F910C94941E0F931F930091FE
:103D8000D5021091D6022091D7023091D80260233B
:103D90007123822393231F910F910C94941E0F93F0
:103DA0001F930091D5021091D6022091D702309135
:103DB000D80260277127822793271F910F910C94B7
:103DC000941E60E070E0CB010C949E1E41E050E038
:103DD00060E070E004C0440F551F661F771F8A958E
:103DE000D2F7CB01BA010C949E1E41E050E060E096
:103DF00070E004C0440F551F661F771F8A95D2F7E5
:103E00008091D1029091D202A091D302B091D402BC
:103E1000482B592B6A2B7B2BCB01BA010C949E1E8D
:103E200041E050E060E070E004C0440F551F661FA1
:103E3000771F8A95D2F7409550956095709580913F
:103E4000D1029091D202A091D302B091D402482322
:103E500059236A237B23CB01BA010C949E1E41E0B7
:103E600050E060E070E004C0440F551F661F771FEC
:103E70008A95D2F78091D1029091D202A091D3027B
:103E8000B091D402482759276A277B27CB01BA0172
:103E90000C949E1E0F931F930091D1021091D20299
:103EA0002091D3023091D402602B712B822B932B63
:103EB0001F910F910C949E1E0F931F930091D1029E
:103EC0001091D2022091D3023091D4026023712349
:103ED000822393231F910F910C949E1E0F931F9387
:103EE0000091D1021091D2022091D3023091D402DC
:103EF00060277127822793271F910F910C949E1E94
:103F000008958F929F92AF92BF92CF92DF92EF92DD
:103F1000FF926C018090D5029090D602A090D702BB
:103F2000B090D8024091D1025091D2026091D30258
:103F30007091D402842A952AA62AB72A8FE1E82E06
:103F4000F12CB501A4010E2C04C076956795579508
:103F500047950A94D2F740FF08C0B6018E2D0E9403
:103F600031218130910509F008C081E0E81AF1089B
:103F700040F7B60180E00E943121FF90EF90DF9082
:103F8000CF90BF90AF909F908F9008954091160171
:103F90005091170120E030E09FEFFA01E20FF31F8C
:103FA00062816817A1F09F3F19F4611101C0922F3F
:103FB0002F5F3F4F2630310581F707C0FA01E90F27
:103FC000F11D97FDFA95828308959F3FB9F70895F3
:103FD000409116015091170120E030E0FA01E20F04
:103FE000F31F9281981301C012822F5F3F4F26303A
:103FF0003105A1F7089581E090E0E0911601F0917C
:104000001701E80FF91F1082019688309105A9F772
:1040100008958091D90208959091D902982B909398
:10402000D902089580959091D90298239093D9024E
:1040300008958093D90208951092D902089590911D
:10404000DA02982B9093DA02089580959091DA0223
:1040500098239093DA0208951092DA0208958093DB
:10406000DB0208951092DB020895409116015091F1
:10407000170120E030E080E0FA01E20FF31F9181A8
:1040800091118F5F2F5F3F4F27303105A9F70895BA
:10409000E0911601F09117018091D9028083E0919F
:1040A0001601F091170180819091DA02892B8083AB
:1040B0009091DB02992361F0E0911601F0911701D4
:1040C0008081892B80830E94352081110E943220BB
:1040D00080911601909117010C948B148D3B50F434
:1040E000883A18F5853AC0F4843098F4813009F0A4
:1040F0006FC00CC0883E30F4803E58F48F3B09F00E
:1041000067C059C0803F08F463C051C021E030E06F
:10411000A6C0282F30E0A3C0853A09F45CC0863AD7
:1041200009F05CC022E830E49AC0883A09F459C02A
:10413000893A09F459C08A3A09F459C08B3A09F40A
:1041400059C08C3A09F459C08B3B09F459C08C3BD7
:1041500009F459C08D3A09F459C0803B09F459C09B
:104160008E3A09F459C08F3A09F459C0813B09F4D9
:1041700059C0823B09F459C0833B09F459C0843BC0
:1041800009F459C0853B09F459C0863B09F459C06C
:10419000873B09F459C0883B09F459C0893B09F4AD
:1041A00059C08A3B09F059C02AE236E458C0282F8A
:1041B00030E0306554C00E947D1A2FE788E391E01B
:1041C000215080409040E1F700C000000E94BF22D3
:1041D00020E030E044C021E830E441C023E830E48E
:1041E0003EC022EE34E43BC029EE34E438C02AEE6F
:1041F00034E435C025EB34E432C026EB34E42FC080
:1042000023EB34E42CC024EB34E429C027EB34E462
:1042100026C02CEC34E423C02DEC34E420C023E889
:1042200035E41DC02AE835E41AC022E935E417C098
:1042300024E935E414C021E236E411C023E236E477
:104240000EC024E236E40BC025E236E408C026E2C4
:1042500036E405C027E236E402C020E034E4C901B8
:1042600008950E94B908803EA8F4803C10F581337F
:1042700009F461C038F4893209F458C08A3209F06F
:1042800067C061C08933C1F08238B1F0853309F06D
:104290005FC044C0833E61F130F4803EA9F0823EAD
:1042A00009F056C017C0863E41F1873E09F050C064
:1042B00030C00E94CB0808959091020390FD02C087
:1042C00091FF46C080EE44C08091020380FFFACF88
:1042D00089E33EC08091020382FF08C080910203FF
:1042E00084FF02C080E034C083EE32C082EE30C072
:1042F0008091020382FFF2CFF9CF8091020383FF06
:1043000006C08091020384FDEDCF87EE21C086EECA
:104310001FC08091020383FFF4CFF9CF8091020385
:1043200085FF02C089E214C085E312C080910203B8
:1043300085FDFACFF7CF8091020386FF02C08AE2A3
:1043400007C081E305C08091020386FDFACFF7CF55
:104350000E946E20089580E090E0089590933D01C2
:1043600080933C0108958295982F9C7C9695969514
:10437000837344E0849F90011124922B892F8A7AC1
:1043800086959575990F892B08951F93CF93DF9389
:104390001F92CDB7DEB799830E94B321182F998160
:1043A000892F0E94B321312F20E0282BC9010F90C3
:1043B000DF91CF911F9108958091F902843009F126
:1043C0001092E50220E488E190E00FB6F894A895F9
:1043D000809360000FBE2093600083B7817F84606C
:1043E00083BF83B7816083BF7894889583B78E7FBE
:1043F00083BF88E10FB6F89480936000109260004C
:104400000FBE089508950895CF930E9402220E943E
:1044100014090E940322C0E08C2F0E94560A892BA7
:1044200029F4CF5FC830C1F780E001C081E0CF91AF
:1044300008950C947D1A1F920F920FB60F921124BB
:104440008F939F93AF93BF938091E502811113C027
:104450008091E6029091E702A091E802B091E90212
:104460004196A11DB11D8093E6029093E702A093AF
:10447000E802B093E902BF91AF919F918F910F90A5
:104480000FBE0F901F90189582E084BD93E095BDFC
:104490009DE797BD80936E0008958FB7F894409183
:1044A000E6025091E7026091E8027091E9028FBF45
:1044B000CA0108950F931F938FB7F8940091E602F5
:1044C0001091E7022091E8023091E9028FBFB80114
:1044D000C9011F910F910895CF92DF92EF92FF9241
:1044E0000F931F932FB7F8944091E6025091E70283
:1044F0006091E8027091E9022FBF6A017B01EE240E
:10450000FF248C0120E030E0C016D106E206F3065D
:1045100020F09A01281B390B05C09C01209530958D
:10452000240F351FC9011F910F91FF90EF90DF906D
:10453000CF9008951F920F920FB60F9211248F9370
:104540009F93AF93BF938091E6029091E702A09171
:10455000E802B091E9020196A11DB11D8093E60227
:104560009093E702A093E802B093E902BF91AF9164
:104570009F918F910F900FBE0F901F9018950E94E2
:104580007011F8942FEF83ED90E32150804090401C
:10459000E1F700C0000087E090EBDC0180930303AB
:1045A00090930403A0930503B09306032CE088E1E5
:1045B00090E00FB6F894A895809360000FBE20930A
:1045C0006000FFCFAF92BF92CF92DF92EF92FF9247
:1045D000CF93DF93D82FC0E0CC24C394D12C8C2F61
:1045E0000E94560A5C01E12CF12C96010E2C02C0AF
:1045F000220F331F0A94E2F72A213B21232B41F497
:104600008FEFE81AF80A80E1E816F10471F708C0A4
:104610006E2D7C2F80E00E94B908D813F1CF05C021
:10462000CF5FC830E1F680E001C081E0DF91CF913B
:10463000FF90EF90DF90CF90BF90AF900895CF9311
:10464000C82F8CE20E94E222882321F08C2FCF9188
:104650000C94E22280E0CF910895CF930E947324BE
:10466000811102C00E94592489EA96E00E946407E1
:10467000C5E608C00E9414098FE19EE40197F1F796
:1046800000C00000C150B1F78EEB96E00E946407B5
:1046900089E20E941F2381110AC18AE20E941F231E
:1046A00081110E94592485E00E941F2381110E94DC
:1046B000BF220E947E248093E40287E00E941F2391
:1046C000882399F18BE10E941F23882351F0909158
:1046D000E40291FB882780F921E0822780FB91F991
:1046E00022C08EE00E941F23882351F09091E402A3
:1046F00092FB882780F921E0822780FB92F913C082
:1047000080E10E941F239091E402882341F093FBF3
:10471000882780F921E0822780FB93F904C0892F44
:10472000809580FB90F99093E4028091E4020E94CE
:1047300082240E9490248093020380EE0E941F2313
:10474000882341F080910203982F909590FB80F987
:104750008093020389E30E941F23882359F09091DC
:10476000020391FB882780F921E0822780FB91F9E1
:104770009093020382EE0E941F23882359F09091A8
:10478000020392FB882780F921E0822780FB92F9BF
:104790009093020386EE0E941F23882359F0909184
:1047A000020393FB882780F921E0822780FB93F99D
:1047B0009093020383EE0E941F23882359F0909167
:1047C000020394FB882780F921E0822780FB94F97B
:1047D0009093020385E30E941F23882359F0909150
:1047E000020395FB882780F921E0822780FB95F959
:1047F0009093020381E30E941F23882359F0909134
:10480000020396FB882780F921E0822780FB96F936
:104810009093020381E10E941F23882359F0909115
:10482000020397FB882780F921E0822780FB97F914
:1048300090930203809102030E94942487E20E94D5
:104840001F23C82F8EE10E941F238111C2608FE1B8
:104850000E941F238111C46080E20E941F238111E6
:10486000C86081E20E941F238111C06182E20E9420
:104870001F238111C06283E20E941F238111C06443
:1048800084E20E941F23882311F0C06802C0CC2359
:1048900029F08C2F0E948B246C2F03C00E94872448
:1048A000682F70E080E090E0CF910C94A91ECF912A
:1048B00008956DEE7EEF80E090E00E94B02D60E004
:1048C00082E090E00E94A22D60E083E090E00E94F0
:1048D000A22D60E084E090E00E94A22D60E085E0DF
:1048E00090E00C94A22D80E090E00E949C2D21E0AD
:1048F0008D3E9E4F09F020E0822F089582E090E0E7
:104900000C94942D682F82E090E00C94A22D83E00B
:1049100090E00C94942D682F83E090E00C94A22DED
:1049200084E090E00C94942D682F84E090E00C9447
:10493000A22D8091F20280FF0BC060911B0185E0E7
:10494000689FB001112475956795759567952AC084
:1049500081FF09C060911B0185E0689FB0011124AF
:10496000759567951FC082FF07C060911B0185E0A8
:10497000689FB001112416C04091EC024423C9F095
:1049800060911A01461788F720911B0185E0289F46
:1049900090011124429FC001439F900D112470E0AB
:1049A0000E946C2D6038710540F46115710539F075
:1049B00002C065E070E0862F08958FE7089581E0DA
:1049C00008958091F20280FF08C06091190170E0A3
:1049D000759567957595679521C081FF06C06091B3
:1049E000190170E07595679519C082FF04C0609148
:1049F000190170E010C08091EC028823C1F0609131
:104A000018018617A0F790911901989FC0011124F1
:104A100070E00E946C2D6038710528F461157105F5
:104A200021F0862F08958FE7089581E0089561E0D1
:104A300070E0F4CF803F21F40E949924819504C056
:104A4000813F29F40E9499248093EF020895823FC8
:104A500021F40E949924819504C0833F29F40E9487
:104A600099248093EE020895893F19F40E94E1246D
:104A700005C08A3F31F40E94E12481958093F002C1
:104A800008958B3F21F40E94E124819504C08C3F5E
:104A900029F40E94E1248093F1020895843F21F4D7
:104AA0008091ED02816017C0853F21F48091ED0275
:104AB000826011C0863F21F48091ED0284600BC0BA
:104AC000873F21F48091ED02886005C0883F31F472
:104AD0008091ED0280618093ED0208958D3F21F475
:104AE0008091F20281600BC08E3F21F48091F2022E
:104AF000826005C08F3F29F48091F2028460809328
:104B0000F2020895803F29F48091EF0287FF6EC082
:104B100007C0813F41F48091EF0218160CF066C087
:104B20001092EF0263C09091EE02823F19F497FF5A
:104B30005DC005C0833F31F419160CF057C01092C8
:104B4000EE0254C0893F31F48091F00218160CF047
:104B50004DC006C08A3F39F48091F00287FF46C0FD
:104B60001092F00243C08B3F29F48091F10287FF3D
:104B70003DC006C08C3F39F48091F1021816B4F59F
:104B80001092F10233C0843F21F48091ED028E7FB8
:104B900005C0853F31F48091ED028D7F8093ED0259
:104BA00025C0863F21F48091ED028B7FF7CF873FB0
:104BB00021F48091ED02877FF1CF883F21F480912D
:104BC000ED028F7EEBCF8D3F21F48091F2028E7F3C
:104BD0000BC08E3F21F48091F2028D7F05C08F3F84
:104BE00029F48091F2028B7F8093F2028091EE0291
:104BF00081110EC08091EF0281110AC08091F002F4
:104C0000811106C08091F102811102C01092EC0264
:104C100008958091E40283FF7EC085EC96E00E94B7
:104C200064078091ED021F928F9388EE96E09F9328
:104C30008F930E94FD078DEE96E00E9464072091FD
:104C4000EE02822F992787FD90959F932F938FEEE9
:104C500096E09F938F930E94FD0782EF96E00E945B
:104C600064072091EF02822F992787FD90959F93EB
:104C70002F9384EF96E09F938F930E94FD0787EF19
:104C800096E00E9464072091F002822F992787FD09
:104C900090959F932F9389EF96E09F938F930E9417
:104CA000FD078CEF96E00E9464072091F102822FAD
:104CB000992787FD90959F932F938EEF96E09F9372
:104CC0008F930E94FD0781E097E00E946407809126
:104CD000EC021F928F9384E097E09F938F930E9442
:104CE000FD0787E097E00E9464078091F2021F921F
:104CF0008F9389E097E09F938F930E94FD078CE04C
:104D000097E00E9464078DB79EB74C960FB6F89453
:104D10009EBF0FBE8DBF8DEE92E00E94D6140E9402
:104D20004D229093EB028093EA020895CF938091F5
:104D3000EA029091EB020E946C224091EC02442323
:104D400021F020911C0130E006C020911D015AE0A5
:104D5000259F900111248217930708F486C0809143
:104D6000EE0281110DC09091EF02911109C0909156
:104D7000F002911105C09091F102992309F475C0D8
:104D80004F3F19F04F5F4093EC02181624F40E9435
:104D900099248093EE028091EE0287FF05C00E9465
:104DA000992481958093EE028091EF02181624F4E5
:104DB0000E9499248093EF028091EF0287FF05C043
:104DC0000E94992481958093EF026091EE02662300
:104DD00039F1C091EF02CC2319F1772767FD709567
:104DE000872F972F0E94712C23E333E343E35FE384
:104DF0000E94D52C0E943E2C6093EE026C2F7727E8
:104E000067FD7095872F972F0E94712C23E333E362
:104E100043E35FE30E94D52C0E943E2C6093EF0297
:104E20008091F002181624F40E94E1248093F0028D
:104E30008091F00287FF05C00E94E1248195809354
:104E4000F0028091F102181624F40E94E12480936C
:104E5000F1028091F10287FF05C00E94E124819553
:104E60008093F102CF910C940926CF910895EDEE35
:104E7000F2E085E0DF011D928A95E9F71092EC02DD
:104E80001092F20208958FEE9AE00C94640785E286
:104E90009BE00E9464071F9281E08F931F9285E040
:104EA0008F9380E29CE09F938F930E94FD070F9069
:104EB0000F900F900F900F900F9008958330F1F1A5
:104EC00030F4813069F0823009F09BC020C0853019
:104ED00009F462C008F449C0863009F092C073C07A
:104EE00020911D01862F90E0820F911D8F3F91052B
:104EF00020F4620F60931D0103C08FEF80931D01AA
:104F000080911D011F928F9386E29DE072C02091D7
:104F10001C01862F90E0820F911D8F3F910520F498
:104F2000620F60931C0103C08FEF80931C0180917E
:104F30001C011F928F9385E39DE05BC020911B01B4
:104F4000862F90E0820F911D8F3F910520F4620F14
:104F500060931B0103C08FEF80931B0180911B01A5
:104F60001F928F9387E49DE044C020911A01862F01
:104F700090E0820F911D8F3F910520F4620F6093A6
:104F80001A0103C08FEF80931A0180911A011F92BA
:104F90008F938AE59DE02DC020911901862F90E026
:104FA000820F911D8F3F910520F4620F60931901CC
:104FB00003C08FEF80931901809119011F928F9385
:104FC0008FE69DE016C020911801862F90E0820F99
:104FD000911D8F3F910520F4620F6093180103C06B
:104FE0008FEF80931801809118011F928F9388E8AA
:104FF0009DE09F938F930E94FD070F900F900F905D
:105000000F900895833089F130F4813061F082305F
:1050100009F076C019C0853009F449C0B8F186306E
:1050200009F06EC055C080911D01681720F4861BE1
:1050300080931D0102C010921D0180911D011F92DD
:105040008F9383EA9DE054C080911C01681720F47F
:10505000861B80931C0102C010921C0180911C01D0
:105060001F928F9382EB9DE043C080911B016817D4
:1050700020F4861B80931B0102C010921B018091BB
:105080001B011F928F9384EC9DE032C080911A0126
:10509000681720F4861B80931A0102C010921A012F
:1050A00080911A011F928F9387ED9DE021C080911E
:1050B0001901681720F4861B8093190102C0109211
:1050C0001901809119011F928F938CEE9DE010C001
:1050D00080911801681720F4861B8093180102C084
:1050E00010921801809118011F928F9385E09EE025
:1050F0009F938F930E94FD070F900F900F900F903A
:105100000895CF93C82F1F928F9326E13BE03F93E2
:105110002F930E94FD0761E070E080E090E004C002
:10512000660F771F881F991FCA95D2F70E94A91E84
:105130000F900F900F900F90CF910C947D1ACF93FA
:10514000873220F58E3108F032C28E3009F4B9C1B1
:1051500070F4873009F48BC120F4863009F02DC239
:1051600064C1883069F18B3009F027C258C186319B
:1051700009F4E4C120F4803109F01FC2B5C18931BE
:1051800009F4C5C18B3109F018C281C1883309F413
:1051900046C150F4893209F408C2853309F405C2C6
:1051A000873209F00AC201C2833409F4FEC120F437
:1051B0008A3308F402C2FDC1883409F0FEC145C13A
:1051C0008FE097E00E9464078FE099E00E946407F7
:1051D0000E9487241F928F938FE199E09F938F9372
:1051E0000E94FD0782E299E00E9464070E947E24EB
:1051F000C82F84E299E00E9464071F92CF9327E3AF
:1052000039E03F932F930E94FD078CE399E00E94C1
:1052100064078EE399E00E9464078C2F81701F92CF
:105220008F9328E439E03F932F930E94FD078BE48E
:1052300099E00E9464078DE499E00E946407C1FB35
:10524000882780F91F928F9327E539E03F932F93AA
:105250000E94FD078AE599E00E9464078CE599E0C9
:105260000E946407C2FB882780F91F928F9328E66B
:1052700039E03F932F930E94FD078BE699E00E944F
:1052800064078DE699E00E946407C3FBCC27C0F950
:105290001F92CF9386E799E09F938F930E94FD071B
:1052A00089E799E00E9464070E949024C82F8BE749
:1052B00099E00E9464071F92CF932FE839E03F9353
:1052C0002F930E94FD0784E999E00E94640786E914
:1052D00099E00E9464078C2F81701F928F932FEAB0
:1052E00039E03F932F930E94FD078DB79EB78096BC
:1052F0000FB6F8949EBF0FBE8DBF82EB99E00E945F
:10530000640784EB99E00E946407C1FB882780F959
:105310001F928F932BEC39E03F932F930E94FD0750
:105320008EEC99E00E94640780ED99E00E9464078A
:10533000C2FB882780F91F928F9322EE39E03F93BA
:105340002F930E94FD0785EE99E00E94640787EE87
:1053500099E00E946407C3FB882780F91F928F930E
:1053600029EF39E03F932F930E94FD078CEF99E0DE
:105370000E9464078EEF99E00E946407C4FB8827AF
:1053800080F91F928F9328E03AE03F932F930E9479
:10539000FD078BE09AE00E9464078DE09AE00E948E
:1053A0006407C5FB882780F91F928F932FE13AE0AD
:1053B0003F932F930E94FD0782E29AE00E946407C8
:1053C00084E29AE00E946407C6FB882780F91F9256
:1053D0008F9320E43AE03F932F930E94FD0783E4EC
:1053E0009AE00E94640785E49AE00E946407C7FB84
:1053F000CC27C0F91F92CF938DE49AE09F938F93AF
:105400000E94FD0780E59AE00E9464078DB79EB771
:105410004C960FB6F8949EBF0FBE8DBF04C082E5B8
:105420009AE00E94640781E0CDC08091E402817F10
:105430008E7F8093E4020E9443278AE197E00E94D6
:10544000640781E08093F302BDC00E947D1A8EE163
:1054500097E00E9464079FEF29E688E19150204081
:105460008040E1F700C000000E94BF22DCCF8091A5
:10547000E40280FF09C08FE297E00E9464078091F8
:10548000E402817F8E7F17C08CE397E00FC090917C
:10549000E40291FB882780F921E0822780FB91F9C3
:1054A0009093E402882351F088E497E00E94640717
:1054B0008091E40281608093E402B5CF85E597E0B6
:1054C000B0CF9091E40292FB882780F921E08227F7
:1054D00080FB92F99093E402882319F083E697E029
:1054E000E5CF82E797E09DCF9091E40293FB882778
:1054F00080F921E0822780FB93F99093E4028823CE
:1055000019F082E897E0D2CF8EE897E08ACF8BE956
:1055100097E00E9464078AEA97E00E9464078DEC96
:1055200097E00E9464078BE098E00E94640788E39C
:1055300098E00E94640788E798E073CF84EA98E0D7
:105540000E9464070E947F141F928F9382EB98E061
:105550009F938F930E94FD07809115011F928F9357
:105560008CEC98E09F938F930E94FD0780916502D9
:105570001F928F9383EE98E09F938F930E94FD0775
:105580000E945A229F938F937F936F9386EF98E0A8
:105590009F938F930E94FD078DB79EB742960FB6DB
:1055A000F8949EBF0FBE8DBF3ECF80E003C08D51EB
:1055B00001C089530E94812836CF8DE099E00E9476
:1055C000640780E0CF91089580E0089580E0089519
:1055D000CF93C82F8091F302813071F020F0823098
:1055E00009F043C147C0A0911601B09117018C91F9
:1055F000823109F03CC107C0A0911601B09117019A
:105600008C91823149F48C2F0E94E42A81112EC0A2
:105610008C2F0E949F282CC08C2F0E94E62A81117B
:1056200025C0C43189F028F4CB3039F0C031C9F439
:105630000EC0C93249F0C833A1F40E9443278BE160
:105640009BE00E94640712C01092F30212C10E94F4
:1056500047278FE19BE00E94640782E08093F3027A
:1056600005C083E29BE00E94640703C181E090E0F3
:10567000817002C1C43280F4CE3108F0ACC0CB30AE
:10568000F9F020F4C73009F0D6C0BEC0C33151F1E3
:10569000C43109F0D0C017C0CB3409F4A9C030F42C
:1056A000C93289F0C83309F0C6C00AC0C13509F44F
:1056B0009DC0C23509F498C0CE3409F0BCC09EC06C
:1056C0000E944727BBC08091F402882319F01092F2
:1056D000F402B4C08EE69CE00E94640781E08093EF
:1056E000F302CAC08AE89CE00E94640788E99CE053
:1056F0000E94640780911D011F928F938AEA9CE0AB
:105700009F938F930E94FD078DEA9CE00E9464079F
:105710008FEA9CE00E94640780911C011F928F9386
:1057200081EC9CE09F938F930E94FD0784EC9CE0AA
:105730000E94640786EC9CE00E94640780911B0134
:105740001F928F9385ED9CE09F938F930E94FD079E
:1057500088ED9CE00E9464078AED9CE00E9464074B
:1057600080911A011F928F938BEE9CE09F938F93F1
:105770000E94FD078EEE9CE00E94640780EF9CE093
:105780000E946407809119011F928F9385E09DE02C
:105790009F938F930E94FD0788E09DE00E9464071D
:1057A0008AE09DE00E946407809118011F928F9308
:1057B00081E29DE09F938F930E94FD0784E29DE02C
:1057C0000E9464078DB79EB748960FB6F8949EBFA7
:1057D0000FBE8DBF33C0CE51EC2FF0E0EE5CFE4F1C
:1057E00080818093F4022AC061E003C061E007C0B9
:1057F0006AE08091F4020E945E2720C06AE08091F6
:10580000F4020E9402281AC08EE180931D0182E3F7
:1058100080931C018AE080931B0184E180931A012C
:1058200088E08093190188E28093180182E79CE068
:105830000E94640703C08FE79CE013C08091F402CC
:10584000882369F01F928F9381E89CE09F938F9348
:105850000E94FD070F900F900F900F9004C087E8F3
:105860009CE00E94640781E007C01092F30280E090
:1058700003C080E090E0FCCECF91089504D06894FE
:10588000B1118DC0089570D088F09F5790F0B92F56
:105890009927B751A0F0D1F0660F771F881F991F85
:1058A0001AF0BA95C9F712C0B13081F077D0B1E0E3
:1058B000089574C0672F782F8827B85F39F0B93FF3
:1058C000CCF3869577956795B395D9F73EF4909587
:1058D0008095709561957F4F8F4F9F4F0895E89405
:1058E00009C097FB3EF490958095709561957F4F28
:1058F0008F4F9F4F9923A9F0F92F96E9BB279395D6
:10590000F695879577956795B795F111F8CFFAF4E5
:10591000BB0F11F460FF1BC06F5F7F4F8F4F9F4F16
:1059200016C0882311F096E911C0772321F09EE874
:10593000872F762F05C0662371F096E8862F70E0DA
:1059400060E02AF09A95660F771F881FDAF7880FB4
:105950009695879597F9089557FD9058440F551FD0
:1059600059F05F3F71F04795880F97FB991F61F0E1
:105970009F3F79F087950895121613061406551F58
:10598000F2CF4695F1DF08C0161617061806991FC4
:10599000F1CF86957105610508940895E894BB27B9
:1059A00066277727CB0197F908950BD078C069D087
:1059B00028F06ED018F0952309F05AC05FC011246A
:1059C000EECFCADFA0F3959FD1F3950F50E0551F9E
:1059D000629FF001729FBB27F00DB11D639FAA2744
:1059E000F00DB11DAA1F649F6627B00DA11D661F93
:1059F000829F2227B00DA11D621F739FB00DA11DB4
:105A0000621F839FA00D611D221F749F3327A00D6D
:105A1000611D231F849F600D211D822F762F6A2F09
:105A200011249F5750408AF0E1F088234AF0EE0F8E
:105A3000FF1FBB1F661F771F881F91505040A9F79B
:105A40009E3F510570F014C0AACF5F3FECF3983E23
:105A5000DCF3869577956795B795F795E7959F5F02
:105A6000C1F7FE2B880F911D9695879597F908959C
:105A700097F99F6780E870E060E008959FEF80EC01
:105A8000089500240A9416161706180609060895A4
:105A900000240A9412161306140605060895092E0A
:105AA0000394000C11F4882352F0BB0F40F4BF2B79
:105AB00011F460FF04C06F5F7F4F8F4F9F4F0895B9
:105AC000991B79E004C0991F961708F0961B881F50
:105AD0007A95C9F78095089597FB072E16F40094E0
