:100000000C9484030C94CA030C94CA030C94CA0382
:100010000C94CA030C94CA030C94CA030C94CA032C
:100020000C94CA030C94CA030C94EA0B0C94C00CF5
:100030000C94CA030C94CA030C94CA030C94CA030C
:100040000C94CA030C94991D0C94CA030C94CA0313
:100050000C94CA030C949C1B0C94CA030C94CA0302
:100060000C94CA030C94CA030C94CA030C94CA03DC
:100070000C94CA030C94CA030C94CA030C94CA03CC
:100080000C94CA030C94CA030C94CA030C94CA03BC
:100090000C94CA030C94CA0339A2F1A100F0000029
:1000A000000000052C11E50038514F5650E6E4E5FC
:1000B0001D1B0619281036373153545548000000CF
:1000C00004160709310D0E0F33595A5B5800000012
:1000D000141A081531180C12135F6061574700009D
:1000E0001E1F2021432425262744454E4D46E0006F
:1000F000353A3B2242232E412D4C494B4A0000E128
:100100002BC03C172A1C30402F5C5D5EC1000000F4
:1001100029643D0A3E0B3F003400626352E2000056
:1001200000000001010101000101010001010101C4
:1001300001010101010101010100000001000000B5
:1001400001010101010101010100000000010000A5
:10015000010101010101010101ACAEAB0001000090
:100160000101010101010101010101010101010080
:100170000101010101010101010101010100000171
:10018000010101010101010101AAA8A9010000006A
:100190000101010101010100010100000101000054
:1001A0000000000101010100010101010101010143
:1001B000010101010101010101010101C200000071
:1001C0000101010101010101010101010101000021
:1001D0000101010101010101010101010101000011
:1001E0000101010101010101010101010101010000
:1001F00001010101010101010101010101000001F1
:1002000001010101010101010101010101000000E1
:100210000101010101010100010101010101500081
:1002200052006900626F756E6365213A20002530C7
:100230003258000A000A722F6320303132333435CD
:10024000363738394142434445460A002530325852
:10025000003A20002530313662000A005B435D0021
:100260005B445D005B525D005B535D005B575D006E
:1002700055534220636F6E666967757265642E0A16
:10028000004B6579626F6172642073746172742EC1
:100290000A005B735D001A034D006F006400650087
:1002A0006C005F004D005F00560031002E003000F2
:1002B00000001A03500068006F00730070006800AF
:1002C0006F00720047006C006F00770000000403AD
:1002D000090409025B00030100A0320904000001C7
:1002E00003010100092111010001223F00070581DE
:1002F0000308000A0904010001030000000921119C
:100300000100012236000705820308000A090402E1
:100310000002030000000921110100012220000752
:1003200005830320000107050303200001120110CB
:100330000100000008EDFE606001000102000106FE
:1003400031FF0974A1010975150025FF9520750875
:1003500081020976150025FF952075089102C005D8
:10036000010980A101850216010026B7001A0100CB
:100370002AB700751095018100C0050C0901A10183
:100380008503160100269C021A01002A9C027510A2
:1003900095018100C005010906A101050719E029A1
:1003A000E715002501950875018102950175088101
:1003B0000105081901290595057501910295017539
:1003C0000391010507190029FF150025FF95067502
:1003D000088100C06B6579626F6172645F726570DD
:1003E0006F72743A20002530325820000A006B6585
:1003F00079626F6172645F7365745F6C65643A20E3
:100400000025303258000A00536C656570204C4559
:100410004420746573740A00433E20000A0A626F28
:100420006F746C6F616465722E2E2E20000A6465F5
:100430006275673A206F66660A000A6465627567CE
:100440003A206F6E0A000A6D61747269783A206F03
:100450006E0A000A6D61747269783A206F66660AE6
:10046000000A6B6579626F6172643A206F6E0A00F0
:100470000A6B6579626F6172643A206F66660A0082
:100480000A6D6F7573653A206F6E0A000A6D6F759D
:1004900073653A206F66660A000A092D2056657258
:1004A00073696F6E202D0A00444553433A20436F11
:1004B0006C6F73737573204D6F64656C204D2043B2
:1004C0006F6E74726F6C6C65722056312E300A003C
:1004D0005649443A203078464545442850686F7361
:1004E00070686F72476C6F7729205049443A20300A
:1004F0007836303630284D6F64656C5F4D5F56310D
:100500002E3029205645523A203078303030310A8A
:10051000004255494C443A20756E6B6E6F776E20E1
:100520002831363A32383A3138204D61722031382C
:100530002032303136290A004F5054494F4E533A39
:10054000204C5546412045585452414B4559204373
:100550004F4E534F4C4520434F4D4D414E44203854
:100560003139320A004743433A20342E372E3120A6
:100570004156522D4C4942433A20312E382E3020DC
:100580004156525F415243483A2061767235310AF2
:10059000000A092D20537461747573202D0A0068B8
:1005A0006F73745F6B6579626F6172645F6C6564B1
:1005B0007328293A2025580A006B6579626F6172A9
:1005C000645F70726F746F636F6C3A2025580A0015
:1005D0006B6579626F6172645F69646C653A20254E
:1005E000580A0074696D65725F7265616433322800
:1005F000293A202530346C580A003F000A092D2082
:100600004D61676963202D0A643A09646562756704
:100610000A783A096465627567206D617472697859
:100620000A6B3A096465627567206B6579626F6170
:1006300072640A6D3A096465627567206D6F75733F
:10064000650A763A0976657273696F6E0A733A09BC
:100650007374617475730A633A09636F6E736F6CB8
:1006600065206D6F64650A302D343A096C617965D7
:1006700072302D34284631302D4634290A506175A8
:10068000733A09626F6F746C6F616465720A7A3ACB
:1006900009736C656570204C454420746573740A59
:1006A000000A092D20436F6E736F6C65202D0A457B
:1006B00053432F713A09717569740A004C25640A15
:1006C00000433E20003F000000000000000000004A
:1006D0000000010204060A0F17202C3A4A5D7187B8
:1006E0009DB3C7DAE9F5FCFFFCF5E9DAC7B39D87EE
:1006F000715D4A3A2C20170F0A060402010000001F
:10070000000000000000000011241FBECFEFD0E267
:10071000DEBFCDBF04B603FE24C08091D601909108
:10072000D701A091D801B091D9018730904BA74053
:10073000B04BB9F41092D6011092D7011092D801A3
:100740001092D90114BE84B7877F84BF88E10FB6A9
:10075000F89480936000109260000FBEE0E0F0EF2C
:10076000099511E0A0E0B1E0E4EDFBE300E00BBF90
:1007700002C007900D92AE31B107D9F711E0AEE19A
:10078000B1E001C01D92A63DB107E1F70E94050945
:100790000C94E81D0C940000FF93EF93E0911E0170
:1007A000F0911F01309709F00995EF91FF9108959D
:1007B000FC018591803011F0EFDFFBCF0895FF271A
:1007C000E0E230E247FF0CC0419597FF09C0EDE23F
:1007D0006095709580959095611D711D811D911D8D
:1007E00027FF02C0219530E350E2AA27660F771F4A
:1007F000881F991FAA1FA41710F0A41B63955A9570
:10080000A9F7AA3008F0A95FA05DAF93F395611531
:1008100071058105910541F7ED3211F4EF93F395E0
:10082000F21718F43F93F395FBCF8F91B5DFFA954C
:10083000E1F70895E991F9918591803021F08532B1
:1008400019F0AADFF9CF089520E0E89455915532C8
:10085000C1F3503311F4689455915A3348F450530E
:1008600090F3220F022E220F220F200D250FF4CF1E
:100870000EF4219589919991533619F3533729F143
:10088000533559F1BC0188279927E8945C3621F447
:100890008991999168945591543639F446EF7EF0D8
:1008A00077FF0DC08FEF9FEF0AC055374AE039F050
:1008B000583540E121F0523642E009F00895FF93A7
:1008C000EF937DDFEF91FF91B7CFFF93EF93FC01A3
:1008D00081918030B9F360DFFBCFFF93EF9368DF46
:1008E000F1CFDF93CF93CDB7DEB72596A3DFCF91BE
:1008F000DF910895EF92FF92CF937C01C62FFC0108
:1009000092818091C001992329F080FF09C08EE176
:1009100092E004C080FF04C080E292E00E94D8030D
:10092000F701858180FF08C08091C00180FF04C06D
:1009300082E292E00E94D803C1112CC00E94D31918
:100940008072992780932001F70132813323B9F017
:10095000882329F0CF91FF90EF900C94C11B0E9447
:10096000DC1988E490E00E9490190E94121A80918C
:10097000200190E0CF91FF90EF900C94D619811157
:1009800009C088E490E00E94B219CF91FF90EF90E7
:100990000C94121ACF91FF90EF900895E72FF0E09A
:1009A00098E0899FE00DF11D112484E0EE0FFF1FF8
:1009B0008A95E1F7E60FF11DE256FF4F8491089505
:1009C000E82FF0E0EE0FFF1FE85EF0402591349134
:1009D000C901089584B18F7184B985B18F7185B9CA
:1009E0008DB18F7C8DB98EB18F7C8EB98AB18C7EA2
:1009F0008AB98BB18C7E8BB9089585B7806885BF25
:100A000085B7806885BF0E94EA0481B18F7081B983
:100A100082B1806F82B987B117B888B18FEF88B97A
:100A20008DB18C7F8DB98EB183608EB98AB18F758F
:100A30008AB98BB1806A8BB9E1E2F1E0A1E3B1E060
:100A4000119211921D921D9281E0E133F807C1F7D6
:100A50000895AF92BF92CF92DF92EF92FF921F93D1
:100A6000CF93DF93A1E3CA2EA1E0DA2E760110E046
:100A7000C1E0D5E01430A9F030F41230C1F0A0F498
:100A80001130D9F417C0163031F040F01730A9F406
:100A9000549A5C9814C0519A599811C0509A589819
:100AA0000EC06D9A75980BC06C9A749808C0279AFE
:100AB0002F9805C0269A2E9802C0259A2D9880EA74
:100AC0008A95F1F780B182958F708C2780FBAA24DC
:100AD000A0F8B12C059B03C020E030E002C022E06A
:100AE00030E02A293B29069B03C080E090E002C049
:100AF00084E090E0282B392B80B1992787FD9095D1
:100B0000809590958827990F881F992773E0880F03
:100B1000991F7A95E1F7282B392B86B1992787FD04
:100B20009095809590958827990F881F9927F4E0D4
:100B3000880F991FFA95E1F7282B392B369B03C0B4
:100B400080E090E002C080E290E0282B392B359BBA
:100B500003C080E090E002C080E490E0282B392BB5
:100B6000349B03C060E070E002C060E870E0262BB8
:100B7000372B339B03C040E050E002C040E051E01F
:100B8000242B352B329B03C080E090E002C080E034
:100B900092E0282B392B319B03C060E070E002C04B
:100BA00060E074E0262B372B309B03C040E050E020
:100BB00002C040E058E0242B352B619B03C080E04D
:100BC00090E002C080E090E1282B392B609B03C0AD
:100BD00080E090E002C080E090E2282B392B89B1C0
:100BE000992787FD9095809590958827990F881F64
:100BF000992790E4899F902D88271124282B392B41
:100C00004D9B03C080E090E002C080E090E8282B7C
:100C1000392BD7018D919C9111978217930751F130
:100C20002D933C9380910001882311F18091C001A4
:100C300080FF04C084E292E00E94D8038091C0014A
:100C400080FF0EC0809100011F928F938EE292E090
:100C50009F938F930E9471040F900F900F900F90AD
:100C60008091C00180FF04C083E392E00E94D8031A
:100C7000D09300010E94EA041F5FB2E0EB0EF11C6A
:100C8000183009F0F7CE809100018823C9F0815017
:100C900080930001882339F0EFE9FFE03197F1F705
:100CA00000C000000DC0E1E2F1E0D6018D919D9100
:100CB0006D0181939193B1E4CB16B1E0DB06A9F706
:100CC00081E0DF91CF911F91FF90EF90DF90CF9067
:100CD000BF90AF900895E82FF0E0EE0FFF1FEF5D9B
:100CE000FE4F8081918108958F929F92AF92BF9223
:100CF000CF92DF92EF92FF9285E392E00E94D803B9
:100D000091E2A92E91E0B92EE12CF12C2CE4822E57
:100D100022E0922E34E5C32E32E0D32EFF92EF92E2
:100D20009F928F920E94710481E592E00E94D80305
:100D3000F501819191915F010E941E1B9F938F93FA
:100D4000DF92CF920E9471048AE592E00E94D8035C
:100D5000FFEFEF1AFF0A8DB79EB708960FB6F8940B
:100D60009EBF0FBE8DBF98E0E916F104B9F6FF9063
:100D7000EF90DF90CF90BF90AF909F908F900895AD
:100D8000239A249A229A81FF02C02B9801C02B9AA1
:100D900080FF02C02C9801C02C9A82FF02C02A98C2
:100DA00008952A9A089580914A01089508959FB759
:100DB000F89410924C019FBF9091CD01943009F0AE
:100DC00058C09091E9009F702091EC0020FF02C074
:100DD00020E801C020E0292B93E09093E900909156
:100DE000EB0090FF43C09091EE0097FF3FC09091C1
:100DF0004D01992321F09091E80095FF37C01092A2
:100E00004D0196E014C03091CD01343079F5309128
:100E1000EB0035FD2BC0915021F481E080934D0112
:100E200025C0EFE9FFE03197F1F700C000003091F5
:100E3000E80035FFE8CF8093F1008091E80085FD60
:100E40000AC08091E80080FFFCCF8091E8008E7797
:100E50008093E80006C08FB7F89491E090934C011E
:100E60008FBF2F702093E90080E008952F702093AA
:100E7000E9008FEF0895CF93DF9300D01F92CDB795
:100E8000DEB72091CD01243029F523E029839B830F
:100E90008A8382E08093E9008FEF06C095ED9A95F2
:100EA000F1F70000882329F09091E800815095FF28
:100EB000F5CF8091E80085FF0DC040E050E063E091
:100EC00070E0CE0101960E94CF098091E8008E77F4
:100ED0008093E8000F900F900F90DF91CF910895CD
:100EE000CF93DF9300D01F92CDB7DEB72091CD0115
:100EF000243021F522E029839B838A832093E90013
:100F00008FEF06C095ED9A95F1F70000882329F040
:100F10009091E800815095FFF5CF8091E80085FF22
:100F20000DC040E050E063E070E0CE0101960E9409
:100F3000CF098091E8008E778093E8000F900F90A2
:100F40000F90DF91CF910895EF92FF927C018091F5
:100F5000CD01843041F581E08093E9008FEF06C038
:100F600095ED9A95F1F70000882329F09091E8001B
:100F7000815095FFF5CF8091E80085FF14C040E0D7
:100F800050E068E070E0C7010E94CF098091E8005E
:100F90008E778093E80088E0F701A2E4B1E0019049
:100FA0000D928A95E1F7FF90EF9008958CE592E01D
:100FB0000E94D8038091CC01811109C00E94670B67
:100FC0000E94CE0B8091E20084608093E20008953D
:100FD00080E692E00E94D8031092CC01089584E646
:100FE00092E00C94D80388E692E00E94D8030C9417
:100FF000861D8CE692E00E94D8030E94721B0E941C
:101000008C1D0E94760E0C94C00680914B018F5F60
:1010100080934B0162E30E94DC1D911135C0109258
:101020004B0180914C01882379F18091CD0184306E
:1010300049F58091E9008F709091EC0090FF02C01B
:1010400090E801C090E0982B83E08093E9008091C4
:10105000EB0080FF14C08091EE0087FD03C00FC03D
:101060001092F1008091E80085FDFACF8091E800B0
:1010700080FF05C08091E8008E778093E8009F7024
:101080009093E90010924C01089542E061EC81E0F8
:101090000E94DD0A42E061EC82E00E94DD0A42E249
:1010A00061EC83E00C94DD0A8091CF01833009F478
:1010B00054C030F4813071F0823009F0A5C08CC08A
:1010C0008A3009F479C08B3009F45FC0893009F0A7
:1010D0009BC020C08091CE01813A09F095C08091DB
:1010E000E800877F8093E8008091D2019091D3013E
:1010F000892B21F060E080E090E003C068E082E4AA
:1011000091E070E00E94220A8091E8008B77809342
:10111000E80008958091CE01813209F075C0809178
:10112000D2019091D301892B09F06EC08091E80023
:10113000877F8093E80005C08091CD01882309F462
:1011400063C08091E80082FFF7CF8091F100809327
:101150004A018091E8008B7753C08091CE01813A9B
:1011600009F052C08091D2019091D301892B09F0EE
:101170004BC08091E800877F8093E8008091E80071
:1011800080FFFCCF80910B0136C08091CE0181326F
:10119000D9F58091D2019091D301892BA9F5809145
:1011A000E800877F8093E8000E94140B8091D001B3
:1011B00080930B010C9447148091CE01813221F56C
:1011C0008091E800877F8093E8000E94140B809153
:1011D000D1018093410108958091CE01813AA1F41B
:1011E0008091E800877F8093E8008091E80080FF8D
:1011F000FCCF809141018093F1008091E8008E77CF
:101200008093E8000C94140B089584B7877F84BF03
:1012100088E10FB6F89480936000109260000FBED2
:1012200090E080E80FB6F89480936100909361009D
:101230000FBE0E94FA0E0E94670B0E94CE0B809197
:10124000E20084608093E20087ED96E00E94071B35
:1012500078948091CD018430E1F780E792E00E949C
:10126000D8030E94FC0E81E091E00E94710E0E9462
:10127000741D81E892E00E94D8030FC082E992E0D9
:101280000E94D8030E94351B8091CB01882329F04E
:101290000E945D1B81110E94B9098091CD018530AA
:1012A00069F30E94280FF9CF292F33272330310506
:1012B000B1F04CF42130310509F44DC02230310534
:1012C00009F04EC007C02132310541F1223231050B
:1012D00091F146C0EBE5F0E082ED92E045C0992740
:1012E0008130910569F08230910589F0892B09F0F0
:1012F00037C0EEECF2E0E491F0E08EEC92E034C026
:10130000E2EBF2E0E491F0E082EB92E02DC0E6E95E
:10131000F2E0E491F0E086E992E026C0633000F567
:10132000E62FF0E0EE0FFF1FE25FFE4F808191811C
:10133000E9E0F0E019C0633098F4E62FF0E0DF0157
:10134000AA0FBB1FAC5EBE4F8D919C91E65EFE4F17
:10135000E081F0E009C0E2E1F0E08DE293E004C05A
:10136000E0E0F0E080E090E0DA018D939C93CF0123
:10137000089584E189BD86E189BD09B400FEFDCFF1
:101380008091D8008F7D8093D8008091E0008260AA
:101390008093E0008091E00081FDFCCF08958F9262
:1013A0009F92AF92BF92CF92DF92EF92FF92CF9334
:1013B0005C016B017A010E94350BC82F811137C087
:1013C000E114F10439F0F70120813181C21AD30A06
:1013D000A20EB31E812C912C25C08091E80085FDC2
:1013E00016C08091E8008E778093E800E114F10444
:1013F00049F0F70180819181880D991D9183808347
:10140000C5E015C00E94350B882361F00FC0F501BF
:1014100081915F018093F100F1E0CF1AD1088FEF45
:10142000881A980AC114D104C1F601C0C82F8C2FA4
:10143000CF91FF90EF90DF90CF90BF90AF909F90B3
:101440008F9008952091D4013091D5012617370748
:1014500048F06115710539F42091E8002E7720934A
:10146000E80001C0B901FC0120E02CC08091CD0151
:101470008823F1F18530F1F18091E80083FD3CC0D3
:101480008091E80082FD2EC08091E80080FF1AC0A4
:101490008091F2009091F30006C021912093F10019
:1014A0006150710901966115710519F08830910537
:1014B000A0F321E0089709F020E08091E8008E7702
:1014C0008093E8006115710589F62111CFCF0AC01C
:1014D0008091CD01882361F0853061F08091E80032
:1014E00083FD0AC08091E80082FFF2CF80E008957A
:1014F00082E0089583E0089581E008952091D40169
:101500003091D5012617370748F06115710539F478
:101510002091E8002E772093E80001C0B901FC017A
:1015200020E02FC08091CD01882309F440C0853090
:1015300009F43FC08091E80083FD3DC08091E80040
:1015400082FD2FC08091E80080FF1BC08091F200D7
:101550009091F30007C024912093F10031966150DF
:10156000710901966115710519F08830910598F39C
:1015700021E0089709F020E08091E8008E778093C1
:10158000E8006115710571F62111CCCF0AC0809178
:10159000CD01882361F0853061F08091E80083FD02
:1015A0000AC08091E80082FFF2CF80E0089582E0D7
:1015B000089583E0089581E00895982F2CC09093BA
:1015C000E900981739F07091EC002091ED005091EE
:1015D000F00003C0242F762F50E021FD02C09F5F52
:1015E0001AC03091EB003E7F3093EB003091ED005C
:1015F0003D7F3093ED003091EB0031603093EB0094
:101600007093EC002093ED005093F0002091EE00D9
:1016100027FDE5CF07C0973090F28F708093E900E7
:1016200081E0089580E008958091CE0187FD05C096
:101630008091E80080FF0EC012C08091E80082FD1A
:1016400005C08091CD018111F8CF08958091E80007
:101650008B7708C08091CD018111EACF08958091E8
:10166000E8008E778093E80008958091E4009091DF
:10167000E50045E62091EC0020FD1FC023C020912D
:10168000CD01222391F0253091F02091EB0025FD32
:1016900010C02091E4003091E5002817390751F37C
:1016A0004150C90139F784E0089582E0089583E04C
:1016B000089581E0089580E008952091E80020FFDA
:1016C000DECFF9CF2091E80022FFD9CFF4CF0E94DE
:1016D000DD0B0E94E50BE0EEF0E08081816080830D
:1016E000E8EDF0E080818F77808319BCA7EDB0E052
:1016F0008C918E7F8C9380818F7E80831092CC0121
:101700000895CF92DF92EF92FF920E94DD0B0E942C
:10171000E50B88EDE82EF12CF70180818F7780832F
:1017200080818068808380818F7D8083E7EDF0E019
:1017300080818068808319BC1092CD011092C9010C
:101740001092CB011092CA0190EEC92ED12CF60155
:1017500080818B7F8083F70180818160808342E07C
:1017600060E080E00E94DD0AE1EEF0E080818E7FA3
:101770008083E2EEF0E080818160808380818860F8
:101780008083F60180818E7F8083F7018081806174
:101790008083FF90EF90DF90CF900895E8EDF0E028
:1017A00080818F7E8083E7EDF0E08081816080839F
:1017B00081E08093CC010C94810BE8EDF0E0808116
:1017C0008C7F80831092E20008951092DA001092CC
:1017D000E10008951F920F920FB60F9211240BB6DD
:1017E0000F922F933F934F935F936F937F938F93BA
:1017F0009F93AF93BF93EF93FF938091E10082FF9C
:101800000BC08091E20082FF07C08091E1008B7FD6
:101810008093E1000E9405088091DA0080FF1FC0DC
:101820008091D80080FF1BC08091DA008E7F80936A
:10183000DA008091D90080FF0DC084E189BD86E186
:1018400089BD09B400FEFDCF81E08093CD010E94E7
:10185000D60705C019BC1092CD010E94E8078091FF
:10186000E10080FF19C08091E20080FF15C08091E7
:10187000E2008E7F8093E2008091E200806180939D
:10188000E2008091D80080628093D80019BC85E086
:101890008093CD010E94F3078091E10084FF30C066
:1018A0008091E20084FF2CC084E189BD86E189BD7E
:1018B00009B400FEFDCF8091D8008F7D8093D800C1
:1018C0008091E1008F7E8093E1008091E2008F7E25
:1018D0008093E2008091E20081608093E200809139
:1018E000C901882311F084E007C08091E30087FFDD
:1018F00002C083E001C081E08093CD010E94F9071E
:101900008091E10083FF29C08091E20083FF25C020
:101910008091E100877F8093E10082E08093CD0198
:101920001092C9018091E1008E7F8093E100809147
:10193000E2008E7F8093E2008091E20080618093DC
:10194000E20042E060E080E00E94DD0A8091F00069
:1019500088608093F0000E94EF07FF91EF91BF91A4
:10196000AF919F918F917F916F915F914F913F9137
:101970002F910F900BBE0F900FBE0F901F901895D8
:101980001F920F920FB60F9211240BB60F922F9346
:101990003F934F935F936F937F938F939F93AF93F7
:1019A000BF93CF93EF93FF938091E9008F70909155
:1019B000EC0090FF02C090E801C090E0C92FC82B56
:1019C0001092E9008091F000877F8093F000789476
:1019D0000E94080D1092E9008091F00088608093C9
:1019E000F000CF70C093E900FF91EF91CF91BF91CC
:1019F000AF919F918F917F916F915F914F913F91A7
:101A00002F910F900BBE0F900FBE0F901F90189547
:101A10001F93CF93DF93CDB7DEB7AC970FB6F89493
:101A2000DEBF0FBECDBFEEECF1E08091F1008193FF
:101A300021E0E63DF207C9F70E9454088091E800D2
:101A400083FF37C18091CE019091CF01953009F489
:101A500088C038F49130B1F170F0933009F029C1A9
:101A600031C0983009F4F8C0993009F404C19630B7
:101A700009F01FC19DC0803821F0823809F019C1DA
:101A800008C08091CA019091CB01992389F08260AE
:101A90000FC08091D2019091D3018F7099278093CC
:101AA000E9008091EB0085FB882780F91092E9001E
:101AB0009091E800977F9093E8008093F100109256
:101AC000F100D5C0882319F0823009F0F2C08F717F
:101AD00021F0823009F0EDC00BC08091D00181303F
:101AE00009F0E7C0933009F080E08093CB012FC06C
:101AF0008091D00181112BC08091D2019091D301AE
:101B00008F709927009709F4D4C08093E900209141
:101B1000EB0020FF1CC02091CF01233021F48091E5
:101B2000EB00806212C09091EB0090619093EB000B
:101B300021E030E001C0220F8A95EAF72093EA0005
:101B40001092EA008091EB0088608093EB00109285
:101B5000E9008091E800877F8093E8000E94140BE1
:101B6000A8C08111A6C08091D0019091D1018F773A
:101B70009927182F9091E3009078982B9093E30089
:101B80008091E800877F8093E8000E94140B809189
:101B9000E80080FFFCCF8091E30080688093E30041
:101BA000112311F083E001C082E08093CD0181C058
:101BB0008058823008F07DC08091D0019091D10191
:101BC0008C3D23E0920779F583E08A838AE289835A
:101BD0004FB7F894DE01139620E03EE051E2E32F88
:101BE000F0E050935700E49120FF03C0E295EF70BE
:101BF0003F5FEF708E2F90E0EA3010F0C79601C083
:101C0000C0968D939D932F5F243149F74FBF8091EC
:101C1000E800877F8093E8006AE270E0CE010196D9
:101C20000E94220A13C0AE01455D5F4F6091D20150
:101C30000E9454090097E9F12091E800277F209342
:101C4000E800BC018BA59CA50E947E0A8091E8005B
:101C50008B778093E8002DC0803859F58091E8009B
:101C6000877F8093E8008091C9018093F100809183
:101C7000E8008E7771CF81111CC09091D001923015
:101C8000C0F48091E800877F8093E8009093C901B9
:101C90000E94140B8091C901811104C08091E3005E
:101CA00087FF02C084E001C081E08093CD010E94E3
:101CB00045088091E80083FF0AC08091E800877F93
:101CC0008093E8008091EB0080628093EB00AC96FB
:101CD0000FB6F894DEBF0FBECDBFDF91CF911F913D
:101CE000089590934F0180934E010895E0914E0125
:101CF000F0914F01309721F00190F081E02D09948F
:101D000080E00895CF92DF92EF92FF92CF93D82E8A
:101D1000C92FE0914E01F0914F013097C1F102803F
:101D2000F381E02D09958091C00182FF30C080FFD2
:101D300004C084ED93E00E94D803ED2CFC2EC8E093
:101D400086EEC82E83E0D82E8091C00180FF0CC0A3
:101D5000F70180811F928F93DF92CF920E947104CE
:101D60000F900F900F900F90C150FFEFEF1AFF0AE6
:101D7000C111EACF8091C00180FF09C08CEE93E0D1
:101D8000CF91FF90EF90DF90CF900C94D803CF913C
:101D9000FF90EF90DF90CF90089520915001309107
:101DA00051018217930771F0909351018093500174
:101DB000E0914E01F0914F01309721F00680F781BC
:101DC000E02D09940895209152013091530182171A
:101DD000930771F09093530180935201E0914E016B
:101DE000F0914F01309721F00084F185E02D0994A6
:101DF000089508950C94F90E0E94741B0C94FD0430
:101E0000CF93C82F8091C00182FF1EC080FF04C005
:101E10008EEE93E00E94D8038091C00180FF0CC039
:101E20001F92CF9321E034E03F932F930E947104DF
:101E30000F900F900F900F908091C00180FF04C011
:101E400086E094E00E94D8038C2FCF910C94C006BA
:101E50002F923F924F925F926F927F928F929F92BA
:101E6000AF92BF92CF92DF92EF92FF920F931F93A8
:101E7000CF93DF93CDB7DEB72A970FB6F894DEBFC6
:101E80000FBECDBF0E94290594E5492E91E0592E41
:101E900024E6A22E21E0B22EE12CF12C2224239460
:101EA000312C0E2D8E2D0E946B066C01F20181905B
:101EB00091902F01882699268114910409F45AC023
:101EC0008E2D0E946B063C01019786219721892B5C
:101ED00009F48FC010E0101304C01F5F1830D9F749
:101EE00088C0812F0E946B0686219721892BA9F338
:101EF00088C0F501808191818C159D0511F00E94AB
:101F00007406F501D182C08235C00E94740680E05B
:101F100090E03101082E02C0660C771C0A94E2F7AB
:101F2000930128213921232B09F18E830F83C620A9
:101F3000D72081E0CD2809F480E088870E947D1BAE
:101F40008160782F9A8789874E815F8168858A852D
:101F50000E941F10F701EE0FFF1FEC5AFE4F808109
:101F6000918186259725918380831FC001968031BA
:101F7000910579F6FFEFEF1AFF0A82E0A80EB11C77
:101F8000E8E0EE16F10409F08CCF8FEF89838A83A5
:101F90001B820E947D1B8160782F9D838C834981E9
:101FA0005A816B818D810E941F10109174010E94D3
:101FB000760E181759F10E94760E809374012A96B6
:101FC0000FB6F894DEBF0FBECDBFDF91CF911F914A
:101FD0000F91FF90EF90DF90CF90BF90AF909F90C8
:101FE0008F907F906F905F904F903F902F900C94C8
:101FF000000FF501D182C0828091C00181FF87CF9F
:1020000084CF8091C00181FD74CF7BCF2A960FB61B
:10201000F894DEBF0FBECDBFDF91CF911F910F911E
:10202000FF90EF90DF90CF90BF90AF909F908F90F8
:102030007F906F905F904F903F902F900895CF9337
:10204000DF93CDB7DEB72B970FB6F894DEBF0FBE88
:10205000CDBF4F83588769877A878B87DE011196BA
:1020600086E0FD0111928A95E9F785E0FE01379639
:1020700001900D928A95E1F749815A816B817C81AB
:102080008D819E810E9409172B960FB6F894DEBFB2
:102090000FBECDBFDF91CF910895CF93C82F882376
:1020A00009F498C08450813A48F48C2F0E94281D6E
:1020B000811190C08C2F0E9490190DC08C2F805ED2
:1020C000883060F4C77081E090E001C0880FCA9545
:1020D000EAF70E94D619CF910C94121A8C2F855AC8
:1020E000833078F4C53A29F0C63A31F482E890E0BA
:1020F00005C081E890E002C083E890E0CF910C94A5
:10210000CD0E8C2F885A833108F064C0C83A39F15B
:10211000C93A41F1CA3A49F1CB3A51F1CC3A59F1B5
:10212000CD3A61F1C03B69F1CE3A71F1CF3A79F124
:10213000C13B81F1C23B89F1C33B91F1C43B99F1B1
:10214000C53BA1F1C63BA9F1C73BB1F1C83BB9F111
:10215000C93BC1F1CA3BC9F58AE292E038C082EEC0
:1021600090E035C089EE90E032C08AEE90E02FC05A
:1021700085EB90E02CC086EB90E029C087EB90E0E7
:1021800026C08CEC90E023C08DEC90E020C083E86A
:1021900091E01DC08AE891E01AC082E991E017C081
:1021A00084E991E014C081E292E011C083E292E000
:1021B0000EC084E292E00BC085E292E008C086E2A5
:1021C00092E005C087E292E002C080E090E0CF910B
:1021D0000C94E30ECF910895882331F1982F9450F9
:1021E000913A18F40E94B2190EC0982F905E983060
:1021F00060F4282F277081E090E001C0880F2A95B5
:10220000EAF70E94DC190C94121A982F955A933011
:1022100020F480E090E00C94CD0E885A833120F4B5
:1022200080E090E00C94E30E0895882321F00E9452
:10223000D6190C94121A0895882321F00E94DC19F3
:102240000C94121A08958F929F92AF92BF920F939F
:102250001F93CF93DF93CDB7DEB727970FB6F894D0
:10226000DEBF0FBECDBF5C0185E0F501DE0111963A
:1022700001900D928A95E1F7F5013081218102816B
:10228000158112951F7083819481892B39F02F3F1E
:1022900041F481E090E03F3F31F003C081E090E005
:1022A00002C080E090E080FDD5C239832A83898115
:1022B0009A810E944B199E838F830E944A190E9423
:1022C00072184E81242F22952F7030E06F812430B8
:1022D000310509F4A7C044F4842F807F942F9F70A8
:1022E00022303105B4F042C02C3031054CF42A3094
:1022F00031050CF0CBC12830310509F0ABC2CFC09D
:102300002C30310509F480C22F30310509F0A2C20A
:102310008FC2992E811101C003C0929490EF99222F
:10232000002359F0992009F44AC2892D6F830E9435
:10233000E9190E94121A6F8142C2862F0E94EC1086
:10234000992009F487C2892D0E94EF1927960FB6AC
:10235000F894DEBF0FBECDBFDF91CF911F910F91DB
:10236000BF90AF909F908F900C94121A992E80324C
:1023700009F403C0929480EF9822662321F0613023
:1023800009F041C021C00023B1F0892D111101C015
:1023900026C0113021F527960FB6F894DEBF0FBE88
:1023A000CDBFDF91CF911F910F91BF90AF909F90C4
:1023B0008F900C94F919111101C003C0113009F468
:1023C00049C20E94FC192CC00023C9F0163008F045
:1023D00041C20E94D319892109F022C0892D279674
:1023E0000FB6F894DEBF0FBECDBFDF91CF911F9126
:1023F0000F91BF90AF909F908F900C941511153056
:1024000008F028C20DC0002349F0112339F3F5016B
:10241000858180FFD4C18F708583E0CF1111E3C126
:10242000892D50C1242F26952695237030E0211543
:10243000310529F02130310509F00CC218C0002304
:1024400021F0862F942F937002C080E090E02796B1
:102450000FB6F894DEBF0FBECDBFDF91CF911F91B5
:102460000F91BF90AF909F908F900C94CD0E002352
:1024700021F0862F942F937002C080E090E0279681
:102480000FB6F894DEBF0FBECDBFDF91CF911F9185
:102490000F91BF90AF909F908F900C94E30E842F7C
:1024A000837009F076C00111D5C1262F229526959B
:1024B0002770220F220F862F8F70882E912CA12C2F
:1024C000B12C022E04C0880C991CAA1CBB1C0A94B7
:1024D000D2F764FF10C06FE070E080E090E004C0CD
:1024E000660F771F881F991F2A95D2F76095709500
:1024F0008095909503C060E070E0CB01242F269575
:1025000026952370422F50E042305105D1F04330E0
:10251000510559F1682979298A299B2941305105AA
:1025200041F127960FB6F894DEBF0FBECDBFDF9105
:10253000CF911F910F91BF90AF909F908F900C946F
:102540008718682979298A299B2927960FB6F89434
:10255000DEBF0FBECDBFDF91CF911F910F91BF9016
:10256000AF909F908F900C9499180E948718C50186
:10257000B40127960FB6F894DEBF0FBECDBFDF9132
:10258000CF911F910F91BF90AF909F908F900C941F
:102590007518002319F0842F817001C08695882357
:1025A00009F458C1262F229526952770220F220F55
:1025B000862F8F70882E912CA12CB12C022E04C056
:1025C000880C991CAA1CBB1C0A94D2F764FF10C08B
:1025D0006FE070E080E090E004C0660F771F881F16
:1025E000991F2A95D2F7609570958095909503C0B4
:1025F00060E070E0CB01242F269526952370422FB2
:1026000050E042305105D1F04330510559F168296D
:1026100079298A299B294130510541F127960FB626
:10262000F894DEBF0FBECDBFDF91CF911F910F9108
:10263000BF90AF909F908F900C94261968297929AC
:102640008A299B2927960FB6F894DEBF0FBECDBF0F
:10265000DF91CF911F910F91BF90AF909F908F907E
:102660000C9438190E942619C501B40127960FB69B
:10267000F894DEBF0FBECDBFDF91CF911F910F91B8
:10268000BF90AF909F908F900C941419603F51F1C0
:1026900020F4603E08F48EC008C0623F09F463C0B5
:1026A000E0F1633F09F086C061C0162F1F70842FD0
:1026B0008F71002321F00E94BF18812F90CE0E94BD
:1026C000DA18812F27960FB6F894DEBF0FBECDBF64
:1026D000DF91CF911F910F91BF90AF909F908F90FE
:1026E0000C941C110023A9F0153008F0B3C0842FFE
:1026F0008F7127960FB6F894DEBF0FBECDBFDF9166
:10270000CF911F910F91BF90AF909F908F900C949D
:10271000F918163008F09EC0EACF002391F0842FFC
:102720008F7127960FB6F894DEBF0FBECDBFDF9135
:10273000CF911F910F91BF90AF909F908F900C946D
:10274000BF18842F8F7127960FB6F894DEBF0FBE87
:10275000CDBFDF91CF911F910F91BF90AF909F9010
:102760008F900C94DA180111ECCFD9CF002391F09F
:10277000842F8F7127960FB6F894DEBF0FBECDBFA2
:10278000DF91CF911F910F91BF90AF909F908F904D
:102790000C94B01827960FB6F894DEBF0FBECDBFCD
:1027A000DF91CF911F910F91BF90AF909F908F902D
:1027B0000C94AB180023A1F0112309F4B0CF862F9D
:1027C00027960FB6F894DEBF0FBECDBFDF91CF9135
:1027D0001F910F91BF90AF909F908F900C944D10D0
:1027E000112309F4AECF862F27960FB6F894DEBFDB
:1027F0000FBECDBFDF91CF911F910F91BF90AF90D2
:102800009F908F900C94EC104F70C5010E94041B98
:1028100027960FB6F894DEBF0FBECDBFDF91CF91E4
:102820001F910F91BF90AF909F908F900C94BF1706
:102830004F70C50127960FB6F894DEBF0FBECDBF0F
:10284000DF91CF911F910F91BF90AF909F908F908C
:102850000C947A0427960FB6F894DEBF0FBECDBF56
:10286000DF91CF911F910F91BF90AF909F908F906C
:1028700008950E94F6190E94C5190E94121A80E05C
:1028800090E00E94CD0E80E090E00C94E30E0E9458
:10289000E6190C9439140E944B19292F22952F7098
:1028A00030E02C3031054CF42A3031056CF42250E4
:1028B00031092230310590F407C02C30310551F038
:1028C0002F30310559F406C0803E10F0803F31F4BE
:1028D00081E0089593FB882780F9089580E00895AA
:1028E000CF93DF9300D000D01F92CDB7DEB70F900B
:1028F0000F900F900F900F90DF91CF910895CF938D
:10290000DF9300D000D000D0CDB7DEB726960FB64B
:10291000F894DEBF0FBECDBFDF91CF910895EF9247
:10292000FF92CF939091AB01C6E015C0E92EF12C38
:10293000CE9DF001CF9DF00D1124E558FE4F408152
:10294000518162817381848195810E947F14C701C6
:102950000196982F97708091AC019813E7CFCF9193
:10296000FF90EF900895409175015091760160912C
:102970007701709178018091790190917A010C949E
:102980007F140F931F93CF93DF9380917A018295E9
:102990008F7009F069C080917701882309F464C0C1
:1029A000A091AB01D091AC01B0917501C0917601BD
:1029B000809178019091790121E030E0BF3F11F0E2
:1029C00020E030E0122FBC016095709506E04AC00F
:1029D000009721F0CF3F29F4212F05C021E030E0FE
:1029E00002C020E030E020FD3BC04A2F50E0049FB1
:1029F000F001059FF00D1124E558FE4F2181C2130F
:102A00002FC02081B2132CC02281211129C0238123
:102A100034812817390718F0281B390B02C0260FFC
:102A2000371F283C3105E0F480917A018F70806176
:102A300080937A0186E0849FF001859FF00D112438
:102A4000E058FE4F80818F708061808385E791E040
:102A50000E942311DF91CF911F910F910C948F143D
:102A6000AF5FA770AD13B4CFDF91CF911F910F91DE
:102A70000895CF92DF92EF92FF92CF93DF93CDB77D
:102A8000DEB762970FB6F894DEBF0FBECDBF7C01F4
:102A900085E0F701DE011D9601900D928A95E1F720
:102AA000D7014C9111965C91119712966C911297E7
:102AB0001396CD90DC90149770917501E09176019A
:102AC0008091780190917901009739F0EF3F41F4BE
:102AD00021E030E07F3F31F003C021E030E002C070
:102AE00020E030E020FD5CC120917701222309F431
:102AF000F1C0C816D90628F09601281B390BC90168
:102B000004C0809590958C0D9D1D883C910508F022
:102B100098C080917A01982F907F09F064C0E513E6
:102B200014C0741312C0611110C08F708061809343
:102B30007A010E94B31485E791E00E9423118091ED
:102B40007A01D70115968C9343C1CD2839F05F3FA8
:102B500041F481E090E04F3F31F003C081E090E02C
:102B600002C080E090E080FD03C081E0862702C0C3
:102B700080E090E080FF2EC08091AB012091AC01FD
:102B800036E013C090E0389FF001399FF00D11241A
:102B9000E558FE4F7181571306C07081471303C07B
:102BA0007281671317C0019687708213EBCF12C131
:102BB0009F7059F0882309F40BC107C09F7029F05A
:102BC000F7019581907F09F403C1805E883008F495
:102BD000FFC0D2C0662309F4FBC080917A018160F6
:102BE00080937A01F5C0E51308C0741306C0611123
:102BF00004C0D70115968C939DC04D875E878D8547
:102C00009E856A8B0E944B146A89882309F4B4C09C
:102C1000662309F4B1C020917A01822F82958F70CA
:102C200090E002970CF4C6C08091750190917601F6
:102C300098878F831986DB86CA862C87CE010796F4
:102C400046C080917A01982F907F59F47C2DD98AC3
:102C5000C88A89890E94701485E791E00E94231137
:102C600095C0E51311C074130FC061110DC0F701B9
:102C70008583C7010E942311E5E7F1E086E0DF01CB
:102C80001D928A95E9F7A2C04D875E878D859E8546
:102C90006A8B0E944B146A89882309F46DC06623ED
:102CA00009F46AC020917A01822F82958F7090E09A
:102CB00002970CF47FC080917501909176019A8300
:102CC00089831B82DD82CC822E83CE0101960E94F5
:102CD000231170C0C816D90628F09601281B390B9D
:102CE000C90104C0809590958C0D9D1D883C91056F
:102CF00008F046C0662309F43FC0E51330C07413E2
:102D00002EC020917A0120FD21C0322F32953F70D4
:102D1000832F90E00097D1F0D70115962C9315974B
:102D20000F9741F0832F8F5F8295807F2F70282B24
:102D300015962C93C7010E94231186E0F701A5E7A1
:102D4000B1E001900D928A95E1F73EC086E0F7016F
:102D5000A5E7B1E001900D928A95E1F737C04D8764
:102D60005E878D859E850E944B14811123C08091C2
:102D70007A01816080937A01C7010E94231126C0E5
:102D80007C2DD98AC88A89890E947014E5E7F1E010
:102D900086E0DF011D928A95E9F70E94B31418C0FE
:102DA000662351F34D875E878D859E850E944B1467
:102DB000882311F386E0F701A5E7B1E001900D92B9
:102DC0008A95E1F70E94C1140E94B31481E014C0F7
:102DD00080E012C04D875E878D859E850E944B19CD
:102DE000292F22952F7030E0223031050CF4E0CEEF
:102DF000243031050CF6E2CE62960FB6F894DEBFB1
:102E00000FBECDBFDF91CF91FF90EF90DF90CF90BD
:102E100008951F93CF93DF93CDB7DEB72C970FB6EE
:102E2000F894DEBF0FBECDBF4F83588769877A877E
:102E30008B879C87CE0107960E9439158823D9F08D
:102E40002F8138858A859B85892B39F03F3F19F082
:102E500080E090E004C02F3FD9F781E090E0892B1B
:102E600009F06DC04F81588569857A858B859C8571
:102E70000E947F1464C086E0FE013796DE01119641
:102E800001900D928A95E1F7FF81E8854A855B857F
:102E90004115510539F0EF3F41F481E090E0FF3FEB
:102EA00031F003C081E090E002C080E090E080FD5E
:102EB00046C02091AC0130E0C90101968770992786
:102EC0006091AB0170E08617970709F440C0F98361
:102ED000EA835D834C8396E0929FD001939FB00D6F
:102EE0001124A558BE4FFE01319601900D929A957E
:102EF000E1F78093AC010E948F1421C0189FC0019C
:102F0000112485589E4F0E943915882371F1E09154
:102F1000AB011E9FF0011124E558FE4F4081518105
:102F200062817381848195810E947F148091AB01BD
:102F300090E00196877099278093AB0101C016E05D
:102F40008091AB019091AC018913D8CF0EC00E9443
:102F500047141092AC011092AB01E5E7F1E086E076
:102F6000DF011D928A95E9F7EACF2C960FB6F89407
:102F7000DEBF0FBECDBFDF91CF911F910895CF92DD
:102F8000DF92EF92FF92CF93DF939C01009709F4B9
:102F90008EC0D0E0C0E0CC24C394D12C79018FEF57
:102FA000E81AF80AF9018491853709F45BC060F4E6
:102FB000843708F046C0843008F066C08130A9F03C
:102FC000823009F074C026C0883709F45AC038F43A
:102FD000863709F44EC0873709F069C04EC0982F74
:102FE0009458903708F063C052C0F701790182E02D
:102FF000E80EF11CE4918E2F805E883048F4E77073
:103000008C2D01C0880FEA95EAF70E94E91914C0D7
:103010008E2F3AC0F701790182E0E80EF11CE491AD
:103020008E2F805E883058F4E7708C2D01C0880F99
:10303000EA95EAF70E94EF190E94121A2BC08E2F10
:1030400027C0F701790182E0E80EF11C949107C0D6
:10305000EFE9FFE03197F1F700C0000091509111C6
:10306000F7CF18C0F701790182E0E80EF11CC49196
:1030700011C00E94D319D82F0DC08D2F0E94E319C3
:10308000DBCF0E94E619D8CF0E944D1003C08F7786
:103090000E94EC109C2F07C09150EFE9FFE03197A0
:1030A000F1F700C000009111F7CF970177CFDF91C2
:1030B000CF91FF90EF90DF90CF9008956093B10192
:1030C0007093B2018093B3019093B4010C943914BE
:1030D0006093AD017093AE018093AF019093B00106
:1030E0000C94391408950C945E180F931F9300915B
:1030F000B1011091B2012091B3013091B401602B64
:10310000712B822B932B1F910F910C945E180F93B0
:103110001F930091B1011091B2012091B301309140
:10312000B40160237123822393231F910F910C9488
:103130005E180F931F930091B1011091B20120917D
:10314000B3013091B40160277127822793271F9123
:103150000F910C945E1860E070E0CB010C9468183D
:1031600041E050E060E070E004C0440F551F661F6E
:10317000771F8A95D2F7CB01BA010C94681841E009
:1031800050E060E070E004C0440F551F661F771FD9
:103190008A95D2F78091AD019091AE01A091AF01D7
:1031A000B091B001482B592B6A2B7B2BCB01BA0174
:1031B0000C94681841E050E060E070E004C0440FF7
:1031C000551F661F771F8A95D2F7409550956095D9
:1031D00070958091AD019091AE01A091AF01B09139
:1031E000B001482359236A237B23CB01BA010C94F5
:1031F000681841E050E060E070E004C0440F551FE3
:10320000661F771F8A95D2F78091AD019091AE012C
:10321000A091AF01B091B001482759276A277B27B9
:10322000CB01BA010C9468180F931F930091AD0164
:103230001091AE012091AF013091B001602B712B44
:10324000822B932B1F910F910C9468180F931F934F
:103250000091AD011091AE012091AF013091B0010C
:1032600060237123822393231F910F910C9468187C
:103270000F931F930091AD011091AE012091AF010A
:103280003091B00160277127822793271F910F91FA
:103290000C94681808958F929F92AF92BF92CF922C
:1032A000DF92EF92FF926C018090B1019090B20199
:1032B000A090B301B090B4014091AD015091AE0126
:1032C0006091AF017091B001842A952AA62AB72A8D
:1032D0008FE1E82EF12CB501A4010E2C04C07695E7
:1032E0006795579547950A94D2F740FF08C0B601F5
:1032F0008E2D0E94381A8130910509F008C081E0B6
:10330000E81AF10840F7B60180E00E94381AFF90F1
:10331000EF90DF90CF90BF90AF909F908F900895E7
:1033200040910C0150910D0120E030E09FEFFA0137
:10333000E20FF31F62816817A1F09F3F19F461113A
:1033400001C0922F2F5F3F4F2630310581F707C014
:10335000FA01E90FF11D97FDFA95828308959F3FC9
:10336000B9F7089540910C0150910D0120E030E033
:10337000FA01E20FF31F9281981301C012822F5FAE
:103380003F4F26303105A1F7089581E090E0E091AC
:103390000C01F0910D01E80FF91F108201968830A1
:1033A0009105A9F708958091B50108959091B5010F
:1033B000982B9093B501089580959091B50198232D
:1033C0009093B50108958093B50108951092B501C9
:1033D00008959091B601982B9093B6010895809529
:1033E0009091B60198239093B60108951092B6017A
:1033F00008958093B70108951092B7010895409100
:103400000C0150910D0120E030E080E0FA01E20F64
:10341000F31F918191118F5F2F5F3F4F273031054F
:10342000A9F70895E0910C01F0910D018091B5018B
:103430008083E0910C01F0910D0180819091B601A3
:10344000892B80839091B701992361F0E0910C0161
:10345000F0910D018081892B80830E94FF198111D9
:103460000E94FC1980910C0190910D010C94820E28
:103470000E94CE04982F905C903218F40E94E004D1
:1034800008958D3B50F4883A18F5853AC0F484309D
:1034900098F4813009F06FC00CC0883E30F4803E53
:1034A00058F48F3B09F067C059C0803F08F463C0EF
:1034B00051C021E030E0A6C0282F30E0A3C0853AFB
:1034C00009F45CC0863A09F05CC022E830E49AC096
:1034D000883A09F459C0893A09F459C08A3A09F47A
:1034E00059C08B3A09F459C08C3A09F459C08B3B46
:1034F00009F459C08C3B09F459C08D3A09F459C0FC
:10350000803B09F459C08E3A09F459C08F3A09F446
:1035100059C0813B09F459C0823B09F459C0833B2F
:1035200009F459C0843B09F459C0853B09F459C0DA
:10353000863B09F459C0873B09F459C0883B09F41C
:1035400059C0893B09F459C08A3B09F059C02AE2A5
:1035500036E458C0282F30E0306554C00E9447142C
:103560002FEF80E792E0215080409040E1F700C0CB
:1035700000000E94C11B20E030E044C021E830E49C
:1035800041C023E830E43EC022EE34E43BC029EEE3
:1035900034E438C02AEE34E435C025EB34E432C0DC
:1035A00026EB34E42FC023EB34E42CC024EB34E4CA
:1035B00029C027EB34E426C02CEC34E423C02DECE6
:1035C00034E420C023E835E41DC02AE835E41AC0FD
:1035D00022E935E417C024E935E414C021E236E4D9
:1035E00011C023E236E40EC024E236E40BC025E22B
:1035F00036E408C026E236E405C027E236E402C01D
:1036000020E034E4C901089580E090E008959093AB
:103610001F0180931E0108958295982F9C7C96959A
:103620009695837344E0849F90011124922B892FF7
:103630008A7A86959575990F892B08951F93CF9354
:10364000DF931F92CDB7DEB799830E940C1B182F12
:103650009981892F0E940C1B312F20E0282BC90152
:103660000F90DF91CF911F9108958091CD0184300B
:1036700009F11092C10120E488E190E00FB6F894BE
:10368000A895809360000FBE2093600083B7817F70
:10369000846083BF83B7816083BF7894889583B744
:1036A0008E7F83BF88E10FB6F894809360001092FC
:1036B00060000FBE089508950895CF930E945B1B8C
:1036C0000E9429050E945C1BC0E08C2F0E946B06A3
:1036D000892B29F4CF5FC830C1F780E001C081E0B9
:1036E000CF9108950C94471482E084BD93E095BD7A
:1036F0009AEF97BD80936E0008958FB7F89440912C
:10370000C2015091C3016091C4017091C5018FBF86
:10371000CA0108950F931F938FB7F8940091C201C7
:103720001091C3012091C4013091C5018FBFB80130
:10373000C9011F910F9108951F920F920FB60F921A
:1037400011248F939F93AF93BF938091C201909167
:10375000C301A091C401B091C5010196A11DB11D85
:103760008093C2019093C301A093C401B093C5019B
:10377000BF91AF919F918F910F900FBE0F901F90AF
:1037800018950E94670BF8942FEF87EA91E6215075
:1037900080409040E1F700C0000087E090EBDC0142
:1037A0008093D6019093D701A093D801B093D9010B
:1037B0002CE088E190E00FB6F894A8958093600023
:1037C0000FBE20936000FFCF81EA96E00C94D803EF
:1037D000CF93C82F1F928F932CEB36E03F932F93FC
:1037E0000E94710461E070E080E090E004C0660F28
:1037F000771F881F991FCA95D2F70E9473180F90E0
:103800000F900F900F90CF910C944714873220F5B2
:103810008E3108F00DC1803109F4A7C070F48730F3
:1038200009F466C020F4863009F008C13FC08B302F
:10383000B9F18E3009F002C185C0893109F4A8C000
:1038400020F4863109F0FAC0BAC08B3109F460C0A7
:103850008D3109F0F3C019C0883311F150F4893269
:1038600009F4E4C0853309F4E1C0873209F0E6C009
:10387000DDC0833409F4DAC020F48A3308F4DEC0F2
:10388000D9C0883409F0DAC021C088E094E00E94F1
:10389000D8030E94921D0E94760E0E94C00604C0AA
:1038A0008CEF95E00E94D80381E008958091C001DB
:1038B000817F8E7F8093C0010E94E41B88E194E0A9
:1038C0000E94D80381E08093C60108950E944714A6
:1038D0008CE194E00E94D8032FEF83ED90E3215018
:1038E00080409040E1F700C000000E94C11BDCCF87
:1038F0008091C00180FF09C08DE294E00E94D8034E
:103900008091C001817F8E7F17C08AE394E00FC051
:103910009091C00191FB882780F921E0822780FBEC
:1039200091F99093C001882351F086E494E00E94BD
:10393000D8038091C00181608093C001B5CF83E539
:1039400094E0B0CF9091C00192FB882780F921E0EC
:10395000822780FB92F99093C001882319F081E6B9
:1039600094E0E5CF80E794E09DCF9091C00193FB78
:10397000882780F921E0822780FB93F99093C0018A
:10398000882319F080E894E0D2CF8CE894E08ACFC5
:1039900089E994E00E94D80388EA94E00E94D80361
:1039A00080ED94E00E94D80381E195E00E94D80365
:1039B00088E395E00E94D80385E695E073CF81E91E
:1039C00095E00E94D8030E94760E1F928F938FE994
:1039D00095E09F938F930E94710480910B011F9239
:1039E0008F9389EB95E09F938F930E947104809150
:1039F00041011F928F9380ED95E09F938F930E94DA
:103A000071040E948A1B9F938F937F936F9383EE21
:103A100095E09F938F930E9471048DB79EB7429655
:103A20000FB6F8949EBF0FBE8DBF3ECF80E003C09F
:103A30008D5101C089530E94E81B36CF8AEF95E073
:103A40000E94D80380E0089580E0089580E0089502
:103A5000CF93C82F8091C601882319F08130D9F502
:103A600008C0E0910C01F0910D0180818231A9F52F
:103A700007C0E0910C01F0910D018081823149F481
:103A80008C2F0E94241D811122C08C2F0E94061CA5
:103A900020C08C2F0E94261D811119C0C43179F0DD
:103AA00018F4CB3079F404C0C93249F0C83351F46A
:103AB0000E94E41B81EC96E00E94D80308C010929B
:103AC000C6010DC085EC96E00E94D80308C081E0D5
:103AD00090E0817007C01092C60180E003C080E0D2
:103AE00090E0F7CFCF910895E1E8F0E08081886021
:103AF00080838081816080838FB7F89493E0909376
:103B0000890090ED909388008FBF0895EFE6F0E074
:103B10008081826080830895EFE6F0E080818D7F70
:103B200080830895EFE6F0E0808192E0892780832A
:103B300008951F920F920FB60F9211240BB60F9299
:103B40002F933F934F935F936F937F938F939F93A5
:103B5000AF93BF93EF93FF938091C7019091C801FA
:103B600001969093C8018093C701811103C082E040
:103B70000E94C006E091C801E695E695F0E0E953A1
:103B8000F94FE4918091C7018E1303C080E00E9439
:103B9000C006FF91EF91BF91AF919F918F917F915F
:103BA0006F915F914F913F912F910F900BBE0F90AE
:103BB0000FBE0F901F901895991B79E004C0991FB4
:103BC000961708F0961B881F7A95C9F78095089577
:043BD000F894FFCF97
:103BD40005D306A407D60670073B0701B801E40223
:0E3BE400FD02160395035F033F033F362000EA
:00000001FF
