:100000000C94BC010C9402020C9402020C940202A7
:100010000C9402020C9402020C9402020C94020250
:100020000C9402020C9402020C941E0A0C94F40A22
:100030000C9402020C9402020C9402020C94020230
:100040000C9402020C94CC190C9402020C9402023F
:100050000C9402020C9466190C9402020C94020295
:100060000C9402020C9402020C9402020C94020200
:100070000C9402020C9402020C9402020C940202F0
:100080000C9402020C9402020C9402020C940202E0
:100090000C9402020C94020239A100F0000000004E
:1000A00000052C11E50038514F5650E6E4E51D1BC4
:1000B00006192810363731535455480000000416ED
:1000C0000709310D0E0F33595A5B58000000141AFE
:1000D000081531180C12135F6061574700001E1F8E
:1000E0002021432425262744454E4D46E000353A3D
:1000F0003B2242232E412D4C494B4A0000E12BC0AC
:100100003C172A1C30402F5C5D5E00000000296413
:100110003D0A3E0B3F003400626352E200000000E3
:1001200000010101010001010101010101010101C1
:1001300001010101010101010101C10000000101F2
:1001400001010101010101010101010100000101A1
:100150000101010101010101010101010000010191
:100160000101010101010101010101010100010180
:100170000101010101010101010101000001010171
:100180000101010101010101010101000000010162
:1001900001010101010001010101010150005200B2
:1001A0006900626F756E6365213A20002530325810
:1001B000000A000A722F632030313233343536376B
:1001C00038394142434445460A0025303258003A06
:1001D00020002530313662000A005B435D005B443D
:1001E0005D005B525D005B535D005B575D005553E6
:1001F0004220636F6E666967757265642E0A004BF4
:100200006579626F6172642073746172742E0A0082
:100210005B735D001A034D006F00640065006C00A5
:100220005F004D005F00560031002E0030000000DE
:100230001A03500068006F007300700068006F00C0
:10024000720047006C006F0077000000040309048F
:1002500009024200020100A032090400000103016A
:100260000100092111010001223F00070581030857
:10027000000A090401000203000000092111010025
:100280000122200007058203200001070502032048
:1002900000011201100100000008EDFE6060010085
:1002A000010200010631FF0974A10109751500253D
:1002B000FF9520750881020976150025FF952075A8
:1002C000089102C005010906A101050719E029E707
:1002D00015002501950875018102950175088101B8
:1002E0000508190129059505750191029501750308
:1002F00091010507190029FF150025FF95067508CE
:100300008100C06B6579626F6172645F7265706F46
:1003100072743A20002530325820000A006B65794B
:10032000626F6172645F7365745F6C65643A20002C
:1003300025303258000A00000000000000000000D4
:100340000000010204060A0F17202C3A4A5D71874B
:100350009DB3C7DAE9F5FCFFFCF5E9DAC7B39D8781
:10036000715D4A3A2C20170F0A06040201000000B2
:10037000000000000000000011241FBECFEFD0E2FB
:10038000DEBFCDBF04B603FE24C08091CF019091A3
:10039000D001A091D101B091D2018730904BA740FC
:1003A000B04BB9F41092CF011092D0011092D1014C
:1003B0001092D20114BE84B7877F84BF88E10FB644
:1003C000F89480936000109260000FBEE0E0F0EFC0
:1003D000099511E0A0E0B1E0EAE3F4E300E00BBF2F
:1003E00002C007900D92A831B107D9F711E0A8E13A
:1003F000B1E001C01D92AF3CB107E1F70E9439079F
:100400000C941B1A0C940000FF93EF93E0911801D9
:10041000F0911901309709F00995EF91FF91089536
:10042000FC018591803011F0EFDFFBCF0895FF27AD
:10043000E0E230E247FF0CC0419597FF09C0EDE2D2
:100440006095709580959095611D711D811D911D20
:1004500027FF02C0219530E350E2AA27660F771FDD
:10046000881F991FAA1FA41710F0A41B63955A9503
:10047000A9F7AA3008F0A95FA05DAF93F3956115C5
:1004800071058105910541F7ED3211F4EF93F39574
:10049000F21718F43F93F395FBCF8F91B5DFFA95E0
:1004A000E1F70895E991F9918591803021F0853245
:1004B00019F0AADFF9CF089520E0E894559155325C
:1004C000C1F3503311F4689455915A3348F45053A2
:1004D00090F3220F022E220F220F200D250FF4CFB2
:1004E0000EF4219589919991533619F3533729F1D7
:1004F000533559F1BC0188279927E8945C3621F4DB
:100500008991999168945591543639F446EF7EF06B
:1005100077FF0DC08FEF9FEF0AC055374AE039F0E3
:10052000583540E121F0523642E009F00895FF933A
:10053000EF937DDFEF91FF91B7CFFF93EF93FC0136
:1005400081918030B9F360DFFBCFFF93EF9368DFD9
:10055000F1CFDF93CF93CDB7DEB72596A3DFCF9151
:10056000DF910895EF92FF92CF937C01C62FFC019B
:1005700092818091BA01992329F080FF09C08CE90A
:1005800091E004C080FF04C08EE991E00E94100257
:10059000F701858180FF08C08091BA0180FF04C007
:1005A00080EA91E00E941002C1112CC00E94AF1796
:1005B0008072992780931A01F70132813323B9F0B1
:1005C000882329F0CF91FF90EF900C948B190E9413
:1005D000B81788E490E00E946C170E94EE17809193
:1005E0001A0190E0CF91FF90EF900C94B217811117
:1005F00009C088E490E00E948E17CF91FF90EF90A1
:100600000C94EE17CF91FF90EF900895E72FF0E054
:1006100098E0899FE00DF11D112484E0EE0FFF1F8B
:100620008A95E1F7E60FF11DE456FF4F8491089596
:10063000E82FF0E0EE0FFF1FE85EF04025913491C7
:10064000C901089584B18F7184B985B18F7185B95D
:100650008DB18F7C8DB98EB18F7C8EB98AB18C7E35
:100660008AB98BB18C7E8BB9089585B7806885BFB8
:1006700085B7806885BF0E94220381B18F7081B9E0
:1006800082B1806F82B987B117B888B18FEF88B90E
:100690008DB18C7F8DB98EB183608EB98AB18F7523
:1006A0008AB98BB1806A8BB9EBE1F1E0ABE2B1E0E2
:1006B000119211921D921D9281E0EB32F807C1F761
:1006C0000895AF92BF92CF92DF92EF92FF921F9365
:1006D000CF93DF93ABE2CA2EA1E0DA2E760110E0D1
:1006E000C1E0D5E01430A9F030F41230C1F0A0F42C
:1006F0001130D9F417C0163031F040F01730A9F49A
:10070000549A5C9814C0519A599811C0509A5898AC
:100710000EC06D9A75980BC06C9A749808C0279A91
:100720002F9805C0269A2E9802C0259A2D9880EA07
:100730008A95F1F780B182958F708C2780FBAA246F
:10074000A0F8B12C059B03C020E030E002C022E0FD
:1007500030E02A293B29069B03C080E090E002C0DC
:1007600084E090E0282B392B80B1992787FD909564
:10077000809590958827990F881F992773E0880F97
:10078000991F7A95E1F7282B392B86B1992787FD98
:100790009095809590958827990F881F9927F4E068
:1007A000880F991FFA95E1F7282B392B369B03C048
:1007B00080E090E002C080E290E0282B392B359B4E
:1007C00003C080E090E002C080E490E0282B392B49
:1007D000349B03C060E070E002C060E870E0262B4C
:1007E000372B339B03C040E050E002C040E051E0B3
:1007F000242B352B329B03C080E090E002C080E0C8
:1008000092E0282B392B319B03C060E070E002C0DE
:1008100060E074E0262B372B309B03C040E050E0B3
:1008200002C040E058E0242B352B619B03C080E0E0
:1008300090E002C080E090E1282B392B609B03C040
:1008400080E090E002C080E090E2282B392B89B153
:10085000992787FD9095809590958827990F881FF7
:10086000992790E4899F902D88271124282B392BD4
:100870004D9B03C080E090E002C080E090E8282B10
:10088000392BD7018D919C9111978217930751F1C4
:100890002D933C9380910001882311F18091BA013E
:1008A00080FF04C082EA91E00E9410028091BA01A8
:1008B00080FF0EC0809100011F928F938CEA91E01F
:1008C0009F938F930E94A9020F900F900F900F900B
:1008D0008091BA0180FF04C081EB91E00E94100278
:1008E000D09300010E9422031F5FB2E0EB0EF11CC7
:1008F000183009F0F7CE809100018823C9F08150AB
:1009000080930001882339F0EFE9FFE03197F1F798
:1009100000C000000DC0EBE1F1E0D6018D919D918A
:100920006D0181939193BBE3CB16B1E0DB06A9F790
:1009300081E0DF91CF911F91FF90EF90DF90CF90FA
:10094000BF90AF900895E82FF0E0EE0FFF1FE55E37
:10095000FE4F8081918108958F929F92AF92BF92B6
:10096000CF92DF92EF92FF9283EB91E00E94100210
:100970009BE1A92E91E0B92EE12CF12C2AEC822EDC
:1009800021E0922E32EDC32E31E0D32EFF92EF9272
:100990009F928F920E94A9028FEC91E00E94100218
:1009A000F501819191915F010E94FA189F938F93B5
:1009B000DF92CF920E94A90288ED91E00E9410027E
:1009C000FFEFEF1AFF0A8DB79EB708960FB6F8949F
:1009D0009EBF0FBE8DBF98E0E916F104B9F6FF90F7
:1009E000EF90DF90CF90BF90AF909F908F90089541
:1009F000229A209A239A81FF02C02A9801C02A9A3B
:100A000080FF02C0289801C0289A82FF02C02B985C
:100A100008952B9A089580914401089508959FB7F1
:100A2000F894109246019FBF9091C601943009F04E
:100A300058C09091E9009F702091EC0020FF02C007
:100A400020E801C020E0292B92E09093E9009091EA
:100A5000EB0090FF43C09091EE0097FF3FC0909154
:100A60004701992321F09091E80095FF37C010923B
:100A7000470196E014C03091C601343079F53091C9
:100A8000EB0035FD2BC0915021F481E080934701AC
:100A900025C0EFE9FFE03197F1F700C00000309189
:100AA000E80035FFE8CF8093F1008091E80085FDF4
:100AB0000AC08091E80080FFFCCF8091E8008E772B
:100AC0008093E80006C08FB7F89491E090934601B8
:100AD0008FBF2F702093E90080E008952F7020933E
:100AE000E9008FEF0895CF93DF9300D01F92CDB729
:100AF000DEB72091C601243029F523E029839B83AA
:100B00008A8381E08093E9008FEF06C095ED9A9586
:100B1000F1F70000882329F09091E800815095FFBB
:100B2000F5CF8091E80085FF0DC040E050E063E024
:100B300070E0CE0101960E9403088091E8008E7754
:100B40008093E8000F900F900F90DF91CF91089560
:100B5000CF93DF9300D01F92CDB7DEB72091C601AF
:100B6000243029F522E029839B838A8381E08093C6
:100B7000E9008FEF06C095ED9A95F1F70000882304
:100B800029F09091E800815095FFF5CF8091E80021
:100B900085FF0DC040E050E063E070E0CE010196BB
:100BA0000E9403088091E8008E778093E8000F9000
:100BB0000F900F90DF91CF910895EF92FF927C01FB
:100BC0008091C601843041F581E08093E9008FEF88
:100BD00006C095ED9A95F1F70000882329F09091D1
:100BE000E800815095FFF5CF8091E80085FF14C0A3
:100BF00040E050E068E070E0C7010E940308809187
:100C0000E8008E778093E80088E0F701ACE3B1E07C
:100C100001900D928A95E1F7FF90EF9008958AED8B
:100C200091E00E9410028091C501811109C00E94CB
:100C30009B090E94020A8091E20084608093E20096
:100C400008958EED91E00E9410021092C501089562
:100C500082EE91E00C94100286EE91E00E94100268
:100C60000C94C0198AEE91E00E9410020E944E1965
:100C70000E94C6190E94AA0C0C94F80480914501A8
:100C80008F5F8093450162E30E940F1A911135C076
:100C90001092450180914601882379F18091C60127
:100CA000843049F58091E9008F709091EC0090FFBD
:100CB00002C090E801C090E0982B82E08093E900A8
:100CC0008091EB0080FF14C08091EE0087FD03C08F
:100CD0000FC01092F1008091E80085FDFACF80915D
:100CE000E80080FF05C08091E8008E778093E800DF
:100CF0009F709093E90010924601089542E061ECE4
:100D000081E00E94110942E261EC82E00C94110939
:100D10008091C801833009F454C030F4813071F0FF
:100D2000823009F0A5C08CC08A3009F479C08B30BC
:100D300009F45FC0893009F09BC020C08091C701D1
:100D4000813A09F095C08091E800877F8093E800A0
:100D50008091CB019091CC01892B21F060E080E063
:100D600090E003C068E08CE391E070E00E945608D8
:100D70008091E8008B778093E80008958091C70107
:100D8000813209F075C08091CB019091CC01892B03
:100D900009F06EC08091E800877F8093E80005C06D
:100DA0008091C601882309F463C08091E80082FF26
:100DB000F7CF8091F100809344018091E8008B7718
:100DC00053C08091C701813A09F052C08091CB0194
:100DD0009091CC01892B09F04BC08091E800877F6E
:100DE0008093E8008091E80080FFFCCF80910B01A8
:100DF00036C08091C7018132D9F58091CB019091A5
:100E0000CC01892BA9F58091E800877F8093E800C9
:100E10000E9448098091C90180930B010C9425120E
:100E20008091C701813221F58091E800877F80930E
:100E3000E8000E9448098091CA0180933B0108950F
:100E40008091C701813AA1F48091E800877F809367
:100E5000E8008091E80080FFFCCF80913B01809307
:100E6000F1008091E8008E778093E8000C944809A7
:100E7000089584B7877F84BF88E10FB6F894809384
:100E80006000109260000FBE90E080E80FB6F8940A
:100E900080936100909361000FBE0E942E0D0E940E
:100EA0009B090E94020A8091E20084608093E20024
:100EB0008FE095E00E94E31878948091C601843019
:100EC000E1F78EEE91E00E9410020E94300D81E069
:100ED00091E00E94A50C0E94AE198FEF91E00E9454
:100EE00010020FC080E192E00E9410020E941119CE
:100EF0008091C401882329F00E94391981110E9430
:100F0000ED078091C601853069F30E945C0DF9CF31
:100F1000292F332723303105B1F04CF4213031052E
:100F200009F44DC02230310509F04EC007C021320E
:100F3000310541F12232310591F146C0E2E4F0E0A1
:100F400080E592E045C099278130910569F08230B3
:100F5000910589F0892B09F037C0ECE4F2E0E491C7
:100F6000F0E08CE492E034C0E0E3F2E0E491F0E001
:100F700080E392E02DC0E4E1F2E0E491F0E084E16E
:100F800092E026C0623000F5E62FF0E0EE0FFF1F82
:100F9000E25FFE4F80819181E9E0F0E019C06230AC
:100FA00098F4E62FF0E0DF01AA0FBB1FAE5EBE4F44
:100FB0008D919C91EA5EFE4FE081F0E009C0E2E194
:100FC000F0E082E992E004C0E0E0F0E080E090E050
:100FD000DA018D939C93CF01089584E189BD86E168
:100FE00089BD09B400FEFDCF8091D8008F7D80932C
:100FF000D8008091E00082608093E0008091E00062
:1010000081FDFCCF08958F929F92AF92BF92CF92B5
:10101000DF92EF92FF92CF935C016B017A010E9405
:101020006909C82F811137C0E114F10439F0F701C3
:1010300020813181C21AD30AA20EB31E812C912CB9
:1010400025C08091E80085FD16C08091E8008E776C
:101050008093E800E114F10449F0F7018081918167
:10106000880D991D91838083C5E015C00E94690990
:10107000882361F00FC0F50181915F018093F10039
:10108000F1E0CF1AD1088FEF881A980AC114D10461
:10109000C1F601C0C82F8C2FCF91FF90EF90DF9049
:1010A000CF90BF90AF909F908F9008952091CD01E9
:1010B0003091CE012617370748F06115710539F4D4
:1010C0002091E8002E772093E80001C0B901FC01CF
:1010D00020E02CC08091C6018823F1F18530F1F128
:1010E0008091E80083FD3CC08091E80082FD2EC025
:1010F0008091E80080FF1AC08091F2009091F30087
:1011000006C021912093F10061507109019661158B
:10111000710519F088309105A0F321E0089709F0D6
:1011200020E08091E8008E778093E80061157105DA
:1011300089F62111CFCF0AC08091C601882361F0C2
:10114000853061F08091E80083FD0AC08091E8005D
:1011500082FFF2CF80E0089582E0089583E0089551
:1011600081E008952091CD013091CE0126173707F7
:1011700048F06115710539F42091E8002E7720932D
:10118000E80001C0B901FC0120E02FC08091C60138
:10119000882309F440C0853009F43FC08091E800FD
:1011A00083FD3DC08091E80082FD2FC08091E80062
:1011B00080FF1BC08091F2009091F30007C0249142
:1011C0002093F10031966150710901966115710506
:1011D00019F08830910598F321E0089709F020E094
:1011E0008091E8008E778093E8006115710571F6B3
:1011F0002111CCCF0AC08091C601882361F08530CF
:1012000061F08091E80083FD0AC08091E80082FFD0
:10121000F2CF80E0089582E0089583E0089581E0B0
:101220000895982F2CC09093E900981739F0709189
:10123000EC002091ED005091F00003C0242F762F98
:1012400050E021FD02C09F5F1AC03091EB003E7F4D
:101250003093EB003091ED003D7F3093ED00309105
:10126000EB0031603093EB007093EC002093ED00C5
:101270005093F0002091EE0027FDE5CF07C0973096
:1012800090F28F708093E90081E0089580E00895E6
:101290008091C70187FD05C08091E80080FF0EC0E6
:1012A00012C08091E80082FD05C08091C6018111C5
:1012B000F8CF08958091E8008B7708C08091C6012F
:1012C0008111EACF08958091E8008E778093E8003D
:1012D00008958091E4009091E50045E62091EC00AE
:1012E00020FD1FC023C02091C601222391F025308C
:1012F00091F02091EB0025FD10C02091E400309189
:10130000E5002817390751F34150C90139F784E046
:10131000089582E0089583E0089581E0089580E0D3
:1013200008952091E80020FFDECFF9CF2091E8005A
:1013300022FFD9CFF4CF0E94110A0E94190AE0EED1
:10134000F0E0808181608083E8EDF0E080818F773C
:10135000808319BCA7EDB0E08C918E7F8C93808147
:101360008F7E80831092C5010895CF92DF92EF9215
:10137000FF920E94110A0E94190A88EDE82EF12CB2
:10138000F70180818F77808380818068808380816E
:101390008F7D8083E7EDF0E080818068808319BCD9
:1013A0001092C6011092C2011092C4011092C301A2
:1013B00090EEC92ED12CF60180818B7F8083F701BE
:1013C00080818160808342E060E080E00E941109BA
:1013D000E1EEF0E080818E7F8083E2EEF0E08081BC
:1013E00081608083808188608083F60180818E7F28
:1013F0008083F701808180618083FF90EF90DF9090
:10140000CF900895E8EDF0E080818F7E8083E7ED56
:10141000F0E080818160808381E08093C5010C943D
:10142000B509E8EDF0E080818C7F80831092E200C6
:1014300008951092DA001092E10008951F920F9221
:101440000FB60F9211240BB60F922F933F934F9329
:101450005F936F937F938F939F93AF93BF93EF931C
:10146000FF938091E10082FF0BC08091E20082FF38
:1014700007C08091E1008B7F8093E1000E943E06CF
:101480008091DA0080FF1FC08091D80080FF1BC0D0
:101490008091DA008E7F8093DA008091D90080FFFE
:1014A0000DC084E189BD86E189BD09B400FEFDCF90
:1014B00081E08093C6010E940F0605C019BC1092FE
:1014C000C6010E9421068091E10080FF19C0809131
:1014D000E20080FF15C08091E2008E7F8093E200E1
:1014E0008091E20080618093E2008091D800806268
:1014F0008093D80019BC85E08093C6010E942C0619
:101500008091E10084FF30C08091E20084FF2CC014
:1015100084E189BD86E189BD09B400FEFDCF8091DB
:10152000D8008F7D8093D8008091E1008F7E8093DA
:10153000E1008091E2008F7E8093E2008091E200E2
:1015400081608093E2008091C201882311F084E0E1
:1015500007C08091E30087FF02C083E001C081E003
:101560008093C6010E9432068091E10083FF29C06A
:101570008091E20083FF25C08091E100877F809306
:10158000E10082E08093C6011092C2018091E100E7
:101590008E7F8093E1008091E2008E7F8093E20055
:1015A0008091E20080618093E20042E060E080E0B0
:1015B0000E9411098091F00088608093F0000E94E1
:1015C0002806FF91EF91BF91AF919F918F917F91ED
:1015D0006F915F914F913F912F910F900BBE0F90A4
:1015E0000FBE0F901F9018951F920F920FB60F927B
:1015F00011240BB60F922F933F934F935F936F93EA
:101600007F938F939F93AF93BF93CF93EF93FF936A
:101610008091E9008F709091EC0090FF02C090E8FB
:1016200001C090E0C92FC82B1092E9008091F00012
:10163000877F8093F00078940E943C0B1092E90021
:101640008091F00088608093F000CF70C093E90033
:10165000FF91EF91CF91BF91AF919F918F917F912A
:101660006F915F914F913F912F910F900BBE0F9013
:101670000FBE0F901F9018951F93CF93DF93CDB798
:10168000DEB7AC970FB6F894DEBF0FBECDBFE7EC68
:10169000F1E08091F100819321E0EF3CF207C9F77E
:1016A0000E9488068091E80083FF37C18091C701BE
:1016B0009091C801953009F488C038F49130B1F1A7
:1016C00070F0933009F029C131C0983009F4F8C0A6
:1016D000993009F404C1963009F01FC19DC08038CB
:1016E00021F0823809F019C108C08091C30190919E
:1016F000C401992389F082600FC08091CB01909141
:10170000CC018F7099278093E9008091EB0085FBD5
:10171000882780F91092E9009091E800977F9093D4
:10172000E8008093F1001092F100D5C0882319F0F1
:10173000823009F0F2C08F7121F0823009F0EDC0E3
:101740000BC08091C901813009F0E7C0933009F0E6
:1017500080E08093C4012FC08091C90181112BC00A
:101760008091CB019091CC018F709927009709F45B
:10177000D4C08093E9002091EB0020FF1CC0209191
:10178000C801233021F48091EB00806212C0909157
:10179000EB0090619093EB0021E030E001C0220F5C
:1017A0008A95EAF72093EA001092EA008091EB0014
:1017B00088608093EB001092E9008091E800877FB9
:1017C0008093E8000E944809A8C08111A6C08091BA
:1017D000C9019091CA018F779927182F9091E30042
:1017E0009078982B9093E3008091E800877F809316
:1017F000E8000E9448098091E80080FFFCCF8091BA
:10180000E30080688093E300112311F083E001C0BE
:1018100082E08093C60181C08058823008F07DC08C
:101820008091C9019091CA018C3D23E0920779F51E
:1018300083E08A838AE289834FB7F894DE011396A6
:1018400020E03EE051E2E32FF0E050935700E491B6
:1018500020FF03C0E295EF703F5FEF708E2F90E0A6
:10186000EA3010F0C79601C0C0968D939D932F5F0C
:10187000243149F74FBF8091E800877F8093E800CB
:101880006AE270E0CE0101960E94560813C0AE01D4
:10189000455D5F4F6091CB010E9488070097E9F199
:1018A0002091E800277F2093E800BC018BA59CA530
:1018B0000E94B2088091E8008B778093E8002DC0E9
:1018C000803859F58091E800877F8093E800809107
:1018D000C2018093F1008091E8008E7771CF811171
:1018E0001CC09091C9019230C0F48091E800877FBC
:1018F0008093E8009093C2010E9448098091C20140
:10190000811104C08091E30087FF02C084E001C020
:1019100081E08093C6010E947E068091E80083FFEB
:101920000AC08091E800877F8093E8008091EB00F7
:1019300080628093EB00AC960FB6F894DEBF0FBECA
:10194000CDBFDF91CF911F9108959093490180936E
:1019500048010895E0914801F0914901309721F044
:101960000190F081E02D099480E00895CF92DF92FC
:10197000EF92FF92CF93D82EC92FE0914801F091BA
:1019800049013097C1F10280F381E02D09958091E2
:10199000BA0182FF30C080FF04C083E093E00E9460
:1019A0001002ED2CFC2EC8E085E1C82E83E0D82E75
:1019B0008091BA0180FF0CC0F70180811F928F9344
:1019C000DF92CF920E94A9020F900F900F900F907C
:1019D000C150FFEFEF1AFF0AC111EACF8091BA019F
:1019E00080FF09C08BE193E0CF91FF90EF90DF90F3
:1019F000CF900C941002CF91FF90EF90DF90CF909A
:101A0000089520914A0130914B018217930771F09C
:101A100090934B0180934A01E0914801F091490174
:101A2000309721F00680F781E02D099408952091E8
:101A30004C0130914D018217930771F090934D0145
:101A400080934C01E0914801F0914901309721F0D9
:101A50000084F185E02D0994089508950C942D0DCE
:101A60000E9450190C943503CF93C82F8091BA016E
:101A700082FF1EC080FF04C08DE193E00E9410022F
:101A80008091BA0180FF0CC01F92CF9320E333E016
:101A90003F932F930E94A9020F900F900F900F90E9
:101AA0008091BA0180FF04C085E393E00E94100298
:101AB0008C2FCF910C94F8042F923F924F925F920B
:101AC0006F927F928F929F92AF92BF92CF92DF924E
:101AD000EF92FF920F931F93CF93DF93CDB7DEB7B3
:101AE0002A970FB6F894DEBF0FBECDBF0E946103E8
:101AF0009EE4492E91E0592E2EE5A22E21E0B22E31
:101B0000E12CF12C22242394312C0E2D8E2D0E94B9
:101B1000A3046C01F201819091902F0188269926EF
:101B20008114910409F45AC08E2D0E94A3043C0133
:101B3000019786219721892B09F48FC010E010139B
:101B400004C01F5F1830D9F788C0812F0E94A304FA
:101B500086219721892BA9F388C0F5018081918185
:101B60008C159D0511F00E94AC04F501D182C08254
:101B700035C00E94AC0480E090E03101082E02C024
:101B8000660C771C0A94E2F7930128213921232B54
:101B900009F18E830F83C620D72081E0CD2809F478
:101BA00080E088870E9459198160782F9A878987F9
:101BB0004E815F8168858A850E94530EF701EE0F82
:101BC000FF1FE25BFE4F80819181862597259183DF
:101BD00080831FC001968031910579F6FFEFEF1ADF
:101BE000FF0A82E0A80EB11CE8E0EE16F10409F04D
:101BF0008CCF8FEF89838A831B820E945919816061
:101C0000782F9D838C8349815A816B818D810E94BD
:101C1000530E10916E010E94AA0C181759F10E94E0
:101C2000AA0C80936E012A960FB6F894DEBF0FBE01
:101C3000CDBFDF91CF911F910F91FF90EF90DF907B
:101C4000CF90BF90AF909F908F907F906F905F905C
:101C50004F903F902F900C94340DF501D182C082AB
:101C60008091BA0181FF87CF84CF8091BA0181FD35
:101C700074CF7BCF2A960FB6F894DEBF0FBECDBFD0
:101C8000DF91CF911F910F91FF90EF90DF90CF9058
:101C9000BF90AF909F908F907F906F905F904F908C
:101CA0003F902F900895CF93DF93CDB7DEB72B975A
:101CB0000FB6F894DEBF0FBECDBF4F83588769873C
:101CC0007A878B87DE01119686E0FD0111928A9555
:101CD000E9F785E0FE01379601900D928A95E1F7CC
:101CE00049815A816B817C818D819E810E94E7149C
:101CF0002B960FB6F894DEBF0FBECDBFDF91CF910C
:101D00000895882309F491C0982F9450913A18F4BB
:101D10000E946C170EC0982F905E983060F4282FA8
:101D2000277081E090E001C0880F2A95EAF70E94B1
:101D3000B2170C94EE17982F955A933070F4853A99
:101D400029F0863A31F482E890E005C081E890E01D
:101D500002C083E890E00C94010D982F985A9331BB
:101D600008F063C0883A39F1893A41F18A3A49F179
:101D70008B3A51F18C3A59F18D3A61F1803B69F11E
:101D80008E3A71F18F3A79F1813B81F1823B89F191
:101D9000833B91F1843B99F1853BA1F1863BA9F10D
:101DA000873BB1F1883BB9F1893BC1F18A3BC9F569
:101DB0008AE292E038C082EE90E035C089EE90E091
:101DC00032C08AEE90E02FC085EB90E02CC086EB0D
:101DD00090E029C087EB90E026C08CEC90E023C017
:101DE0008DEC90E020C083E891E01DC08AE891E08E
:101DF0001AC082E991E017C084E991E014C081E241
:101E000092E011C083E292E00EC084E292E00BC047
:101E100085E292E008C086E292E005C087E292E0A7
:101E200002C080E090E00C94170D0895882331F1F2
:101E3000982F9450913A18F40E948E170EC0982F44
:101E4000905E983060F4282F277081E090E001C008
:101E5000880F2A95EAF70E94B8170C94EE17982F6E
:101E6000955A933020F480E090E00C94010D885A4C
:101E7000833120F480E090E00C94170D08958823BE
:101E800021F00E94B2170C94EE170895882321F0D8
:101E90000E94B8170C94EE1708958F929F92AF92FC
:101EA000BF920F931F93CF93DF9300D000D000D049
:101EB000CDB7DEB75C0185E0F501DE01119601903A
:101EC0000D928A95E1F7F50130812181928015818B
:101ED00012951F7083819481892B39F02F3F41F433
:101EE00081E090E03F3F31F003C081E090E002C02C
:101EF00080E090E080FD94C239832A8389819A81B1
:101F00000E942717092F8E830E9426170E945016C1
:101F1000202F22952F7030E06E812830310509F492
:101F2000A2C044F422303105A4F0243031050CF075
:101F300077C23DC02C30310509F44AC22CF42A3056
:101F400031050CF46DC286C12F30310509F068C22D
:101F500054C2802F807F102F1F70882311F012959C
:101F6000107F992059F0112309F40DC2812F6E833F
:101F70000E94C5170E94EE176E8105C2862F0E942F
:101F8000160F112309F44CC2812F0E94CB172696FD
:101F90000FB6F894DEBF0FBECDBFDF91CF911F917A
:101FA0000F91BF90AF909F908F900C94EE17802F61
:101FB000807F0F70803211F00295007F662321F040
:101FC000613009F041C021C09920B1F0802F11117A
:101FD00001C026C0113021F526960FB6F894DEBF59
:101FE0000FBECDBFDF91CF911F910F91BF90AF90EA
:101FF0009F908F900C94D517111101C003C0113020
:1020000009F40EC20E94D8172CC09920C9F01630CE
:1020100008F006C20E94AF17802309F022C0802F6B
:1020200026960FB6F894DEBF0FBECDBFDF91CF91DD
:102030001F910F91BF90AF909F908F900C943F0F86
:10204000153008F0EDC10DC0992049F0112339F386
:10205000F501858180FF97C18F708583E0CF1111D5
:10206000A6C1802F13C1802F837009F076C0911014
:10207000D7C1262F229526952770220F220F862F53
:102080008F70882E912CA12CB12C022E04C0880CAC
:10209000991CAA1CBB1C0A94D2F764FF10C06FE005
:1020A00070E080E090E004C0660F771F881F991FE2
:1020B0002A95D2F7609570958095909503C060E061
:1020C00070E0CB01202F269526952370422F50E0FB
:1020D00042305105D1F04330510559F16829792931
:1020E0008A299B294130510541F126960FB6F89473
:1020F000DEBF0FBECDBFDF91CF911F910F91BF907B
:10210000AF909F908F900C946316682979298A2943
:102110009B2926960FB6F894DEBF0FBECDBFDF9188
:10212000CF911F910F91BF90AF909F908F900C9483
:1021300075160E946316C501B40126960FB6F89471
:10214000DEBF0FBECDBFDF91CF911F910F91BF902A
:10215000AF909F908F900C945116992019F0802F7A
:10216000817001C08695882309F45AC1262F2295D3
:1021700026952770220F220F862F8F70882E912C84
:10218000A12CB12C022E04C0880C991CAA1CBB1CCB
:102190000A94D2F764FF10C06FE070E080E090E036
:1021A00004C0660F771F881F991F2A95D2F7609584
:1021B00070958095909503C060E070E0CB01202F72
:1021C000269526952370422F50E042305105D1F0DC
:1021D0004330510559F1682979298A299B294130D1
:1021E000510541F126960FB6F894DEBF0FBECDBF64
:1021F000DF91CF911F910F91BF90AF909F908F90E3
:102200000C940217682979298A299B2926960FB6EA
:10221000F894DEBF0FBECDBFDF91CF911F910F911C
:10222000BF90AF909F908F900C9414170E9402174C
:10223000C501B40126960FB6F894DEBF0FBECDBF20
:10224000DF91CF911F910F91BF90AF909F908F9092
:102250000C94F016603F51F120F4603E08F48EC0FB
:1022600008C0623F09F463C0E0F1633F09F086C033
:1022700061C0162F1F70802F8F71992021F00E944E
:102280009B16812FCDCE0E94B616812F26960FB6B3
:10229000F894DEBF0FBECDBFDF91CF911F910F919C
:1022A000BF90AF909F908F900C94460F9920A9F00B
:1022B000153008F0B5C0802F8F7126960FB6F894B0
:1022C000DEBF0FBECDBFDF91CF911F910F91BF90A9
:1022D000AF909F908F900C94D516163008F0A0C048
:1022E000EACF992091F0802F8F7126960FB6F8943F
:1022F000DEBF0FBECDBFDF91CF911F910F91BF9079
:10230000AF909F908F900C949B16802F8F71269684
:102310000FB6F894DEBF0FBECDBFDF91CF911F91F6
:102320000F91BF90AF909F908F900C94B616911024
:10233000ECCFD9CF992091F0802F8F7126960FB6D0
:10234000F894DEBF0FBECDBFDF91CF911F910F91EB
:10235000BF90AF909F908F900C948C1626960FB6DE
:10236000F894DEBF0FBECDBFDF91CF911F910F91CB
:10237000BF90AF909F908F900C9487169920A1F0FA
:10238000112309F4B0CF862F26960FB6F894DEBF3E
:102390000FBECDBFDF91CF911F910F91BF90AF9036
:1023A0009F908F900C94810E112309F4AECF862F4D
:1023B00026960FB6F894DEBF0FBECDBFDF91CF914A
:1023C0001F910F91BF90AF909F908F900C94160F1C
:1023D000402F4F70C5010E94E01826960FB6F89462
:1023E000DEBF0FBECDBFDF91CF911F910F91BF9088
:1023F000AF909F908F900C949D15402F4F70C5010A
:1024000026960FB6F894DEBF0FBECDBFDF91CF91F9
:102410001F910F91BF90AF909F908F900C94B2023C
:1024200026960FB6F894DEBF0FBECDBFDF91CF91D9
:102430001F910F91BF90AF909F908F9008950E9431
:10244000D2170E94A1170C94EE170E94C2170C9489
:102450001F120E942717292F22952F7030E02C3051
:1024600031054CF42A3031056CF422503109223008
:10247000310590F407C02C30310551F02F30310573
:1024800059F406C0803E10F0803F31F481E0089599
:1024900093FB882780F9089580E00895CF93DF9318
:1024A00000D000D01F92CDB7DEB70F900F900F90E5
:1024B0000F900F90DF91CF910895CF93DF9300D0CD
:1024C00000D000D0CDB7DEB726960FB6F894DEBFA9
:1024D0000FBECDBFDF91CF910895EF92FF92CF93C2
:1024E0009091A501C6E015C0E92EF12CCE9DF0011A
:1024F000CF9DF00D1124EB58FE4F40815181628138
:102500007381848195810E945D12C7010196982F85
:1025100097708091A6019813E7CFCF91FF90EF902D
:10252000089540916F015091700160917101709117
:10253000720180917301909174010C945D120F935C
:102540001F93CF93DF938091740182958F7009F070
:1025500069C080917101882309F464C0A091A5012C
:10256000D091A601B0916F01C0917001809172016C
:102570009091730121E030E0BF3F11F020E030E0A6
:10258000122FBC016095709506E04AC0009721F0BB
:10259000CF3F29F4212F05C021E030E002C020E028
:1025A00030E020FD3BC04A2F50E0049FF001059F22
:1025B000F00D1124EB58FE4F2181C2132FC0208152
:1025C000B2132CC02281211129C023813481281704
:1025D000390718F0281B390B02C0260F371F283C7B
:1025E0003105E0F4809174018F70806180937401F3
:1025F00086E0849FF001859FF00D1124E658FE4F80
:1026000080818F70806180838FE691E00E944D0F02
:10261000DF91CF911F910F910C946D12AF5FA77056
:10262000AD13B4CFDF91CF911F910F910895CF9249
:10263000DF92EF92FF92CF93DF93CDB7DEB7629731
:102640000FB6F894DEBF0FBECDBF7C0185E0F70169
:10265000DE011D9601900D928A95E1F7D7014C910C
:1026600011965C91119712966C9112971396CD90DA
:10267000DC90149770916F01E0917001809172016C
:1026800090917301009739F0EF3F41F421E030E081
:102690007F3F31F003C021E030E002C020E030E0B5
:1026A00020FD5CC120917101222309F4F1C0C816FC
:1026B000D90628F09601281B390BC90104C0809562
:1026C00090958C0D9D1D883C910508F098C08091D7
:1026D0007401982F907F09F064C0E51314C074133F
:1026E00012C0611110C08F708061809374010E94CC
:1026F00091128FE691E00E944D0F80917401D701F5
:1027000015968C9343C1CD2839F05F3F41F481E0A9
:1027100090E04F3F31F003C081E090E002C080E0E4
:1027200090E080FD03C081E0862702C080E090E059
:1027300080FF2EC08091A5012091A60136E013C034
:1027400090E0389FF001399FF00D1124EB58FE4FB7
:102750007181571306C07081471303C072816713DC
:1027600017C0019687708213EBCF12C19F7059F08A
:10277000882309F40BC107C09F7029F0F7019581E8
:10278000907F09F403C1805E883008F4FFC0D2C096
:10279000662309F4FBC08091740181608093740109
:1027A000F5C0E51308C0741306C0611104C0D70159
:1027B00015968C939DC04D875E878D859E856A8B0F
:1027C0000E9429126A89882309F4B4C0662309F497
:1027D000B1C020917401822F82958F7090E0029792
:1027E0000CF4C6C080916F019091700198878F831F
:1027F0001986DB86CA862C87CE01079646C0809153
:102800007401982F907F59F47C2DD98AC88A8989C0
:102810000E944E128FE691E00E944D0F95C0E51385
:1028200011C074130FC061110DC0F7018583C7017A
:102830000E944D0FEFE6F1E086E0DF011D928A95E0
:10284000E9F7A2C04D875E878D859E856A8B0E94C1
:1028500029126A89882309F46DC0662309F46AC0C5
:1028600020917401822F82958F7090E002970CF472
:102870007FC080916F01909170019A8389831B8240
:10288000DD82CC822E83CE0101960E944D0F70C056
:10289000C816D90628F09601281B390BC90104C0B7
:1028A000809590958C0D9D1D883C910508F046C043
:1028B000662309F43FC0E51330C074132EC0209185
:1028C000740120FD21C0322F32953F70832F90E09C
:1028D0000097D1F0D70115962C9315970F9741F0DB
:1028E000832F8F5F8295807F2F70282B15962C93D6
:1028F000C7010E944D0F86E0F701AFE6B1E00190FD
:102900000D928A95E1F73EC086E0F701AFE6B1E0AF
:1029100001900D928A95E1F737C04D875E878D85CE
:102920009E850E942912811123C0809174018160CB
:1029300080937401C7010E944D0F26C07C2DD98A57
:10294000C88A89890E944E12EFE6F1E086E0DF0135
:102950001D928A95E9F70E94911218C0662351F3DF
:102960004D875E878D859E850E942912882311F3ED
:1029700086E0F701AFE6B1E001900D928A95E1F7AC
:102980000E949F120E94911281E014C080E012C048
:102990004D875E878D859E850E942717292F22955A
:1029A0002F7030E0223031050CF4E0CE24303105B8
:1029B0000CF6E2CE62960FB6F894DEBF0FBECDBF26
:1029C000DF91CF91FF90EF90DF90CF9008951F930C
:1029D000CF93DF93CDB7DEB72C970FB6F894DEBF59
:1029E0000FBECDBF4F83588769877A878B879C87B7
:1029F000CE0107960E9417138823D9F02F813885BE
:102A00008A859B85892B39F03F3F19F080E090E063
:102A100004C02F3FD9F781E090E0892B09F06DC009
:102A20004F81588569857A858B859C850E945D12CA
:102A300064C086E0FE013796DE01119601900D928A
:102A40008A95E1F7FF81E8854A855B854115510547
:102A500039F0EF3F41F481E090E0FF3F31F003C0F7
:102A600081E090E002C080E090E080FD46C02091CF
:102A7000A60130E0C9010196877099276091A501F0
:102A800070E08617970709F440C0F983EA835D83F5
:102A90004C8396E0929FD001939FB00D1124AB58C8
:102AA000BE4FFE01319601900D929A95E1F7809309
:102AB000A6010E946D1221C0189FC00111248B58DD
:102AC0009E4F0E941713882371F1E091A5011E9F6C
:102AD000F0011124EB58FE4F4081518162817381D6
:102AE000848195810E945D128091A50190E00196FC
:102AF000877099278093A50101C016E08091A501F8
:102B00009091A6018913D8CF0EC00E942512109271
:102B1000A6011092A501EFE6F1E086E0DF011D922B
:102B20008A95E9F7EACF2C960FB6F894DEBF0FBE70
:102B3000CDBFDF91CF911F910895CF92DF92EF9299
:102B4000FF92CF93DF939C01009709F48EC0D0E0F1
:102B5000C0E0CC24C394D12C79018FEFE81AF80A95
:102B6000F9018491853709F45BC060F4843708F07B
:102B700046C0843008F066C08130A9F0823009F088
:102B800074C026C0883709F45AC038F4863709F46F
:102B90004EC0873709F069C04EC0982F94589037BF
:102BA00008F063C052C0F701790182E0E80EF11C21
:102BB000E4918E2F805E883048F4E7708C2D01C040
:102BC000880FEA95EAF70E94C51714C08E2F3AC005
:102BD000F701790182E0E80EF11CE4918E2F805E0E
:102BE000883058F4E7708C2D01C0880FEA95EAF719
:102BF0000E94CB170E94EE172BC08E2F27C0F70123
:102C0000790182E0E80EF11C949107C0EFE9FFE042
:102C10003197F1F700C0000091509111F7CF18C023
:102C2000F701790182E0E80EF11CC49111C00E9405
:102C3000AF17D82F0DC08D2F0E94BF17DBCF0E947A
:102C4000C217D8CF0E94810E03C08F770E94160F43
:102C50009C2F07C09150EFE9FFE03197F1F700C0DA
:102C600000009111F7CF970177CFDF91CF91FF90BF
:102C7000EF90DF90CF9008956093AB017093AC011B
:102C80008093AD019093AE010C941F126093A70145
:102C90007093A8018093A9019093AA010C941F122C
:102CA00008950F931F930091AB011091AC012091F7
:102CB000AD013091AE01602B712B822B932B1F91B4
:102CC0000F910C943C160F931F930091AB01109140
:102CD000AC012091AD013091AE01602371238223BC
:102CE00093231F910F910C943C160F931F93009107
:102CF000AB011091AC012091AD013091AE01602784
:102D00007127822793271F910F910C943C1660E046
:102D100070E0CB010C94461641E050E060E070E0BA
:102D200004C0440F551F661F771F8A95D2F7CB0149
:102D3000BA010C94461641E050E060E070E004C037
:102D4000440F551F661F771F8A95D2F78091A70100
:102D50009091A801A091A901B091AA01482B592BEB
:102D60006A2B7B2BCB01BA010C94461641E050E054
:102D700060E070E004C0440F551F661F771F8A95FE
:102D8000D2F740955095609570958091A7019091EC
:102D9000A801A091A901B091AA01482359236A234F
:102DA0007B23CB01BA010C94461641E050E060E071
:102DB00070E004C0440F551F661F771F8A95D2F735
:102DC0008091A7019091A801A091A901B091AA01B9
:102DD000482759276A277B27CB01BA010C9446164E
:102DE0000F931F930091A7011091A8012091A901B1
:102DF0003091AA01602B712B822B932B1F910F9185
:102E00000C9446160F931F930091A7011091A801EF
:102E10002091A9013091AA01602371238223932379
:102E20001F910F910C9446160F931F930091A701C9
:102E30001091A8012091A9013091AA016027712762
:102E4000822793271F910F910C94461608958F9215
:102E50009F92AF92BF92CF92DF92EF92FF926C015E
:102E60008090AB019090AC01A090AD01B090AE010C
:102E70004091A7015091A8016091A9017091AA0108
:102E8000842A952AA62AB72A8FE1E82EF12CB501CB
:102E9000A4010E2C04C076956795579547950A9422
:102EA000D2F740FF08C0B6018E2D0E941418813061
:102EB000910509F008C081E0E81AF10840F7B60171
:102EC00080E00E941418FF90EF90DF90CF90BF90A9
:102ED000AF909F908F90089540910C0150910D01FB
:102EE00020E030E09FEFFA01E20FF31F62816817E4
:102EF000A1F09F3F19F4611101C0922F2F5F3F4F46
:102F00002630310581F707C0FA01E90FF11D97FD61
:102F1000FA95828308959F3FB9F7089540910C0177
:102F200050910D0120E030E0FA01E20FF31F928191
:102F3000981301C012822F5F3F4F26303105A1F751
:102F4000089581E090E0E0910C01F0910D01E80F0F
:102F5000F91F1082019688309105A9F70895809194
:102F6000AF0108959091AF01982B9093AF01089510
:102F700080959091AF0198239093AF01089580932D
:102F8000AF0108951092AF0108959091B001982B70
:102F90009093B001089580959091B00198239093FB
:102FA000B00108951092B00108958093B101089581
:102FB0001092B101089540910C0150910D0120E053
:102FC00030E080E0FA01E20FF31F918191118F5FF1
:102FD0002F5F3F4F27303105A9F70895E0910C018D
:102FE000F0910D018091AF018083E0910C01F0918F
:102FF0000D0180819091B001892B80839091B10166
:10300000992361F0E0910C01F0910D018081892BF1
:1030100080830E94DB1781110E94D81780910C01D8
:1030200090910D010C94B60C0E940603982F905CB1
:10303000903218F40E94180308958D3B50F4883A9A
:1030400018F5853AC0F4843098F4813009F06FC0E7
:103050000CC0883E30F4803E58F48F3B09F067C0C6
:1030600059C0803F08F463C051C021E030E0A6C0E1
:10307000282F30E0A3C0853A09F45CC0863A09F0F5
:103080005CC022E830E49AC0883A09F459C0893A11
:1030900009F459C08A3A09F459C08B3A09F459C065
:1030A0008C3A09F459C08B3B09F459C08C3B09F4A4
:1030B00059C08D3A09F459C0803B09F459C08E3A81
:1030C00009F459C08F3A09F459C0813B09F459C039
:1030D000823B09F459C0833B09F459C0843B09F48D
:1030E00059C0853B09F459C0863B09F459C0873B58
:1030F00009F459C0883B09F459C0893B09F459C007
:103100008A3B09F059C02AE236E458C0282F30E043
:10311000306554C00E9425122FEF80E792E02150C5
:1031200080409040E1F700C000000E948B1920E031
:1031300030E044C021E830E441C023E830E43EC040
:1031400022EE34E43BC029EE34E438C02AEE34E405
:1031500035C025EB34E432C026EB34E42FC023EB3A
:1031600034E42CC024EB34E429C027EB34E426C03B
:103170002CEC34E423C02DEC34E420C023E835E407
:103180001DC02AE835E41AC022E935E417C024E955
:1031900035E414C021E236E411C023E236E40EC067
:1031A00024E236E40BC025E236E408C026E236E429
:1031B00005C027E236E402C020E034E4C9010895E6
:1031C00080E090E00895909319018093180108958C
:1031D0008295982F9C7C96959695837344E0849F66
:1031E00090011124922B892F8A7A86959575990FD3
:1031F000892B08951F93CF93DF931F92CDB7DEB72E
:1032000099830E94E818182F9981892F0E94E81845
:10321000312F20E0282BC9010F90DF91CF911F9112
:1032200008958091C601843009F11092BB0120E419
:1032300088E190E00FB6F894A895809360000FBEE7
:103240002093600083B7817F846083BF83B78160F0
:1032500083BF7894889583B78E7F83BF88E10FB64C
:10326000F89480936000109260000FBE0895089556
:103270000895CF930E9437190E9461030E94381964
:10328000C0E08C2F0E94A304892B29F4CF5FC830A3
:10329000C1F780E001C081E0CF9108950C94251220
:1032A00082E084BD93E095BD9AEF97BD80936E0058
:1032B00008958FB7F8944091BC015091BD01609181
:1032C000BE017091BF018FBFCA0108951F920F9276
:1032D0000FB60F9211248F939F93AF93BF9380915A
:1032E000BC019091BD01A091BE01B091BF010196BA
:1032F000A11DB11D8093BC019093BD01A093BE019F
:10330000B093BF01BF91AF919F918F910F900FBE6E
:103310000F901F9018950E949B09F8942FEF87EA51
:1033200091E6215080409040E1F700C0000087E026
:1033300090EBDC018093CF019093D001A093D10159
:10334000B093D2012CE088E190E00FB6F894A895F4
:10335000809360000FBE20936000FFCFE1E8F0E0B3
:103360008081886080838081816080838FB7F894BA
:1033700093E09093890090ED909388008FBF08951B
:10338000EFE6F0E08081826080830895EFE6F0E070
:1033900080818D7F808308951F920F920FB60F92C8
:1033A00011240BB60F922F933F934F935F936F931C
:1033B0007F938F939F93AF93BF93EF93FF938091EE
:1033C000C0019091C10101969093C1018093C00109
:1033D000811103C082E00E94F804E091C101E695EA
:1033E000E695F0E0E95CFC4FE4918091C0018E131A
:1033F00003C080E00E94F804FF91EF91BF91AF916C
:103400009F918F917F916F915F914F913F912F91FC
:103410000F900BBE0F900FBE0F901F901895991B29
:1034200079E004C0991F961708F0961B881F7A95BB
:0A343000C9F780950895F894FFCFC6
:10343A00050B05DD050E05A805730501B20162023B
:08344A007B02C402A4023F2032
:00000001FF
