:100000000C9402020C9448020C9448020C9448028E
:100010000C9448020C9448020C9448020C94480238
:100020000C9448020C9448020C949B0A0C94710B9B
:100030000C9448020C9448020C9448020C94480218
:100040000C9448020C94491A0C9448020C944802EF
:100050000C9448020C94E3190C9448020C94480246
:100060000C9448020C9448020C9448020C944802E8
:100070000C9448020C9448020C9448020C944802D8
:100080000C9448020C9448020C9448020C944802C8
:100090000C9448020C94480239A200F001F002F0DE
:1000A0000000000000052C11000038514F0050E600
:1000B000E4E51D1B06192810363731000000480002
:1000C000000004160709310D0E0F33000000000078
:1000D0000000141A081531180C121300000000C19A
:1000E00000001E1F2021432425262744454E4D464F
:1000F000E000353A3B2242232E412D4C494B4A0029
:1001000000E12BC03C172A1C30402F0000000000EB
:10011000000029643D0A3E0B3F003400000052E21B
:100120000000000000010101010054010100010173
:100130000101010101015862856301000000010015
:1001400000000101010101595A5B55000000000047
:10015000000001010101015C5D5E0100000000C2C0
:10016000000001010101015F606101010101010164
:1001700001000101010101015701560101010100C6
:100180000001010101010101010101000000000065
:100190000000010101010101010001000000010155
:1001A0000000000000010101010001010100010146
:1001B0000101010101010101010101000000C30071
:1001C0000000010101010101010101000000000026
:1001D0000000010101010101010101000000000115
:1001E0000000010101010101010101010101010101
:1001F00001000101010101010101010101010100F1
:1002000000010101010101010101010000000000E4
:1002100000000101010101010100010000000101D4
:10022000500052006900626F756E6365213A2000CC
:1002300025303258000A000A722F632030313233E1
:100240003435363738394142434445460A00253073
:100250003258003A20002530313662000A005B43F4
:100260005D005B445D005B525D005B535D005B576E
:100270005D0055534220636F6E66696775726564F1
:100280002E0A004B6579626F61726420737461722B
:10029000742E0A005B735D0022034D006F00640042
:1002A00065006C005F004D005F00530053004B0081
:1002B0005F00560031002E00300000001A0350008D
:1002C00068006F007300700068006F0072004700E4
:1002D0006C006F007700000004030904090242006B
:1002E000020100A0320904000001030101000921FC
:1002F00011010001223F000705810308000A0904DB
:100300000100020300000009211101000122200068
:1003100007058203200001070502032000011201E6
:10032000100100000008EDFE606001000102000104
:100330000631FF0974A1010975150025FF95207587
:100340000881020976150025FF952075089102C0E5
:1003500005010906A101050719E029E71500250196
:10036000950875018102950175088101050819013B
:100370002905950575019102950175039101050700
:10038000190029FF150025FF950675088100C06B2F
:100390006579626F6172645F7265706F72743A2022
:1003A000002530325820000A006B6579626F617257
:1003B000645F7365745F6C65643A20002530325861
:1003C000000A000000000000000000000000010220
:1003D00004060A0F17202C3A4A5D71879DB3C7DACD
:1003E000E9F5FCFFFCF5E9DAC7B39D87715D4A3A90
:1003F0002C20170F0A060402010000000000000074
:100400000000000011241FBECFEFD0E2DEBFCDBF41
:1004100004B603FE24C08091D0019091D101A09137
:10042000D201B091D3018730904BA740B04BB9F4C3
:100430001092D0011092D1011092D2011092D301EA
:1004400014BE84B7877F84BF88E10FB6F894809389
:100450006000109260000FBEE0E0F0EF099511E03F
:10046000A0E0B1E0E4E3F5E300E00BBF02C00790D9
:100470000D92A831B107D9F711E0A8E1B1E001C0B0
:100480001D92A03DB107E1F70E94B6070C94981A9F
:100490000C940000FF93EF93E0911801F091190183
:1004A000309709F00995EF91FF910895FC0185912E
:1004B000803011F0EFDFFBCF0895FF27E0E230E25C
:1004C00047FF0CC0419597FF09C0EDE2609570951C
:1004D00080959095611D711D811D911D27FF02C0A2
:1004E000219530E350E2AA27660F771F881F991FD6
:1004F000AA1FA41710F0A41B63955A95A9F7AA3058
:1005000008F0A95FA05DAF93F395611571058105B2
:10051000910541F7ED3211F4EF93F395F21718F4CA
:100520003F93F395FBCF8F91B5DFFA95E1F70895EF
:10053000E991F9918591803021F0853219F0AADF97
:10054000F9CF089520E0E89455915532C1F3503326
:1005500011F4689455915A3348F4505390F3220F94
:10056000022E220F220F200D250FF4CF0EF421951D
:1005700089919991533619F3533729F1533559F12C
:10058000BC0188279927E8945C3621F489919991D8
:1005900068945591543639F446EF7EF077FF0DC0DC
:1005A0008FEF9FEF0AC055374AE039F0583540E1E8
:1005B00021F0523642E009F00895FF93EF937DDF7A
:1005C000EF91FF91B7CFFF93EF93FC0181918030C2
:1005D000B9F360DFFBCFFF93EF9368DFF1CFDF93D9
:1005E000CF93CDB7DEB72596A3DFCF91DF910895E6
:1005F000EF92FF92CF937C01C62FFC0192818091F4
:10060000BB01992329F080FF09C080E292E004C079
:1006100080FF04C082E292E00E945602F7018581C9
:1006200080FF08C08091BB0180FF04C084E292E09B
:100630000E945602C130D9F020F0C23009F06BC0E0
:100640003FC00E942C188272992780931A01F701EB
:100650003281332339F0811116C00E94351887E4A6
:1006600090E01DC0811157C087E490E04DC00E940A
:100670002C188272992780931A01F7013281332353
:10068000D1F0882341F081E00E94521784B198E0B4
:10069000892784B940C00E94351883E590E00E9404
:1006A000E9170E946B1880911A0190E0CF91FF909A
:1006B000EF900C942F1881112EC083E590E024C098
:1006C0000E942C188072992780931B01F7013281B8
:1006D0003323B1F0882349F00E9435180E946B182B
:1006E000CF91FF90EF900C94081A0E94351888E47F
:1006F00090E00E94E9170E946B1880911B01D5CFF2
:10070000811109C088E490E00E940B18CF91FF90FE
:10071000EF900C946B18CF91FF90EF900895E72F16
:10072000F0E098E0899FE00DF11D112484E0EE0FC8
:10073000FF1F8A95E1F7E60FF11DE056FF4F849108
:100740000895E82FF0E0EE0FFF1FE85EF0402591DE
:100750003491C901089584B18F7184B985B18F71C5
:1007600085B98DB18F7C8DB98EB18F7C8EB98AB1F0
:100770008C7E8AB98BB18C7E8BB9089585B78068E1
:1007800085BF85B7806885BF0E94AB0381B18F703C
:1007900081B982B1806F82B987B117B888B18FEF04
:1007A00088B98DB18C7F8DB98EB183608EB98AB1D5
:1007B0008F758AB98BB1806A8BB9ECE1F1E0ACE25C
:1007C000B1E0119211921D921D9281E0EC32F80776
:1007D000C1F70895AF92BF92CF92DF92EF92FF924E
:1007E0001F93CF93DF93ACE2CA2EA1E0DA2E7601FD
:1007F00010E0C1E0D5E01430A9F030F41230C1F0BF
:10080000A0F41130D9F417C0163031F040F0173091
:10081000A9F4549A5C9814C0519A599811C0509AEE
:1008200058980EC06D9A75980BC06C9A749808C051
:10083000279A2F9805C0269A2E9802C0259A2D989F
:1008400080EA8A95F1F780B182958F708C2780FBC2
:10085000AA24A0F8B12C059B03C020E030E002C020
:1008600022E030E02A293B29069B03C080E090E08B
:1008700002C084E090E0282B392B80B1992787FDB6
:100880009095809590958827990F881F992773E0F8
:10089000880F991F7A95E1F7282B392B86B1992774
:1008A00087FD9095809590958827990F881F9927A7
:1008B000F4E0880F991FFA95E1F7282B392B369B26
:1008C00003C080E090E002C080E290E0282B392B4A
:1008D000359B03C080E090E002C080E490E0282BCC
:1008E000392B349B03C060E070E002C060E870E028
:1008F000262B372B339B03C040E050E002C040E082
:1009000051E0242B352B329B03C080E090E002C0E5
:1009100080E092E0282B392B319B03C060E070E02F
:1009200002C060E074E0262B372B309B03C040E010
:1009300050E002C040E058E0242B352B619B03C0FF
:1009400080E090E002C080E090E1282B392B609B92
:1009500003C080E090E002C080E090E2282B392BB9
:1009600089B1992787FD9095809590958827990F53
:10097000881F992790E4899F902D88271124282B80
:10098000392B4D9B03C080E090E002C080E090E8EE
:10099000282B392BD7018D919C91119782179307A2
:1009A00051F12D933C9380910001882311F18091A6
:1009B000BB0180FF04C086E292E00E945602809153
:1009C000BB0180FF0EC0809100011F928F9380E3D6
:1009D00092E09F938F930E94EF020F900F900F90E1
:1009E0000F908091BB0180FF04C085E392E00E94DC
:1009F0005602D09300010E94AB031F5FB2E0EB0EE2
:100A0000F11C183009F0F7CE809100018823C9F05D
:100A1000815080930001882339F0EFE9FFE031979E
:100A2000F1F700C000000DC0ECE1F1E0D6018D91BE
:100A30009D916D0181939193BCE3CB16B1E0DB06F0
:100A4000A9F781E0DF91CF911F91FF90EF90DF90A8
:100A5000CF90BF90AF900895E82FF0E0EE0FFF1F0A
:100A6000E45EFE4F8081918108958F929F92AF92B4
:100A7000BF92CF92DF92EF92FF9287E392E00E94C3
:100A800056029CE1A92E91E0B92EE12CF12C2EE426
:100A9000822E22E0922E36E5C32E32E0D32EFF9234
:100AA000EF929F928F920E94EF0283E592E00E9464
:100AB0005602F501819191915F010E9477199F93F0
:100AC0008F93DF92CF920E94EF028CE592E00E941A
:100AD0005602FFEFEF1AFF0A8DB79EB708960FB6C2
:100AE000F8949EBF0FBE8DBF98E0E916F104B9F6E9
:100AF000FF90EF90DF90CF90BF90AF909F908F903E
:100B00000895249A81FF02C02C9808952C9A089584
:100B100080914501089508959FB7F8941092470178
:100B20009FBF9091C701943009F058C09091E9009F
:100B30009F702091EC0020FF02C020E801C020E05F
:100B4000292B92E09093E9009091EB0090FF43C035
:100B50009091EE0097FF3FC090914801992321F0BA
:100B60009091E80095FF37C01092480196E014C0BC
:100B70003091C701343079F53091EB0035FD2BC051
:100B8000915021F481E08093480125C0EFE9FFE016
:100B90003197F1F700C000003091E80035FFE8CF51
:100BA0008093F1008091E80085FD0AC08091E80003
:100BB00080FFFCCF8091E8008E778093E80006C02C
:100BC0008FB7F89491E0909347018FBF2F702093D7
:100BD000E90080E008952F702093E9008FEF0895D9
:100BE000CF93DF9300D01F92CDB7DEB72091C7011E
:100BF000243029F523E029839B838A8381E0809335
:100C0000E9008FEF06C095ED9A95F1F70000882373
:100C100029F09091E800815095FFF5CF8091E80090
:100C200085FF0DC040E050E063E070E0CE0101962A
:100C30000E9480088091E8008E778093E8000F90F2
:100C40000F900F90DF91CF910895CF93DF9300D055
:100C50001F92CDB7DEB72091C701243029F522E0DD
:100C600029839B838A8381E08093E9008FEF06C00C
:100C700095ED9A95F1F70000882329F09091E8000E
:100C8000815095FFF5CF8091E80085FF0DC040E0D1
:100C900050E063E070E0CE0101960E9480088091F0
:100CA000E8008E778093E8000F900F900F90DF910F
:100CB000CF910895EF92FF927C018091C70184301B
:100CC00041F581E08093E9008FEF06C095ED9A959C
:100CD000F1F70000882329F09091E800815095FFFA
:100CE000F5CF8091E80085FF14C040E050E068E057
:100CF00070E0C7010E9480088091E8008E778093A1
:100D0000E80088E0F701ADE3B1E001900D928A952B
:100D1000E1F7FF90EF9008958EE592E00E94560271
:100D20008091C601811109C00E94180A0E947F0AA1
:100D30008091E20084608093E200089582E692E070
:100D40000E9456021092C601089586E692E00C9425
:100D500056028AE692E00E9456020C943D1A8EE6F4
:100D600092E00E9456020E94CB190E94431A0E94F0
:100D7000270D0C948105809146018F5F8093460179
:100D800062E30E948C1A911135C010924601809145
:100D90004701882379F18091C701843049F580911A
:100DA000E9008F709091EC0090FF02C090E801C0C4
:100DB00090E0982B82E08093E9008091EB0080FF27
:100DC00014C08091EE0087FD03C00FC01092F100A7
:100DD0008091E80085FDFACF8091E80080FF05C092
:100DE0008091E8008E778093E8009F709093E900EF
:100DF00010924701089542E061EC81E00E948E0963
:100E000042E261EC82E00C948E098091C90183304A
:100E100009F454C030F4813071F0823009F0A5C07B
:100E20008CC08A3009F479C08B3009F45FC08930F6
:100E300009F09BC020C08091C801813A09F095C09B
:100E40008091E800877F8093E8008091CC019091A9
:100E5000CD01892B21F060E080E090E003C068E0E4
:100E60008DE391E070E00E94D3088091E8008B77D9
:100E70008093E80008958091C801813209F075C01F
:100E80008091CC019091CD01892B09F06EC08091A9
:100E9000E800877F8093E80005C08091C701882320
:100EA00009F463C08091E80082FFF7CF8091F100E0
:100EB000809345018091E8008B7753C08091C801F1
:100EC000813A09F052C08091CC019091CD01892BDB
:100ED00009F04BC08091E800877F8093E800809103
:100EE000E80080FFFCCF80910B0136C08091C801E3
:100EF0008132D9F58091CC019091CD01892BA9F552
:100F00008091E800877F8093E8000E94C509809166
:100F1000CA0180930B010C94A2128091C801813206
:100F200021F58091E800877F8093E8000E94C50941
:100F30008091CB0180933C0108958091C801813A52
:100F4000A1F48091E800877F8093E8008091E80019
:100F500080FFFCCF80913C018093F1008091E800FC
:100F60008E778093E8000C94C509089584B7877F35
:100F700084BF88E10FB6F8948093600010926000FF
:100F80000FBE90E080E80FB6F894809361009093D4
:100F900061000FBE0E94AB0D0E94180A0E947F0ADA
:100FA0008091E20084608093E2008CE895E00E94EA
:100FB000601978948091C7018430E1F782E792E06C
:100FC0000E9456020E94AD0D81E091E00E94220D28
:100FD0000E942B1A83E892E00E9456020FC084E917
:100FE00092E00E9456020E948E198091C5018823CA
:100FF00029F00E94B61981110E946A088091C701E8
:10100000853069F30E94D90DF9CF292F332723307A
:101010003105B1F04CF42130310509F44DC02230D6
:10102000310509F04EC007C02132310541F12232AD
:10103000310591F146C0E2E4F0E08CED92E045C06C
:1010400099278130910569F08230910589F0892BCB
:1010500009F037C0E8EDF2E0E491F0E088ED92E0CD
:1010600034C0ECEBF2E0E491F0E08CEB92E02DC0C8
:10107000E8E9F2E0E491F0E088E992E026C062302D
:1010800000F5E62FF0E0EE0FFF1FE25FFE4F8081DC
:101090009181E9E0F0E019C0623098F4E62FF0E0C9
:1010A000DF01AA0FBB1FAE5EBE4F8D919C91EA5E21
:1010B000FE4FE081F0E009C0E2E1F0E08EE193E074
:1010C00004C0E0E0F0E080E090E0DA018D939C93D2
:1010D000CF01089584E189BD86E189BD09B400FE90
:1010E000FDCF8091D8008F7D8093D8008091E00063
:1010F00082608093E0008091E00081FDFCCF089544
:101100008F929F92AF92BF92CF92DF92EF92FF9217
:10111000CF935C016B017A010E94E609C82F81110F
:1011200037C0E114F10439F0F70120813181C21A8E
:10113000D30AA20EB31E812C912C25C08091E80009
:1011400085FD16C08091E8008E778093E800E11459
:10115000F10449F0F70180819181880D991D9183F7
:101160008083C5E015C00E94E609882361F00FC0A6
:10117000F50181915F018093F100F1E0CF1AD10870
:101180008FEF881A980AC114D104C1F601C0C82F84
:101190008C2FCF91FF90EF90DF90CF90BF90AF90CA
:1011A0009F908F9008952091CE013091CF01261706
:1011B000370748F06115710539F42091E8002E7762
:1011C0002093E80001C0B901FC0120E02CC080910F
:1011D000C7018823F1F18530F1F18091E80083FDAA
:1011E0003CC08091E80082FD2EC08091E80080FF25
:1011F0001AC08091F2009091F30006C021912093D3
:10120000F1006150710901966115710519F088307E
:101210009105A0F321E0089709F020E08091E80013
:101220008E778093E8006115710589F62111CFCF83
:101230000AC08091C701882361F0853061F08091F8
:10124000E80083FD0AC08091E80082FFF2CF80E0D1
:10125000089582E0089583E0089581E00895209143
:10126000CE013091CF012617370748F0611571057F
:1012700039F42091E8002E772093E80001C0B901ED
:10128000FC0120E02FC08091C701882309F440C0F1
:10129000853009F43FC08091E80083FD3DC0809116
:1012A000E80082FD2FC08091E80080FF1BC0809184
:1012B000F2009091F30007C024912093F100319641
:1012C0006150710901966115710519F08830910519
:1012D00098F321E0089709F020E08091E8008E77EC
:1012E0008093E8006115710571F62111CCCF0AC019
:1012F0008091C701882361F0853061F08091E8001A
:1013000083FD0AC08091E80082FFF2CF80E008955B
:1013100082E0089583E0089581E00895982F2CC01D
:101320009093E900981739F07091EC002091ED004E
:101330005091F00003C0242F762F50E021FD02C011
:101340009F5F1AC03091EB003E7F3093EB003091ED
:10135000ED003D7F3093ED003091EB003160309334
:10136000EB007093EC002093ED005093F00020917F
:10137000EE0027FDE5CF07C0973090F28F70809385
:10138000E90081E0089580E008958091C80187FD1B
:1013900005C08091E80080FF0EC012C08091E80077
:1013A00082FD05C08091C7018111F8CF0895809119
:1013B000E8008B7708C08091C7018111EACF0895BA
:1013C0008091E8008E778093E80008958091E40092
:1013D0009091E50045E62091EC0020FD1FC023C060
:1013E0002091C701222391F0253091F02091EB004C
:1013F00025FD10C02091E4003091E5002817390741
:1014000051F34150C90139F784E0089582E008950D
:1014100083E0089581E0089580E008952091E80038
:1014200020FFDECFF9CF2091E80022FFD9CFF4CF03
:101430000E948E0A0E94960AE0EEF0E080818160B0
:101440008083E8EDF0E080818F77808319BCA7ED81
:10145000B0E08C918E7F8C9380818F7E8083109200
:10146000C6010895CF92DF92EF92FF920E948E0AFA
:101470000E94960A88EDE82EF12CF70180818F7783
:10148000808380818068808380818F7D8083E7ED89
:10149000F0E080818068808319BC1092C7011092AF
:1014A000C3011092C5011092C40190EEC92ED12C37
:1014B000F60180818B7F8083F7018081816080834A
:1014C00042E060E080E00E948E09E1EEF0E0808181
:1014D0008E7F8083E2EEF0E0808181608083808176
:1014E00088608083F60180818E7F8083F701808110
:1014F00080618083FF90EF90DF90CF900895E8EDBA
:10150000F0E080818F7E8083E7EDF0E08081816074
:10151000808381E08093C6010C94320AE8EDF0E00C
:1015200080818C7F80831092E20008951092DA000F
:101530001092E10008951F920F920FB60F9211249E
:101540000BB60F922F933F934F935F936F937F93BD
:101550008F939F93AF93BF93EF93FF938091E1009D
:1015600082FF0BC08091E20082FF07C08091E10002
:101570008B7F8093E1000E94BB068091DA0080FFA0
:101580001FC08091D80080FF1BC08091DA008E7F41
:101590008093DA008091D90080FF0DC084E189BD7D
:1015A00086E189BD09B400FEFDCF81E08093C701CB
:1015B0000E948C0605C019BC1092C7010E949E06AD
:1015C0008091E10080FF19C08091E20080FF15C08A
:1015D0008091E2008E7F8093E2008091E200806142
:1015E0008093E2008091D80080628093D80019BC7B
:1015F00085E08093C7010E94A9068091E10084FFE5
:1016000030C08091E20084FF2CC084E189BD86E176
:1016100089BD09B400FEFDCF8091D8008F7D8093F5
:10162000D8008091E1008F7E8093E1008091E200FC
:101630008F7E8093E2008091E20081608093E200DF
:101640008091C301882311F084E007C08091E300FA
:1016500087FF02C083E001C081E08093C7010E9440
:10166000AF068091E10083FF29C08091E20083FFF3
:1016700025C08091E100877F8093E10082E0809324
:10168000C7011092C3018091E1008E7F8093E10039
:101690008091E2008E7F8093E2008091E200806181
:1016A0008093E20042E060E080E00E948E09809139
:1016B000F00088608093F0000E94A506FF91EF91F2
:1016C000BF91AF919F918F917F916F915F914F915A
:1016D0003F912F910F900BBE0F900FBE0F901F9058
:1016E00018951F920F920FB60F9211240BB60F92FE
:1016F0002F933F934F935F936F937F938F939F931A
:10170000AF93BF93CF93EF93FF938091E9008F70D6
:101710009091EC0090FF02C090E801C090E0C92FCA
:10172000C82B1092E9008091F000877F8093F00031
:1017300078940E94B90B1092E9008091F0008860C3
:101740008093F000CF70C093E900FF91EF91CF91AB
:10175000BF91AF919F918F917F916F915F914F91C9
:101760003F912F910F900BBE0F900FBE0F901F90C7
:1017700018951F93CF93DF93CDB7DEB7AC970FB615
:10178000F894DEBF0FBECDBFE8ECF1E08091F10030
:10179000819321E0E03DF207C9F70E94050780919F
:1017A000E80083FF37C18091C8019091C90195304D
:1017B00009F488C038F49130B1F170F0933009F039
:1017C00029C131C0983009F4F8C0993009F404C136
:1017D000963009F01FC19DC0803821F0823809F091
:1017E00019C108C08091C4019091C501992389F065
:1017F00082600FC08091CC019091CD018F709927AC
:101800008093E9008091EB0085FB882780F9109296
:10181000E9009091E800977F9093E8008093F100B1
:101820001092F100D5C0882319F0823009F0F2C07F
:101830008F7121F0823009F0EDC00BC08091CA0198
:10184000813009F0E7C0933009F080E08093C50152
:101850002FC08091CA0181112BC08091CC01909141
:10186000CD018F709927009709F4D4C08093E900C7
:101870002091EB0020FF1CC02091C901233021F4EE
:101880008091EB00806212C09091EB009061909388
:10189000EB0021E030E001C0220F8A95EAF72093A7
:1018A000EA001092EA008091EB0088608093EB00E0
:1018B0001092E9008091E800877F8093E8000E9401
:1018C000C509A8C08111A6C08091CA019091CB0121
:1018D0008F779927182F9091E3009078982B909309
:1018E000E3008091E800877F8093E8000E94C509AB
:1018F0008091E80080FFFCCF8091E30080688093B6
:10190000E300112311F083E001C082E08093C7015E
:1019100081C08058823008F07DC08091CA019091CA
:10192000CB018C3D23E0920779F583E08A838AE23C
:1019300089834FB7F894DE01139620E03EE051E230
:10194000E32FF0E050935700E49120FF03C0E295AD
:10195000EF703F5FEF708E2F90E0EA3010F0C79687
:1019600001C0C0968D939D932F5F243149F74FBFDF
:101970008091E800877F8093E8006AE270E0CE0102
:1019800001960E94D30813C0AE01455D5F4F609180
:10199000CC010E9405080097E9F12091E800277F1B
:1019A0002093E800BC018BA59CA50E942F09809183
:1019B000E8008B778093E8002DC0803859F580913E
:1019C000E800877F8093E8008091C3018093F10055
:1019D0008091E8008E7771CF81111CC09091CA016F
:1019E0009230C0F48091E800877F8093E800909364
:1019F000C3010E94C5098091C301811104C0809177
:101A0000E30087FF02C084E001C081E08093C7014A
:101A10000E94FB068091E80083FF0AC08091E800E5
:101A2000877F8093E8008091EB0080628093EB00D9
:101A3000AC960FB6F894DEBF0FBECDBFDF91CF914D
:101A40001F91089590934A01809349010895E09170
:101A50004901F0914A01309721F00190F081E02D89
:101A6000099480E00895CF92DF92EF92FF92CF9396
:101A7000D82EC92FE0914901F0914A013097C1F168
:101A80000280F381E02D09958091BB0182FF30C077
:101A900080FF04C08FE893E00E945602ED2CFC2EDC
:101AA000C8E081EAC82E83E0D82E8091BB0180FF78
:101AB0000CC0F70180811F928F93DF92CF920E941A
:101AC000EF020F900F900F900F90C150FFEFEF1AA1
:101AD000FF0AC111EACF8091BB0180FF09C087EAEC
:101AE00093E0CF91FF90EF90DF90CF900C9456024F
:101AF000CF91FF90EF90DF90CF90089520914B0110
:101B000030914C018217930771F090934C018093B0
:101B10004B01E0914901F0914A01309721F0068094
:101B2000F781E02D0994089520914D0130914E01E7
:101B30008217930771F090934E0180934D01E091CD
:101B40004901F0914A01309721F00084F185E02DA0
:101B50000994089508950C94AA0D0E94CD190C942F
:101B6000BE03CF93C82F8091BB0182FF1EC080FFB0
:101B700004C089EA93E00E9456028091BB0180FF75
:101B80000CC01F92CF932CEB33E03F932F930E9416
:101B9000EF020F900F900F900F908091BB0180FF8C
:101BA00004C081EC93E00E9456028C2FCF910C94DC
:101BB00081052F923F924F925F926F927F928F9208
:101BC0009F92AF92BF92CF92DF92EF92FF920F93CC
:101BD0001F93CF93DF93CDB7DEB72A970FB6F89454
:101BE000DEBF0FBECDBF0E94EA039FE4492E91E005
:101BF000592E2FE5A22E21E0B22EE12CF12C222429
:101C00002394312C0E2D8E2D0E942C056C01F20197
:101C1000819091902F01882699268114910409F4CE
:101C20005AC08E2D0E942C053C01019786219721D8
:101C3000892B09F48FC010E0101304C01F5F183007
:101C4000D9F788C0812F0E942C0586219721892BE6
:101C5000A9F388C0F501808191818C159D0511F053
:101C60000E943505F501D182C08235C00E9435053C
:101C700080E090E03101082E02C0660C771C0A94C7
:101C8000E2F7930128213921232B09F18E830F8359
:101C9000C620D72081E0CD2809F480E088870E9403
:101CA000D6198160782F9A8789874E815F816885F0
:101CB0008A850E94D00EF701EE0FFF1FE15BFE4FF9
:101CC0008081918186259725918380831FC001960D
:101CD0008031910579F6FFEFEF1AFF0A82E0A80E36
:101CE000B11CE8E0EE16F10409F08CCF8FEF898388
:101CF0008A831B820E94D6198160782F9D838C83F2
:101D000049815A816B818D810E94D00E10916F01A3
:101D10000E94270D181759F10E94270D80936F011B
:101D20002A960FB6F894DEBF0FBECDBFDF91CF91DC
:101D30001F910F91FF90EF90DF90CF90BF90AF90E9
:101D40009F908F907F906F905F904F903F902F90DB
:101D50000C94B10DF501D182C0828091BB0181FF4D
:101D600087CF84CF8091BB0181FD74CF7BCF2A9632
:101D70000FB6F894DEBF0FBECDBFDF91CF911F919C
:101D80000F91FF90EF90DF90CF90BF90AF909F901A
:101D90008F907F906F905F904F903F902F9008951D
:101DA000CF93DF93CDB7DEB72B970FB6F894DEBF96
:101DB0000FBECDBF4F83588769877A878B87DE0137
:101DC000119686E0FD0111928A95E9F785E0FE0102
:101DD000379601900D928A95E1F749815A816B817E
:101DE0007C818D819E810E9464152B960FB6F8949C
:101DF000DEBF0FBECDBFDF91CF910895882309F4D8
:101E000091C0982F9450913A18F40E94E9170EC08F
:101E1000982F905E983060F4282F277081E090E032
:101E200001C0880F2A95EAF70E942F180C946B18AE
:101E3000982F955A933070F4853A29F0863A31F408
:101E400082E890E005C081E890E002C083E890E07D
:101E50000C947E0D982F985A933108F063C0883AFD
:101E600039F1893A41F18A3A49F18B3A51F18C3A88
:101E700059F18D3A61F1803B69F18E3A71F18F3AF7
:101E800079F1813B81F1823B89F1833B91F1843B84
:101E900099F1853BA1F1863BA9F1873BB1F1883BE4
:101EA000B9F1893BC1F18A3BC9F58AE292E038C0B9
:101EB00082EE90E035C089EE90E032C08AEE90E08C
:101EC0002FC085EB90E02CC086EB90E029C087EB1B
:101ED00090E026C08CEC90E023C08DEC90E020C018
:101EE00083E891E01DC08AE891E01AC082E991E0A0
:101EF00017C084E991E014C081E292E011C083E24E
:101F000092E00EC084E292E00BC085E292E008C04D
:101F100086E292E005C087E292E002C080E090E0B5
:101F20000C94940D0895882331F1982F9450913A90
:101F300018F40E940B180EC0982F905E983060F431
:101F4000282F277081E090E001C0880F2A95EAF7DA
:101F50000E9435180C946B18982F955A933020F4E2
:101F600080E090E00C947E0D885A833120F480E06C
:101F700090E00C94940D0895882321F00E942F186E
:101F80000C946B180895882321F00E9435180C9446
:101F90006B1808958F929F92AF92BF920F931F93E9
:101FA000CF93DF9300D000D000D0CDB7DEB75C0177
:101FB00085E0F501DE01119601900D928A95E1F719
:101FC000F501308121819280158112951F708381E6
:101FD0009481892B39F02F3F41F481E090E03F3F1D
:101FE00031F003C081E090E002C080E090E080FD2D
:101FF00094C239832A8389819A810E94A417092F68
:102000008E830E94A3170E94CD16202F22952F7039
:1020100030E06E812830310509F4A2C044F422304A
:102020003105A4F0243031050CF077C23DC02C30CE
:10203000310509F44AC22CF42A3031050CF46DC282
:1020400086C12F30310509F068C254C2802F807FCD
:10205000102F1F70882311F01295107F992059F0CE
:10206000112309F40DC2812F6E830E9442180E9431
:102070006B186E8105C2862F0E94930F112309F4FD
:102080004CC2812F0E94481826960FB6F894DEBFE6
:102090000FBECDBFDF91CF911F910F91BF90AF9039
:1020A0009F908F900C946B18802F807F0F708032E0
:1020B00011F00295007F662321F0613009F041C0E4
:1020C00021C09920B1F0802F111101C026C011301C
:1020D00021F526960FB6F894DEBF0FBECDBFDF9177
:1020E000CF911F910F91BF90AF909F908F900C94C4
:1020F0005218111101C003C0113009F40EC20E9420
:1021000055182CC09920C9F0163008F006C20E945C
:102110002C18802309F022C0802F26960FB6F89441
:10212000DEBF0FBECDBFDF91CF911F910F91BF904A
:10213000AF909F908F900C94BC0F153008F0EDC1BC
:102140000DC0992049F0112339F3F501858180FFF5
:1021500097C18F708583E0CF1111A6C1802F13C165
:10216000802F837009F076C09110D7C1262F229559
:1021700026952770220F220F862F8F70882E912C84
:10218000A12CB12C022E04C0880C991CAA1CBB1CCB
:102190000A94D2F764FF10C06FE070E080E090E036
:1021A00004C0660F771F881F991F2A95D2F7609584
:1021B00070958095909503C060E070E0CB01202F72
:1021C000269526952370422F50E042305105D1F0DC
:1021D0004330510559F1682979298A299B294130D1
:1021E000510541F126960FB6F894DEBF0FBECDBF64
:1021F000DF91CF911F910F91BF90AF909F908F90E3
:102200000C94E016682979298A299B2926960FB60D
:10221000F894DEBF0FBECDBFDF91CF911F910F911C
:10222000BF90AF909F908F900C94F2160E94E01692
:10223000C501B40126960FB6F894DEBF0FBECDBF20
:10224000DF91CF911F910F91BF90AF909F908F9092
:102250000C94CE16992019F0802F817001C08695BC
:10226000882309F45AC1262F229526952770220F1C
:10227000220F862F8F70882E912CA12CB12C022E2C
:1022800004C0880C991CAA1CBB1C0A94D2F764FFDA
:1022900010C06FE070E080E090E004C0660F771F30
:1022A000881F991F2A95D2F7609570958095909513
:1022B00003C060E070E0CB01202F269526952370A7
:1022C000422F50E042305105D1F04330510559F1D1
:1022D000682979298A299B294130510541F126969F
:1022E0000FB6F894DEBF0FBECDBFDF91CF911F9127
:1022F0000F91BF90AF909F908F900C947F1768299B
:1023000079298A299B2926960FB6F894DEBF0FBE3D
:10231000CDBFDF91CF911F910F91BF90AF909F9054
:102320008F900C9491170E947F17C501B4012696D7
:102330000FB6F894DEBF0FBECDBFDF91CF911F91D6
:102340000F91BF90AF909F908F900C946D17603F4E
:1023500051F120F4603E08F48EC008C0623F09F4D9
:1023600063C0E0F1633F09F086C061C0162F1F70A3
:10237000802F8F71992021F00E941817812FCDCEC8
:102380000E943317812F26960FB6F894DEBF0FBE3A
:10239000CDBFDF91CF911F910F91BF90AF909F90D4
:1023A0008F900C94C30F9920A9F0153008F0B5C098
:1023B000802F8F7126960FB6F894DEBF0FBECDBF6B
:1023C000DF91CF911F910F91BF90AF909F908F9011
:1023D0000C945217163008F0A0C0EACF992091F063
:1023E000802F8F7126960FB6F894DEBF0FBECDBF3B
:1023F000DF91CF911F910F91BF90AF909F908F90E1
:102400000C941817802F8F7126960FB6F894DEBFA4
:102410000FBECDBFDF91CF911F910F91BF90AF90B5
:102420009F908F900C9433179110ECCFD9CF9920B7
:1024300091F0802F8F7126960FB6F894DEBF0FBEF5
:10244000CDBFDF91CF911F910F91BF90AF909F9023
:102450008F900C94091726960FB6F894DEBF0FBE26
:10246000CDBFDF91CF911F910F91BF90AF909F9003
:102470008F900C9404179920A1F0112309F4B0CF88
:10248000862F26960FB6F894DEBF0FBECDBFDF9124
:10249000CF911F910F91BF90AF909F908F900C9410
:1024A000FE0E112309F4AECF862F26960FB6F894B0
:1024B000DEBF0FBECDBFDF91CF911F910F91BF90B7
:1024C000AF909F908F900C94930F402F4F70C50149
:1024D0000E945D1926960FB6F894DEBF0FBECDBFE1
:1024E000DF91CF911F910F91BF90AF909F908F90F0
:1024F0000C941A16402F4F70C50126960FB6F8940B
:10250000DEBF0FBECDBFDF91CF911F910F91BF9066
:10251000AF909F908F900C94F80226960FB6F89487
:10252000DEBF0FBECDBFDF91CF911F910F91BF9046
:10253000AF909F908F9008950E944F180E941E1890
:102540000C946B180E943F180C949C120E94A417C4
:10255000292F22952F7030E02C3031054CF42A3091
:1025600031056CF4225031092230310590F407C056
:102570002C30310551F02F30310559F406C0803E22
:1025800010F0803F31F481E0089593FB882780F9B3
:10259000089580E00895CF93DF9300D000D01F927C
:1025A000CDB7DEB70F900F900F900F900F90DF9187
:1025B000CF910895CF93DF9300D000D000D0CDB756
:1025C000DEB726960FB6F894DEBF0FBECDBFDF9103
:1025D000CF910895EF92FF92CF939091A601C6E01C
:1025E00015C0E92EF12CCE9DF001CF9DF00D1124E8
:1025F000EA58FE4F408151816281738184819581C7
:102600000E94DA12C7010196982F97708091A70156
:102610009813E7CFCF91FF90EF900895409170010C
:1026200050917101609172017091730180917401F8
:10263000909175010C94DA120F931F93CF93DF934F
:102640008091750182958F7009F069C08091720147
:10265000882309F464C0A091A601D091A701B0918C
:102660007001C0917101809173019091740121E01A
:1026700030E0BF3F11F020E030E0122FBC01609548
:10268000709506E04AC0009721F0CF3F29F4212F32
:1026900005C021E030E002C020E030E020FD3BC07A
:1026A0004A2F50E0049FF001059FF00D1124EA58D5
:1026B000FE4F2181C2132FC02081B2132CC0228172
:1026C000211129C0238134812817390718F0281BCC
:1026D000390B02C0260F371F283C3105E0F48091EA
:1026E00075018F7080618093750186E0849FF00191
:1026F000859FF00D1124E558FE4F80818F70806119
:10270000808380E791E00E94CA0FDF91CF911F91F3
:102710000F910C94EA12AF5FA770AD13B4CFDF91A5
:10272000CF911F910F910895CF92DF92EF92FF9278
:10273000CF93DF93CDB7DEB762970FB6F894DEBFC5
:102740000FBECDBF7C0185E0F701DE011D96019033
:102750000D928A95E1F7D7014C9111965C911197F2
:1027600012966C9112971396CD90DC9014977091FD
:102770007001E09171018091730190917401009753
:1027800039F0EF3F41F421E030E07F3F31F003C00A
:1027900021E030E002C020E030E020FD5CC120916B
:1027A0007201222309F4F1C0C816D90628F0960157
:1027B000281B390BC90104C0809590958C0D9D1D77
:1027C000883C910508F098C080917501982F907F02
:1027D00009F064C0E51314C0741312C0611110C075
:1027E0008F708061809375010E940E1380E791E0E5
:1027F0000E94CA0F80917501D70115968C9343C131
:10280000CD2839F05F3F41F481E090E04F3F31F057
:1028100003C081E090E002C080E090E080FD03C052
:1028200081E0862702C080E090E080FF2EC080918A
:10283000A6012091A70136E013C090E0389FF00177
:10284000399FF00D1124EA58FE4F7181571306C0CD
:102850007081471303C07281671317C00196877098
:102860008213EBCF12C19F7059F0882309F40BC17A
:1028700007C09F7029F0F7019581907F09F403C18B
:10288000805E883008F4FFC0D2C0662309F4FBC024
:1028900080917501816080937501F5C0E51308C0D2
:1028A000741306C0611104C0D70115968C939DC0A6
:1028B0004D875E878D859E856A8B0E94A6126A89E8
:1028C000882309F4B4C0662309F4B1C020917501CE
:1028D000822F82958F7090E002970CF4C6C0809191
:1028E00070019091710198878F831986DB86CA8663
:1028F0002C87CE01079646C080917501982F907F56
:1029000059F47C2DD98AC88A89890E94CB1280E724
:1029100091E00E94CA0F95C0E51311C074130FC057
:1029200061110DC0F7018583C7010E94CA0FE0E75E
:10293000F1E086E0DF011D928A95E9F7A2C04D879C
:102940005E878D859E856A8B0E94A6126A89882380
:1029500009F46DC0662309F46AC020917501822FC5
:1029600082958F7090E002970CF47FC08091700187
:10297000909171019A8389831B82DD82CC822E83A0
:10298000CE0101960E94CA0F70C0C816D90628F061
:102990009601281B390BC90104C0809590958C0DB8
:1029A0009D1D883C910508F046C0662309F43FC090
:1029B000E51330C074132EC02091750120FD21C095
:1029C000322F32953F70832F90E00097D1F0D701DE
:1029D00015962C9315970F9741F0832F8F5F829553
:1029E000807F2F70282B15962C93C7010E94CA0F49
:1029F00086E0F701A0E7B1E001900D928A95E1F73A
:102A00003EC086E0F701A0E7B1E001900D928A9503
:102A1000E1F737C04D875E878D859E850E94A6129F
:102A2000811123C080917501816080937501C70178
:102A30000E94CA0F26C07C2DD98AC88A89890E9423
:102A4000CB12E0E7F1E086E0DF011D928A95E9F71D
:102A50000E940E1318C0662351F34D875E878D8543
:102A60009E850E94A612882311F386E0F701A0E755
:102A7000B1E001900D928A95E1F70E941C130E942B
:102A80000E1381E014C080E012C04D875E878D85F3
:102A90009E850E94A417292F22952F7030E02230A6
:102AA00031050CF4E0CE243031050CF6E2CE62960E
:102AB0000FB6F894DEBF0FBECDBFDF91CF91FF9070
:102AC000EF90DF90CF9008951F93CF93DF93CDB712
:102AD000DEB72C970FB6F894DEBF0FBECDBF4F8385
:102AE000588769877A878B879C87CE0107960E94D3
:102AF00094138823D9F02F8138858A859B85892B6B
:102B000039F03F3F19F080E090E004C02F3FD9F743
:102B100081E090E0892B09F06DC04F81588569856F
:102B20007A858B859C850E94DA1264C086E0FE015E
:102B30003796DE01119601900D928A95E1F7FF819B
:102B4000E8854A855B854115510539F0EF3F41F431
:102B500081E090E0FF3F31F003C081E090E002C0EF
:102B600080E090E080FD46C02091A70130E0C901DF
:102B70000196877099276091A60170E086179707E4
:102B800009F440C0F983EA835D834C8396E0929F09
:102B9000D001939FB00D1124AA58BE4FFE0131966B
:102BA00001900D929A95E1F78093A7010E94EA1295
:102BB00021C0189FC00111248A589E4F0E9494136F
:102BC000882371F1E091A6011E9FF0011124EA58BB
:102BD000FE4F4081518162817381848195810E9481
:102BE000DA128091A60190E0019687709927809370
:102BF000A60101C016E08091A6019091A70189135A
:102C0000D8CF0EC00E94A2121092A7011092A60166
:102C1000E0E7F1E086E0DF011D928A95E9F7EACF6F
:102C20002C960FB6F894DEBF0FBECDBFDF91CF91CB
:102C30001F910895CF92DF92EF92FF92CF93DF938F
:102C40009C01009709F48EC0D0E0C0E0CC24C3946E
:102C5000D12C79018FEFE81AF80AF90184918537B0
:102C600009F45BC060F4843708F046C0843008F093
:102C700066C08130A9F0823009F074C026C0883760
:102C800009F45AC038F4863709F44EC0873709F082
:102C900069C04EC0982F9458903708F063C052C056
:102CA000F701790182E0E80EF11CE4918E2F805E3D
:102CB000883048F4E7708C2D01C0880FEA95EAF758
:102CC0000E94421814C08E2F3AC0F701790182E0A9
:102CD000E80EF11CE4918E2F805E883058F4E77086
:102CE0008C2D01C0880FEA95EAF70E9448180E94CF
:102CF0006B182BC08E2F27C0F701790182E0E80EF8
:102D0000F11C949107C0EFE9FFE03197F1F700C0A3
:102D1000000091509111F7CF18C0F701790182E0BE
:102D2000E80EF11CC49111C00E942C18D82F0DC0C0
:102D30008D2F0E943C18DBCF0E943F18D8CF0E94F5
:102D4000FE0E03C08F770E94930F9C2F07C09150F7
:102D5000EFE9FFE03197F1F700C000009111F7CFE4
:102D6000970177CFDF91CF91FF90EF90DF90CF90D9
:102D700008956093AC017093AD018093AE01909380
:102D8000AF010C949C126093A8017093A9018093E9
:102D9000AA019093AB010C949C1208950F931F937A
:102DA0000091AC011091AD012091AE013091AF01C5
:102DB000602B712B822B932B1F910F910C94B916C2
:102DC0000F931F930091AC011091AD012091AE01C2
:102DD0003091AF0160237123822393231F910F91C0
:102DE0000C94B9160F931F930091AC011091AD0193
:102DF0002091AE013091AF01602771278227932780
:102E00001F910F910C94B91660E070E0CB010C9407
:102E1000C31641E050E060E070E004C0440F551F6D
:102E2000661F771F8A95D2F7CB01BA010C94C3169F
:102E300041E050E060E070E004C0440F551F661FA1
:102E4000771F8A95D2F78091A8019091A901A0914E
:102E5000AA01B091AB01482B592B6A2B7B2BCB01DC
:102E6000BA010C94C31641E050E060E070E004C089
:102E7000440F551F661F771F8A95D2F740955095CE
:102E8000609570958091A8019091A901A091AA01E7
:102E9000B091AB01482359236A237B23CB01BA01AC
:102EA0000C94C31641E050E060E070E004C0440FB1
:102EB000551F661F771F8A95D2F78091A8019091C0
:102EC000A901A091AA01B091AB01482759276A270F
:102ED0007B27CB01BA010C94C3160F931F9300916B
:102EE000A8011091A9012091AA013091AB01602B9A
:102EF000712B822B932B1F910F910C94C3160F9360
:102F00001F930091A8011091A9012091AA0130916D
:102F1000AB0160237123822393231F910F910C94A3
:102F2000C3160F931F930091A8011091A90120913E
:102F3000AA013091AB0160277127822793271F9147
:102F40000F910C94C31608958F929F92AF92BF92E7
:102F5000CF92DF92EF92FF926C018090AC01909043
:102F6000AD01A090AE01B090AF014091A801509189
:102F7000A9016091AA017091AB01842A952AA62A21
:102F8000B72A8FE1E82EF12CB501A4010E2C04C064
:102F900076956795579547950A94D2F740FF08C0F4
:102FA000B6018E2D0E9491188130910509F008C05C
:102FB00081E0E81AF10840F7B60180E00E9491181C
:102FC000FF90EF90DF90CF90BF90AF909F908F9049
:102FD000089540910C0150910D0120E030E09FEFE9
:102FE000FA01E20FF31F62816817A1F09F3F19F405
:102FF000611101C0922F2F5F3F4F2630310581F7BD
:1030000007C0FA01E90FF11D97FDFA958283089533
:103010009F3FB9F7089540910C0150910D0120E0B8
:1030200030E0FA01E20FF31F9281981301C012827F
:103030002F5F3F4F26303105A1F7089581E090E0E2
:10304000E0910C01F0910D01E80FF91F108201963B
:1030500088309105A9F708958091B0010895909165
:10306000B001982B9093B001089580959091B00194
:1030700098239093B00108958093B0010895109221
:10308000B00108959091B101982B9093B1010895EA
:1030900080959091B10198239093B1010895109279
:1030A000B10108958093B20108951092B20108957C
:1030B00040910C0150910D0120E030E080E0FA01D8
:1030C000E20FF31F918191118F5F2F5F3F4F2730E8
:1030D0003105A9F70895E0910C01F0910D0180915F
:1030E000B0018083E0910C01F0910D0180819091FD
:1030F000B101892B80839091B201992361F0E09115
:103100000C01F0910D018081892B80830E94581859
:1031100081110E94551880910C0190910D010C9421
:10312000330D0E948F03982F905C903218F40E9408
:10313000A10308958D3B50F4883A18F5853AC0F400
:10314000843098F4813009F06FC00CC0883E30F4B0
:10315000803E58F48F3B09F067C059C0803F08F4A7
:1031600063C051C021E030E0A6C0282F30E0A3C0EA
:10317000853A09F45CC0863A09F05CC022E830E484
:103180009AC0883A09F459C0893A09F459C08A3A70
:1031900009F459C08B3A09F459C08C3A09F459C062
:1031A0008B3B09F459C08C3B09F459C08D3A09F4A2
:1031B00059C0803B09F459C08E3A09F459C08F3A7E
:1031C00009F459C0813B09F459C0823B09F459C044
:1031D000833B09F459C0843B09F459C0853B09F489
:1031E00059C0863B09F459C0873B09F459C0883B54
:1031F00009F459C0893B09F459C08A3B09F059C008
:103200002AE236E458C0282F30E0306554C00E94CE
:10321000A2122FEF80E792E0215080409040E1F72A
:1032200000C000000E94081A20E030E044C021E8FD
:1032300030E441C023E830E43EC022EE34E43BC039
:1032400029EE34E438C02AEE34E435C025EB34E40A
:1032500032C026EB34E42FC023EB34E42CC024EB43
:1032600034E429C027EB34E426C02CEC34E423C03A
:103270002DEC34E420C023E835E41DC02AE835E411
:103280001AC022E935E417C024E935E414C021E26C
:1032900036E411C023E236E40EC024E236E40BC06B
:1032A00025E236E408C026E236E405C027E236E42B
:1032B00002C020E034E4C901089580E090E0089560
:1032C000909319018093180108958295982F9C7C02
:1032D00096959695837344E0849F90011124922BD8
:1032E000892F8A7A86959575990F892B08951F9352
:1032F000CF93DF931F92CDB7DEB799830E946519F4
:10330000182F9981892F0E946519312F20E0282BD1
:10331000C9010F90DF91CF911F9108958091C7014E
:10332000843009F11092BC0120E488E190E00FB6EE
:10333000F894A895809360000FBE2093600083B737
:10334000817F846083BF83B7816083BF78948895D1
:1033500083B78E7F83BF88E10FB6F89480936000B7
:10336000109260000FBE089508950895CF930E94B3
:10337000B4190E94EA030E94B519C0E08C2F0E9484
:103380002C05892B29F4CF5FC830C1F780E001C03C
:1033900081E0CF9108950C94A21282E084BD93E065
:1033A00095BD9AEF97BD80936E0008958FB7F894FE
:1033B0004091BD015091BE016091BF017091C0016B
:1033C0008FBFCA0108951F920F920FB60F9211245A
:1033D0008F939F93AF93BF938091BD019091BE0156
:1033E000A091BF01B091C0010196A11DB11D8093B4
:1033F000BD019093BE01A093BF01B093C001BF91E6
:10340000AF919F918F910F900FBE0F901F901895C5
:103410000E94180AF8942FEF87EA91E62150804025
:103420009040E1F700C0000087E090EBDC01809362
:10343000D0019093D101A093D201B093D3012CE09D
:1034400088E190E00FB6F894A895809360000FBED5
:1034500020936000FFCFE1E8F0E080818860808306
:103460008081816080838FB7F89493E09093890086
:1034700090ED909388008FBF0895EFE6F0E0808193
:10348000826080830895EFE6F0E080818D7F808305
:1034900008951F920F920FB60F9211240BB60F9240
:1034A0002F933F934F935F936F937F938F939F934C
:1034B000AF93BF93EF93FF938091C1019091C201AD
:1034C00001969093C2018093C101811103C082E0F3
:1034D0000E948105E091C201E695E695F0E0ED538A
:1034E000FC4FE4918091C1018E1303C080E00E94E3
:1034F0008105FF91EF91BF91AF919F918F917F9146
:103500006F915F914F913F912F910F900BBE0F9054
:103510000FBE0F901F901895991B79E004C0991F5A
:10352000961708F0961B881F7A95C9F7809508951D
:04353000F894FFCF3D
:103534000588055A068B052506F00501B301EE0240
:083544000703500330033F2090
:00000001FF
