:100000000C94B3010C94F9010C94F9010C94F901CE
:100010000C94F9010C94F9010C94F9010C94F90178
:100020000C94F9010C94F9010C944D080C942309DB
:100030000C94F9010C94F9010C94F9010C94F90158
:100040000C94F9010C94F4170C94F9010C94F90137
:100050000C94F9010C94BF160C94F9010C94F9015D
:100060000C94F9010C94F9010C94F9010C94F90128
:100070000C94F9010C94F9010C94F9010C94F90118
:100080000C94F9010C94F9010C94F9010C94F90108
:100090000C94F9010C94F90102F000F001F0000059
:1000A000000000052C11000038514F0050E6E4E537
:1000B0001D1B06192810363731000000C000000053
:1000C00004160709310D0E0F330000000000000078
:1000D000141A081531180C121300000000C100009A
:1000E0001E1F2021432425262744454E4D46E0006F
:1000F000353A3B2242232E412D4C494B4A0000E128
:100100002B393C172A1C30402F0000000000000053
:1001100029643D0A3E0B3F003400000052E200001B
:100120000000000101010100540101000101010171
:100130000101010158628563010000000100000017
:100140000101010101595A5B550000000000000047
:1001500001010101015C5D5E0100000000C20000C0
:1001600001010101015F6061010101010101010063
:1001700001010101010157015601010101000001C6
:100180000101010101010101010000000000000066
:100190000101010101010100010000000101000055
:1001A0000000000101010100010101000101010144
:1001B0000101010101010101010000000100000035
:1001C0000101010101010101010000000000000026
:1001D0000101010101010101010000000001000015
:1001E0000101010101010101010101010101010000
:1001F00001010101010101010101010101000001F1
:1002000001010101010101010100000000000000E5
:1002100001010101010101000100000001012203AF
:100220004D006F00640065006C005F004D005F00D2
:10023000530053004B005F00560032002E00300088
:1002400000001A03500068006F007300700068001F
:100250006F00720047006C006F007700000004031D
:10026000090409023B00020100A032090400000158
:10027000030101000921110100012240000705814D
:100280000308000A0904010001030000000921110C
:100290000100012236000705820308000A1201103E
:1002A0000100000008EDFE60600100010200010590
:1002B000010980A101850216010026B7001A01007C
:1002C0002AB700751095018100C0050C0901A10134
:1002D0008503160100269C021A01002A9C02751053
:1002E00095018100C005010906A101050719E02952
:1002F000E7150025019508750181029501750881B2
:1003000001050819012905950575019102950175E9
:100310000391010507190029FF150026FF00950626
:1003200075088100C000000000000000000000000F
:10033000010204060A0F17202C3A4A5D71879DB30B
:10034000C7DAE9F5FCFFFCF5E9DAC7B39D87715D13
:100350004A3A2C20170F0A06040201000000000090
:1003600000000000000011241FBECFEFD0E2DEBF6E
:10037000CDBF04B603FE24C08091CB019091CC0187
:10038000A091CD01B091CE018730904BA740B04BEA
:10039000B9F41092CB011092CC011092CD011092C1
:1003A000CE0114BE84B7877F84BF88E10FB6F8946E
:1003B00080936000109260000FBEE0E0F0EF0995BE
:1003C00011E0A0E0B1E0E2E7F0E300E00BBF02C023
:1003D00007900D92A831B107D9F711E0A8E1B1E07B
:1003E00001C01D92AB3CB107E1F70E9473050C946C
:1003F00037180C940000CF92DF92EF92FF926C01BD
:100400006130D9F020F0623009F07BC040C00E941A
:10041000F1158272992780931801F60132813323F6
:1004200039F0811116C00E94FA1587E490E01DC0D2
:10043000811167C087E490E05CC00E94F115827270
:10044000992780931801F60132813323D9F088234C
:1004500041F081E00E94171587B192E0892787B9A2
:1004600050C00E94FA1583E590E00E94AE150E94EC
:1004700030168091180190E0FF90EF90DF90CF90C0
:100480000C94F41581113DC083E590E032C00E94C8
:10049000F11582FF07C00E94F11586FBEE24E0F8FB
:1004A000F12C02C0E12CF12CE0921901F6019281AD
:1004B0009923D9F0EE2069F0C7010E94FA150E9435
:1004C00030160E946310FF90EF90DF90CF900C9455
:1004D000E416C7010E94FA1588E490E00E94AE1568
:1004E0000E94301680911901C6CFE1100AC088E43D
:1004F00090E00E94D015FF90EF90DF90CF900C9489
:100500003016FF90EF90DF90CF900895E72FF0E046
:1005100098E0899FE00DF11D112484E0EE0FFF1F8C
:100520008A95E1F7E60FF11DE256FF4F8491089599
:10053000E82FF0E0EE0FFF1FE85EF04025913491C8
:10054000C901089581B18F7081B982B18F7082B96C
:1005500087B18F7087B988B18F7088B9089585B7D2
:10056000806885BF85B7806885BF0E94A20284B17C
:10057000807F84B985B18F6085B96B98739A80B399
:10058000817080BB81B38E6F81BB81B1807F81B967
:1005900082B18F6082B9EAE1F1E0AAE2B1E01192A2
:1005A00011921D921D9281E0EA32F807C1F7089579
:1005B000AF92BF92CF92DF92EF92FF92CF93DF93F1
:1005C0006AE2C62E61E0D62E7601C0E0D1E0C430EA
:1005D000A9F030F4C230C1F0A0F4C130D9F417C092
:1005E000C63031F040F0C730A9F40C9A149814C00A
:1005F0000D9A159811C00E9A16980EC00F9A17985A
:100600000BC03F9A479808C03E9A469805C03D9A4D
:10061000459802C03C9A449880EA8A95F1F783B1E4
:100620008695869586958D2780FBAA24A0F8B12C07
:100630001A9B03C020E030E002C022E030E0C90194
:100640008A299B29199B03C020E030E002C024E0E6
:1006500030E0282B392B189B03C080E090E002C0CB
:1006600088E090E0822B932B639B03C040E050E036
:1006700002C040E150E0482B592B799B03C020E099
:1006800030E002C020E230E0242B352B7A9B03C0FF
:1006900080E090E002C080E490E0282B392B7B9B27
:1006A00003C060E070E002C060E870E0262B372BEA
:1006B0007C9B03C040E050E002C040E051E0242BAE
:1006C000352B7D9B03C080E090E002C080E092E08B
:1006D000282B392B7E9B03C080E090E002C080E095
:1006E00094E0282B392B8FB1992787FD9095809521
:1006F00090958827990F881F9927982F8827990FF9
:10070000990F990F282B392B009B03C040E050E034
:1007100002C040E050E1242B352B019B03C040E098
:1007200050E002C040E050E2242B352B029B03C076
:1007300080E090E002C080E090E4282B392B039BFE
:1007400003C080E090E002C080E090E8282B392BC5
:10075000D7018D919C9111978217930729F02D93C2
:100760003C9385E0809300010E94A202CF5FB2E03B
:10077000EB0EF11CC83009F02ACF809100018823CC
:10078000C9F0815080930001882339F0EFE9FFE040
:100790003197F1F700C000000DC0EAE1F1E0D601A9
:1007A0008D919D916D0181939193BAE3CB16B1E048
:1007B000DB06A9F781E0DF91CF91FF90EF90DF900A
:1007C000CF90BF90AF900895E82FF0E0EE0FFF1F9D
:1007D000E65EFE4F8081918108950895699A81FFB8
:1007E00002C071980895719A089580914301089507
:1007F0000895CF93DF9300D01F92CDB7DEB720913D
:10080000C201243029F523E029839B838A8382E077
:100810008093E9008FEF06C095ED9A95F1F70000FF
:10082000882329F09091E800815095FFF5CF8091C1
:10083000E80085FF0DC040E050E063E070E0CE01CD
:1008400001960E9432068091E8008E778093E8003E
:100850000F900F900F90DF91CF910895CF93DF937A
:1008600000D01F92CDB7DEB72091C201243021F510
:1008700022E029839B838A832093E9008FEF06C0BF
:1008800095ED9A95F1F70000882329F09091E80002
:10089000815095FFF5CF8091E80085FF0DC040E0C5
:1008A00050E063E070E0CE0101960E943206809134
:1008B000E8008E778093E8000F900F900F90DF9103
:1008C000CF910895EF92FF927C018091C201843014
:1008D00041F581E08093E9008FEF06C095ED9A9590
:1008E000F1F70000882329F09091E800815095FFEE
:1008F000F5CF8091E80085FF14C040E050E068E04B
:1009000070E0C7010E9432068091E8008E778093E4
:10091000E80088E0F701ABE3B1E001900D928A9521
:10092000E1F7FF90EF9008958091C101811109C016
:100930000E94CA070E9431088091E200846080937F
:10094000E20008951092C1010895089542E061EC1B
:1009500081E00E94400742E061EC82E00C94400795
:100960008091C401833009F454C030F4813071F0B7
:10097000823009F0A5C08CC08A3009F479C08B3070
:1009800009F45FC0893009F09BC020C08091C30189
:10099000813A09F095C08091E800877F8093E80054
:1009A0008091C7019091C801892B21F060E080E01F
:1009B00090E003C068E08BE391E070E00E94850660
:1009C0008091E8008B778093E80008958091C301BF
:1009D000813209F075C08091C7019091C801892BBF
:1009E00009F06EC08091E800877F8093E80005C021
:1009F0008091C201882309F463C08091E80082FFDE
:100A0000F7CF8091F100809343018091E8008B77CC
:100A100053C08091C301813A09F052C08091C7014F
:100A20009091C801892B09F04BC08091E800877F25
:100A30008093E8008091E80080FFFCCF80910B015B
:100A400036C08091C3018132D9F58091C701909160
:100A5000C801892BA9F58091E800877F8093E80081
:100A60000E9477078091C50180930B010C9463105D
:100A70008091C301813221F58091E800877F8093C6
:100A8000E8000E9477078091C60180933A0108959B
:100A90008091C301813AA1F48091E800877F80931F
:100AA000E8008091E80080FFFCCF80913A018093BC
:100AB000F1008091E8008E778093E8000C9477072E
:100AC0000895089508950C94E8170C9463050E9406
:100AD0006A168091C001882329F00E949216811124
:100AE0000C941C06089584B7877F84BF88E10FB6F5
:100AF000F89480936000109260000FBE90E080E850
:100B00000FB6F89480936100909361000FBE0E942D
:100B100061050E941E0B0E94CA070E943108809145
:100B2000E20084608093E20078948091C201843076
:100B3000E1F70E94200B81E091E00E94D50A0E941B
:100B4000D6170E94620502C00E9467058091C2010B
:100B50008530D1F30E94240BF9CF0E94A7160E9482
:100B6000EE170E94DA0A0C94EE030C94AD05292FBF
:100B7000332723303105B1F04CF42130310509F42D
:100B80004DC02230310509F04EC007C02132310579
:100B900041F12232310591F146C0EBE3F0E082E60B
:100BA00092E045C099278130910569F08230910526
:100BB00089F0892B09F037C0EEE5F2E0E491F0E02E
:100BC0008EE592E034C0E2E4F2E0E491F0E082E409
:100BD00092E02DC0EEE1F2E0E491F0E08EE192E0EF
:100BE00026C0623000F5E62FF0E0EE0FFF1FE25F57
:100BF000FE4F80819181E9E0F0E019C0623098F405
:100C0000E62FF0E0DF01AA0FBB1FAE5EBE4F8D9155
:100C10009C91EA5EFE4FE081F0E009C0E2E1F0E085
:100C20008DE992E004C0E0E0F0E080E090E0DA01DD
:100C30008D939C93CF01089584E189BD86E189BDA0
:100C400009B400FEFDCF8091D8008F7D8093D8003D
:100C50008091E00082608093E0008091E00081FD5F
:100C6000FCCF08958F929F92AF92BF92CF92DF9266
:100C7000EF92FF92CF935C016B017A010E9498077B
:100C8000C82F811137C0E114F10439F0F701208138
:100C90003181C21AD30AA20EB31E812C912C25C019
:100CA0008091E80085FD16C08091E8008E778093E2
:100CB000E800E114F10449F0F70180819181880D89
:100CC000991D91838083C5E015C00E9498078823F1
:100CD00061F00FC0F50181915F018093F100F1E0B7
:100CE000CF1AD1088FEF881A980AC114D104C1F61F
:100CF00001C0C82F8C2FCF91FF90EF90DF90CF9045
:100D0000BF90AF909F908F9008952091C90130912E
:100D1000CA012617370748F06115710539F420918B
:100D2000E8002E772093E80001C0B901FC0120E023
:100D30002CC08091C2018823F1F18530F1F18091BE
:100D4000E80083FD3CC08091E80082FD2EC08091C8
:100D5000E80080FF1AC08091F2009091F30006C075
:100D600021912093F100615071090196611571057F
:100D700019F088309105A0F321E0089709F020E0F0
:100D80008091E8008E778093E8006115710589F6FF
:100D90002111CFCF0AC08091C201882361F0853034
:100DA00061F08091E80083FD0AC08091E80082FF35
:100DB000F2CF80E0089582E0089583E0089581E015
:100DC00008952091C9013091CA012617370748F0CC
:100DD0006115710539F42091E8002E772093E80021
:100DE00001C0B901FC0120E02FC08091C20188231D
:100DF00009F440C0853009F43FC08091E80083FDCC
:100E00003DC08091E80082FD2FC08091E80080FF06
:100E10001BC08091F2009091F30007C024912093B1
:100E2000F10031966150710901966115710519F053
:100E30008830910598F321E0089709F020E080912F
:100E4000E8008E778093E8006115710571F6211135
:100E5000CCCF0AC08091C201882361F0853061F057
:100E60008091E80083FD0AC08091E80082FFF2CF04
:100E700080E0089582E0089583E0089581E0089578
:100E8000982F2CC09093E900981739F07091EC00DE
:100E90002091ED005091F00003C0242F762F50E0F8
:100EA00021FD02C09F5F1AC03091EB003E7F30935E
:100EB000EB003091ED003D7F3093ED003091EB0081
:100EC00031603093EB007093EC002093ED00509371
:100ED000F0002091EE0027FDE5CF07C0973090F29B
:100EE0008F708093E90081E0089580E008958091FB
:100EF000C30187FD05C08091E80080FF0EC012C0CD
:100F00008091E80082FD05C08091C2018111F8CF77
:100F100008958091E8008B7708C08091C20181110B
:100F2000EACF08958091E8008E778093E8000895D5
:100F30008091E4009091E50045E62091EC0020FDD1
:100F40001FC023C02091C201222391F0253091F0CF
:100F50002091EB0025FD10C02091E4003091E500C8
:100F60002817390751F34150C90139F784E0089532
:100F700082E0089583E0089581E0089580E0089577
:100F80002091E80020FFDECFF9CF2091E80022FF7A
:100F9000D9CFF4CF0E9440080E944808E0EEF0E06C
:100FA000808181608083E8EDF0E080818F778083AD
:100FB00019BCA7EDB0E08C918E7F8C9380818F7EE1
:100FC00080831092C1010895CF92DF92EF92FF9239
:100FD0000E9440080E94480888EDE82EF12CF70195
:100FE00080818F77808380818068808380818F7DFE
:100FF0008083E7EDF0E080818068808319BC1092E7
:10100000C2011092BE011092C0011092BF0190EE79
:10101000C92ED12CF60180818B7F8083F7018081DE
:101020008160808342E060E080E00E944007E1EE62
:10103000F0E080818E7F8083E2EEF0E0808181604D
:101040008083808188608083F60180818E7F8083A9
:10105000F701808180618083FF90EF90DF90CF90D7
:101060000895E8EDF0E080818F7E8083E7EDF0E089
:1010700080818160808381E08093C1010C94E407CA
:10108000E8EDF0E080818C7F80831092E20008958B
:101090001092DA001092E10008951F920F920FB69D
:1010A0000F9211240BB60F922F933F934F935F93A0
:1010B0006F937F938F939F93AF93BF93EF93FF9320
:1010C0008091E10082FF0BC08091E20082FF07C0A7
:1010D0008091E1008B7F8093E1000E94D40A80918F
:1010E000DA0080FF1FC08091D80080FF1BC0809174
:1010F000DA008E7F8093DA008091D90080FF0DC0E6
:1011000084E189BD86E189BD09B400FEFDCF81E09F
:101110008093C2010E94940405C019BC1092C201C0
:101120000E94A2048091E10080FF19C08091E2003A
:1011300080FF15C08091E2008E7F8093E200809155
:10114000E20080618093E2008091D8008062809309
:10115000D80019BC85E08093C2010E94650580918A
:10116000E10084FF30C08091E20084FF2CC084E164
:1011700089BD86E189BD09B400FEFDCF8091D8000C
:101180008F7D8093D8008091E1008F7E8093E10075
:101190008091E2008F7E8093E2008091E200816086
:1011A0008093E2008091BE01882311F084E007C0A3
:1011B0008091E30087FF02C083E001C081E080935B
:1011C000C2010E94B5058091E10083FF29C0809192
:1011D000E20083FF25C08091E100877F8093E100DA
:1011E00082E08093C2011092BE018091E1008E7F67
:1011F0008093E1008091E2008E7F8093E2008091F5
:10120000E20080618093E20042E060E080E00E94C2
:1012100040078091F00088608093F0000E94A50450
:10122000FF91EF91BF91AF919F918F917F916F91BE
:101230005F914F913F912F910F900BBE0F900FBE7A
:101240000F901F9018951F920F920FB60F921124B6
:101250000BB60F922F933F934F935F936F937F93B0
:101260008F939F93AF93BF93CF93EF93FF9380910F
:10127000E9008F709091EC0090FF02C090E801C0EF
:1012800090E0C92FC82B1092E9008091F000877F71
:101290008093F00078940E946B091092E90080918D
:1012A000F00088608093F000CF70C093E900FF9158
:1012B000EF91CF91BF91AF919F918F917F916F915E
:1012C0005F914F913F912F910F900BBE0F900FBEEA
:1012D0000F901F9018951F93CF93DF93CDB7DEB774
:1012E000AC970FB6F894DEBF0FBECDBFE3ECF1E0D4
:1012F0008091F100819321E0EB3CF207C9F70E9455
:10130000B0048091E80083FF37C18091C3019091C0
:10131000C401953009F488C038F49130B1F170F00F
:10132000933009F029C131C0983009F4F8C09930E0
:1013300009F404C1963009F01FC19DC0803821F026
:10134000823809F019C108C08091BF019091C00195
:10135000992389F082600FC08091C7019091C801E4
:101360008F7099278093E9008091EB0085FB882797
:1013700080F91092E9009091E800977F9093E8003F
:101380008093F1001092F100D5C0882319F08230CB
:1013900009F0F2C08F7121F0823009F0EDC00BC06E
:1013A0008091C501813009F0E7C0933009F080E0F9
:1013B0008093C0012FC08091C50181112BC0809105
:1013C000C7019091C8018F709927009709F4D4C084
:1013D0008093E9002091EB0020FF1CC02091C40104
:1013E000233021F48091EB00806212C09091EB00D9
:1013F00090619093EB0021E030E001C0220F8A95CC
:10140000EAF72093EA001092EA008091EB008860EE
:101410008093EB001092E9008091E800877F809331
:10142000E8000E947707A8C08111A6C08091C5017D
:101430009091C6018F779927182F9091E3009078AB
:10144000982B9093E3008091E800877F8093E800D9
:101450000E9477078091E80080FFFCCF8091E30035
:1014600080688093E300112311F083E001C082E0E3
:101470008093C20181C08058823008F07DC0809185
:10148000C5019091C6018C3D23E0920779F583E078
:101490008A838AE289834FB7F894DE01139620E0AD
:1014A0003EE051E2E32FF0E050935700E49120FF3B
:1014B00003C0E295EF703F5FEF708E2F90E0EA304F
:1014C00010F0C79601C0C0968D939D932F5F243175
:1014D00049F74FBF8091E800877F8093E8006AE278
:1014E00070E0CE0101960E94850613C0AE01455DF5
:1014F0005F4F6091C7010E94B7050097E9F1209105
:10150000E800277F2093E800BC018BA59CA50E94E2
:10151000E1068091E8008B778093E8002DC0803849
:1015200059F58091E800877F8093E8008091BE01A3
:101530008093F1008091E8008E7771CF81111CC0FB
:101540009091C5019230C0F48091E800877F80932C
:10155000E8009093BE010E9477078091BE0181113F
:1015600004C08091E30087FF02C084E001C081E0F5
:101570008093C2010E94A6048091E80083FF0AC004
:101580008091E800877F8093E8008091EB00806283
:101590008093EB00AC960FB6F894DEBF0FBECDBFC4
:1015A000DF91CF911F910895089590934501809305
:1015B00044010895E0914401F0914501309721F0F4
:1015C0000190F081E02D099480E00895E0914401BC
:1015D000F0914501309721F00280F381E02D0994CC
:1015E000089520914601309147018217930771F0C9
:1015F0009093470180934601E0914401F0914501A9
:10160000309721F00680F781E02D0994089520910C
:101610004801309149018217930771F09093490175
:1016200080934801E0914401F0914501309721F009
:101630000084F185E02D0994089508950C941D0B04
:101640000E94A9160C94AF022F923F924F925F9284
:101650006F927F928F929F92AF92BF92CF92DF92C2
:10166000EF92FF920F931F93CF93DF9300D000D0A0
:101670001F92CDB7DEB70E94D8029AE4492E91E0BE
:10168000592E2AE5A22E21E0B22EE12CF12C2224A3
:101690002394312C0E2D8E2D0E94E4036C01F20157
:1016A000819091902F01882699268114910409F444
:1016B00061C08E2D0E94E4033C0101978621972191
:1016C000892B09F497C010E0101304C01F5F183075
:1016D000D9F790C0812F0E94E40386219721892B9E
:1016E000A9F390C0F501808191818C159D0511F0C1
:1016F0000E94ED03F501D182C0823CC00E94ED033F
:1017000080E090E03101082E02C0660C771C0A943C
:10171000E2F7930128213921232B41F189830A83A0
:10172000C620D72081E0CD2809F480E08B830E9479
:10173000B2168160782F9D838C8349815A816B8199
:101740008D810E94210C49815A816B817C818D8120
:101750000E945716F701EE0FFF1FE65BFE4F8081D8
:10176000918186259725918380831FC001968031C2
:10177000910541F6FFEFEF1AFF0A82E0A80EB11CB7
:10178000E8E0EE16F10409F085CF8FEF89838A83B4
:101790001B820E94B2168160782F9D838C834981C1
:1017A0005A816B818D810E94210C0E9456161091E6
:1017B0006A010E94DA0A181751F10E94DA0A80932E
:1017C0006A010F900F900F900F900F90DF91CF91C3
:1017D0001F910F91FF90EF90DF90CF90BF90AF904F
:1017E0009F908F907F906F905F904F903F902F9041
:1017F0000C946816F501D182C0828091B60181FFF8
:101800007FCF7CCF8091B60181FD6CCF73CF0F90DD
:101810000F900F900F900F90DF91CF911F910F912C
:10182000FF90EF90DF90CF90BF90AF909F908F9000
:101830007F906F905F904F903F902F9008950C9401
:10184000EE03CF93DF93CDB7DEB72B970FB6F894A7
:10185000DEBF0FBECDBF4F83588769877A878B87DE
:101860008A859B85892B39F05F3F41F481E090E0C8
:101870004F3F31F003C081E090E002C080E090E093
:1018800080FD07C04F81588569857A858B850E94C8
:101890005716DE01119686E0FD0111928A95E9F74F
:1018A00085E0FE01379601900D928A95E1F7498116
:1018B0005A816B817C818D819E810E9425132B969C
:1018C0000FB6F894DEBF0FBECDBFDF91CF91089564
:1018D000882309F49CC0982F9450913A18F40E94E0
:1018E000AE150EC0982F905E983060F4282F2770A8
:1018F00081E090E001C0880F2A95EAF70E94F41574
:101900000C943016982F955A933070F4853A29F03C
:10191000863A31F482E890E005C081E890E002C0A8
:1019200083E890E00C94F10A982F985A953108F0CA
:101930006EC0883A61F1893A69F18A3A71F18B3A5D
:1019400079F18C3A81F18D3A89F18E3A91F18F3AA1
:1019500099F1813BA1F1803BA9F1823BB1F1833B3D
:10196000B9F1843BC1F1853BC9F1863BD1F1873B9D
:10197000D9F1883BE1F1893BE9F18A3BF1F18B3BFD
:10198000F9F18C3B09F03FC08AE292E03EC082EE62
:1019900090E03BC089EE90E038C08AEE90E035C020
:1019A00085EB90E032C086EB90E02FC083EB90E0B7
:1019B0002CC084EB90E029C087EB90E026C08CEC33
:1019C00090E023C08DEC90E020C083E891E01DC042
:1019D0008AE891E01AC082E991E017C084E991E0B9
:1019E00014C081E292E011C083E292E00EC084E272
:1019F00092E00BC085E292E008C086E292E005C06A
:101A000087E292E002C080E090E00C94070B08951A
:101A1000882331F1982F9450913A18F40E94D015F0
:101A20000EC0982F905E983060F4282F277081E0C8
:101A300090E001C0880F2A95EAF70E94FA150C94ED
:101A40003016982F955A933020F480E090E00C9453
:101A5000F10A885A853120F480E090E00C94070B5D
:101A60000895882321F00E94F4150C9430160895EF
:101A7000882321F00E94FA150C94301608958F9255
:101A80009F92AF92BF920F931F93CF93DF93CDB7E7
:101A9000DEB727970FB6F894DEBF0FBECDBF5C014F
:101AA00085E0F501DE01119601900D928A95E1F72E
:101AB000F501308121810281158112951F7083818A
:101AC0009481892B39F02F3F41F481E090E03F3F32
:101AD00031F003C081E090E002C080E090E080FD42
:101AE000D5C239832A8389819A810E9469159E8390
:101AF0008F830E9468150E9492144E81242F229594
:101B00002F7030E06F812430310509F4A7C044F410
:101B1000842F807F942F9F7022303105B4F042C013
:101B20002C3031054CF42A3031050CF0CBC1283073
:101B3000310509F0ABC2CFC02C30310509F480C2A9
:101B40002F30310509F0A2C28FC2992E811101C038
:101B500003C0929490EF9922002359F0992009F440
:101B60004AC2892D6F830E9407160E9430166F812A
:101B700042C2862F0E94080D992009F487C2892D40
:101B80000E940D1627960FB6F894DEBF0FBECDBF8C
:101B9000DF91CF911F910F91BF90AF909F908F9049
:101BA0000C943016992E803209F403C0929480EF81
:101BB0009822662321F0613009F041C021C0002342
:101BC000B1F0892D111101C026C0113021F52796E1
:101BD0000FB6F894DEBF0FBECDBFDF91CF911F913E
:101BE0000F91BF90AF909F908F900C94171611118A
:101BF00001C003C0113009F449C20E941A162CC05A
:101C00000023C9F0163008F041C20E94F115892165
:101C100009F022C0892D27960FB6F894DEBF0FBEBB
:101C2000CDBFDF91CF911F910F91BF90AF909F904B
:101C30008F900C94310D153008F028C20DC0002390
:101C400049F0112339F3F501858180FFD4C18F70EC
:101C50008583E0CF1111E3C1892D50C1242F269532
:101C60002695237030E02115310529F0213031050A
:101C700009F00CC218C0002321F0862F942F937016
:101C800002C080E090E027960FB6F894DEBF0FBE4A
:101C9000CDBFDF91CF911F910F91BF90AF909F90DB
:101CA0008F900C94F10A002321F0862F942F9370CB
:101CB00002C080E090E027960FB6F894DEBF0FBE1A
:101CC000CDBFDF91CF911F910F91BF90AF909F90AB
:101CD0008F900C94070B842F837009F076C001114C
:101CE000D5C1262F229526952770220F220F862FE9
:101CF0008F70882E912CA12CB12C022E04C0880C40
:101D0000991CAA1CBB1C0A94D2F764FF10C06FE098
:101D100070E080E090E004C0660F771F881F991F75
:101D20002A95D2F7609570958095909503C060E0F4
:101D300070E0CB01242F269526952370422F50E08A
:101D400042305105D1F04330510559F168297929C4
:101D50008A299B294130510541F127960FB6F89405
:101D6000DEBF0FBECDBFDF91CF911F910F91BF900E
:101D7000AF909F908F900C94A514682979298A2997
:101D80009B2927960FB6F894DEBF0FBECDBFDF911B
:101D9000CF911F910F91BF90AF909F908F900C9417
:101DA000B7140E94A514C501B40127960FB6F89484
:101DB000DEBF0FBECDBFDF91CF911F910F91BF90BE
:101DC000AF909F908F900C949314002319F0842F60
:101DD000817001C08695882309F458C1262F229569
:101DE00026952770220F220F862F8F70882E912C18
:101DF000A12CB12C022E04C0880C991CAA1CBB1C5F
:101E00000A94D2F764FF10C06FE070E080E090E0C9
:101E100004C0660F771F881F991F2A95D2F7609517
:101E200070958095909503C060E070E0CB01242F01
:101E3000269526952370422F50E042305105D1F06F
:101E40004330510559F1682979298A299B29413064
:101E5000510541F127960FB6F894DEBF0FBECDBFF6
:101E6000DF91CF911F910F91BF90AF909F908F9076
:101E70000C944415682979298A299B2927960FB63D
:101E8000F894DEBF0FBECDBFDF91CF911F910F91B0
:101E9000BF90AF909F908F900C9456150E94441560
:101EA000C501B40127960FB6F894DEBF0FBECDBFB3
:101EB000DF91CF911F910F91BF90AF909F908F9026
:101EC0000C943215603F51F120F4603E08F48EC04E
:101ED00008C0623F09F463C0E0F1633F09F086C0C7
:101EE00061C0162F1F70842F8F71002321F00E9474
:101EF000DD14812F90CE0E94F814812F27960FB603
:101F0000F894DEBF0FBECDBFDF91CF911F910F912F
:101F1000BF90AF909F908F900C94380D0023A9F044
:101F2000153008F0B3C0842F8F7127960FB6F89440
:101F3000DEBF0FBECDBFDF91CF911F910F91BF903C
:101F4000AF909F908F900C941715163008F09EC09C
:101F5000EACF002391F0842F8F7127960FB6F89463
:101F6000DEBF0FBECDBFDF91CF911F910F91BF900C
:101F7000AF909F908F900C94DD14842F8F712796D3
:101F80000FB6F894DEBF0FBECDBFDF91CF911F918A
:101F90000F91BF90AF909F908F900C94F814011107
:101FA000ECCFD9CF002391F0842F8F7127960FB6F5
:101FB000F894DEBF0FBECDBFDF91CF911F910F917F
:101FC000BF90AF909F908F900C94CE1427960FB631
:101FD000F894DEBF0FBECDBFDF91CF911F910F915F
:101FE000BF90AF909F908F900C94C9140023A1F0E4
:101FF000112309F4B0CF862F27960FB6F894DEBFD1
:102000000FBECDBFDF91CF911F910F91BF90AF90C9
:102010009F908F900C94680C112309F4AECF862FFB
:1020200027960FB6F894DEBF0FBECDBFDF91CF91DC
:102030001F910F91BF90AF909F908F900C94080DBF
:102040004F70C5010E94D31727960FB6F894DEBFD4
:102050000FBECDBFDF91CF911F910F91BF90AF9079
:102060009F908F900C94DB134F70C50127960FB68D
:10207000F894DEBF0FBECDBFDF91CF911F910F91BE
:10208000BF90AF909F908F900C94FB0127960FB656
:10209000F894DEBF0FBECDBFDF91CF911F910F919E
:1020A000BF90AF909F908F9008950E9414160E9449
:1020B000E3150E94301680E090E00E94F10A80E073
:1020C00090E00C94070B0E9404160C9455100E948B
:1020D0006915292F22952F7030E02C3031054CF4F2
:1020E0002A3031056CF4225031092230310590F448
:1020F00007C02C30310551F02F30310559F406C09E
:10210000803E10F0803F31F481E0089593FB8827F2
:1021100080F9089580E00895CF93DF9300D000D038
:102120001F92CDB7DEB70F900F900F900F900F90CA
:10213000DF91CF910895CF93DF9300D000D000D0EE
:10214000CDB7DEB726960FB6F894DEBF0FBECDBF73
:10215000DF91CF910895EF92FF92CF939091A101DB
:10216000C6E015C0E92EF12CCE9DF001CF9DF00DFB
:102170001124EF58FE4F4081518162817381848127
:1021800095810E949B10C7010196982F97708091AE
:10219000A2019813E7CFCF91FF90EF90089540915F
:1021A0006B0150916C0160916D0170916E01809195
:1021B0006F01909170010C949B100F931F93CF931C
:1021C000DF938091700182958F7009F069C08091D2
:1021D0006D01882309F464C0A091A101D091A201EE
:1021E000B0916B01C0916C0180916E0190916F0173
:1021F00021E030E0BF3F11F020E030E0122FBC01C1
:102200006095709506E04AC0009721F0CF3F29F411
:10221000212F05C021E030E002C020E030E020FDA9
:102220003BC04A2F50E0049FF001059FF00D1124A0
:10223000EF58FE4F2181C2132FC02081B2132CC052
:102240002281211129C0238134812817390718F0F0
:10225000281B390B02C0260F371F283C3105E0F43C
:10226000809170018F7080618093700186E0849FFF
:10227000F001859FF00D1124EA58FE4F80818F7088
:10228000806180838BE691E00E943F0DDF91CF91CA
:102290001F910F910C94AB10AF5FA770AD13B4CF2B
:1022A000DF91CF911F910F910895CF92DF92EF921E
:1022B000FF92CF93DF93CDB7DEB762970FB6F89456
:1022C000DEBF0FBECDBF7C0185E0F701DE011D96AC
:1022D00001900D928A95E1F7D7014C9111965C918E
:1022E000119712966C9112971396CD90DC901497DB
:1022F00070916B01E0916C0180916E0190916F0182
:10230000009739F0EF3F41F421E030E07F3F31F0BA
:1023100003C021E030E002C020E030E020FD5CC1DD
:1023200020916D01222309F4F1C0C816D90628F0C6
:102330009601281B390BC90104C0809590958C0D1E
:102340009D1D883C910508F098C080917001982FE0
:10235000907F09F064C0E51314C0741312C06111BA
:1023600010C08F708061809370010E94CF108BE647
:1023700091E00E943F0D80917001D70115968C93DA
:1023800043C1CD2839F05F3F41F481E090E04F3FF9
:1023900031F003C081E090E002C080E090E080FD79
:1023A00003C081E0862702C080E090E080FF2EC05D
:1023B0008091A1012091A20136E013C090E0389FE6
:1023C000F001399FF00D1124EF58FE4F7181571322
:1023D00006C07081471303C07281671317C001964E
:1023E00087708213EBCF12C19F7059F0882309F4D4
:1023F0000BC107C09F7029F0F7019581907F09F408
:1024000003C1805E883008F4FFC0D2C0662309F49F
:10241000FBC080917001816080937001F5C0E5136D
:1024200008C0741306C0611104C0D70115968C93BF
:102430009DC04D875E878D859E856A8B0E94671043
:102440006A89882309F4B4C0662309F4B1C02091D5
:102450007001822F82958F7090E002970CF4C6C0B5
:1024600080916B0190916C0198878F831986DB8630
:10247000CA862C87CE01079646C080917001982F9E
:10248000907F59F47C2DD98AC88A89890E948C1042
:102490008BE691E00E943F0D95C0E51311C07413C7
:1024A0000FC061110DC0F7018583C7010E943F0D68
:1024B000EBE6F1E086E0DF011D928A95E9F7A2C024
:1024C0004D875E878D859E856A8B0E9467106A891D
:1024D000882309F46DC0662309F46AC02091700155
:1024E000822F82958F7090E002970CF47FC08091CC
:1024F0006B0190916C019A8389831B82DD82CC826F
:102500002E83CE0101960E943F0D70C0C816D906D9
:1025100028F09601281B390BC90104C080959095BD
:102520008C0D9D1D883C910508F046C0662309F47A
:102530003FC0E51330C074132EC02091700120FD00
:1025400021C0322F32953F70832F90E00097D1F059
:10255000D70115962C9315970F9741F0832F8F5F16
:102560008295807F2F70282B15962C93C7010E948F
:102570003F0D86E0F701ABE6B1E001900D928A9540
:10258000E1F73EC086E0F701ABE6B1E001900D92C5
:102590008A95E1F737C04D875E878D859E850E94BD
:1025A0006710811123C08091700181608093700158
:1025B000C7010E943F0D26C07C2DD98AC88A89890F
:1025C0000E948C10EBE6F1E086E0DF011D928A9517
:1025D000E9F70E94CF1018C0662351F34D875E873C
:1025E0008D859E850E946710882311F386E0F70190
:1025F000ABE6B1E001900D928A95E1F70E94DD1003
:102600000E94CF1081E014C080E012C04D875E8729
:102610008D859E850E946915292F22952F7030E0A7
:10262000223031050CF4E0CE243031050CF6E2CE38
:1026300062960FB6F894DEBF0FBECDBFDF91CF918B
:10264000FF90EF90DF90CF9008951F93CF93DF938B
:10265000CDB7DEB72C970FB6F894DEBF0FBECDBF57
:102660004F83588769877A878B879C87CE01079627
:102670000E9455118823D9F02F8138858A859B8542
:10268000892B39F03F3F19F080E090E004C02F3FE4
:10269000D9F781E090E0892B09F06DC04F81588512
:1026A00069857A858B859C850E949B1064C086E035
:1026B000FE013796DE01119601900D928A95E1F7A1
:1026C000FF81E8854A855B854115510539F0EF3F6B
:1026D00041F481E090E0FF3F31F003C081E090E001
:1026E00002C080E090E080FD46C02091A20130E071
:1026F000C9010196877099276091A10170E0861742
:10270000970709F440C0F983EA835D834C8396E020
:10271000929FD001939FB00D1124AF58BE4FFE0180
:10272000319601900D929A95E1F78093A2010E9453
:10273000AB1021C0189FC00111248F589E4F0E94DA
:102740005511882371F1E091A1011E9FF001112420
:10275000EF58FE4F40815181628173818481958160
:102760000E949B108091A10190E0019687709927AB
:102770008093A10101C016E08091A1019091A20176
:102780008913D8CF0EC00E9463101092A20110923C
:10279000A101EBE6F1E086E0DF011D928A95E9F701
:1027A000EACF2C960FB6F894DEBF0FBECDBFDF91F7
:1027B000CF911F910895CF92DF92EF92FF92CF9326
:1027C000DF939C01009709F48EC0D0E0C0E0CC24D8
:1027D000C394D12C79018FEFE81AF80AF90184919A
:1027E000853709F45BC060F4843708F046C0843054
:1027F00008F066C08130A9F0823009F074C026C0AC
:10280000883709F45AC038F4863709F44EC0873740
:1028100009F069C04EC0982F9458903708F063C0F3
:1028200052C0F701790182E0E80EF11CE4918E2F8D
:10283000805E883048F4E7708C2D01C0880FEA95DF
:10284000EAF70E94071614C08E2F3AC0F7017901EB
:1028500082E0E80EF11CE4918E2F805E883058F4FF
:10286000E7708C2D01C0880FEA95EAF70E940D16DB
:102870000E9430162BC08E2F27C0F701790182E00D
:10288000E80EF11C949107C0EFE9FFE03197F1F7F2
:1028900000C0000091509111F7CF18C0F7017901E5
:1028A00082E0E80EF11CC49111C00E94F115D82FEE
:1028B0000DC08D2F0E940116DBCF0E940416D8CFC9
:1028C0000E94680C03C08F770E94080D9C2F07C0E0
:1028D0009150EFE9FFE03197F1F700C0000091114E
:1028E000F7CF970177CFDF91CF91FF90EF90DF90F7
:1028F000CF9008956093A3017093A4018093A501E4
:102900009093A6010E9467160C9455106093A7013E
:102910007093A8018093A9019093AA010E94661662
:102920000C94551008950F931F930091A7011091D7
:10293000A8012091A9013091AA01602B712B822B53
:10294000932B1F910F910C9486140F931F9300915A
:10295000A7011091A8012091A9013091AA0160233B
:102960007123822393231F910F910C9486140F934C
:102970001F930091A7011091A8012091A901309106
:10298000AA0160277127822793271F910F910C942A
:10299000861460E070E0CB010C947A1441E050E0C2
:1029A00060E070E004C0440F551F661F771F8A95D2
:1029B000D2F7CB01BA010C947A1441E050E060E008
:1029C00070E004C0440F551F661F771F8A95D2F729
:1029D0008091A3019091A401A091A501B091A601BD
:1029E000482B592B6A2B7B2BCB01BA010C947A1400
:1029F00041E050E060E070E004C0440F551F661FE6
:102A0000771F8A95D2F74095509560957095809183
:102A1000A3019091A401A091A501B091A601482322
:102A200059236A237B23CB01BA010C947A1441E029
:102A300050E060E070E004C0440F551F661F771F30
:102A40008A95D2F78091A3019091A401A091A5014C
:102A5000B091A601482759276A277B27CB01BA01E5
:102A60000C947A140F931F930091A3011091A40169
:102A70002091A5013091A601602B712B822B932B05
:102A80001F910F910C947A140F931F930091A3013F
:102A90001091A4012091A5013091A601602371231A
:102AA000822393231F910F910C947A140F931F93F9
:102AB0000091A3011091A4012091A5013091A601DC
:102AC00060277127822793271F910F910C947A1406
:102AD00008958F929F92AF92BF92CF92DF92EF9222
:102AE000FF926C018090A7019090A801A090A9018D
:102AF000B090AA014091A3015091A4016091A50159
:102B00007091A601842A952AA62AB72A8FE1E82E79
:102B1000F12CB501A4010E2C04C07695679557954C
:102B200047950A94D2F740FF08C0B6018E2D0E9447
:102B300007178130910509F008C081E0E81AF10813
:102B400040F7B60180E00E940717FF90EF90DF90FA
:102B5000CF90BF90AF909F908F90089540910C01BF
:102B600050910D0120E030E09FEFFA01E20FF31FDA
:102B700062816817A1F09F3F19F4611101C0922F83
:102B80002F5F3F4F2630310581F707C0FA01E90F6B
:102B9000F11D97FDFA95828308959F3FB9F7089537
:102BA00040910C0150910D0120E030E0FA01E20F5C
:102BB000F31F9281981301C012822F5F3F4F26307E
:102BC0003105A1F7089581E090E0E0910C01F091CA
:102BD0000D01E80FF91F1082019688309105A9F7C1
:102BE00008958091AB0108959091AB01982B90933B
:102BF000AB01089580959091AB0198239093AB0120
:102C000008958093AB0108951092AB0108959091BF
:102C1000AC01982B9093AC01089580959091AC01F4
:102C200098239093AC0108951092AC01089580937D
:102C3000AD0108951092AD01089540910C0150919D
:102C40000D0120E030E080E0FA01E20FF31F9181F6
:102C500091118F5F2F5F3F4F27303105A9F70895FE
:102C6000E0910C01F0910D018091AB018083E09126
:102C70000C01F0910D0180819091AC01892B808332
:102C80009091AD01992361F0E0910C01F0910D015B
:102C90008081892B80830E941D1681110E941A1643
:102CA00080910C0190910D010C94E60A0895CF9348
:102CB000DF9300D000D01F92CDB7DEB70F900F90FA
:102CC0000F900F900F90DF91CF9108950895089580
:102CD0000C941F0C8091C201843009F11092B7014D
:102CE00020E488E190E00FB6F894A8958093600006
:102CF0000FBE2093600083B7817F846083BF83B75A
:102D0000816083BF7894889583B78E7F83BF88E185
:102D10000FB6F89480936000109260000FBE089583
:102D200008950895CF930E9490160E94D8020E94A1
:102D30009116C0E08C2F0E94E403892B29F4CF5F09
:102D4000C830C1F780E001C081E0CF9108950C94B4
:102D5000631082E084BD93E095BD9AEF97BD8093A8
:102D60006E0008958FB7F8944091B8015091B90161
:102D70006091BA017091BB018FBFCA0108951F9283
:102D80000F920FB60F9211248F939F93AF93BF931F
:102D90008091B8019091B901A091BA01B091BB01A5
:102DA0000196A11DB11D8093B8019093B901A09324
:102DB000BA01B093BB01BF91AF919F918F910F90DA
:102DC0000FBE0F901F9018950E94CA07F8942FEF1E
:102DD00087EA91E6215080409040E1F700C0000072
:102DE00087E090EBDC018093CB019093CC01A09322
:102DF000CD01B093CE012CE088E190E00FB6F894BD
:102E0000A895809360000FBE20936000FFCF0E94C2
:102E10008602982F905C903218F40E9498020895D0
:102E20008D3B50F4883A18F5853AC0F4843098F414
:102E3000813009F06FC00CC0883E30F4803E58F4F9
:102E40008F3B09F067C059C0803F08F463C051C090
:102E500021E030E0A6C0282F30E0A3C0853A09F475
:102E60005CC0863A09F05CC022E830E49AC0883A37
:102E700009F459C0893A09F459C08A3A09F459C089
:102E80008B3A09F459C08C3A09F459C08D3A09F4C7
:102E900059C08E3A09F459C08F3A09F459C0813BA0
:102EA00009F459C0803B09F459C0823B09F459C068
:102EB000833B09F459C0843B09F459C0853B09F4AC
:102EC00059C0863B09F459C0873B09F459C0883B77
:102ED00009F459C0893B09F459C08A3B09F459C027
:102EE0008B3B09F459C08C3B09F059C02AE236E407
:102EF00058C0282F30E0306554C00E9463102FEF77
:102F000080E792E0215080409040E1F700C000004F
:102F10000E94E41620E030E044C021E830E441C0E3
:102F200023E830E43EC022EE34E43BC029EE34E432
:102F300038C02AEE34E435C025EB34E432C026EB49
:102F400034E42FC023EB34E42CC024EB34E429C058
:102F500027EB34E426C02CEC34E423C02DEC34E41D
:102F600020C023E835E41DC02AE835E41AC022E970
:102F700035E417C024E935E414C021E236E411C079
:102F800023E236E40EC024E236E40BC025E236E448
:102F900008C026E236E405C027E236E402C020E09D
:102FA00034E4C901089580E090E00895E1E8F0E09C
:102FB0008081886080838081816080838FB7F8946E
:102FC00093E09093890090ED909388008FBF0895CF
:102FD000EFE6F0E08081826080830895EFE6F0E024
:102FE00080818D7F808308951F920F920FB60F927C
:102FF00011240BB60F922F933F934F935F936F93D0
:103000007F938F939F93AF93BF93EF93FF938091A1
:10301000BC019091BD0101969093BD018093BC01CC
:10302000811103C082E00E94EE03E091BD01E695AC
:10303000E695F0E0EB5DFC4FE4918091BC018E13CE
:1030400003C080E00E94EE03FF91EF91BF91AF912A
:103050009F918F917F916F915F914F913F912F91B0
:103060000F900BBE0F900FBE0F901F901895F89405
:02307000FFCF90
:1030720005F5036204F8032E04F90301AE0174029C
:083082008D02E502AF024036A9
:00000001FF
