:100000000C948C010C94D2010C94D2010C94D2016A
:100010000C94D2010C94D2010C94D2010C94D20114
:100020000C94D2010C94D2010C9408080C94DE08B4
:100030000C94D2010C94D2010C94D2010C94D201F4
:100040000C94D2010C9423170C94D2010C94D2017D
:100050000C94D2010C94BD160C94D2010C94D201D4
:100060000C94D2010C94D2010C94D2010C94D201C4
:100070000C94D2010C94D2010C94D2010C94D201B4
:100080000C94D2010C94D2010C94D2010C94D201A4
:100090000C94D2010C94D20139A200F001F002F0CC
:1000A0000000000000052C11000038514F0050E600
:1000B000E4E51D1B06192810363731000000480002
:1000C000000004160709310D0E0F33000000000078
:1000D0000000141A081531180C121300000000C19A
:1000E00000001E1F2021432425262744454E4D464F
:1000F000E000353A3B2242232E412D4C494B4A0029
:1001000000E12BC03C172A1C30402F0000000000EB
:10011000000029643D0A3E0B3F003400000052E21B
:100120000000000000010101010054010100010173
:100130000101010101015862856301000000010015
:1001400000000101010101595A5B55000000000047
:10015000000001010101015C5D5E0100000000C2C0
:10016000000001010101015F606101010101010164
:1001700001000101010101015701560101010100C6
:100180000001010101010101010101000000000065
:100190000000010101010101010001000000010155
:1001A0000000000000010101010001010100010146
:1001B0000101010101010101010101000000C30071
:1001C0000000010101010101010101000000000026
:1001D0000000010101010101010101000000000115
:1001E0000000010101010101010101010101010101
:1001F00001000101010101010101010101010100F1
:1002000000010101010101010101010000000000E4
:1002100000000101010101010100010000000101D4
:1002200022034D006F00640065006C005F004D000C
:100230005F00530053004B005F00560031002E005A
:10024000300000001A03500068006F007300700057
:1002500068006F00720047006C006F0077000000BC
:100260000403090409022200010100A0320904006C
:10027000000103010100092111010001223F0007D3
:1002800005810308000A1201100100000008EDFEBC
:10029000606001000102000105010906A1010507D6
:1002A00019E029E7150025019508750181029501DE
:1002B0007508810105081901290595057501910247
:1002C0009501750391010507190029FF150025FF08
:1002D000950675088100C0000000000000000000C5
:1002E0000000010204060A0F17202C3A4A5D7187AC
:1002F0009DB3C7DAE9F5FCFFFCF5E9DAC7B39D87E2
:10030000715D4A3A2C20170F0A0604020100000012
:10031000000000000000000011241FBECFEFD0E25B
:10032000DEBFCDBF04B603FE24C08091C101909111
:10033000C201A091C301B091C4018730904BA74086
:10034000B04BB9F41092C1011092C2011092C301D6
:100350001092C40114BE84B7877F84BF88E10FB6B2
:10036000F89480936000109260000FBEE0E0F0EF20
:10037000099511E0A0E0B1E0E0EDFEE200E00BBF86
:1003800002C007900D92AE30B107D9F711E0AEE090
:10039000B1E001C01D92A13CB107E1F70E94420506
:1003A0000C9466170C940000EF92FF927C01613070
:1003B000D9F020F0623009F068C03EC00E943415C8
:1003C0008272992780930E01F7013281332339F02D
:1003D000811116C00E943D1587E490E01DC0811177
:1003E00054C087E490E04BC00E9434158272992774
:1003F00080930E01F70132813323C9F0882341F045
:1004000081E00E945A1484B198E0892784B93DC0E4
:100410000E943D1583E590E00E94F1140E9473153F
:1004200080910E0190E0FF90EF900C9437158111B0
:100430002CC083E590E023C00E9434158072992778
:1004400080930F01F70132813323A9F0882341F013
:100450000E943D150E947315FF90EF900C94E216D8
:100460000E943D1588E490E00E94F1140E947315EB
:1004700080910F01D7CF811108C088E490E00E94DD
:100480001315FF90EF900C947315FF90EF90089563
:10049000E72FF0E098E0899FE00DF11D112484E042
:1004A000EE0FFF1F8A95E1F7E60FF11DE056FF4FB3
:1004B00084910895E82FF0E0EE0FFF1FE85EF04012
:1004C00025913491C901089584B18F7184B985B1A2
:1004D0008F7185B98DB18F7C8DB98EB18F7C8EB9BE
:1004E0008AB18C7E8AB98BB18C7E8BB9089585B721
:1004F000806885BF85B7806885BF0E94640281B12E
:100500008F7081B982B1806F82B987B117B888B115
:100510008FEF88B98DB18C7F8DB98EB183608EB924
:100520008AB18F758AB98BB1806A8BB9E0E1F1E04D
:10053000A0E2B1E0119211921D921D9281E0E03291
:10054000F807C1F70895AF92BF92CF92DF92EF9272
:10055000FF921F93CF93DF93A0E2CA2EA1E0DA2E81
:100560007601C0E0D1E015E0C430A9F030F4C2302B
:10057000C1F0A0F4C130D9F417C0C63031F040F05A
:10058000C730A9F4549A5C9814C0519A599811C074
:10059000509A58980EC06D9A75980BC06C9A7498C2
:1005A00008C0279A2F9805C0269A2E9802C0259A2F
:1005B0002D9880EA8A95F1F780B182958F708D270A
:1005C00080FBAA24A0F8B12C059B03C020E030E0FA
:1005D00002C022E030E02A293B29069B03C080E0CC
:1005E00090E002C084E090E0282B392B80B199275D
:1005F00087FD9095809590958827990F881F99275A
:1006000073E0880F991F7A95E1F7282B392B86B173
:10061000992787FD9095809590958827990F881F39
:100620009927F4E0880F991FFA95E1F7282B392BC9
:10063000369B03C080E090E002C080E290E0282B6F
:10064000392B359B03C080E090E002C080E490E04D
:10065000282B392B349B03C060E070E002C060E8B7
:1006600070E0262B372B339B03C040E050E002C0E4
:1006700040E051E0242B352B329B03C080E090E01A
:1006800002C080E092E0282B392B319B03C060E050
:1006900070E002C060E074E0262B372B309B03C073
:1006A00040E050E002C040E058E0242B352B619B35
:1006B00003C080E090E002C080E090E1282B392B5D
:1006C000609B03C080E090E002C080E090E2282BB5
:1006D000392B89B1992787FD90958095909588272A
:1006E000990F881F992790E4899F902D88271124BE
:1006F000282B392B4D9B03C080E090E002C080E0A6
:1007000090E8282B392BD7018D919C911197821756
:10071000930721F02D933C93109300010E946402F3
:10072000CF5FB2E0EB0EF11CC83009F01DCF809115
:1007300000018823C9F0815080930001882339F09B
:10074000EFE9FFE03197F1F700C000000DC0E0E1F4
:10075000F1E0D6018D919D916D0181939193B0E36C
:10076000CB16B1E0DB06A9F781E0DF91CF911F91B5
:10077000FF90EF90DF90CF90BF90AF900895E82F5B
:10078000F0E0EE0FFF1FE05FFE4F80819181089542
:100790000895249A81FF02C02C9808952C9A0895F8
:1007A0008091390108950895CF93DF9300D01F926F
:1007B000CDB7DEB72091B801243029F523E0298395
:1007C0009B838A8381E08093E9008FEF06C095EDDB
:1007D0009A95F1F70000882329F09091E800815064
:1007E00095FFF5CF8091E80085FF0DC040E050E017
:1007F00063E070E0CE0101960E94ED058091E80073
:100800008E778093E8000F900F900F90DF91CF913B
:100810000895CF93DF9300D01F92CDB7DEB720911C
:10082000B801243029F522E029839B838A8381E063
:100830008093E9008FEF06C095ED9A95F1F70000DF
:10084000882329F09091E800815095FFF5CF8091A1
:10085000E80085FF0DC040E050E063E070E0CE01AD
:1008600001960E94ED058091E8008E778093E80064
:100870000F900F900F90DF91CF910895EF92FF921C
:100880007C018091B801843041F581E08093E900DA
:100890008FEF06C095ED9A95F1F70000882329F0B7
:1008A0009091E800815095FFF5CF8091E80085FF99
:1008B00014C040E050E068E070E0C7010E94ED0520
:1008C0008091E8008E778093E80088E0F701A1E34B
:1008D000B1E001900D928A95E1F7FF90EF900895B5
:1008E0008091B701811109C00E9485070E94EC0721
:1008F0008091E20084608093E20008951092B70135
:10090000089508950C9417170E94A5160E941D17AC
:100910000E94950A0C94C90342E061EC81E00C94BA
:10092000FB068091BA01833009F454C030F4813061
:1009300071F0823009F0A5C08CC08A3009F479C00A
:100940008B3009F45FC0893009F09BC020C08091D2
:10095000B901813A09F095C08091E800877F8093C2
:10096000E8008091BD019091BE01892B21F060E0EB
:1009700080E090E003C068E081E391E070E00E94D5
:1009800040068091E8008B778093E800089580917D
:10099000B901813209F075C08091BD019091BE010D
:1009A000892B09F06EC08091E800877F8093E80072
:1009B00005C08091B801882309F463C08091E800E4
:1009C00082FFF7CF8091F100809339018091E80098
:1009D0008B7753C08091B901813A09F052C0809160
:1009E000BD019091BE01892B09F04BC08091E800B8
:1009F000877F8093E8008091E80080FFFCCF8091A2
:100A00000B0136C08091B9018132D9F58091BD01C9
:100A10009091BE01892BA9F58091E800877F809392
:100A2000E8000E9432078091BB0180930B010C9477
:100A3000AA0F8091B901813221F58091E800877F6A
:100A40008093E8000E9432078091BC0180933001BE
:100A500008958091B901813AA1F48091E800877FDF
:100A60008093E8008091E80080FFFCCF8091300106
:100A70008093F1008091E8008E778093E8000C94D9
:100A80003207089584B7877F84BF88E10FB6F89452
:100A900080936000109260000FBE90E080E80FB677
:100AA000F89480936100909361000FBE0E94D90A70
:100AB0000E9485070E94EC078091E2008460809389
:100AC000E20078948091B8018430E1F70E94DB0A5B
:100AD00081E091E00E94900A0E9405170BC00E94DD
:100AE00068168091B601882329F00E949016811122
:100AF0000E94D7058091B801853089F30E94E10AF0
:100B0000F9CF292F332723303105B1F04CF42130B0
:100B1000310509F439C02230310509F03AC007C067
:100B20002132310539F12232310539F132C0E2E2A8
:100B3000F0E084E692E036C099278130910561F0BB
:100B40008230910581F0892B21F5E0E6F2E0E49115
:100B5000F0E080E692E026C0E4E4F2E0E491F0E028
:100B600084E492E01FC0E0E2F2E0E491F0E080E291
:100B700092E018C0662391F00CC061110AC0EFE347
:100B8000F0E088E992E00EC0E2E1F0E086E892E071
:100B900009C0E0E0F0E080E090E004C0E9E0F0E0CF
:100BA00086E792E0DA018D939C93CF01089584E16A
:100BB00089BD86E189BD09B400FEFDCF8091D800D2
:100BC0008F7D8093D8008091E00082608093E00068
:100BD0008091E00081FDFCCF08958F929F92AF92AB
:100BE000BF92CF92DF92EF92FF92CF935C016B01A5
:100BF0007A010E945307C82F811137C0E114F10414
:100C000039F0F70120813181C21AD30AA20EB31E36
:100C1000812C912C25C08091E80085FD16C0809123
:100C2000E8008E778093E800E114F10449F0F701C1
:100C300080819181880D991D91838083C5E015C0C5
:100C40000E945307882361F00FC0F50181915F0175
:100C50008093F100F1E0CF1AD1088FEF881A980A3B
:100C6000C114D104C1F601C0C82F8C2FCF91FF90C1
:100C7000EF90DF90CF90BF90AF909F908F900895AE
:100C80002091BF013091C0012617370748F0611548
:100C9000710539F42091E8002E772093E80001C017
:100CA000B901FC0120E02CC08091B8018823F1F14A
:100CB0008530F1F18091E80083FD3CC08091E8002F
:100CC00082FD2EC08091E80080FF1AC08091F20062
:100CD0009091F30006C021912093F10061507109B9
:100CE00001966115710519F088309105A0F321E096
:100CF000089709F020E08091E8008E778093E80063
:100D00006115710589F62111CFCF0AC08091B80114
:100D1000882361F0853061F08091E80083FD0AC08E
:100D20008091E80082FFF2CF80E0089582E008958C
:100D300083E0089581E008952091BF013091C001C2
:100D40002617370748F06115710539F42091E8003E
:100D50002E772093E80001C0B901FC0120E02FC0EC
:100D60008091B801882309F440C0853009F43FC060
:100D70008091E80083FD3DC08091E80082FD2FC096
:100D80008091E80080FF1BC08091F2009091F300F9
:100D900007C024912093F1003196615071090196AA
:100DA0006115710519F08830910598F321E00897D5
:100DB00009F020E08091E8008E778093E8006115CB
:100DC000710571F62111CCCF0AC08091B80188233A
:100DD00061F0853061F08091E80083FD0AC0809168
:100DE000E80082FFF2CF80E0089582E0089583E07A
:100DF000089581E00895982F2CC09093E9009817EA
:100E000039F07091EC002091ED005091F00003C09A
:100E1000242F762F50E021FD02C09F5F1AC0309131
:100E2000EB003E7F3093EB003091ED003D7F30933F
:100E3000ED003091EB0031603093EB007093EC00EB
:100E40002093ED005093F0002091EE0027FDE5CFB8
:100E500007C0973090F28F708093E90081E0089589
:100E600080E008958091B90187FD05C08091E80078
:100E700080FF0EC012C08091E80082FD05C0809105
:100E8000B8018111F8CF08958091E8008B7708C0F0
:100E90008091B8018111EACF08958091E8008E77A2
:100EA0008093E80008958091E4009091E50045E684
:100EB0002091EC0020FD1FC023C02091B801222307
:100EC00091F0253091F02091EB0025FD10C020918C
:100ED000E4003091E5002817390751F34150C9016A
:100EE00039F784E0089582E0089583E0089581E071
:100EF000089580E008952091E80020FFDECFF9CF2B
:100F00002091E80022FFD9CFF4CF0E94FB070E9476
:100F10000308E0EEF0E0808181608083E8EDF0E09E
:100F200080818F77808319BCA7EDB0E08C918E7F94
:100F30008C9380818F7E80831092B7010895CF9229
:100F4000DF92EF92FF920E94FB070E94030888ED58
:100F5000E82EF12CF70180818F7780838081806873
:100F6000808380818F7D8083E7EDF0E080818068E1
:100F7000808319BC1092B8011092B4011092B6018E
:100F80001092B50190EEC92ED12CF60180818B7F95
:100F90008083F70180818160808342E060E080E0AF
:100FA0000E94FB06E1EEF0E080818E7F8083E2EE1E
:100FB000F0E0808181608083808188608083F60199
:100FC00080818E7F8083F701808180618083FF90A4
:100FD000EF90DF90CF900895E8EDF0E080818F7E74
:100FE0008083E7EDF0E080818160808381E0809301
:100FF000B7010C949F07E8EDF0E080818C7F80833F
:101000001092E20008951092DA001092E100089523
:101010001F920F920FB60F9211240BB60F922F93BF
:101020003F934F935F936F937F938F939F93AF9370
:10103000BF93EF93FF938091E10082FF0BC08091FB
:10104000E20082FF07C08091E1008B7F8093E10086
:101050000E948F0A8091DA0080FF1FC08091D80023
:1010600080FF1BC08091DA008E7F8093DA00809130
:10107000D90080FF0DC084E189BD86E189BD09B436
:1010800000FEFDCF81E08093B8010E94700405C08E
:1010900019BC1092B8010E947E048091E10080FF8B
:1010A00019C08091E20080FF15C08091E2008E7F20
:1010B0008093E2008091E20080618093E200809161
:1010C000D80080628093D80019BC85E08093B80175
:1010D0000E9482048091E10084FF30C08091E20090
:1010E00084FF2CC084E189BD86E189BD09B400FE7E
:1010F000FDCF8091D8008F7D8093D8008091E10052
:101100008F7E8093E1008091E2008F7E8093E200E9
:101110008091E20081608093E2008091B401882395
:1011200011F084E007C08091E30087FF02C083E0F4
:1011300001C081E08093B8010E9484048091E100A5
:1011400083FF29C08091E20083FF25C08091E100E8
:10115000877F8093E10082E08093B8011092B40110
:101160008091E1008E7F8093E1008091E2008E7F8C
:101170008093E2008091E20080618093E20042E08F
:1011800060E080E00E94FB068091F0008860809320
:10119000F0000E948104FF91EF91BF91AF919F9168
:1011A0008F917F916F915F914F913F912F910F9010
:1011B0000BBE0F900FBE0F901F9018951F920F92AD
:1011C0000FB60F9211240BB60F922F933F934F93AC
:1011D0005F936F937F938F939F93AF93BF93CF93BF
:1011E000EF93FF938091E9008F709091EC0090FF56
:1011F00002C090E801C090E0C92FC82B1092E9000E
:101200008091F000877F8093F00078940E942609F7
:101210001092E9008091F00088608093F000CF7018
:10122000C093E900FF91EF91CF91BF91AF919F9152
:101230008F917F916F915F914F913F912F910F907F
:101240000BBE0F900FBE0F901F9018951F93CF935A
:10125000DF93CDB7DEB7AC970FB6F894DEBF0FBE05
:10126000CDBFE9EBF1E08091F100819321E0E13C19
:10127000F207C9F70E9491048091E80083FF37C10B
:101280008091B9019091BA01953009F488C038F481
:101290009130B1F170F0933009F029C131C098302C
:1012A00009F4F8C0993009F404C1963009F01FC15F
:1012B0009DC0803821F0823809F019C108C08091A2
:1012C000B5019091B601992389F082600FC0809199
:1012D000BD019091BE018F7099278093E9008091A4
:1012E000EB0085FB882780F91092E9009091E800D7
:1012F000977F9093E8008093F1001092F100D5C0A1
:10130000882319F0823009F0F2C08F7121F0823009
:1013100009F0EDC00BC08091BB01813009F0E7C03E
:10132000933009F080E08093B6012FC08091BB011B
:1013300081112BC08091BD019091BE018F709927C2
:10134000009709F4D4C08093E9002091EB0020FFBE
:101350001CC02091BA01233021F48091EB008062FF
:1013600012C09091EB0090619093EB0021E030E08F
:1013700001C0220F8A95EAF72093EA001092EA0052
:101380008091EB0088608093EB001092E9008091DF
:10139000E800877F8093E8000E943207A8C081118F
:1013A000A6C08091BB019091BC018F779927182F1F
:1013B0009091E3009078982B9093E3008091E8005F
:1013C000877F8093E8000E9432078091E80080FFC9
:1013D000FCCF8091E30080688093E300112311F03B
:1013E00083E001C082E08093B80181C080588230E0
:1013F00008F07DC08091BB019091BC018C3D23E041
:10140000920779F583E08A838AE289834FB7F8945B
:10141000DE01139620E03EE051E2E32FF0E050932E
:101420005700E49120FF03C0E295EF703F5FEF703B
:101430008E2F90E0EA3010F0C79601C0C0968D93D1
:101440009D932F5F243149F74FBF8091E800877F3C
:101450008093E8006AE270E0CE0101960E944006A7
:1014600013C0AE01455D5F4F6091BD010E948105D3
:101470000097E9F12091E800277F2093E800BC0164
:101480008BA59CA50E949C068091E8008B77809399
:10149000E8002DC0803859F58091E800877F80935F
:1014A000E8008091B4018093F1008091E8008E778C
:1014B00071CF81111CC09091BB019230C0F480911A
:1014C000E800877F8093E8009093B4010E94320780
:1014D0008091B401811104C08091E30087FF02C0B4
:1014E00084E001C081E08093B8010E948C04809167
:1014F000E80083FF0AC08091E800877F8093E800BE
:101500008091EB0080628093EB00AC960FB6F8946C
:10151000DEBF0FBECDBFDF91CF911F91089508951B
:1015200090933B0180933A010895E0913A01F09144
:101530003B01309721F00190F081E02D099480E08B
:101540000895E0913A01F0913B01309721F002803B
:10155000F381E02D0994089520913C0130913D01E3
:101560008217930771F090933D0180933C01E091C5
:101570003A01F0913B01309721F00680F781E02D90
:101580000994089520913E0130913F0182179307FD
:1015900071F090933F0180933E01E0913A01F09108
:1015A0003B01309721F00084F185E02D09940895E6
:1015B00008950C94D80A0E94A7160C9477020C94F4
:1015C000C9032F923F924F925F926F927F928F92B8
:1015D0009F92AF92BF92CF92DF92EF92FF920F93C2
:1015E0001F93CF93DF93CDB7DEB72A970FB6F8944A
:1015F000DEBF0FBECDBF0E94A30290E4492E91E052
:10160000592E20E5A22E21E0B22EE12CF12C22242D
:101610002394312C0E2D8E2D0E94BF036C01F201FC
:10162000819091902F01882699268114910409F4C4
:101630005AC08E2D0E94BF033C010197862197213D
:10164000892B09F48FC010E0101304C01F5F1830FD
:10165000D9F788C0812F0E94BF0386219721892B4B
:10166000A9F388C0F501808191818C159D0511F049
:101670000E94C803F501D182C08235C00E94C80310
:1016800080E090E03101082E02C0660C771C0A94BD
:10169000E2F7930128213921232B09F18E830F834F
:1016A000C620D72081E0CD2809F480E088870E94F9
:1016B000B0168160782F9A8789874E815F8168850F
:1016C0008A850E94D80BF701EE0FFF1FE05CFE4FEA
:1016D0008081918186259725918380831FC0019603
:1016E0008031910579F6FFEFEF1AFF0A82E0A80E2C
:1016F000B11CE8E0EE16F10409F08CCF8FEF89837E
:101700008A831B820E94B0168160782F9D838C8310
:1017100049815A816B818D810E94D80B10916001A3
:101720000E94950A181759F10E94950A809360014A
:101730002A960FB6F894DEBF0FBECDBFDF91CF91D2
:101740001F910F91FF90EF90DF90CF90BF90AF90DF
:101750009F908F907F906F905F904F903F902F90D1
:101760000C94DF0AF501D182C0828091AC0181FF27
:1017700087CF84CF8091AC0181FD74CF7BCF2A9637
:101780000FB6F894DEBF0FBECDBFDF91CF911F9192
:101790000F91FF90EF90DF90CF90BF90AF909F9010
:1017A0008F907F906F905F904F903F902F90089513
:1017B000CF93DF93CDB7DEB72B970FB6F894DEBF8C
:1017C0000FBECDBF4F83588769877A878B87DE012D
:1017D000119686E0FD0111928A95E9F785E0FE01F8
:1017E000379601900D928A95E1F749815A816B8174
:1017F0007C818D819E810E946C122B960FB6F8948D
:10180000DEBF0FBECDBFDF91CF910895882309F4CD
:1018100091C0982F9450913A18F40E94F1140EC080
:10182000982F905E983060F4282F277081E090E028
:1018300001C0880F2A95EAF70E9437150C9473159A
:10184000982F955A933070F4853A29F0863A31F4FE
:1018500082E890E005C081E890E002C083E890E073
:101860000C94AC0A982F985A933108F063C0883AC8
:1018700039F1893A41F18A3A49F18B3A51F18C3A7E
:1018800059F18D3A61F1803B69F18E3A71F18F3AED
:1018900079F1813B81F1823B89F1833B91F1843B7A
:1018A00099F1853BA1F1863BA9F1873BB1F1883BDA
:1018B000B9F1893BC1F18A3BC9F58AE292E038C0AF
:1018C00082EE90E035C089EE90E032C08AEE90E082
:1018D0002FC085EB90E02CC086EB90E029C087EB11
:1018E00090E026C08CEC90E023C08DEC90E020C00E
:1018F00083E891E01DC08AE891E01AC082E991E096
:1019000017C084E991E014C081E292E011C083E243
:1019100092E00EC084E292E00BC085E292E008C043
:1019200086E292E005C087E292E002C080E090E0AB
:101930000C94C20A0895882331F1982F9450913A5B
:1019400018F40E9413150EC0982F905E983060F422
:10195000282F277081E090E001C0880F2A95EAF7D0
:101960000E943D150C947315982F955A933020F4CE
:1019700080E090E00C94AC0A885A833120F480E037
:1019800090E00C94C20A0895882321F00E94371534
:101990000C9473150895882321F00E943D150C9432
:1019A000731508958F929F92AF92BF920F931F93DA
:1019B000CF93DF9300D000D000D0CDB7DEB75C016D
:1019C00085E0F501DE01119601900D928A95E1F70F
:1019D000F501308121819280158112951F708381DC
:1019E0009481892B39F02F3F41F481E090E03F3F13
:1019F00031F003C081E090E002C080E090E080FD23
:101A000094C239832A8389819A810E94AC14092F58
:101A10008E830E94AB140E94D513202F22952F7025
:101A200030E06E812830310509F4A2C044F4223040
:101A30003105A4F0243031050CF077C23DC02C30C4
:101A4000310509F44AC22CF42A3031050CF46DC278
:101A500086C12F30310509F068C254C2802F807FC3
:101A6000102F1F70882311F01295107F992059F0C4
:101A7000112309F40DC2812F6E830E944A150E9422
:101A800073156E8105C2862F0E949B0C112309F4E9
:101A90004CC2812F0E94501526960FB6F894DEBFD7
:101AA0000FBECDBFDF91CF911F910F91BF90AF902F
:101AB0009F908F900C947315802F807F0F708032D1
:101AC00011F00295007F662321F0613009F041C0DA
:101AD00021C09920B1F0802F111101C026C0113012
:101AE00021F526960FB6F894DEBF0FBECDBFDF916D
:101AF000CF911F910F91BF90AF909F908F900C94BA
:101B00005A15111101C003C0113009F40EC20E9410
:101B10005D152CC09920C9F0163008F006C20E944D
:101B20003415802309F022C0802F26960FB6F89432
:101B3000DEBF0FBECDBFDF91CF911F910F91BF9040
:101B4000AF909F908F900C94C40C153008F0EDC1AD
:101B50000DC0992049F0112339F3F501858180FFEB
:101B600097C18F708583E0CF1111A6C1802F13C15B
:101B7000802F837009F076C09110D7C1262F22954F
:101B800026952770220F220F862F8F70882E912C7A
:101B9000A12CB12C022E04C0880C991CAA1CBB1CC1
:101BA0000A94D2F764FF10C06FE070E080E090E02C
:101BB00004C0660F771F881F991F2A95D2F760957A
:101BC00070958095909503C060E070E0CB01202F68
:101BD000269526952370422F50E042305105D1F0D2
:101BE0004330510559F1682979298A299B294130C7
:101BF000510541F126960FB6F894DEBF0FBECDBF5A
:101C0000DF91CF911F910F91BF90AF909F908F90D8
:101C10000C94E813682979298A299B2926960FB6FE
:101C2000F894DEBF0FBECDBFDF91CF911F910F9112
:101C3000BF90AF909F908F900C94FA130E94E8137E
:101C4000C501B40126960FB6F894DEBF0FBECDBF16
:101C5000DF91CF911F910F91BF90AF909F908F9088
:101C60000C94D613992019F0802F817001C08695AD
:101C7000882309F45AC1262F229526952770220F12
:101C8000220F862F8F70882E912CA12CB12C022E22
:101C900004C0880C991CAA1CBB1C0A94D2F764FFD0
:101CA00010C06FE070E080E090E004C0660F771F26
:101CB000881F991F2A95D2F7609570958095909509
:101CC00003C060E070E0CB01202F2695269523709D
:101CD000422F50E042305105D1F04330510559F1C7
:101CE000682979298A299B294130510541F1269695
:101CF0000FB6F894DEBF0FBECDBFDF91CF911F911D
:101D00000F91BF90AF909F908F900C94871468298B
:101D100079298A299B2926960FB6F894DEBF0FBE33
:101D2000CDBFDF91CF911F910F91BF90AF909F904A
:101D30008F900C9499140E948714C501B4012696C3
:101D40000FB6F894DEBF0FBECDBFDF91CF911F91CC
:101D50000F91BF90AF909F908F900C947514603F3F
:101D600051F120F4603E08F48EC008C0623F09F4CF
:101D700063C0E0F1633F09F086C061C0162F1F7099
:101D8000802F8F71992021F00E942014812FCDCEB9
:101D90000E943B14812F26960FB6F894DEBF0FBE2B
:101DA000CDBFDF91CF911F910F91BF90AF909F90CA
:101DB0008F900C94CB0C9920A9F0153008F0B5C089
:101DC000802F8F7126960FB6F894DEBF0FBECDBF61
:101DD000DF91CF911F910F91BF90AF909F908F9007
:101DE0000C945A14163008F0A0C0EACF992091F054
:101DF000802F8F7126960FB6F894DEBF0FBECDBF31
:101E0000DF91CF911F910F91BF90AF909F908F90D6
:101E10000C942014802F8F7126960FB6F894DEBF95
:101E20000FBECDBFDF91CF911F910F91BF90AF90AB
:101E30009F908F900C943B149110ECCFD9CF9920A8
:101E400091F0802F8F7126960FB6F894DEBF0FBEEB
:101E5000CDBFDF91CF911F910F91BF90AF909F9019
:101E60008F900C94111426960FB6F894DEBF0FBE17
:101E7000CDBFDF91CF911F910F91BF90AF909F90F9
:101E80008F900C940C149920A1F0112309F4B0CF79
:101E9000862F26960FB6F894DEBF0FBECDBFDF911A
:101EA000CF911F910F91BF90AF909F908F900C9406
:101EB000060C112309F4AECF862F26960FB6F894A0
:101EC000DEBF0FBECDBFDF91CF911F910F91BF90AD
:101ED000AF909F908F900C949B0C402F4F70C5013A
:101EE0000E94651626960FB6F894DEBF0FBECDBFD2
:101EF000DF91CF911F910F91BF90AF909F908F90E6
:101F00000C942213402F4F70C50126960FB6F894FB
:101F1000DEBF0FBECDBFDF91CF911F910F91BF905C
:101F2000AF909F908F900C94D40126960FB6F894A2
:101F3000DEBF0FBECDBFDF91CF911F910F91BF903C
:101F4000AF909F908F9008950E9457150E9426157C
:101F50000C9473150E9447150C94A40F0E94AC14A6
:101F6000292F22952F7030E02C3031054CF42A3087
:101F700031056CF4225031092230310590F407C04C
:101F80002C30310551F02F30310559F406C0803E18
:101F900010F0803F31F481E0089593FB882780F9A9
:101FA000089580E00895CF93DF9300D000D01F9272
:101FB000CDB7DEB70F900F900F900F900F90DF917D
:101FC000CF910895CF93DF9300D000D000D0CDB74C
:101FD000DEB726960FB6F894DEBF0FBECDBFDF91F9
:101FE000CF910895EF92FF92CF9390919701C6E021
:101FF00015C0E92EF12CCE9DF001CF9DF00D1124DE
:10200000E959FE4F408151816281738184819581BC
:102010000E94E20FC7010196982F97708091980156
:102020009813E7CFCF91FF90EF9008954091610111
:10203000509162016091630170916401809165012A
:10204000909166010C94E20F0F931F93CF93DF934F
:102050008091660182958F7009F069C0809163015B
:10206000882309F464C0A0919701D0919801B091A0
:102070006101C0916201809164019091650121E04C
:1020800030E0BF3F11F020E030E0122FBC0160953E
:10209000709506E04AC0009721F0CF3F29F4212F28
:1020A00005C021E030E002C020E030E020FD3BC070
:1020B0004A2F50E0049FF001059FF00D1124E959CB
:1020C000FE4F2181C2132FC02081B2132CC0228168
:1020D000211129C0238134812817390718F0281BC2
:1020E000390B02C0260F371F283C3105E0F48091E0
:1020F00066018F7080618093660186E0849FF001A5
:10210000859FF00D1124E459FE4F80818F7080610E
:10211000808381E691E00E94D20CDF91CF911F91E4
:102120000F910C94F20FAF5FA770AD13B4CFDF9196
:10213000CF911F910F910895CF92DF92EF92FF926E
:10214000CF93DF93CDB7DEB762970FB6F894DEBFBB
:102150000FBECDBF7C0185E0F701DE011D96019029
:102160000D928A95E1F7D7014C9111965C911197E8
:1021700012966C9112971396CD90DC9014977091F3
:102180006101E09162018091640190916501009785
:1021900039F0EF3F41F421E030E07F3F31F003C000
:1021A00021E030E002C020E030E020FD5CC1209161
:1021B0006301222309F4F1C0C816D90628F096015C
:1021C000281B390BC90104C0809590958C0D9D1D6D
:1021D000883C910508F098C080916601982F907F07
:1021E00009F064C0E51314C0741312C0611110C06B
:1021F0008F708061809366010E94161081E691E0E5
:102200000E94D20C80916601D70115968C9343C130
:10221000CD2839F05F3F41F481E090E04F3F31F04D
:1022200003C081E090E002C080E090E080FD03C048
:1022300081E0862702C080E090E080FF2EC0809180
:1022400097012091980136E013C090E0389FF0018B
:10225000399FF00D1124E959FE4F7181571306C0C3
:102260007081471303C07281671317C0019687708E
:102270008213EBCF12C19F7059F0882309F40BC170
:1022800007C09F7029F0F7019581907F09F403C181
:10229000805E883008F4FFC0D2C0662309F4FBC01A
:1022A00080916601816080936601F5C0E51308C0E6
:1022B000741306C0611104C0D70115968C939DC09C
:1022C0004D875E878D859E856A8B0E94AE0F6A89D9
:1022D000882309F4B4C0662309F4B1C020916601D3
:1022E000822F82958F7090E002970CF4C6C0809187
:1022F00061019091620198878F831986DB86CA8677
:102300002C87CE01079646C080916601982F907F5A
:1023100059F47C2DD98AC88A89890E94D30F81E615
:1023200091E00E94D20C95C0E51311C074130FC048
:1023300061110DC0F7018583C7010E94D20CE1E64F
:10234000F1E086E0DF011D928A95E9F7A2C04D8792
:102350005E878D859E856A8B0E94AE0F6A89882371
:1023600009F46DC0662309F46AC020916601822FCA
:1023700082958F7090E002970CF47FC0809161018C
:10238000909162019A8389831B82DD82CC822E83A5
:10239000CE0101960E94D20C70C0C816D90628F052
:1023A0009601281B390BC90104C0809590958C0DAE
:1023B0009D1D883C910508F046C0662309F43FC086
:1023C000E51330C074132EC02091660120FD21C09A
:1023D000322F32953F70832F90E00097D1F0D701D4
:1023E00015962C9315970F9741F0832F8F5F829549
:1023F000807F2F70282B15962C93C7010E94D20C3A
:1024000086E0F701A1E6B1E001900D928A95E1F72F
:102410003EC086E0F701A1E6B1E001900D928A95F9
:10242000E1F737C04D875E878D859E850E94AE0F90
:10243000811123C080916601816080936601C7018C
:102440000E94D20C26C07C2DD98AC88A89890E9414
:10245000D30FE1E6F1E086E0DF011D928A95E9F70E
:102460000E94161018C0662351F34D875E878D8534
:102470009E850E94AE0F882311F386E0F701A1E646
:10248000B1E001900D928A95E1F70E9424100E941C
:10249000161081E014C080E012C04D875E878D85E4
:1024A0009E850E94AC14292F22952F7030E0223097
:1024B00031050CF4E0CE243031050CF6E2CE629604
:1024C0000FB6F894DEBF0FBECDBFDF91CF91FF9066
:1024D000EF90DF90CF9008951F93CF93DF93CDB708
:1024E000DEB72C970FB6F894DEBF0FBECDBF4F837B
:1024F000588769877A878B879C87CE0107960E94C9
:102500009C108823D9F02F8138858A859B85892B5B
:1025100039F03F3F19F080E090E004C02F3FD9F739
:1025200081E090E0892B09F06DC04F815885698565
:102530007A858B859C850E94E20F64C086E0FE014F
:102540003796DE01119601900D928A95E1F7FF8191
:10255000E8854A855B854115510539F0EF3F41F427
:1025600081E090E0FF3F31F003C081E090E002C0E5
:1025700080E090E080FD46C02091980130E0C901E4
:102580000196877099276091970170E086179707E9
:1025900009F440C0F983EA835D834C8396E0929FFF
:1025A000D001939FB00D1124A959BE4FFE01319661
:1025B00001900D929A95E1F7809398010E94F20F95
:1025C00021C0189FC001112489599E4F0E949C1060
:1025D000882371F1E09197011E9FF0011124E959C0
:1025E000FE4F4081518162817381848195810E9477
:1025F000E20F8091970190E0019687709927809370
:10260000970101C016E0809197019091980189137C
:10261000D8CF0EC00E94AA0F109298011092970175
:10262000E1E6F1E086E0DF011D928A95E9F7EACF65
:102630002C960FB6F894DEBF0FBECDBFDF91CF91C1
:102640001F910895CF92DF92EF92FF92CF93DF9385
:102650009C01009709F48EC0D0E0C0E0CC24C39464
:10266000D12C79018FEFE81AF80AF90184918537A6
:1026700009F45BC060F4843708F046C0843008F089
:1026800066C08130A9F0823009F074C026C0883756
:1026900009F45AC038F4863709F44EC0873709F078
:1026A00069C04EC0982F9458903708F063C052C04C
:1026B000F701790182E0E80EF11CE4918E2F805E33
:1026C000883048F4E7708C2D01C0880FEA95EAF74E
:1026D0000E944A1514C08E2F3AC0F701790182E09A
:1026E000E80EF11CE4918E2F805E883058F4E7707C
:1026F0008C2D01C0880FEA95EAF70E9450150E94C0
:1027000073152BC08E2F27C0F701790182E0E80EE8
:10271000F11C949107C0EFE9FFE03197F1F700C099
:10272000000091509111F7CF18C0F701790182E0B4
:10273000E80EF11CC49111C00E943415D82F0DC0B1
:102740008D2F0E944415DBCF0E944715D8CF0E94E1
:10275000060C03C08F770E949B0C9C2F07C09150E2
:10276000EFE9FFE03197F1F700C000009111F7CFDA
:10277000970177CFDF91CF91FF90EF90DF90CF90CF
:10278000089560939D0170939E0180939F019093A3
:10279000A0010C94A40F6093990170939A01809307
:1027A0009B0190939C010C94A40F08950F931F9389
:1027B00000919D0110919E0120919F013091A001F7
:1027C000602B712B822B932B1F910F910C94C113B3
:1027D0000F931F9300919D0110919E0120919F01E5
:1027E0003091A00160237123822393231F910F91C5
:1027F0000C94C1130F931F9300919D0110919E01A2
:1028000020919F013091A001602771278227932793
:102810001F910F910C94C11360E070E0CB010C94F8
:10282000CB1341E050E060E070E004C0440F551F5E
:10283000661F771F8A95D2F7CB01BA010C94CB1390
:1028400041E050E060E070E004C0440F551F661F97
:10285000771F8A95D2F78091990190919A01A09162
:102860009B01B0919C01482B592B6A2B7B2BCB01F0
:10287000BA010C94CB1341E050E060E070E004C07A
:10288000440F551F661F771F8A95D2F740955095C4
:10289000609570958091990190919A01A0919B010A
:1028A000B0919C01482359236A237B23CB01BA01B1
:1028B0000C94CB1341E050E060E070E004C0440FA2
:1028C000551F661F771F8A95D2F7809199019091C5
:1028D0009A01A0919B01B0919C01482759276A2732
:1028E0007B27CB01BA010C94CB130F931F9300915C
:1028F000990110919A0120919B0130919C01602BCC
:10290000712B822B932B1F910F910C94CB130F9350
:102910001F930091990110919A0120919B01309190
:102920009C0160237123822393231F910F910C94A8
:10293000CB130F931F930091990110919A0120914D
:102940009B0130919C0160277127822793271F915B
:102950000F910C94CB1308958F929F92AF92BF92D8
:10296000CF92DF92EF92FF926C0180909D01909048
:102970009E01A0909F01B090A001409199015091BB
:102980009A0160919B0170919C01842A952AA62A44
:10299000B72A8FE1E82EF12CB501A4010E2C04C05A
:1029A00076956795579547950A94D2F740FF08C0EA
:1029B000B6018E2D0E9499158130910509F008C04D
:1029C00081E0E81AF10840F7B60180E00E9499150D
:1029D000FF90EF90DF90CF90BF90AF909F908F903F
:1029E000089540910C0150910D0120E030E09FEFDF
:1029F000FA01E20FF31F62816817A1F09F3F19F4FB
:102A0000611101C0922F2F5F3F4F2630310581F7B2
:102A100007C0FA01E90FF11D97FDFA958283089529
:102A20009F3FB9F7089540910C0150910D0120E0AE
:102A300030E0FA01E20FF31F9281981301C0128275
:102A40002F5F3F4F26303105A1F7089581E090E0D8
:102A5000E0910C01F0910D01E80FF91F1082019631
:102A600088309105A9F708958091A101089590916A
:102A7000A101982B9093A101089580959091A101B7
:102A800098239093A10108958093A1010895109235
:102A9000A10108959091A201982B9093A20108950D
:102AA00080959091A20198239093A201089510928D
:102AB000A20108958093A30108951092A30108959F
:102AC00040910C0150910D0120E030E080E0FA01CE
:102AD000E20FF31F918191118F5F2F5F3F4F2730DE
:102AE0003105A9F70895E0910C01F0910D01809155
:102AF000A1018083E0910C01F0910D018081909102
:102B0000A201892B80839091A301992361F0E09128
:102B10000C01F0910D018081892B80830E9460154A
:102B200081110E945D1580910C0190910D010C9412
:102B3000A10A0E944802982F905C903218F40E94DB
:102B40005A0208958D3B50F4883A18F5853AC0F43E
:102B5000843098F4813009F06FC00CC0883E30F4A6
:102B6000803E58F48F3B09F067C059C0803F08F49D
:102B700063C051C021E030E0A6C0282F30E0A3C0E0
:102B8000853A09F45CC0863A09F05CC022E830E47A
:102B90009AC0883A09F459C0893A09F459C08A3A66
:102BA00009F459C08B3A09F459C08C3A09F459C058
:102BB0008B3B09F459C08C3B09F459C08D3A09F498
:102BC00059C0803B09F459C08E3A09F459C08F3A74
:102BD00009F459C0813B09F459C0823B09F459C03A
:102BE000833B09F459C0843B09F459C0853B09F47F
:102BF00059C0863B09F459C0873B09F459C0883B4A
:102C000009F459C0893B09F459C08A3B09F059C0FD
:102C10002AE236E458C0282F30E0306554C00E94C4
:102C2000AA0F2FEF80E792E0215080409040E1F71B
:102C300000C000000E94E21620E030E044C021E81D
:102C400030E441C023E830E43EC022EE34E43BC02F
:102C500029EE34E438C02AEE34E435C025EB34E400
:102C600032C026EB34E42FC023EB34E42CC024EB39
:102C700034E429C027EB34E426C02CEC34E423C030
:102C80002DEC34E420C023E835E41DC02AE835E407
:102C90001AC022E935E417C024E935E414C021E262
:102CA00036E411C023E236E40EC024E236E40BC061
:102CB00025E236E408C026E236E405C027E236E421
:102CC00002C020E034E4C901089580E090E0089556
:102CD0008091B801843009F11092AD0120E488E1BF
:102CE00090E00FB6F894A895809360000FBE2093F3
:102CF000600083B7817F846083BF83B7816083BFB7
:102D00007894889583B78E7F83BF88E10FB6F89457
:102D100080936000109260000FBE0895089508959A
:102D2000CF930E948E160E94A3020E948F16C0E0CD
:102D30008C2F0E94BF03892B29F4CF5FC830C1F7C5
:102D400080E001C081E0CF9108950C94AA0F82E049
:102D500084BD93E095BD9AEF97BD80936E00089572
:102D60008FB7F8944091AE015091AF016091B001DE
:102D70007091B1018FBFCA0108951F920F920FB6D3
:102D80000F9211248F939F93AF93BF938091AE01C5
:102D90009091AF01A091B001B091B1010196A11D38
:102DA000B11D8093AE019093AF01A093B001B09399
:102DB000B101BF91AF919F918F910F900FBE0F9076
:102DC0001F9018950E948507F8942FEF87EA91E6E7
:102DD000215080409040E1F700C0000087E090EB78
:102DE000DC018093C1019093C201A093C301B09311
:102DF000C4012CE088E190E00FB6F894A895809388
:102E000060000FBE20936000FFCFE1E8F0E080811A
:102E1000886080838081816080838FB7F89493E09D
:102E20009093890090ED909388008FBF0895EFE60E
:102E3000F0E08081826080830895EFE6F0E0808199
:102E40008D7F808308951F920F920FB60F921124E9
:102E50000BB60F922F933F934F935F936F937F9394
:102E60008F939F93AF93BF93EF93FF938091B201A2
:102E70009091B30101969093B3018093B2018111B7
:102E800003C082E00E94C903E091B301E695E69594
:102E9000F0E0E952FD4FE4918091B2018E1303C03E
:102EA00080E00E94C903FF91EF91BF91AF919F9184
:102EB0008F917F916F915F914F913F912F910F90E3
:102EC0000BBE0F900FBE0F901F901895F894FFCF78
:0E2ED00005D0033E04D3030904D40301A4017A
:00000001FF
